:020000040800F2
:10000000282000205D010008E12F0008E32F0008F0
:10001000E72F0008EB2F0008EF2F0008000000007A
:10002000000000000000000000000000F32F0008A6
:10003000F52F000800000000F72F0008F92F000836
:1000400077010008770100087701000877010008B0
:1000500077010008770100087701000877010008A0
:100060007701000877010008770100087701000890
:100070007701000877010008770100087701000880
:100080007701000877010008770100087701000870
:100090007701000877010008770100087701000860
:1000A000770100081347000877010008770100086E
:1000B000FB2F00087701000877010008770100088E
:1000C0007701000877010008770100087701000830
:1000D00077010008A96100082D4B00080B4B0008B0
:1000E0007701000877010008770100087701000810
:1000F0007701000877010008770100087701000800
:1001000077010008770100087701000877010008EF
:1001100077010008770100087701000877010008DF
:1001200077010008770100087701000877010008CF
:10013000DFF80CD007F048FC00480047CB2A000845
:10014000282000204FF0010080F313880148024965
:100150000160FEE70CED00E00400FA050648804768
:1001600006480047FEE7FEE7FEE7FEE7FEE7FEE79C
:10017000FEE7FEE7FEE7FEE75F0200083101000848
:100180000CB50020019000906C48006840F480306D
:100190006A49086000BF6948006800F400300090B8
:1001A0000198401C0190009818B90198B0F5A06F13
:1001B000F1D16248006800F4003010B101200090D5
:1001C00001E0002000900098012843D15C480068BD
:1001D00040F010005A4908600846006820F003000B
:1001E00008600846006840F0020008605348406814
:1001F000524948600846406848600846406840F4F4
:10020000806048600846406820F47C1048600846DA
:10021000406840F4E81048600846006840F080708C
:10022000086000BF4548006800F000700028F9D061
:100230004248406820F00300404948600846406852
:1002400040F00200486000BF3C48406800F00C00ED
:100250000828F9D10CBD10B5FFF792FF10BD10B5FD
:100260003648006840F0010034490860084640689C
:10027000344908403149486008460068324908401E
:100280002E4908600846006820F48020086008466F
:10029000406820F4FE0048604FF41F008860FFF7BC
:1002A000DAFF4FF000602949086010BD10B5002149
:1002B00000200022214B5B6803F00C0121B10429CE
:1002C00006D0082928D107E0214B224C236027E0E3
:1002D0001F4B204C236023E0184B5B6803F4701025
:1002E000164B5B6803F48032022303EB904022B983
:1002F000194B4343174C23600DE0104B5B6803F42C
:10030000003323B1144B4343124C236003E0104BE2
:100310004343104C236003E00D4B0E4C236000BFA1
:1003200000BF064B5B68C3F303130C4CE15C094B45
:100330001B68CB40074C236010BD0000001002403A
:10034000002002400000FFF8FFFFF6FE08ED00E08D
:1003500000127A000000002000093D000400002087
:1003600031490143314A1160704770B500210023C3
:100370000F22C47804B32D4C246804F4E064C4F55F
:10038000E064210AC1F10403CA40447804FA03F18D
:100390008478144021430901254C0678A15504783E
:1003A00004F01F050124AC4005786D11AD0005F186
:1003B000E025C5F8004109E0047804F01F05012498
:1003C000AC401C4D0678761145F8264070BD1A4A9F
:1003D0000A400243154B1B1F1A60704739B1134A7C
:1003E000121D12680243114B1B1D1A6006E00F4AD2
:1003F000121D126882430D4B1B1D1A6070470428A2
:1004000008D14FF0E021096941F004014FF0E022EA
:10041000116107E04FF0E021096921F004014FF07C
:10042000E0221161704700000000FA050CED00E0C9
:1004300000E400E080E100E080FFFF1F10B504460B
:10044000CC48844208D10121042000F02DFB00217A
:10045000042000F029FB46E0C748844208D101216E
:10046000082000F021FB0021082000F01DFB3AE0ED
:10047000C248844208D10121102000F015FB002160
:10048000102000F011FB2EE0BD48844208D101216C
:10049000202000F009FB0021202000F005FB22E0D5
:1004A000B848844208D10121402000F0FDFA002123
:1004B000402000F0F9FA16E0B348844208D1012147
:1004C000802000F0F1FA0021802000F0EDFA0AE02F
:1004D000AE48844207D10121801500F0E5FA0021E1
:1004E000A01500F0E1FA10BD10B50121084600F09A
:1004F000DBFA0021012000F0D7FA10BD2DE9F04110
:10050000024600250026002000230024002791F841
:1005100003C00CF00F0591F803C00CF0100CBCF1F7
:10052000000F03D091F802C04CEA050591F800C015
:10053000BCF1000F31D0146800202BE04FF0010C0B
:100540000CFA00F3B1F800C00CEA03069E4220D179
:1005500083004FF00F0C0CFA03F7BC4305FA03FCC1
:100560004CEA040491F803C0BCF1280F06D14FF007
:10057000010C0CFA00FCC2F814C00AE091F803C0A8
:10058000BCF1480F05D14FF0010C0CFA00FCC2F889
:1005900010C0401C0828D1D31460B1F800C0BCF1D1
:1005A000FF0F34DD546800202EE000F1080C4FF0FE
:1005B000010808FA0CF3B1F800C00CEA03069E42E9
:1005C00021D183004FF00F0C0CFA03F7BC4305FA5E
:1005D00003FC4CEA040491F803C0BCF1280F05D1D8
:1005E00000F1080C08FA0CF8C2F8148091F803C066
:1005F000BCF1480F07D100F1080C4FF0010808FAD0
:100600000CF8C2F81080401C0828CED35460BDE816
:10061000F0814FF6FF710180022181700421C170C9
:1006200070470246002093680B400BB1012000E0A8
:10063000002070470146886880B27047024600205B
:10064000D3680B400BB1012000E000207047014649
:10065000C86880B2704701617047416170470AB154
:10066000016100E041617047C16070474FF4803222
:100670000A438261816182618269826970470246B0
:100680000020434B18684FF68073184040EA021070
:1006900008433F4B186070473E49C8617047F0B54A
:1006A0000A46002300240021002500F00046B6F190
:1006B000004F02D1364EF16901E0354E7168C0F34A
:1006C000034583B200F44016B6F5401F08D121F06F
:1006D00070612F4E766826F070662D4F7E6012E0B6
:1006E00000F48016B6F5801F06D1032606FA05F43D
:1006F000A14341F0706106E0460D360103FA06F6AB
:10070000B14341F0706122B1460D360103FA06F69D
:10071000314300F00046B6F1004F02D11C4EF161AA
:1007200001E01B4E7160F0BD30B500228B071C0F3D
:100730000F2303FA04F2164B08338C1053F82430BD
:100740009343134C08348D1044F8253023468C1005
:1007500053F824308C07240F00FA04F423430C4C84
:1007600008348D1044F8253030BD0A49DC3108606A
:100770007047000000080140000C014000100140DB
:100780000014014000180140001C014000200140FD
:100790000000014000002042DF48006840F00100F6
:1007A000DD49086008464068DC490840DA4948608D
:1007B00008460068DA490840D749086008460068DA
:1007C00020F4802008600846406820F4FE0048605D
:1007D0004FF41F0088607047CF49096821F48031C9
:1007E000CD4A11601146096821F480211160B0F5ED
:1007F000803F03D0B0F5802F0ED106E0C6490968CE
:1008000041F48031C44A116007E0C349096841F4EA
:10081000A021C14A116000E000BF00BF704710B5C1
:1008200001460022002300204A11012A02D1BA4CBD
:10083000236806E0022A02D1B74C236A01E0B64CD5
:10084000636A01F01F02012494401C400CB1012096
:1008500000E0002010BD38B50020009000240025E5
:1008600000BF3120FFF7DBFF05460098401C0090D9
:100870000098B0F5A06F01D0002DF2D03120FFF725
:10088000CEFF08B1012400E00024204638BD014617
:100890000020A14A106820F0F80040EAC100106072
:1008A0007047A04908607047024600209A4B58687C
:1008B00020F47C1042EA01031843974B58607047BC
:1008C00098490866704701460020934A506820F016
:1008D00003000843506070478F48406800F00C00E8
:1008E0007047014600208C4A506820F0F000084311
:1008F0005060704701460020874A506820F4E0604D
:1009000008435060704701460020834A506820F435
:10091000605040EAC1005060704729B17E4A527A67
:1009200002437D4B5A7204E07B4A527A82437A4BEF
:100930005A7270477B49D8310860704701460020E1
:10094000754A506820F440400843506070470021C9
:10095000714A20321170704A82F82010012802D0AA
:1009600004280AD104E001216B4A2032117005E00D
:100970000521694A2032117000E000BF00BF7047B6
:100980006949086070476449096A0143624A116213
:100990007047654944390860704730B5002100222E
:1009A000002400235C4D6D6805F00C0121B1042981
:1009B00005D0082923D105E05C4D056022E05B4DA0
:1009C00005601FE0544D6D6805F47012524D6D685E
:1009D00005F48034022505EB92421CB9544D554371
:1009E00005600BE04C4D6D6805F400351DB1504DB0
:1009F0005543056002E04D4D5543056002E04B4D07
:100A0000056000BF00BF444D6D6805F0F0010909A5
:100A1000484D6B5C0568DD4045603F4D6D6805F4F1
:100A2000E061090A434D6B5C4568DD4085603A4DE5
:100A30006D6805F46051C90A3E4D6B5C4568DD4048
:100A4000C560354D6D6805F44041890B3A4D6B5CCE
:100A5000C568B5FBF3F5056130BD29B12E4A526971
:100A600002432D4B5A6104E02B4A526982432A4BC0
:100A70005A61704729B1284A92690243264B9A610C
:100A800004E0254A92698243234B9A61704729B159
:100A9000214AD2690243204BDA6104E01E4AD2693E
:100AA00082431D4BDA61704729B11B4AD268024369
:100AB000194BDA6004E0184AD2688243164BDA60B8
:100AC000704729B1144A12690243134B1A6104E0BA
:100AD000114A12698243104B1A617047124940391A
:100AE000086070470F49C86470470B49C871704768
:100AF0000948406A40F080700749486270470146E3
:100B00000020054A92680A400AB1012000E0002056
:100B10007047014988727047001002400000FFF8DA
:100B2000FFFFF6FE000042428004424200127A00BB
:100B300000093D00140000202400002010B50446E8
:100B4000FB48844209D101218803FFF7ADFF002152
:100B50004FF48040FFF7A8FF32E0F648844209D105
:100B600001214804FFF7ADFF00214FF40030FFF7EB
:100B7000A8FF25E0F048844209D101218804FFF74D
:100B8000A0FF00214FF48020FFF79BFF18E0EB4807
:100B9000844209D10121C804FFF793FF00214FF4DB
:100BA0000020FFF78EFF0BE0E548844208D10121C9
:100BB0000805FFF786FF00214FF48010FFF781FF43
:100BC00010BD2DE9F04786B005460E460024A2462A
:100BD00000BFA1460027B08900B100BF2F462C8A74
:100BE0004CF6FF700440F08804432C82AC894EF62A
:100BF000F3100440B08831890843718908430443E5
:100C0000AC81AC8A4FF6FF400440B0890443AC820B
:100C100001A8FFF7C2FEC648874202D1DDF810A046
:100C200001E0DDF80CA0A88900F4004040B10AEB17
:100C3000CA0000EB0A1031684900B0FBF1F807E088
:100C40000AEBCA0000EB0A1031688900B0FBF1F82A
:100C50006420B8FBF0F004012009642101FB108935
:100C6000A88900F4004040B1322000EBC900B0FB7D
:100C7000F1F000F00700044308E0322000EB091017
:100C80006421B0FBF1F000F00F0004432C8106B0AA
:100C9000BDE8F0874FF41651016000218180C180CA
:100CA00001810C21418100218181704710B50246EC
:100CB0000020108A4FF2FF0318400B884C88234312
:100CC0008C882343CC8823431843108210BD002115
:100CD000018041808180C180704721B1828942F4C6
:100CE0000052828104E082894DF6FF731A408281AE
:100CF0007047F0B50346002400260025002040F68A
:100D00006A17B94200D100BF1846C1F3421401F07E
:100D10001F06012707FA06F5012C01D10C3004E06B
:100D2000022C01D1103000E014301AB107682F43B3
:100D3000076002E00768AF430760F0BD1AB1838A1D
:100D40000B43838202E0838A8B4383827047028A4B
:100D50004FF6F0731A400282028A0A4302827047F9
:100D600082894FF2FF731A40828182890A4382810D
:100D7000704721B1828942F00202828104E08289B7
:100D80004FF6FD731A4082817047028A4FF6DF7377
:100D90001A400282028A0A430282704721B1028A03
:100DA00042F48042028204E0028A4BF6FF731A404A
:100DB00002827047C1F3080282807047014688882A
:100DC000C0F308007047818941F0010181817047BB
:100DD000028BD2B20283028B42EA01220283704765
:100DE000028B02F47F420283028B0A430283704724
:100DF00021B1828A42F02002828204E0828A4FF688
:100E0000DF731A408282704721B1828A42F0100259
:100E1000828204E0828A4FF6EF731A408282704722
:100E200021B1828A42F00802828204E0828A4FF66F
:100E3000F7731A408282704721B1828942F40042DE
:100E4000828103E08289C2F30E028281704721B160
:100E5000828A42F40062828204E0828A4FF2FF7347
:100E60001A4082827047828A4FF6FB731A40828250
:100E7000828A0A438282704721B1828A42F002024A
:100E8000828204E0828A4FF6FD731A4082827047A4
:100E900002460020B1F5007F00D100BF13880B404F
:100EA0000BB1012000E00020704701F40072B2F5A0
:100EB000007F00D100BFCA430280704770B5024670
:100EC000002400230025002040F66A16B14200D11C
:100ED00000BFC1F3421501F01F03012606FA03F318
:100EE000012D02D19689334006E0022D02D1168AE7
:100EF000334001E0968A33400C12012606FA04F4CE
:100F00001688344013B10CB1012000E0002070BD00
:100F100010B50022002340F66A14A14200D100BFA0
:100F20000A1201249440A3B2DC43048010BD0000E7
:100F3000003801400044004000480040004C0040A0
:100F40000050004010B50446FA48844208D10121FF
:100F50004015FFF7A9FD00216015FFF7A5FD17E07B
:100F6000F548844208D101210015FFF79DFD0021BD
:100F70002015FFF799FD0BE0F048844208D10121CC
:100F8000C803FFF791FD00214FF40040FFF78CFDEF
:100F900010BD30B50246002000235068E84C2040C8
:100FA0000D790C6844EA0524204350609068E54CB4
:100FB0002040D1E902542C434D7944EA45042043B2
:100FC0009060D06A20F470000C7C641EE4B223436D
:100FD00040EA0350D06230BD0021016001714171CF
:100FE0008160C16001210174704721B1826842F0C3
:100FF0000102826003E0826822F001028260704791
:1010000021B1826842F48072826003E0826822F437
:1010100080728260704710B50023CBB21AB1446869
:101020001C43446002E044689C43446010BD8168F6
:1010300041F0080181607047014600208A6802F093
:1010400008020AB1012000E000207047816841F0E9
:10105000040181607047014600208A6802F00402A2
:101060000AB1012000E00020704721B1826842F4FB
:10107000A002826003E0826822F4A00282607047CE
:10108000014600208A6802F480020AB1012000E0D3
:101090000020704710B50A4600210023416821F462
:1010A0006041531E41EA4331416010BD21B14268A5
:1010B00042F40062426003E0426822F4006242604F
:1010C0007047F0B504460D4600200021092D11DDC2
:1010D000E068A5F10A0606EB4607072606FA07F1BF
:1010E0008843A5F10A0606EB460603FA06F1084313
:1010F000E0600CE0206905EB4507072606FA07F1DA
:10110000884305EB450603FA06F108432061072AE8
:101110000FDA606B561E06EB86071F2606FA07F1EC
:101120008843561E06EB860605FA06F108436063FF
:1011300022E00D2A0FDA206BD61F06EB86071F264A
:1011400006FA07F18843D61F06EB860605FA06F174
:101150000843206310E0E06AA2F10D0606EB860763
:101160001F2606FA07F18843A2F10D0606EB860654
:1011700005FA06F10843E062F0BD21B1826842F44D
:101180008012826003E0826822F4801282607047DD
:101190000146C86C80B2704766484C3000687047A2
:1011A00021B1426842F48062426003E0426822F466
:1011B00080624260704721B1426842F480524260CE
:1011C00003E0426822F48052426070470A460021E0
:1011D000816821F4E04111438160704721B1826848
:1011E00042F40042826003E0826822F4004282609E
:1011F000704721B1826842F40212826003E0826883
:1012000022F4021282607047014600208A6802F4CC
:1012100000120AB1012000E000207047F0B504463A
:101220001546002000220026092911DDE068A1F101
:101230000A0707EB470C072707FA0CF29043A1F1C6
:101240000A0707EB470703FA07F21043E0600CE0D8
:10125000206901EB410C072707FA0CF2904301EBE0
:10126000410703FA07F210432061A06BC0F3015657
:10127000EF1C06F1010CA7EB0C0707EB870C1F27EF
:1012800007FA0CF29043EF1C06F1010CA7EB0C07D8
:1012900007EB870701FA07F21043A063F0BD10B512
:1012A0000A4600210023816B21F44011531E41EABC
:1012B0000351816310BD08B5002300930090009B8B
:1012C0000B440093009B1A6008BD08B5024600203D
:1012D0000090009201F12800009B184400900098B3
:1012E000006880B208BD0A4600214168164B1940CB
:1012F0001143416070474162826270470A46002193
:10130000416821F01F0111434160704740B1094914
:101310000831096841F40001064A0832116007E00B
:1013200004490831096821F40001024A08321160B9
:10133000704700000024014000280140003C0140AB
:10134000FFFEF0FFFDF7F1FFFFFD3FFF024600202B
:1013500013680B400BB1012000E000207047CA4326
:101360000260704770B502460020002300240B1273
:101370005568CEB205EA060415681D4015B10CB1DA
:10138000012000E0002070BD00220A12D343036058
:101390007047000010B50446FE48844208D1012180
:1013A000C014FFF781FB0021E014FFF77DFBC4E0D0
:1013B000B4F1804F08D101210846FFF782FB0021DC
:1013C0000120FFF77EFBB8E0F348844208D10121F9
:1013D0000220FFF776FB00210220FFF772FBACE052
:1013E000EE48844208D101210420FFF76AFB002166
:1013F0000420FFF766FBA0E0E948844208D1012100
:101400000820FFF75EFB00210820FFF75AFB94E05D
:10141000E448844208D101211020FFF752FB00214B
:101420001020FFF74EFB88E0DF48844208D10121FD
:101430002020FFF746FB00212020FFF742FB7CE045
:10144000DA48844208D101214014FFF72DFB002126
:101450006014FFF729FB70E0D548844209D10121CF
:10146000C804FFF721FB00214FF40020FFF71CFB0D
:1014700063E0D048844209D101210805FFF714FB3D
:1014800000214FF48010FFF70FFB56E0CA4884425A
:1014900009D101214805FFF707FB00214FF4001097
:1014A000FFF702FB49E0C548844208D101214020F2
:1014B000FFF707FB00214020FFF703FB3DE0C0489A
:1014C000844208D101218020FFF7FBFA002180200F
:1014D000FFF7F7FA31E0BB48844208D101218015BB
:1014E000FFF7EFFA0021A015FFF7EBFA25E0B64869
:1014F000844209D101210804FFF7D6FA00214FF4F4
:101500008030FFF7D1FA18E0B048844209D10121B8
:101510004804FFF7C9FA00214FF40030FFF7C4FA7E
:101520000BE0AB48844208D101218804FFF7BCFAE4
:1015300000214FF48020FFF7B7FA10BD0022028887
:10154000944B98420ED0994B98420BD0B0F1804FFB
:1015500008D0914B984205D0904B984202D0904BC6
:10156000984204D14FF68F731A404B881A438D4B23
:10157000984207D08C4B984204D04FF6FF431A4054
:10158000CB881A4302808B8883850B880385814B27
:1015900098420BD0854B984208D08B4B984205D08F
:1015A0008A4B984202D08A4B984201D10B7A03862B
:1015B00001238382704770B5002400220023058C2C
:1015C0004FF6FE7635400584028C8388048B4FF6F7
:1015D0008F752C40B51E2C400D882C43751E2A405B
:1015E0000D892A434D882A436A4DA8420BD06F4D7E
:1015F000A84208D0744DA84205D0744DA84202D02C
:10160000734DA84213D14FF6F7752A404D892A43EE
:101610004FF6FB752A408D882A434FF6FF652B4015
:101620004FF6FF552B408D892B43CD892B4383806B
:101630000483CD888586028470BD70B500240022A5
:101640000023058C4FF6EF7635400584028C8388A5
:10165000048B48F6FF752C404FF6FF452C400D8853
:101660004FF6FF7606EA05252C434FF6DF752A4034
:101670000D8906EA05152A434D8806EA05152A4311
:10168000444DA84202D0494DA8421DD14FF67F7566
:101690002A404D894FF6FF7606EA05152A434FF694
:1016A000BF752A408D8806EA05152A434FF6FF3597
:1016B0002B404FF2FF752B408D8906EA85052B43A1
:1016C000CD8906EA85052B4383800483CD88058771
:1016D000028470BD70B5002400220023058C4FF6F3
:1016E000FF6635400584028C8388848B4FF68F75A6
:1016F0002C404FF6FC752C400D882C434FF6FF55BF
:101700002A400D894FF6FF7606EA05252A434D88C3
:1017100006EA05252A431F4DA84202D0234DA842C0
:101720001DD14FF2FF752A404D894FF6FF7606EA2C
:1017300005252A434FF6FF352A408D8806EA052500
:101740002A434EF6FF752B404DF6FF752B408D89D1
:1017500006EA05152B43CD8906EA05152B43838040
:101760008483CD888587028470BD70B500220023F4
:101770000024058C4EF6FF7635400584038C848862
:10178000828B48F6FF752A404FF6FF452A400D88A8
:1017900020E00000002C0140000400400008004050
:1017A000000C0040001000400014004000340140D4
:1017B000004C01400050014000540140001800401E
:1017C000001C004000200040004001400044014057
:1017D000004801404FF6FF7606EA05252A434DF6FC
:1017E000FF752B400D8906EA05352B434D8806EA27
:1017F00005352B43FA4DA84202D0FA4DA84208D134
:101800004BF6FF752C408D894FF6FF7606EA85155D
:101810002C4384808283CD88A0F84050038470BD1F
:10182000828B4FF2FF331A408283828B4FF6FF7315
:1018300003EA01231A4382837047F0B50C4615462C
:10184000002200210026078C4EF6FF7C07EA0C07D9
:101850000784828B018C4FF6FF7707EA043640F647
:10186000FF473A404FF6FF7707EA05273A434FF61E
:10187000FF7707EA03373A43D94FB8420ED0D94F22
:10188000B8420BD0B0F1804F08D0D74FB84205D046
:10189000D64FB84202D0D64FB84206D14DF6FF77A8
:1018A000394046F48057394305E047F6FF57394041
:1018B00044F48057394382830184F0BD828B4FF614
:1018C000F3731A408283828B0A4382837047F0B598
:1018D0000C461546002200210026078C4FF6FF6CAF
:1018E00007EA0C070784828B018C4FF6FF7707EA23
:1018F00004264FF60C773A404FF6FF7707EA0317B6
:101900002F433A43B64FB8420ED0B64FB8420BD031
:10191000B0F1804F08D0B44FB84205D0B34FB842B1
:1019200002D0B34FB84206D14FF6FF57394046F4C4
:101930008077394305E04FF2FF57394044F4807710
:10194000394382830184F0BD028B4FF2FF331A408A
:101950000283028B4FF6FF7303EA01231A430283CB
:101960007047F0B50C461546002200210026078C72
:101970004FF6EF7C07EA0C070784028B018C4FF6C9
:10198000FF7707EA041640F6FF473A404FF6FF7725
:1019900007EA03373A434FF6FF7707EA05273A434A
:1019A0008F4FB8420ED08F4FB8420BD0B0F1804F5E
:1019B00008D08D4FB84205D08C4FB84202D08C4F22
:1019C000B84206D14FF6DF77394046F01007394369
:1019D00005E04FF65F77394044F010073943028342
:1019E0000184F0BD028B4FF6F3731A400283028B21
:1019F0000A4302837047F0B50C46154600220021C9
:101A0000068C4FF6FE773E400684028B018C4FF623
:101A10000C7632407E1C06EA03162E433243704E8B
:101A2000B0420ED06F4EB0420BD0B0F1804F08D014
:101A30006D4EB04205D06D4EB04202D06C4EB042F9
:101A400006D14FF6FD76314044F00106314305E002
:101A50004FF6F576314044F00106314302830184AC
:101A6000F0BD70B505460C465D4885420ED05D4818
:101A700085420BD0B5F1804F08D05B48854205D038
:101A80005A48854202D05A48854200D100E000BF42
:101A9000208850B92389A28861882846FFF7ABFFC8
:101AA000E1882846FFF79EFF25E0208804280AD118
:101AB0002389A28861882846FFF753FFE1882846DA
:101AC000FFF742FF17E0208808280AD12389A2885F
:101AD00061882846FFF7FBFEE1882846FFF7EEFE07
:101AE00009E02389A28861882846FFF7A6FEE188DD
:101AF0002846FFF795FE70BD2DE9F04105460C46DE
:101B000000260127608808B9022600E00026A08888
:101B1000012801D1022700E001272088A0B92389EC
:101B2000A28861882846FFF766FFE1882846FFF70C
:101B300059FF23893A4631462846FFF712FFE188CC
:101B40002846FFF701FF13E02389A2886188284611
:101B5000FFF707FFE1882846FFF7F6FE23893A469C
:101B600031462846FFF747FFE1882846FFF73AFF4E
:101B7000BDE8F0810A884B881A438B881A43CB88CA
:101B80001A430B891A434B891A438B891A43A0F8CD
:101B9000442070474FF6FF71818000210180C18091
:101BA0004180017270470021018041808180C180A5
:101BB000018141818181C181704700210180418083
:101BC000012181800021C1800181704700210180B5
:101BD00041808180C1800181418181817047000005
:101BE000002C014000340140000400400008004087
:101BF000000C004021B1028842F00102028004E0A2
:101C000002884FF6FE731A400280704731B1B0F877
:101C1000442042F40042A0F8442005E0B0F84420FB
:101C2000C2F30E02A0F8442070471AB183890B4317
:101C3000838102E083898B4383817047818270476F
:101C400041EA0203A0F8483070471AB183890B4378
:101C5000838102E083898B438381704701894FF63A
:101C6000F8721140018170470A46002101894FF640
:101C70008F73194011430181704730B504460D46FA
:101C800029462046FFF7F0FF208940F00700208119
:101C900030BD2DE9F04104460D4616461F46602D25
:101CA00006D13B46012231462046FFF75AFE05E0A9
:101CB0003B46012231462046FFF79DFE294620463D
:101CC000FFF7D2FF208940F007002081BDE8F081B6
:101CD00030B50C4600210189C9B24FF6FF7505EAFF
:101CE0000325154325432943018130BD2DE9F041EA
:101CF00005460E4617469846002443463A46314666
:101D00002846FFF7E5FF2C894FF6F870044044F0B1
:101D100007044FF68F70044044F070042C81BDE836
:101D2000F081F0B504460D4616461F463B46324646
:101D300029462046FFF7CCFF208940F480402081CF
:101D4000F0BD0185828270470A46002101884FF666
:101D50008F731940114301807047F0B50C4615464A
:101D60001E460021002200230189028B038C4FF6BE
:101D7000F877394021434FF6FC473A4040F20117CB
:101D80003A434FF6DD773B404FF6FF7707EA0617F9
:101D90002F433B43018102830384F0BD0A460021A7
:101DA000018B4FF68F7319401143018370470A4628
:101DB0000021018B48F6FF7319404FF6FF7303EAC9
:101DC00002231943018370470A460021818B4FF695
:101DD0008F7319401143818370470A460021818B1C
:101DE00048F6FF7319404FF6FF7303EA02231943C5
:101DF0008183704721B1028842F08002028004E0B2
:101E000002884FF67F731A400280704721B18288A2
:101E100042F00402828004E082884FF6FB731A408D
:101E20008280704721B1828842F00802828004E0FB
:101E300082884FF6F7731A408280704721B18288FA
:101E400042F00102828004E082884FF6FE731A405D
:101E5000828070470A460021018B4FF6F7731940C4
:101E60001143018370470A460021018B4FF2FF7333
:101E700019404FF6FF7303EA0223194301837047A9
:101E80000A460021818B4FF6F77319401143818375
:101E900070470A460021818B4FF2FF7319404FF6BD
:101EA000FF7303EA02231943818370470A46002126
:101EB000018B4FF6FB7319401143018370470A46AB
:101EC0000021018B4FF6FF3319404FF6FF7303EAF1
:101ED00002231943018370470A460021818B4FF684
:101EE000FB7319401143818370470A460021818B9F
:101EF0004FF6FF3319404FF6FF7303EA02231943ED
:101F0000818370470A460021018B4FF67F73194089
:101F10001143018370470A460021018BC1F30E0172
:101F20004FF6FF7303EA02231943018370470A4601
:101F30000021818B4FF67F731940114381837047D5
:101F40000A460021818BC1F30E014FF6FF7303EAAD
:101F500002231943818370470A460021018C4FF602
:101F6000FD7319401143018470470A460021018C1A
:101F70004FF6F77319401143018470470A46002158
:101F8000018C4FF6DF7319404FF6FF7303EA02131B
:101F90001943018470470A460021018C4FF67F7374
:101FA00019404FF6FF7303EA021319430184704787
:101FB0000A460021018C4FF6FF5319404FF6FF737C
:101FC00003EA02231943018470470A460021018C69
:101FD0004FF2FF7319404FF6FF7303EA02231943D0
:101FE000018470470A460021018C4DF6FF731940A9
:101FF0004FF6FF7303EA023319430184704730B58B
:10200000002301248C40A3B2048C9C430484048CE0
:1020100002FA01F5ADB22C43048430BD30B5002383
:1020200004248C40A3B2048C9C430484048C02FAE4
:1020300001F5ADB22C43048430BD70B503460020D9
:1020400000241846183001258D40ACB21D8CA543E4
:102050001D8409B1082909D100EB6100056825F04C
:10206000700505600568154305600EE00D1FC5F39A
:102070004E052844056825F4E045056005684FF6DF
:10208000FF7606EA02263543056070BD21B102885D
:1020900042F00202028004E002884FF6FD731A400B
:1020A0000280704721B1028842F00402028004E0FD
:1020B00002884FF6FB731A400280704721B1828874
:1020C00042F08002828004E082884FF67F731A40DB
:1020D0008280704702884FF6F7731A4002800288A8
:1020E0000A430280704782884FF68F731A408280BD
:1020F00082880A438280704702894FF6F8731A403B
:10210000028102890A430281704702894FF67F7378
:102110001A40028102890A43028170478184704714
:102120008185704781867047018770478187704736
:10213000A0F84010704702884FF6FF431A40028013
:1021400002880A43028070470146888E7047014624
:10215000088F70470146888F70470146B1F84000EC
:1021600070470146888C70470146088D70470246CB
:102170000020138A0B400BB1012000E000207047C3
:10218000CA430282704730B5024600200023002473
:10219000158A05EA0103958905EA010413B10CB11A
:1021A000012000E0002030BDCA43028270470000D9
:1021B00001460020FE4A106800F038000843106015
:1021C0007047FB49096821F00801F94A116011467E
:1021D0000968014311607047F549096821F0100151
:1021E000F34A116011460968014311607047F148D4
:1021F000EF494860F04848607047EE48EC49486055
:10220000ED4848607047EA48006940F08000E849BE
:1022100008617047E648006940F08000E4490861C1
:1022200070470420E249C96801F0010109B10120A9
:102230000EE0DF49C96801F0040109B1022007E09E
:10224000DB49C96801F0100109B1032000E0042056
:10225000704700B502460423FFF7E3FF034603E09F
:10226000FFF7DFFF0346521E012B01D1002AF7D1F1
:1022700002B90523184600BD30B5044604254FF4C5
:102280003020FFF7E6FF0546042D17D1C848006946
:1022900040F00200C649086108464461006940F008
:1022A000400008614FF43020FFF7D3FF0546C048D7
:1022B000006941F6FD710840BD490861284630BDFE
:1022C00010B504244FF43020FFF7C3FF0446042C5C
:1022D00016D1B748006940F00400B54908610846C6
:1022E000006940F0400008614FF43020FFF7B1FF73
:1022F0000446AF48006941F6FB710840AC490861EB
:10230000204610BD00B502460423FFF78AFF0346AE
:1023100003E0FFF786FF0346521E012B01D1002A7E
:10232000F7D102B90523184600BD10B504244FF4B7
:102330003020FFF7E7FF0446042C16D19C480069C3
:1023400040F004009A4908610846006940F04000E6
:1023500008614FF43020FFF7D5FF04469448006928
:1023600041F6FB71084092490861204610BD0020EB
:102370008F49C96901F0020109B1012000E0002084
:10238000704730B5A5250424FFF7F1FF00B1002503
:102390004FF43020FFF75DFF0446042C3AD1854806
:1023A00083498860844888600846006940F02000BE
:1023B00008610846006940F0400008614FF4302091
:1023C000FFF747FF0446042C1BD17948006941F60A
:1023D000DF710840764908610846006940F0100046
:1023E000086176480580E002FFF733FF0446052CBC
:1023F00010D06F48006941F6EF7108406C490861E0
:1024000008E0052C06D06A48006941F6EF710840E3
:1024100067490861204630BD78B506460C4604255C
:1024200000200090E802FFF714FF0546042D24D198
:102430005F48006940F001005D4908613480E802AE
:10244000FFF707FF0546042D10D1B01C0090200CAB
:1024500000990880E802FFF7FCFE05465448006931
:1024600041F6FE7108405249086106E05048006993
:1024700041F6FE7108404E490861284678BD70B5A6
:1024800004460D460426F002FFF7E3FE0646042E3E
:1024900011D14748006940F0010045490861258095
:1024A000F002FFF7D6FE06464148006941F6FE718C
:1024B00008403F490861304670BD70B505460E467C
:1024C0000424E002FFF7C5FE0446042C17D1394866
:1024D00037498860384888600846006940F0100035
:1024E00008612E80E002FFF7B4FE0446052C06D0FA
:1024F0002F48006941F6EF7108402D4908612046D8
:1025000070BD2DE9F04304464FF6FF763746B046DE
:10251000B1460425E443E6B2C4F30727C4F30748F1
:102520004FEA1469E802FFF794FE0546042D49D1ED
:1025300020481F498860204888600846006940F0AC
:1025400010000861FF2E06D01C4808300680E80203
:10255000FFF77FFE0546042D08D1FF2F06D0174850
:102560000A300780E802FFF774FE0546042D0AD101
:10257000B8F1FF0F07D011480C30A0F80080E80236
:10258000FFF767FE0546042D0AD1B9F1FF0F07D00A
:102590000A480E30A0F80090E802FFF75AFE054600
:1025A000052D0FD00248006941F6EF71084007E0A1
:1025B0000020024023016745AB89EFCD00F8FF1FE3
:1025C000664908612846BDE8F08330B50546042415
:1025D0004FF43020FFF73DFE0446042C41D1604803
:1025E0005E4988605F4888600846006940F02000C6
:1025F00008610846006940F0400008614FF430204F
:10260000FFF727FE0446042C22D15448006941F606
:10261000DF710840514908610846006940F0100028
:1026200008611DB100205049088002E0A5204E49F4
:1026300008804FF43020FFF70CFE0446052C10D024
:102640004648006941F6EF7108404449086108E0D6
:10265000052C06D04148006941F6DF7108403F492A
:102660000861204630BDF0B505460E4617460424E5
:102670003B483A4988603B488860E002FFF7E9FD43
:102680000446042C19D13548006940F01000334944
:10269000086147F0F800304328433349891C08801B
:1026A000E002FFF7D6FD0446052C06D02B48006952
:1026B00041F6EF710840294908612046F0BD2748DE
:1026C000C069800870472548006A70470020234988
:1026D000096801F0200109B1012000E000207047E5
:1026E00029B11E4A126902431C4B1A6104E01B4ABD
:1026F00012698243194B1A61704701460020012973
:1027000008D1164AD26902F001020AB1012008E09C
:10271000002006E0114AD2680A400AB1012000E018
:10272000002070470D49C860704704200B49C968F4
:1027300001F0010109B101200EE00849C96801F06A
:10274000040109B1022007E00449C96801F0100141
:1027500009B1032000E0042070470000002002407F
:1027600023016745AB89EFCD00F8FF1F10B5044684
:10277000BE48844208D101218014FEF795F900215A
:10278000A014FEF791F916E0B948844208D101215E
:102790000014FEF796F900212014FEF792F90AE0E2
:1027A000B448844207D10121C013FEF78AF9002101
:1027B000E013FEF786F910BD10B50022028802F47E
:1027C00041520B884C8823438C882343CC88234375
:1027D0000C8923434C8923438C892343CC8923438D
:1027E0001A430280838B4FF2FF74234083830B8A4A
:1027F000038210BD2DE9F04F85B005460C464FF021
:10280000000902274FF000084FF0010B0026B246E6
:10281000A88B4FF240010840A88302202884B5F815
:102820001C90A068022801D100BF38E0A08810B930
:102830004FF0010B01E04FF0020B8D48854200D1B3
:1028400000E000BF6846FEF7A8F8DDF800A0E088C9
:10285000B0F5007F0AD14FEA1A2000EB800040005B
:10286000A168B0FBF1F0401D86B20BE04FEA4B10BF
:10287000BAFBF0F000EB80004000A168B0FBF1F083
:10288000401D86B20A20B6FBF0F606F00108A6EB62
:102890000800C0F34F074FF6FF7000EA0828022F28
:1028A00001DBFF2F02DD02274FF00008E08840EA3D
:1028B000080038432884A088A18908436188084318
:1028C0002188084340F4006040EA0909A5F81C90FB
:1028D00005B0BDE8F08F0021018041808180C1807A
:1028E000018141818181C1810721018270470021DD
:1028F000018041808180C18002218160002181812D
:10290000704721B1028842F04002028004E0028850
:102910004FF6BF731A400280704721B1828B42F498
:102920008062828304E0828B4FF6FF331A408283F9
:10293000704730B5002400230C110125A540ABB22F
:102940001AB185881D43858002E085889D43858076
:1029500030BD1AB183880B43838002E083888B43A8
:1029600083807047818170470146888970474FF6A0
:10297000FF62914204D0028842F48072028004E037
:1029800002884FF6FF631A400280704721B18288A7
:1029900042F00402828004E082884FF6FB731A4002
:1029A0008280704702884FF2FF731A4002800288CB
:1029B0000A4302807047018841F4805101807047CA
:1029C00021B1028842F40052028004E002884DF6F0
:1029D000FF731A400280704702460020012901D08F
:1029E000108B00E0908A70470146088A7047B1F565
:1029F000804F04D1028842F48042028004E00288C1
:102A00004BF6FF731A40028070470246002013897C
:102A10000B400BB1012000E000207047CA43028147
:102A20007047F0B50246002000240023002501F085
:102A30000F070126BE40B4B20B1101269E40B3B26F
:102A4000968806EA03051689264016B10DB10120C5
:102A500000E00020F0BD10B5002201F00F040123BA
:102A6000A3409AB2D343038110BD0000003001405F
:102A700000380040003C004001B581B00AE04FF44E
:102A80000050009000BFBDF80000411E89B20091C7
:102A90000028F8D1BDF80400411E89B20191002838
:102AA000EDD10CBD08B52020ADF8000003208DF855
:102AB000020010208DF8030069461F48FDF71EFD37
:102AC00020211D48FDF7C7FD08BD00F0B9F800F052
:102AD00022F903F009FBFFF7E5FF02F08CFB02F09F
:102AE00039F84FF4164003F014FB4FF4165001F080
:102AF000F8FC04F0D5FD01F059FF01F05DFC03F096
:102B000061F840F27F2140F2E73002F06FFF4FF4AE
:102B10009671002003F066F802F094FC07A30AA265
:102B20000C490DA004F0E4FF05E003F0C2FD02F043
:102B3000EBFD01F0D2FFF8E70008014032313A32F4
:102B4000323A3432000000004E6F762020372032B7
:102B500030313700DC0E002073746D33322049446D
:102B60003A25735B25732025735D0A0010B5FDF7C8
:102B700013FE4FF48030FDF72FFEFDF76CFE044688
:102B8000012C5CD10020FDF7ACFE0020FDF7BBFE60
:102B9000A002FDF7AFFE0120FFF70AFB1020FFF7B0
:102BA0001BFB4FF4E0112004FDF77EFE0120FDF732
:102BB00087FE00BF3920FDF732FE0028FAD0022040
:102BC000FDF781FE00BFFDF787FE0828FBD101213C
:102BD000FD20FDF74FFF01218803FDF758FF01217C
:102BE000C806FDF754FF01210807FDF750FF01213A
:102BF000C802FDF73FFF01210846FDF748FF01210C
:102C00004802FDF737FF4FF40040FDF797FE012122
:102C10000846FDF722FF01210220FDF71EFF0121DA
:102C20008803FDF727FF01214804FDF730FF01214C
:102C30008804FDF72CFF0121DE48FDF730FD10BDB3
:102C400010B5FDF7A9FD0120FDF72BFE00BF2120E7
:102C5000FDF7E5FD0028FAD00020FDF742FE002038
:102C6000FDF751FE4FF48060FDF744FE0120FFF7B1
:102C70009FFA1020FFF7B0FA4FF460110020FDF723
:102C800013FE0120FDF71CFE00BF3920FDF7C7FD34
:102C90000028FAD00220FDF716FE00BFFDF71CFE4B
:102CA0000828FBD10121FD20FDF7E4FE0121880366
:102CB000FDF7EDFE0121C806FDF7E9FE0121080739
:102CC000FDF7E5FE0121C802FDF7D4FE012108460B
:102CD000FDF7DDFE01214802FDF7CCFE4FF4004078
:102CE000FDF72CFE01210846FDF7B7FE0121022069
:102CF000FDF7B3FE01218803FDF7BCFE0121480466
:102D0000FDF7C5FE01218804FDF7C1FE0121A94898
:102D1000FDF7C5FC10BD10B500214FF00060FDF7B8
:102D200056FB4FF4A060FDF71BFB10BD10B586B03D
:102D3000044601218803FDF79DFE01210420FDF7D3
:102D4000AEFC00219C48FDF7C8FF4020ADF8140000
:102D500003208DF8160018208DF8170005A9974854
:102D6000FDF7CCFB8020ADF8140004208DF817008F
:102D700005A99248FDF7C2FB01940020ADF80800B8
:102D8000ADF80A00ADF80C00ADF810000C20ADF85D
:102D90000E0001A98848FDF714FF01218648FDF7C0
:102DA0009CFF012240F225518348FDF7A2FF252018
:102DB0008DF8000000208DF801008DF80200012040
:102DC0008DF803006846FDF7D0FA06B010BD7FB558
:102DD00005460C4601210220FDF759FEADF80850CA
:102DE000ADF804400020ADF80A00ADF8060001A9D6
:102DF0007348FEF7A3FB012211467148FEF715FF49
:102E00001D208DF8000001208DF8010003208DF8B1
:102E1000020001208DF803006846FDF7A6FA0121A3
:102E20006748FEF7E7FE7FBD7FB505460C460121EA
:102E30000420FDF72CFEADF80850ADF8044000204A
:102E4000ADF80A00ADF8060001A95E48FEF776FB72
:102E5000012211465B48FEF7E8FE1E208DF80000B7
:102E600001208DF8010003208DF8020001208DF86B
:102E700003006846FDF779FA01215248FEF7BAFED1
:102E80007FBD7FB504460D460121C802FDF7F2FD66
:102E900019208DF8000000208DF8010003208DF826
:102EA000020001208DF803006846FDF75EFAADF8D8
:102EB00004500020ADF80600ADF80840ADF80A0057
:102EC0008DF80C0001A94048FEF738FB012211469D
:102ED0003D48FEF7AAFE00213B48FEF78BFE7FBD72
:102EE00008B548208DF8030003208DF8020020204B
:102EF000ADF8000069463148FDF700FB08BD08B594
:102F000010208DF8030003208DF802004020ADF85A
:102F1000000069462D48FDF7F1FA40212B48FDF7E6
:102F20009CFB08BD10B540212848FDF796FB4021C9
:102F30002648FDF790FB4FF4967001F076FA402199
:102F40002248FDF78AFB4FF4967001F06EFA10BD2F
:102F500010B5FFF7E7FFFFF7E5FF10BD10B5FFF76E
:102F6000E1FFFFF7DFFFFFF7DDFFFFF7DBFF10BD3E
:102F700010B56FF07F4420211048FDF752FB012867
:102F800017D010E0641E74B911A004F0B1FD134B0A
:102F9000DA7D997D587D03F046FD04F0D6FA04F001
:102FA000B1FAFDF7CFF820210448FDF73AFB0128DC
:102FB000E8D110BD0002300000380140000C014093
:102FC0000004004000080040002C014000080140BF
:102FD0006B657920646F776E0A000000DC0E0020BC
:102FE000704700BFFEE700BFFEE700BFFEE700BF7F
:102FF000FEE7704770477047704710B502F042FD1A
:1030000010BD000008B510208DF8030003208DF8D6
:1030100002004FF20300ADF800006946FB48FDF7DF
:103020006DFA10208DF8030003208DF802004FF494
:103030001060ADF800006946F548FDF75FFA4820DA
:103040008DF8030003208DF802004FF47070ADF886
:1030500000006946ED48FDF751FA08BD10B5182289
:10306000EC49002003F012F80822EB49182003F085
:103070000DF810BD10B50221E448FDF7ECFA10BDC3
:1030800010B50121E148FDF7E6FA10BD10B54FF487
:103090008051DE48FDF7DFFA10BD10B54FF4005146
:1030A000DA48FDF7D8FA10BD10B54FF48041D74883
:1030B000FDF7D1FA10BD10B54FF40041D348FDF72C
:1030C000CAFA10BD10B54FF48071D148FDF7C3FAAC
:1030D00010BD10B54FF40061CD48FDF7BCFA10BD2E
:1030E00010B50221C948FDF7B8FA10BD10B501218D
:1030F000C648FDF7B2FA10BD10B54FF48051C34871
:10310000FDF7ABFA10BD10B54FF40051BF48FDF705
:10311000A4FA10BD10B54FF48041BC48FDF79DFAEC
:1031200010BD10B54FF40041B848FDF796FA10BD38
:1031300010B54FF48071B648FDF78FFA10BD10B589
:103140004FF40061B248FDF788FA10BD10B54FF496
:103150000071AE48FDF765FA10BD10B54FF48071EF
:10316000AA48FDF75EFA10BD10B58021A748FDF70B
:1031700058FA10BD10B54021A448FDF752FA10BD11
:1031800070B505460C46E91705EB51710122B2EB0B
:10319000E10F6BD104F0010020B102219B48FDF743
:1031A0005AFA03E002219948FDF757FA04F00200A9
:1031B00020B101219548FDF74EFA03E00121934823
:1031C000FDF74BFA04F0040028B14FF480518F480A
:1031D000FDF741FA04E04FF480518C48FDF73DFAC9
:1031E00004F0080028B14FF400518848FDF733FA85
:1031F00004E04FF400518548FDF72FFA04F0100069
:1032000028B14FF480418148FDF725FA04E04FF4DE
:1032100080417E48FDF721FA04F0200028B14FF4E8
:1032200000417A48FDF717FA04E04FF4004177486F
:10323000FDF713FA04F0400028B14FF48071744890
:10324000FDF709FA04E04FF480717148FDF705FAC3
:1032500004F0800028B14FF400616D48FDF7FBF9E0
:1032600004E04FF400616A48FDF7F7F970BD10B54E
:103270004FF47A7001F0D9F84FF47A7001F0D5F874
:10328000002409E0654951F8240080474FF4967006
:1032900001F0CBF8601CC4B2082CF3DB4FF47A7059
:1032A00001F0C3F8002409E05D4951F8240080478B
:1032B0004FF4967001F0B9F8601CC4B2082CF3DB2F
:1032C00010BD70B504460D46082C00DC14B94FF053
:1032D000FF3070BD012D05D1611E504A52F821000A
:1032E000804704E0611E4E4A52F821008047601E6C
:1032F00049490D540020ECE770B50546002400262E
:1033000001240BE005F0010631462046FFF7D9FF06
:10331000601E41490E546D10601CC4B2092CF1DBD3
:1033200070BD0020002100BF06E03B4A525C8A408D
:103330000243D0B24A1CD1B20829F6DB70470146DD
:1033400009B1082901DD00207047481E324A105C8F
:10335000FAE770B50646002400250DE06006040E6D
:10336000C5F107012F4A52F821008047012801D1F9
:1033700044F00104681CC5B2082DEFDB347070BD49
:1033800010B504460121601E274A02EB400041703F
:103390000021601E02F81010052002F045FC20B943
:1033A0004FF49671052002F01DFC10BD10B50124EC
:1033B000062002F031FC08B9A01E10BD0121062034
:1033C00002F010FC002460E0164951F82400804708
:1033D00090BB1648005D80BB154830F81400401CB7
:1033E000134921F81400084630F8140032284ADD49
:1033F00001200E490855A0400E49097808430D499F
:10340000087000200A4921F814003CE0000C01403B
:1034100000080140040100202F0000200481000862
:1034200024810008448100081C0100204300002082
:10343000F40100204B00002005E0FFE70020F749E1
:1034400021F814001FE0F64951F8240080470128B4
:1034500019D1F448005D90B1F04830F81400401CD8
:10346000EE4921F81400084630F8140032280ADD2D
:103470000020EC490855E94921F8140003E0002038
:10348000E94921F81400601CC4B2042C9CDB002024
:1034900093E710B588B004462021684604F0CBF9C4
:1034A0000320E2490870E24B2246E2A1684604F09C
:1034B0002FFB6A46E1A1E3A002F0D7F908B010BDE6
:1034C00010B5FFF773FF401C00B910BDDF4800784E
:1034D00000B9FAE7002419E00120A040DB4909788F
:1034E000084080B1DA480078BB2804D1D94951F8A6
:1034F0002400804708E0611CC8B2FFF7CAFF611CC6
:10350000C8B2FFF73DFF00BF601CC4B2082CE3DB6C
:103510000020CE49087000BFD7E702460AB1082A4A
:1035200003DD12B14FF0FF307047012904D019B10B
:1035300011B14FF0FF30F7E70020F5E70022411E00
:10354000C54B03EB41014A7070472DE9F047044633
:103550000D4616461F464FF00008C1460CB9032021
:1035600000E00120814605FB094030441FFA80F845
:103570003978404602F011FDBDE8F08710B50246EB
:10358000002022B1012A16D0022A38D126E00021DB
:103590000EE04306180EC1F1070303EB4303AF4CE3
:1035A00023445B78012B01D1431CD8B24B1CD9B208
:1035B0000829EEDB23E000210DE04306180EC1F1DF
:1035C000070303EB4303A54CE35C012B01D1431C30
:1035D000D8B24B1CD9B20829EFDB10E000210BE078
:1035E0004306180EC1F107039D4CE35C012B01D18A
:1035F000431CD8B24B1CD9B20829F1DB00BF00BF75
:1036000010BD10B50220FFF7B9FF0446214608207F
:10361000FFF7B6FD10BD10B5052002F0FDFA00B9A8
:1036200010BD052002F008FB002422E08A4800EBD0
:103630004400407801281AD1874810F81400032864
:1036400010DA611CC8B2FFF724FF834810F8140099
:10365000401C814901F814004FF49671052002F0D6
:10366000C1FA04E000207C4901EB44014870601C71
:10367000C4B2082CDADB00BFD2E72DE9F05F0746C1
:10368000884691469A46BB462C21584604F0EAF8F3
:10369000040004D000202070641C254603E04FF095
:1036A000FF30BDE8F09F2C21284604F0DBF8040031
:1036B00004D000202070641C264602E04FF0FF304A
:1036C000EFE7584604F009F988F80000284604F0AE
:1036D00004F989F80000304604F0FFF88AF8000089
:1036E0000020DEE730B593B0044600201290119020
:1036F0001090451E342103A804F09DF811AB12AAC6
:1037000010A9A068FFF7B9FF9DF840005549097856
:10371000884207D19DF844109DF84800FFF7FDFE50
:1037200005462BE09DF840004E49097888420BDDA4
:103730009DF840004B4908709DF844109DF84800E2
:10374000FFF7EBFE054619E0464800789DF840106B
:10375000401A01280BDD9DF84000424908709DF891
:1037600044109DF84800FFF7D8FE054606E09DF896
:1037700044109DF84800FFF7D0FE0546B5BB9DF804
:1037800044109DF84800FFF79CFD9DF844109DF8FB
:103790004800401E324A11549DF84800401EC1B2F4
:1037A00011AB00221820FFF7D0FE21489DF84410ED
:1037B000CDE900109DF848309DF840202AA103A8CB
:1037C00004F0A6F903AAD4E9000102F04EF8254856
:1037D0000078401C23490870C821264804F02BF8C3
:1037E000322203A9234804F00DF847E0FFE72248FE
:1037F0009DF84410CDE900109DF848309DF8402018
:1038000019A103A804F084F903AAD4E9000102F085
:103810002CF84FF0FF3013B030BD00000402002040
:103820004481000843000020F401002090000020A3
:103830005A81000825642C2573000000414C415238
:103840004D00000052454C41590000004B00002043
:103850004C000020048100081C010020040100200D
:103860002F0000203700002025642C25642C2564BF
:103870002C2573002C01002054810008002013B077
:1038800030BD2DE9F04790B004464FF00009002606
:1038900000254FF0FF3A342103A803F0CCFF2C2180
:1038A000A06803F0DFFF070004D0002038707F1C01
:1038B000B84604E04FF0FF3010B0BDE8F087A068D4
:1038C00004F00BF8C5B2404604F007F8C6B2F7485A
:1038D0000078854205D100213046FFF71EFE824662
:1038E0001FE0F2480078854207DDF04805700021AE
:1038F0003046FFF712FE824613E0EC480078401B8A
:10390000012807DDE948057000213046FFF705FE74
:10391000824606E0E64AD4E9000101F0A6FF002055
:10392000CAE7BAF1000F25D1701EE24911F80090E4
:10393000E14833462A46AFF2D001CDE9009003A812
:1039400004F0E6F84946DDA004F0D2F803AAD4E971
:10395000000101F08AFFD5480078401CD349087067
:10396000C821D34803F067FF322203A9D04803F0EF
:1039700049FF0FE0D54833462A46D5A1009003A859
:1039800004F0C6F803AAD4E9000101F06EFF4FF07D
:10399000FF3091E700208FE7F0B58FB00446002696
:1039A00000256F1E342102A803F045FFA06803F034
:1039B00094FFC5B2BD480078854201D1002718E0C8
:1039C000BA480078854203DDB8480570002710E04A
:1039D000B6480078401B012803DDB4480570002775
:1039E00007E0B34AD4E9000101F03FFF00200FB027
:1039F000F0BDFFB90220FFF7C1FD0646AE483346D1
:103A00002A46B3A1009002A804F082F802AAD4E9E1
:103A1000000101F02AFFA5480078401CA349087066
:103A2000C821A34803F007FF322202A9A04803F0EF
:103A3000E9FE0EE0A54B2A46AFF2082102A804F0E9
:103A400067F802AAD4E9000101F00FFF4FF0FF3040
:103A5000CDE70020CBE770B590B0044600200F9072
:103A60000025461E342102A803F0E5FEA06803F0FD
:103A700034FFC5B28D480078854201D1002618E098
:103A80008A480078854203DD88480570002610E0EA
:103A900086480078401B012803DD84480570002615
:103AA00007E0834AD4E9000101F0DFFE002010B0F6
:103AB00070BDFEB90FA8FFF74CFC7F4800909DF841
:103AC0003C302A4682A102A804F022F802AAD4E9D6
:103AD000000101F0CAFE75480078401C7349087067
:103AE000C821734803F0A7FE322202A9704803F0F0
:103AF00089FE10E0754800909DF83C302A4674A17C
:103B000002A804F005F802AAD4E9000101F0ADFE14
:103B10004FF0FF30CBE70020C9E72DE9F041044624
:103B200000272C21A06803F09DFE050008D000208E
:103B300028706D1C2E46A06803F0CFFEC7B203E0CC
:103B40004FF0FF30BDE8F08100213846FFF7E5FC7B
:103B5000401C10B94FF0FF30F4E75749304603F0EE
:103B600092FE18B93846FFF7E9FC02E04FF0FF304B
:103B7000E8E70020E6E730B593B004460020129055
:103B800011901090451E342103A803F054FE11AB90
:103B900012AA10A9A068FFF770FD9DF840004349E4
:103BA0000978884207D19DF844109DF84800FFF736
:103BB000B4FC05462CE09DF840003C490978884259
:103BC0000BDD9DF84000394908709DF844109DF8C0
:103BD0004800FFF7A2FC05461AE0344800789DF83B
:103BE0004010401A01280BDD9DF840002F49087055
:103BF0009DF844109DF84800FFF78FFC054607E04C
:103C00002B4AD4E9000101F030FE002013B030BD92
:103C1000A5BB9DF844109DF84800401E00EB4000F5
:103C20002E4A104441709DF84800401EC1B211ABAD
:103C300001220020FFF789FC1F489DF84410CDE9C0
:103C400000109DF848309DF84020AFF2E43103A801
:103C500003F05EFF03AAD4E9000101F006FE134859
:103C60000078401C11490870C821114803F0E3FD99
:103C7000322203A90E4803F0C5FD31E0FFE71348E7
:103C80009DF84410CDE900109DF848309DF8402083
:103C9000AFF22C4103A803F03BFF03AAD4E90001D3
:103CA00001F0E3FD4FF0FF30B0E7000037000020E7
:103CB0002C0100202F0000205A81000873776974BE
:103CC00063685F646174613D25640A005481000883
:103CD00025642C25642C25730000000004010020BD
:103CE000002093E7F0B58FB00446002600256F1E34
:103CF000342102A803F09FFDA06803F0EEFDC5B2D9
:103D0000FB480078854201D1002718E0F848007888
:103D1000854203DDF6480570002710E0F44800787E
:103D2000401B012803DDF2480570002707E0F14A37
:103D3000D4E9000101F099FD00200FB0F0BD07BBF0
:103D40000020FFF71BFC0646EB4833462A46AFF23D
:103D50008001009002A803F0DBFE02AAD4E9000172
:103D600001F083FDE2480078401CE1490870C82159
:103D7000E04803F060FD322202A9DE4803F042FD74
:103D800010E0DE4833462A46AFF2BC01009002A89C
:103D900003F0BEFE02AAD4E9000101F066FD4FF077
:103DA000FF30CAE70020C8E730B593B004460020D2
:103DB000129011901090451E342103A803F03BFD92
:103DC00011AB12AA10A9A068FFF757FC9DF840009C
:103DD000C7490978884207D19DF844109DF84800EA
:103DE000FFF79BFB05462CE09DF84000C049097891
:103DF00088420BDD9DF84000BD4908709DF84410D5
:103E00009DF84800FFF789FB05461AE0B84800789E
:103E10009DF84010401A01280BDD9DF84000B44980
:103E200008709DF844109DF84800FFF776FB0546A2
:103E300007E0B04AD4E9000101F017FD002013B0FB
:103E400030BD9DBB9DF844109DF84800401E00EB1E
:103E50004000AB4A11549DF84800401EC1B211AB5E
:103E600000221046FFF771FBA3489DF84410CDE9EE
:103E700000109DF848309DF84020AFF2146103A86F
:103E800003F046FE03AAD4E9000101F0EEFC9848D5
:103E90000078401C96490870C821964803F0CBFC76
:103EA000322203A9934803F0ADFC16E0FFE79348E4
:103EB0009DF84410CDE900109DF848309DF8402051
:103EC000AFF25C6103A803F023FE03AAD4E900016A
:103ED00001F0CBFC4FF0FF30B1E70020AFE730B589
:103EE00093B004460020129011901090451E34218A
:103EF00003A803F0A0FC11AB12AA10A9A068FFF759
:103F0000BCFB9DF840007A490978884206D100211F
:103F10009DF84800FFF701FB05462AE09DF84000A8
:103F20007349097888420ADD9DF84000704908709D
:103F300000219DF84800FFF7F0FA054619E06C48AB
:103F400000789DF84010401A01280ADD9DF84000D5
:103F50006749087000219DF84800FFF7DEFA054622
:103F600007E0644AD4E9000101F07FFC002013B0AF
:103F700030BDA5BB9DF844109DF84800401E00EBE5
:103F800040005F4A104481709DF84800401EC1B255
:103F900011AB02220020FFF7D8FA57489DF84410D1
:103FA000CDE900109DF848309DF84020AFF24871EF
:103FB00003A803F0ADFD03AAD4E9000101F055FC0C
:103FC0004B480078401C4A490870C821494803F012
:103FD00032FC322203A9474803F014FC16E0FFE745
:103FE00046489DF84410CDE900109DF848309DF8F2
:103FF0004020AFF28C7103A803F08AFD03AAD4E934
:10400000000101F032FC4FF0FF30B0E70020AEE7D6
:104010002DE9F04190B00446002600200F900025C5
:104020004FF0FF38342102A803F005FC2C21A068D2
:1040300003F018FC070007D0002038707F1CA06830
:1040400003F04BFCC5B204E04FF0FF3010B0BDE808
:10405000F08127480078854202D14FF0000815E032
:1040600023480078854202DD4FF000080EE020482A
:104070000078401B012802DD4FF0000806E01D4AD1
:10408000D4E9000101F0F1FB0020DFE7B8F1000FF7
:1040900038D19DF83C10701E00EB4000184A1044C7
:1040A0008170701EC1B20FAB02220020FFF74DFAE3
:1040B00011489DF83C1033462A46CDE90010AFF672
:1040C000580102A803F024FD02AAD4E9000101F07E
:1040D000CCFB07480078401C05490870C8210548FA
:1040E00003F0A9FB322202A9024803F08BFB1DE07A
:1040F000370000202C0100205A810008548100085C
:104100000401002093489DF83C1033462A46CDE92F
:104110000010AFF6AC0102A803F0FAFC02AAD4E941
:10412000000101F0A2FB4FF0FF308FE700208DE788
:104130002DE9F04F8FB0044600264FF0FF3B3421AD
:1041400002A803F078FBB2462C21A06803F08AFB9A
:104150005FEA00080AD0002088F8000008F1010892
:10416000C146A06803F0B9FBC6B204E04FF0FF30CF
:104170000FB0BDE8F08F484603F0AFFB00F0FF0A38
:10418000574675480078864202D14FF0000B10E088
:1041900071480078864202DD4FF0000B09E06E485E
:1041A0000078801B012802DD4FF0000B01E04FF08A
:1041B000000BBBF1000F35D1002514E007F0010022
:1041C00038B1664951F825008047012064494855B7
:1041D00006E0644951F825008047002060494855B1
:1041E0007F10681CC5B2082DE8DB5F485346324695
:1041F000AFF22451009002A803F08AFC02AAD4E98D
:10420000000101F032FB54480078401C524908700C
:10421000C821564803F00FFB322202A9534803F08D
:10422000F1FA0FE04B485346324651A1009002A8E4
:1042300003F06EFC02AAD4E9000101F016FB4FF076
:10424000FF3095E7002093E710B58EB00446342187
:1042500001A803F0F0FA444B474A48A101A803F033
:1042600057FC01AAD4E9000101F0FFFA00200EB0CA
:1042700010BD30B595B0054620210DA803F0DBFA3E
:104280003421684603F0D7FA0DA801F032F80DAAE0
:104290003CA1684603F03CFC684603F0EDFA044696
:1042A0002146684601F0D7FABB203A490870FEF76C
:1042B000DEFF002015B030BDF0B5B5B006460027D2
:1042C000C82103A803F0B7FA3246334903A803F024
:1042D00099FAC821304803F0AEFA03A800902FA045
:1042E000009903F005FC2D21009803F0BBFA0400AF
:1042F00004D000202070641C019403E04FF0FF30D4
:1043000035B0F0BD2D21204603F0ACFA040004D0F6
:1043100000202070641C029402E04FF0FF30EFE7B1
:10432000002512E005EB8502214B03EB8201019889
:1043300003F0A9FA38B91F4850F825106846884795
:1043400007463846DCE7681CC5B20D2DEADB384667
:10435000D6E70000548100083700002004810008DF
:104360002F000020248100085A8100082C01002021
:10437000256425642C2573003900002025732C2525
:1043800073000000484F53542D43484B4C49432D74
:10439000257300004C0000201402002070726F741E
:1043A0006F636F6C2E6F626A6563743A25730A00DF
:1043B000CC7F0008D080000810B56FF00400FCF737
:1043C0001EF808202B4908700846007800EB4001D1
:1043D000C1EBC0104FF6FF7101EAC000264908800A
:1043E00010BD0146234A12784A434FF0E0235A6138
:1043F00000229A611A46126942F001021A6100BF56
:104400004FF0E022106900F001021AB100F480328E
:10441000002AF5D04FF0E022126922F001024FF09D
:10442000E0231A6100229A6170470146124A1288FD
:104430004A434FF0E0235A6100229A611A461269FA
:1044400042F001021A6100BF4FF0E022106900F053
:1044500001021AB100F48032002AF5D04FF0E022B8
:10446000126922F001024FF0E0231A6100229A61E2
:10447000704700004E000020500000200BE04FF479
:104480009670FFF7D2FF4FF49670FFF7CEFF4FF410
:104490009670FFF7CAFFF2E708B510208DF8030009
:1044A00003208DF802000220ADF800006946F748AD
:1044B000FCF724F80221F548FCF7CDF808BD0020F0
:1044C000F3490860F34908707047F1480068704785
:1044D0000020F1490860F14908707047EE48006813
:1044E000704710B586B0044601214804FCF7CFFAA6
:1044F0000021EB48FCF7F1FB0420ADF81400032089
:104500008DF8160018208DF8170005A9DF48FBF775
:10451000F5FF0820ADF8140004208DF8170005A958
:10452000DA48FBF7EBFF01940020ADF80800ADF886
:104530000A00ADF80C00ADF810000C20ADF80E002C
:1045400001A9D748FCF73DFB0121D548FCF7C5FB85
:10455000012240F22551D248FCF7CBFB26208DF8F2
:10456000000000208DF8010001208DF802008DF878
:1045700003006846FBF7F9FE06B010BD10B586B023
:10458000044601218804FCF782FA0021C548FCF7A3
:10459000A4FB4FF48060ADF8140003208DF81600E2
:1045A00018208DF8170005A9BF48FBF7A7FF4FF4A7
:1045B0000060ADF8140004208DF8170005A9BA4872
:1045C000FBF79CFF01940020ADF80800ADF80A004D
:1045D000ADF80C00ADF810000C20ADF80E0001A9EC
:1045E000B048FCF7EEFA0121AE48FCF776FB012259
:1045F00040F22551AB48FCF77CFB27208DF80000EA
:1046000000208DF8010002208DF8020001208DF8B5
:1046100003006846FBF7A9FE06B010BD70B504465E
:104620000D46E1B29F48FCF7C5FB00BF80219D48C5
:10463000FCF72EFC0028F9D0204670BD10B50446CA
:1046400021469848FCF7B6FB00BF80219548FCF74F
:104650001FFC0028F9D010BD10B504460BE014F87B
:10466000011B9048FCF7A6FB00BF80218D48FCF79A
:104670000FFC0028F9D020780028F0D110BD00BF31
:104680008848008800F020000028F9D08548001DE7
:104690000088C0F30800704710B5044604B9282408
:1046A000640000218148FDF7A5FA002080490860D8
:1046B0008048046000207D492431088074490860E6
:1046C00001207449087001217848FDF793FA10BD64
:1046D00010B5044604B9282400217448FDF78AFA6D
:1046E0000020754908607548046000206F49243136
:1046F00008806949086001206849087001216B48F9
:10470000FDF778FA10BD10B500216848FDF772FA80
:1047100010BD10B501216548FDF735FD00283BD0DF
:104720005C480078012813D161480068401C60494A
:104730000860084600685F490968884208D100207F
:104740005B49086001205249086000205149087007
:1047500052480078012813D157480068401C564938
:1047600008600846006855490968884208D1002059
:1047700051490860012048490860002047490870F5
:104780004648007820B94348007808B9FFF7BBFFD6
:1047900001214648FDF708FD10BD00204849086189
:1047A0004861886070470020464908614861886018
:1047B000704743494A694969491C414B5961194647
:1047C0000968885419464969B1F5807F02D10021F2
:1047D0001A4651613A494969394A1269914210D9D8
:1047E00037498968B1F5807F0BD135490969491C82
:1047F000334A116111460969B1F5807F01D1002169
:1048000011612F498968491C2D4A916011468968B8
:10481000B1F5807F02D94FF48071916070472949CA
:104820004A694969491C274B5961194609688854E6
:1048300019464969B1F5807F02D100211A465161BC
:10484000204949691F4A1269914210D91D49896856
:10485000B1F5807F0BD11B490969491C194A1161C7
:1048600011460969B1F5807F01D100211161154917
:104870008968491C134A916011468968B1F5807FA7
:1048800002D94FF480719160704700000008014028
:104890008000002088000020840000208900002083
:1048A0000044004000480040000C0140002C014042
:1048B0007000002074000020780000207C000020A0
:1048C000DC050020F40500200146F8480069F74A9D
:1048D0005269904207D1F5488068B0F5807F02D0D8
:1048E0006FF001007047F1488068401EEF4A906009
:1048F000104600681269805C0870EC480069401C32
:10490000EA4A106110460069B0F5807F01D10020AD
:1049100010610020E6E70146E5480069E44A526973
:10492000904207D1E2488068B0F5807F02D06FF0F6
:1049300001007047DE488068401EDD4A90601046E6
:1049400000681269805C0870D9480069401CD84A28
:10495000106110460069B0F5807F01D10020106120
:104960000020E6E730B504460D46002308E0E018D5
:10497000FFF7AAFF002802DA4FF0FF3030BD5B1CC2
:10498000AB42F4D30020F9E730B504460D460023CE
:1049900008E0E018FFF7BFFF002802DA4FF0FF3011
:1049A00030BD5B1CAB42F4D30020F9E710B51821F1
:1049B000BE4802F040FFBF48BC490860FFF7EDFE6B
:1049C00000F040FD10BD10B51821B94802F033FFCA
:1049D000B948B7490860FFF7E6FE10BDB74A116055
:1049E000B74A1060704710B50020B6490870B64944
:1049F0000870C821B54802F01EFF10BDB349B24A85
:104A000012788854B0490978491CAF4A1170114690
:104A10000978C82901DB002111707047A948007886
:104A2000401CA849087008460078C82801DB00200F
:104A3000087070470020A4490978A24A1278914270
:104A400006DBA14909789F4A1278891AC8B206E0A4
:104A50009C490978C8319C4A1278891AC8B27047B3
:104A600000B50346FFF7E6FF984204DA964800785F
:104A7000944908700CE093480078184491490870F4
:104A800008460078C82803DB08460078C838087054
:104A900000BD02461146612904DB7A2902DCA1F13E
:104AA0002000C1B2392903DDA1F13700C0B270473F
:104AB000A1F13000C0B2FAE730B505460C4600233C
:104AC0002846FFF7E6FF0346F02000EA03132046DE
:104AD000FFF7DFFF0343184630BD00B50023FFF7A3
:104AE000A9FF03461E2B0FDB7848007842280BD124
:104AF000764840784D2807D17448407B7349097B3C
:104B000000EB01207249088000BD10B540F225512C
:104B10007048FCF7D3F940B16E48FCF74FF9C4B2C6
:104B200040F225516B48FCF7F3F910BD10B540F287
:104B300025516948FCF7C2F958B16748FCF73EF9BE
:104B4000C4B22046FFF75AFF40F225516248FCF7F5
:104B5000DFF910BD10B54FF4E130FFF70FFD10BDC8
:104B600070B586B004460D465CA00068059041F221
:104B7000B3565BA207CA02AB07C31A2001900C21EF
:104B800002A801F039FB6420FFF74FFC29462046BC
:104B900001F032FB012101A801F02EFB06B070BD2F
:104BA00070B504460D4626460BE000BF40214A483A
:104BB000FCF76EF90028F9D016F8011B4648FCF7FF
:104BC000F9F82800A5F10105EFD170BD302804DB0C
:104BD000392802DCA0F13001C8B2412804DB5A2890
:104BE00002DCA0F13701C8B2704710B504460B468D
:104BF000012B03D12046FFF767FE10BD2046FFF7CB
:104C00008AFEFAE702460020704738B505460024C0
:104C100036480078042802D1FFF757FC48B93348DA
:104C20000078012802D13248006810B96FF0010005
:104C300038BDFFF744FCC8212E4802F0FCFD0DE012
:104C40006846FFF741FE801C00B908E0C82C03DA73
:104C50009DF8000027490855601CC4B2F0E700BF6A
:104C600022480078042806D1C82C01DA204600E04A
:104C7000C820286006E01D480078012802D11C48A1
:104C80000068286001201C4908700020D0E738B572
:104C900005460024FFF722FC08B9A01E38BDFFF727
:104CA00017FCC821134802F0C6FD35E0DC050020E2
:104CB000F4050020DC030020DC0400206C00002050
:104CC000680000208B0000208C0000200C060020D3
:104CD0008E0000200048004000440040761FBBEBDF
:104CE00041542B43495053454E440A005400002080
:104CF0006000002014020020900000206846FFF7AA
:104D00000AFE801C00B908E0C82C03DA9DF80000F8
:104D100008490855601CC4B2F0E700BFC82C01DA8E
:104D2000204600E0C82028600220034908700020C7
:104D3000B4E70000140200209000002030B50246C5
:104D40000B4600200EE0002109E0145CC1F10705CC
:104D50002C4104F0010401EBC0055C55491C0829F5
:104D6000F3DB401C0828EEDB30BD30B503460020E5
:104D700015E0002210E002EBC0041C5D2CB90C5CB5
:104D800080251541AC430C5405E00C5C8025154191
:104D9000EDB22C430C54521C082AECDB401C0828B2
:104DA000E7DB30BD30B50346002004E01C5C0D5C41
:104DB0006C401C54401C9042F8DB30BD70B5054679
:104DC000002405E0EE48005D285CEE490855641CAF
:104DD000402CF7DB4022EB49284602F013FD70BD62
:104DE00070B50546002405E0E748005D285CE7490A
:104DF0000855641C402CF7DB4022E449284602F0A9
:104E000001FD70BD70B506460D46E1493046FFF71D
:104E100095FF002405E0DF48005DDD49085C28556A
:104E2000641C382CF7DB70BD70B505460C461C229F
:104E30002946D94802F0E6FC1C2094FBF0F100FB67
:104E40001144C4F11C06D44801193246284602F028
:104E5000D9FCA8192246D04902F0D4FC70BD70B527
:104E600005460C461C222946CC4802F0CBFC1C20EF
:104E700094FBF0F100FB1144C4F11C0628193246E2
:104E8000C64902F0BFFCC54881192246284602F0F7
:104E9000B9FC70BD2DE9F0410646884614461F4610
:104EA000652F01D0452F0BD1BD48015D3046FFF77E
:104EB000BBFFBB48015D06F11C00FFF7B5FF0AE030
:104EC000B848015D3046FFF7CAFFB648015D06F1FC
:104ED0001C00FFF7C4FF002505E0B348405D305CCF
:104EE00008F805006D1C302DF7DBBDE8F0810246A7
:104EF000002004E0AD4B1B5CD35C0B54401C3028FD
:104F0000F8DB7047F0B502460B460020002133E085
:104F1000471DD75D12F800C007EB4C05471CD75D55
:104F20004FEAC70C871CD75D0CEB870CC71CD75DFD
:104F30000CEB470C071DD75D0CEB0706062790FB13
:104F4000F7F7DFF86CC20CEB871707EB0517BC5DB2
:104F5000C4F3C0075F54C4F3800C4F1C03F807C0B0
:104F6000C4F3400C8F1C03F807C004F0010CCF1CE5
:104F700003F807C0801D091D3028C9DBF0BD70B5DE
:104F80000546002405E08B48005D285C8A490855E9
:104F9000641C202CF7DB20228749284602F032FCD3
:104FA00070BD2DE9F04106460F46154698468349E7
:104FB0003046FFF7C3FE8148FFF700FF80492846CF
:104FC000FFF720FF01242AE0434622467D497C4822
:104FD000FFF760FF7C4979482030FFF788FF3022D7
:104FE00078497948FFF7DEFE202274492031754860
:104FF00002F008FC714920317348FFF783FF6F48C6
:105000002030FFF7BCFF20226C4901F12000FFF7A0
:10501000C9FE20226B49694802F0F4FB641C102C85
:10502000D2DD20226549684802F0ECFB202263496A
:105030002031624802F0E6FB202263495F482030BD
:1050400002F0E0FB5D48FFF7CBFE39465B48FFF717
:105050008CFEBDE8F0812DE9F04107460E4614466E
:105060001D46652D01D0452D13D1652322463146BD
:105070003846FFF796FF642304F1080231463046B4
:10508000FFF78FFF6523224631463046FFF789FF41
:1050900012E06423224631463846FFF782FF65233B
:1050A00004F1080231463046FFF77BFF64232246B5
:1050B00031463046FFF775FFBDE8F0812DE9F05F1E
:1050C0008046894615461E46DDF828A0E81DC11712
:1050D00000EB5171C910CF004FF0000BCAF80070FF
:1050E000002404E019F8040038490855641CAC4257
:1050F000F8DB0CE0BBF1000F05D1802033490855E7
:105100004FF0010B02E0002030490855641CBC42FE
:10511000F0DB002412E0B8F1030F07D131192B4A5C
:10512000101965230B9AFFF796FF06E03119274AFD
:10513000101965230B9AFFF734FF0834BC42EADBF1
:10514000BDE8F09F2DE9F04707460D4690461E4604
:10515000DDF8209000240FE0032F06D13119281923
:1051600064234A46FFF777FF05E0311928196423C5
:105170004A46FFF716FF08344445EDDBBDE8F087EB
:105180005D810008D40600209D81000814070020DE
:1051900054070020DD81000894070020B00700209C
:1051A00045820008568200081582000867820008C0
:1051B0009782000897840008CC070020EC070020A5
:1051C0005C080020940800202C080020C40800205F
:1051D000F8B50446002500260027FA480568001D9A
:1051E0000668001D076833462A46F7A12046009747
:1051F00002F08EFCF8BDF0B5A1B000260027002516
:10520000002400202090202118A802F014FB202167
:1052100010A802F010FB342103A802F00CFB20219F
:1052200018A802F008FB202110A802F004FB34218A
:1052300003A802F000FB18A8FFF7CAFFE6481A9976
:105240008160BDF86C10818120A910AB1822CDE9D6
:10525000001018A90320FFF731FF00BF00BF24E0B2
:1052600010A8005D060910A8005D00F00F07092EC8
:1052700003DC06F13000C6B202E006F15700C6B208
:10528000092F03DC07F13000C7B202E007F1570035
:10529000C7B22846691CCDB203A90E542846691C22
:1052A000CDB203A90F54601CC4B2182CD8DB002463
:1052B00000250DE003A8405DC849085503A9681CF6
:1052C000095CC64A601C1154A01CC4B2281DC5B29A
:1052D000172CEFDB21B0F0BD10B504461822BF49F2
:1052E000204602F0DEFA08B9002010BD4FF0FF3072
:1052F000FBE710B504461822B849204602F082FAAE
:1053000010BD7FB588B005461C4600266846FFF7ED
:10531000F0FF5E20B2490870012048700846BDF8D1
:10532000281041809DF82400AD4948719DF8250062
:10533000087118226946AA48801D02F063FA2021EC
:10534000684602F078FA34B9A5482230002101609D
:105350004160018107E0A248223021680160616854
:10536000416021890181099828B129469C482C3047
:10537000099A02F047FA099800F12C06314698483C
:10538000FFF7EEFB4FF40071954802F054FA00204D
:105390000CB070BD2DE9F04105460027002691486C
:1053A0000078052801D0BDE8F08100241BE08E497B
:1053B00001EB0411081D0A22294602F072FA28B9ED
:1053C0000020894901EB04110860ECE7864800EBF6
:1053D00004100068B84204D9834800EB0410076841
:1053E0002646601CC4B20A2CE1DB002415E07E488E
:1053F00000EB0410007970B97B4800EB04102968B9
:10540000416069688160298981810020764901EBCA
:105410000411086003E0601CC4B20A2CE7DB00BF83
:105420000A2C0DDB704800EB0610296841606968A2
:1054300081602989818100206B4901EB0611086098
:1054400000BFB0E710B5A021674802F0F4F910BD25
:105450002DE9F04190B005460E464FF000080027B8
:1054600000240FA8FFF730FA074616E09DF83C002D
:105470005E280ED10FA8FFF727FA070004D19DF888
:105480003C00012809D10BE04FF0FF3010B0BDE81F
:10549000F0810FA8FFF718FA0746B81C0028E5D1DD
:1054A00000BFB81C20B9FFF70AF86FF00100EDE764
:1054B0000EA8FFF709FA002805DB0DF13900FFF708
:1054C00003FA002802DA4FF0FF30DFE70E980D9064
:1054D0000EA8FFF7F9F9002805DB0DF13900FFF7F9
:1054E000F3F9002802DA4FF0FF30CFE79DF838805B
:1054F0009DF839008DF838008DF839800E980C90A1
:10550000002409E006A90819FFF7DEF9002802DAED
:105510004FF0FF30BAE7641C182CF3DB6846FFF746
:10552000E8FE1822694606A802F0BBF910B14FF058
:10553000FF30ABE7002408E00FA8FFF7C5F900280B
:1055400002DA4FF0FF30A1E7641C042CF4DB0024E6
:1055500008E026490819FFF7B7F910B14FF0FF30FE
:1055600094E7641C0A2CF4DB00203060BDF83400A2
:10557000C0286BD0B0F5D07F03D0B0F5687F6CD178
:1055800044E015B1194800782870184800780128BF
:105590000FD1052013490870FFF754FF002000F0D9
:1055A00017FB6421042000F01DFB11A002F0A0FAFB
:1055B0002BE04FF47A71002000F014FB022009491F
:1055C00008701FE0E8F7FF1F25303878253038785D
:1055D000253038780000000091000020DC0E00200B
:1055E000DC0C002055000020F40E0020940F002059
:1055F000636F6E6E65637420736572766572206F7B
:105600006B0A0000B6A002F073FA26E015B1BA48A2
:1056100000782870B848007801280BD10020B749DD
:10562000087040F6B831042000F0DCFAB4A002F0B3
:105630005FFA0AE04FF47A71002000F0D3FA0220FA
:10564000B5490870B5A002F053FA06E0BAA002F01E
:105650004FFABDF83000306000BF00BF002015E7F2
:1056600010B54FF4FA61002000F0BCFA0023A0222C
:1056700019461846FFF745FEFEF721FF0420A6490C
:105680000870B3A002F034FA10BD1CB5B5A103C96F
:10569000CDE90001FFF7A7F907216846FFF780FA77
:1056A0001CBD10B500234FF4287219461846FFF7A9
:1056B00028FE4FF49671042000F094FA8F48007889
:1056C000401C8E490870FFF7E0FF8C480178A7A0C6
:1056D00002F00EFA10BD10B588480078052811DDDB
:1056E00003208D490870042000F072FA02208A49D4
:1056F00008704FF47A71002000F074FA00207F499E
:10570000087010BD00BFFCE710B59F480068022874
:1057100000D010BD80480078042805DC002000F08F
:105720007BFA08B1FFF79CFF7B480078052803D07F
:1057300079480078042809D1042000F06DFA08B1F6
:10574000FFF7AFFF91490020FFF782FE9048FFF777
:105750005CFA40B98E49098888B2FEF7ADFD002099
:105760008A49086002E0002088490860FFF7B3FF1B
:1057700000BFCEE710B58648FFF789FA20B9844903
:10578000098888B2FEF798FD10BD70B505460E4633
:105790000A2422467F49804802F034F800207E49DE
:1057A0000855601C0D54A01C0E54E41C21467A4878
:1057B000FFF7D6F9002070BD38B5784C1EE0784C64
:1057C00000207849086001211420FFF7DEFF11E076
:1057D0007448006870B16846FFF776F89DF80000DD
:1057E000022803D101207049087002E004206E49AC
:1057F000087038BD201EA4F10104E9DCDFE770B5B4
:1058000004460D463C4BE12229462046FFF779FD30
:1058100070BDF0B591B004460D461646402101A872
:1058200002F009F8402101A802F005F823462A46B3
:105830005EA101A8009602F06BF901A802F01CF825
:105840000746394601A8FFF7DAFF01A95FA002F079
:105850004FF911B0F0BD70B504460D46264BD0226D
:1058600029462046FFF74DFD70BD2DE9F041A0B05F
:1058700004460F4615468021684601F0DCFF802172
:10588000684601F0D8FF3CB12146684601F0DEFFD2
:1058900052A1684601F0DAFF3946684601F0D6FFAA
:1058A0004EA1684601F0D2FF2946684601F0CEFFBE
:1058B000684601F0E1FF86B200200DF80600694657
:1058C00047A002F015F9684601F0D6FF00F1010883
:1058D00041466846FFF7BFFF20B0BDE8F0810000F9
:1058E000636F6E6E65637420736572766572206691
:1058F00061696C0A00000000940F00206400002021
:10590000726563656976652073657276657220736A
:10591000796E63206F6B0A00550000207265636525
:10592000697665207365727665722073796E63207F
:105930006572726F720A0000726563656976652030
:105940007365727665722063746C20636D640A00FF
:1059500073656E6420736572766572206C6F67691B
:105960006E0A0000424DE2000002110073656E6491
:105970002073796E6320746F207365727665725B35
:1059800025645D0A00000000C000002060000020C7
:1059900058000020B7840008DC0C0020FFFF5F00E7
:1059A000FFFF0500800000205400002055414952AF
:1059B0002D53594E432C504D3A25642C54503A25C2
:1059C000642C484D3A25642C4F4B000073796E636C
:1059D00020646174613A25730A0000002D00000004
:1059E0006261636B3A25730A000000007FB50546CB
:1059F0000C4601210846FBF74AF8ADF80850ADF80F
:105A000004400020ADF80A00ADF8060001A94FF0EF
:105A10008040FBF793FD012211469007FCF705F942
:105A20001C208DF8000001208DF8010005208DF864
:105A3000020001208DF803006846FAF796FC012168
:105A40008807FCF7D7F87FBD10B50020974908708C
:105A500000214FF08040FCF7CDF810BD10B50021BB
:105A60004FF08040FCF7C6F80120904908700020F4
:105A70008F4908604FF08041888401218807FCF736
:105A8000B9F810BD10B5002401218807FCF77BFB95
:105A9000002874D000BF1AE0864800EB041000799B
:105AA00098B1844800EB04100168824800EB0410B0
:105AB0000068401C7F4A02EB041210603C2904D9A4
:105AC00000207C4901EB04110871601CC4B20A2C4F
:105AD000E2DB00242BE004EB4400774901EB80007B
