:020000040800F2
:10000000783600200D020008652D0008672D0008D5
:100010006B2D00086F2D0008732D000800000000F4
:10002000000000000000000000000000772D000824
:10003000792D0008000000007B2D00087D2D0008B0
:1000400027020008270200082702000827020008EC
:1000500027020008270200082702000827020008DC
:1000600027020008270200082702000827020008CC
:1000700027020008270200082702000827020008BC
:1000800027020008270200082702000827020008AC
:10009000270200082702000827020008270200089C
:1000A000270200084743000827020008270200082B
:1000B0007F2D0008270200082702000827020008F9
:1000C000270200082702000827020008270200086C
:1000D00027020008EB610008714D00084F4D000831
:1000E000270200082702000827020008270200084C
:1000F000270200082702000827020008270200083C
:10010000270200082702000827020008270200082B
:10011000270200082702000827020008270200081B
:10012000270200082702000827020008270200080B
:1001300000F002F800F04EF80AA090E8000C8244AB
:100140008344AAF10107DA4501D100F043F8AFF288
:10015000090EBAE80F0013F0010F18BFFB1A43F0A5
:100160000103184774B1000094B10000103A24BF95
:1001700078C878C1FAD8520724BF30C830C144BF0C
:1001800004680C607047000000230024002500264E
:10019000103A28BF78C1FBD8520728BF30C148BFEA
:1001A0000B607047642909F0DB80782909F014811D
:1001B000732909F0BC84002070471FB509F0B4FD15
:1001C00004000020002109F0D5FD401C60601FBD27
:1001D00010B510BD09F083FD1146FFF7EEFF02F0E8
:1001E0009FFA09F0B3FD03B4FFF7F2FF03BC09F077
:1001F000B3FD00004FF0010080F31388014802496D
:100200000160FEE70CED00E00400FA0509488047B4
:1002100009480047FEE7FEE7FEE7FEE7FEE7FEE7E8
:10022000FEE7FEE7FEE7FEE704480549054A064B00
:10023000704700002B0300083101000878300020CF
:100240007836002078320020783200200CB500206B
:10025000019000906C48006840F480306A49086062
:1002600000BF6948006800F4003000900198401C0D
:100270000190009818B90198B0F5A06FF1D16248CB
:10028000006800F4003010B10120009001E000206F
:1002900000900098012843D15C48006840F01000AD
:1002A0005A4908600846006820F0030008600846C4
:1002B000006840F0020008605348406852494860B6
:1002C0000846406848600846406840F480604860DE
:1002D0000846406820F47C1048600846406840F4B6
:1002E000E81048600846006840F08070086000BF71
:1002F0004548006800F000700028F9D04248406886
:1003000020F00300404948600846406840F0020081
:10031000486000BF3C48406800F00C000828F9D154
:100320000CBD10B5FFF792FF10BD10B53648006840
:1003300040F00100344908600846406834490840EC
:100340003149486008460068324908402E49086033
:100350000846006820F4802008600846406820F4C1
:10036000FE0048604FF41F008860FFF7DAFF4FF08F
:1003700000602949086010BD10B50021002000224E
:10038000214B5B6803F00C0121B1042906D0082938
:1003900028D107E0214B224C236027E01F4B204C43
:1003A000236023E0184B5B6803F47010164B5B6806
:1003B00003F48032022303EB904022B9194B4343EC
:1003C000174C23600DE0104B5B6803F4003323B13E
:1003D000144B4343124C236003E0104B4343104C37
:1003E000236003E00D4B0E4C236000BF00BF064BA3
:1003F0005B68C3F303130C4CE15C094B1B68CB40F7
:10040000074C236010BD0000001002400020024095
:100410000000FFF8FFFFF6FE08ED00E000127A0092
:100420000000002000093D00040000203149014384
:10043000314A1160704770B5002100230F22C47843
:1004400004B32D4C246804F4E064C4F5E064210A8C
:10045000C1F10403CA40447804FA03F184781440DB
:1004600021430901254C0678A155047804F01F05A5
:100470000124AC4005786D11AD0005F1E025C5F80B
:10048000004109E0047804F01F050124AC401C4D34
:100490000678761145F8264070BD1A4A0A40024394
:1004A000154B1B1F1A60704739B1134A121D126891
:1004B0000243114B1B1D1A6006E00F4A121D126801
:1004C00082430D4B1B1D1A607047042808D14FF062
:1004D000E021096941F004014FF0E022116107E0D9
:1004E0004FF0E021096921F004014FF0E022116191
:1004F000704700000000FA050CED00E000E400E0A9
:1005000080E100E080FFFF1F10B50446CC48844224
:1005100008D10121042000F02DFB0021042000F06F
:1005200029FB46E0C748844208D10121082000F099
:1005300021FB0021082000F01DFB3AE0C248844264
:1005400008D10121102000F015FB0021102000F03F
:1005500011FB2EE0BD48844208D10121202000F08B
:1005600009FB0021202000F005FB22E0B84884426E
:1005700008D10121402000F0FDFA0021402000F0C8
:10058000F9FA16E0B348844208D10121802000F036
:10059000F1FA0021802000F0EDFA0AE0AE48844232
:1005A00007D10121801500F0E5FA0021A01500F027
:1005B000E1FA10BD10B50121084600F0DBFA002178
:1005C000012000F0D7FA10BD2DE9F04102460025C8
:1005D0000026002000230024002791F803C00CF01F
:1005E0000F0591F803C00CF0100CBCF1000F03D004
:1005F00091F802C04CEA050591F800C0BCF1000F6B
:1006000031D0146800202BE04FF0010C0CFA00F3FD
:10061000B1F800C00CEA03069E4220D183004FF0DF
:100620000F0C0CFA03F7BC4305FA03FC4CEA040474
:1006300091F803C0BCF1280F06D14FF0010C0CFA61
:1006400000FCC2F814C00AE091F803C0BCF1480FE6
:1006500005D14FF0010C0CFA00FCC2F810C0401C90
:100660000828D1D31460B1F800C0BCF1FF0F34DD0D
:10067000546800202EE000F1080C4FF0010808FA41
:100680000CF3B1F800C00CEA03069E4221D18300AE
:100690004FF00F0C0CFA03F7BC4305FA03FC4CEACD
:1006A000040491F803C0BCF1280F05D100F1080C37
:1006B00008FA0CF8C2F8148091F803C0BCF1480F96
:1006C00007D100F1080C4FF0010808FA0CF8C2F845
:1006D0001080401C0828CED35460BDE8F0814FF64E
:1006E000FF710180022181700421C17070470246B0
:1006F000002093680B400BB1012000E00020704700
:100700000146886880B2704702460020D3680B40DB
:100710000BB1012000E0002070470146C86880B29C
:10072000704701617047416170470AB1016100E0A3
:1007300041617047C16070474FF480320A43826163
:100740008161826182698269704702460020434B61
:1007500018684FF68073184040EA021008433F4B78
:10076000186070473E49C8617047F0B50A460023DB
:1007700000240021002500F00046B6F1004F02D110
:10078000364EF16901E0354E7168C0F3034583B21E
:1007900000F44016B6F5401F08D121F070612F4ECD
:1007A000766826F070662D4F7E6012E000F48016A9
:1007B000B6F5801F06D1032606FA05F4A14341F0E1
:1007C000706106E0460D360103FA06F6B14341F0CA
:1007D000706122B1460D360103FA06F6314300F08E
:1007E0000046B6F1004F02D11C4EF16101E01B4EF4
:1007F0007160F0BD30B500228B071C0F0F2303FA88
:1008000004F2164B08338C1053F824309343134CE6
:1008100008348D1044F8253023468C1053F82430CA
:100820008C07240F00FA04F423430C4C08348D1079
:1008300044F8253030BD0A49DC31086070470000BB
:1008400000080140000C014000100140001401406C
:1008500000180140001C0140002001400000014040
:1008600000002042DF48006840F00100DD490860D8
:1008700008464068DC490840DA4948600846006894
:10088000DA490840D74908600846006820F480200B
:1008900008600846406820F4FE0048604FF41F00DE
:1008A00088607047CF49096821F48031CD4A1160D2
:1008B0001146096821F480211160B0F5803F03D012
:1008C000B0F5802F0ED106E0C649096841F48031A9
:1008D000C44A116007E0C349096841F4A021C14A34
:1008E000116000E000BF00BF704710B50146002254
:1008F000002300204A11012A02D1BA4C236806E0E5
:10090000022A02D1B74C236A01E0B64C636A01F0B7
:100910001F02012494401C400CB1012000E0002083
:1009200010BD38B5002000900024002500BF312004
:10093000FFF7DBFF05460098401C00900098B0F5DB
:10094000A06F01D0002DF2D03120FFF7CEFF08B10B
:10095000012400E00024204638BD01460020A14AC1
:10096000106820F0F80040EAC10010607047A0490C
:1009700008607047024600209A4B586820F47C10AB
:1009800042EA01031843974B58607047984908663C
:10099000704701460020934A506820F00300084346
:1009A000506070478F48406800F00C007047014667
:1009B00000208C4A506820F0F000084350607047D7
:1009C00001460020874A506820F4E06008435060E8
:1009D000704701460020834A506820F4605040EA86
:1009E000C1005060704729B17E4A527A02437D4B64
:1009F0005A7204E07B4A527A82437A4B5A727047A9
:100A00007B49D8310860704701460020754A50681C
:100A100020F440400843506070470021714A203262
:100A20001170704A82F82010012802D004280AD1DF
:100A300004E001216B4A2032117005E00521694A6A
:100A40002032117000E000BF00BF704769490860A4
:100A500070476449096A0143624A116270476549F7
:100A600044390860704730B500210022002400237B
:100A70005C4D6D6805F00C0121B1042905D00829F1
:100A800023D105E05C4D056022E05B4D05601FE071
:100A9000544D6D6805F47012524D6D6805F4803444
:100AA000022505EB92421CB9544D554305600BE0FD
:100AB0004C4D6D6805F400351DB1504D5543056032
:100AC00002E04D4D5543056002E04B4D056000BF0F
:100AD00000BF444D6D6805F0F0010909484D6B5C9D
:100AE0000568DD4045603F4D6D6805F4E061090A29
:100AF000434D6B5C4568DD4085603A4D6D6805F49B
:100B00006051C90A3E4D6B5C4568DD40C560354D9E
:100B10006D6805F44041890B3A4D6B5CC568B5FBC7
:100B2000F3F5056130BD29B12E4A526902432D4BC0
:100B30005A6104E02B4A526982432A4B5A6170473A
:100B400029B1284A92690243264B9A6104E0254A5A
:100B500092698243234B9A61704729B1214AD26935
:100B60000243204BDA6104E01E4AD26982431D4BE6
:100B7000DA61704729B11B4AD2680243194BDA6027
:100B800004E0184AD2688243164BDA60704729B1F4
:100B9000144A12690243134B1A6104E0114A1269A4
:100BA0008243104B1A617047124940390860704700
:100BB0000F49C86470470B49C87170470948406ABB
:100BC00040F0807007494862704701460020054A9E
:100BD00092680A400AB1012000E0002070470149F4
:100BE00088727047001002400000FFF8FFFFF6FE19
:100BF000000042428004424200127A0000093D0097
:100C0000140000202400002010B50446FB48844254
:100C100009D101218803FFF7ADFF00214FF4804087
:100C2000FFF7A8FF32E0F648844209D101214804C9
:100C3000FFF7ADFF00214FF40030FFF7A8FF25E0DC
:100C4000F048844209D101218804FFF7A0FF002168
:100C50004FF48020FFF79BFF18E0EB48844209D156
:100C60000121C804FFF793FF00214FF40020FFF794
:100C70008EFF0BE0E548844208D101210805FFF70B
:100C800086FF00214FF48010FFF781FF10BD2DE992
:100C9000F04786B005460E460024A24600BFA14696
:100CA0000027B08900B100BF2F462C8A4CF6FF7098
:100CB0000440F08804432C82AC894EF6F3100440C3
:100CC000B08831890843718908430443AC81AC8AF8
:100CD0004FF6FF400440B0890443AC8201A8FFF7FF
:100CE000C2FEC648874202D1DDF810A001E0DDF85F
:100CF0000CA0A88900F4004040B10AEBCA0000EB48
:100D00000A1031684900B0FBF1F807E00AEBCA00AD
:100D100000EB0A1031688900B0FBF1F86420B8FBE1
:100D2000F0F004012009642101FB1089A88900F476
:100D3000004040B1322000EBC900B0FBF1F000F000
:100D40000700044308E0322000EB09106421B0FBE7
:100D5000F1F000F00F0004432C8106B0BDE8F087ED
:100D60004FF41651016000218180C18001810C2166
:100D7000418100218181704710B502460020108A10
:100D80004FF2FF0318400B884C8823438C88234381
:100D9000CC8823431843108210BD0021018041807C
:100DA0008180C180704721B1828942F400528281E2
:100DB00004E082894DF6FF731A4082817047F0B5D6
:100DC0000346002400260025002040F66A17B94299
:100DD00000D100BF1846C1F3421401F01F060127DD
:100DE00007FA06F5012C01D10C3004E0022C01D1E8
:100DF000103000E014301AB107682F43076002E09A
:100E00000768AF430760F0BD1AB1838A0B43838242
:100E100002E0838A8B4383827047028A4FF6F07325
:100E20001A400282028A0A430282704782894FF284
:100E3000FF731A40828182890A438281704721B1FF
:100E4000828942F00202828104E082894FF6FD73BA
:100E50001A4082817047028A4FF6DF731A4002827D
:100E6000028A0A430282704721B1028A42F4804218
:100E7000028204E0028A4BF6FF731A400282704736
:100E8000C1F308028280704701468888C0F30800D9
:100E90007047818941F0010181817047028BD2B294
:100EA0000283028B42EA012202837047028B02F422
:100EB0007F420283028B0A430283704721B1828AF8
:100EC00042F02002828204E0828A4FF6DF731A40E9
:100ED0008282704721B1828A42F01002828204E04D
:100EE000828A4FF6EF731A408282704721B1828A5C
:100EF00042F00802828204E0828A4FF6F7731A40B9
:100F00008282704721B1828942F40042828103E0EB
:100F10008289C2F30E028281704721B1828A42F433
:100F20000062828204E0828A4FF2FF731A4082825A
:100F30007047828A4FF6FB731A408282828A0A4384
:100F40008282704721B1828A42F00202828204E0EA
:100F5000828A4FF6FD731A40828270470246002053
:100F6000B1F5007F00D100BF13880B400BB1012009
:100F700000E00020704701F40072B2F5007F00D15C
:100F800000BFCA430280704770B5024600240023A8
:100F90000025002040F66A16B14200D100BFC1F31F
:100FA000421501F01F03012606FA03F3012D02D1B9
:100FB0009689334006E0022D02D1168A334001E0C3
:100FC000968A33400C12012606FA04F4168834403F
:100FD00013B10CB1012000E0002070BD10B500225B
:100FE000002340F66A14A14200D100BF0A12012476
:100FF0009440A3B2DC43048010BD000000380140DF
:101000000044004000480040004C004000500040B8
:1010100010B50446FE48844208D10121C014FFF7F0
:10102000A9FD0021E014FFF7A5FDC4E0B4F1804F55
:1010300008D101210846FFF7AAFD00210120FFF792
:10104000A6FDB8E0F348844208D101210220FFF751
:101050009EFD00210220FFF79AFDACE0EE4884429D
:1010600008D101210420FFF792FD00210420FFF7A1
:101070008EFDA0E0E948844208D101210820FFF755
:1010800086FD00210820FFF782FD94E0E4488442B9
:1010900008D101211020FFF77AFD00211020FFF771
:1010A00076FD88E0DF48844208D101212020FFF747
:1010B0006EFD00212020FFF76AFD7CE0DA488442C3
:1010C00008D101214014FFF755FD00216014FFF7FE
:1010D00051FD70E0D548844209D10121C804FFF7D1
:1010E00049FD00214FF40020FFF744FD63E0D048A4
:1010F000844209D101210805FFF73CFD00214FF48E
:101100008010FFF737FD56E0CA48844209D101211B
:101110004805FFF72FFD00214FF40010FFF72AFDCF
:1011200049E0C548844208D101214020FFF72FFD46
:1011300000214020FFF72BFD3DE0C048844208D14C
:1011400001218020FFF723FD00218020FFF71FFDF4
:1011500031E0BB48844208D101218015FFF717FD1B
:101160000021A015FFF713FD25E0B648844209D100
:1011700001210804FFF7FEFC00214FF48030FFF747
:10118000F9FC18E0B048844209D101214804FFF776
:10119000F1FC00214FF40030FFF7ECFC0BE0AB4812
:1011A000844208D101218804FFF7E4FC00214FF4B8
:1011B0008020FFF7DFFC10BD00220288944B98428C
:1011C0000ED0994B98420BD0B0F1804F08D0914B84
:1011D000984205D0904B984202D0904B984204D14F
:1011E0004FF68F731A404B881A438D4B984207D0A5
:1011F0008C4B984204D04FF6FF431A40CB881A43D9
:1012000002808B8883850B880385814B98420BD0A5
:10121000854B984208D08B4B984205D08A4B984218
:1012200002D08A4B984201D10B7A03860123838234
:10123000704770B5002400220023058C4FF6FE761F
:1012400035400584028C8388048B4FF68F752C40C3
:10125000B51E2C400D882C43751E2A400D892A434B
:101260004D882A436A4DA8420BD06F4DA84208D042
:10127000744DA84205D0744DA84202D0734DA842C7
:1012800013D14FF6F7752A404D892A434FF6FB7567
:101290002A408D882A434FF6FF652B404FF6FF55B5
:1012A0002B408D892B43CD892B4383800483CD88AC
:1012B0008586028470BD70B5002400220023058C51
:1012C0004FF6EF7635400584028C8388048B48F610
:1012D000FF752C404FF6FF452C400D884FF6FF76EA
:1012E00006EA05252C434FF6DF752A400D8906EAEC
:1012F00005152A434D8806EA05152A43444DA842A0
:1013000002D0494DA8421DD14FF67F752A404D8924
:101310004FF6FF7606EA05152A434FF6BF752A40B9
:101320008D8806EA05152A434FF6FF352B404FF20C
:10133000FF752B408D8906EA85052B43CD8906EA8A
:1013400085052B4383800483CD880587028470BD87
:1013500070B5002400220023058C4FF6FF6635404F
:101360000584028C8388848B4FF68F752C404FF652
:10137000FC752C400D882C434FF6FF552A400D89F3
:101380004FF6FF7606EA05252A434D8806EA05252D
:101390002A431F4DA84202D0234DA8421DD14FF22F
:1013A000FF752A404D894FF6FF7606EA05252A4348
:1013B0004FF6FF352A408D8806EA05252A434EF66A
:1013C000FF752B404DF6FF752B408D8906EA0515FC
:1013D0002B43CD8906EA05152B4383808483CD8872
:1013E0008587028470BD70B5002200230024058C1F
:1013F0004EF6FF7635400584038C8488828B48F650
:10140000FF752A404FF6FF452A400D8820E0000076
:10141000002C01400004004000080040000C004087
:10142000001000400014004000340140004C014016
:10143000005001400054014000180040001C0040D2
:1014400000200040004001400044014000480140AD
:101450004FF6FF7606EA05252A434DF6FF752B4029
:101460000D8906EA05352B434D8806EA05352B43E1
:10147000FA4DA84202D0FA4DA84208D14BF6FF75AA
:101480002C408D894FF6FF7606EA85152C43848023
:101490008283CD88A0F84050038470BD828B4FF2C8
:1014A000FF331A408283828B4FF6FF7303EA0123D6
:1014B0001A4382837047F0B50C461546002200217E
:1014C0000026078C4EF6FF7C07EA0C070784828B08
:1014D000018C4FF6FF7707EA043640F6FF473A40A3
:1014E0004FF6FF7707EA05273A434FF6FF7707EAFB
:1014F00003373A43D94FB8420ED0D94FB8420BD038
:10150000B0F1804F08D0D74FB84205D0D64FB8427F
:1015100002D0D64FB84206D14DF6FF77394046F497
:101520008057394305E047F6FF57394044F4805768
:10153000394382830184F0BD828B4FF6F3731A40E6
:101540008283828B0A4382837047F0B50C4615462E
:10155000002200210026078C4FF6FF6C07EA0C07DB
:101560000784828B018C4FF6FF7707EA04264FF63B
:101570000C773A404FF6FF7707EA03172F433A43B9
:10158000B64FB8420ED0B64FB8420BD0B0F1804F34
:1015900008D0B44FB84205D0B34FB84202D0B34FD1
:1015A000B84206D14FF6FF57394046F480773943A9
:1015B00005E04FF2FF57394044F480773943828386
:1015C0000184F0BD028B4FF2FF331A400283028B7D
:1015D0004FF6FF7303EA01231A4302837047F0B505
:1015E0000C461546002200210026078C4FF6EF7CA2
:1015F00007EA0C070784028B018C4FF6FF7707EA96
:10160000041640F6FF473A404FF6FF7707EA0337E4
:101610003A434FF6FF7707EA05273A438F4FB84220
:101620000ED08F4FB8420BD0B0F1804F08D08D4F05
:10163000B84205D08C4FB84202D08C4FB84206D188
:101640004FF6DF77394046F01007394305E04FF693
:101650005F77394044F01007394302830184F0BDBD
:10166000028B4FF6F3731A400283028B0A43028304
:101670007047F0B50C46154600220021068C4FF647
:10168000FE773E400684028B018C4FF60C7632408A
:101690007E1C06EA03162E433243704EB0420ED033
:1016A0006F4EB0420BD0B0F1804F08D06D4EB042BB
:1016B00005D06D4EB04202D06C4EB04206D14FF60E
:1016C000FD76314044F00106314305E04FF6F576F2
:1016D000314044F00106314302830184F0BD70B50E
:1016E00005460C465D4885420ED05D4885420BD0CC
:1016F000B5F1804F08D05B48854205D05A488542F5
:1017000002D05A48854200D100E000BF208850B97D
:101710002389A28861882846FFF7ABFFE188284625
:10172000FFF79EFF25E0208804280AD12389A2889C
:1017300061882846FFF753FFE1882846FFF742FFFC
:1017400017E0208808280AD12389A28861882846C2
:10175000FFF7FBFEE1882846FFF7EEFE09E023894C
:10176000A28861882846FFF7A6FEE1882846FFF791
:1017700095FE70BD2DE9F04105460C460026012777
:10178000608808B9022600E00026A088012801D15F
:10179000022700E001272088A0B92389A288618858
:1017A0002846FFF766FFE1882846FFF759FF23899F
:1017B0003A4631462846FFF712FFE1882846FFF7F0
:1017C00001FF13E02389A28861882846FFF707FFFD
:1017D000E1882846FFF7F6FE23893A463146284637
:1017E000FFF747FFE1882846FFF73AFFBDE8F081A1
:1017F0000A884B881A438B881A43CB881A430B8973
:101800001A434B891A438B891A43A0F84420704726
:101810004FF6FF71818000210180C18041800172FB
:1018200070470021018041808180C1800181418118
:101830008181C18170470021018041800121818027
:101840000021C18001817047002101804180818099
:10185000C18001814181818170470000002C0140DD
:10186000003401400004004000080040000C00402B
:1018700021B1028842F00102028004E002884FF6A2
:10188000FE731A400280704731B1B0F8442042F430
:101890000042A0F8442005E0B0F84420C2F30E0254
:1018A000A0F8442070471AB183890B43838102E07A
:1018B00083898B43838170478182704741EA0203A9
:1018C000A0F8483070471AB183890B43838102E046
:1018D00083898B438381704701894FF6F8721140E9
:1018E000018170470A46002101894FF68F73194024
:1018F00011430181704730B504460D462946204604
:10190000FFF7F0FF208940F00700208130BD2DE96E
:10191000F04104460D4616461F46602D06D13B4653
:10192000012231462046FFF75AFE05E03B460122E0
:1019300031462046FFF79DFE29462046FFF7D2FF9D
:10194000208940F007002081BDE8F08130B50C46C9
:1019500000210189C9B24FF6FF7505EA0325154339
:1019600025432943018130BD2DE9F04105460E464E
:1019700017469846002443463A4631462846FFF724
:10198000E5FF2C894FF6F870044044F007044FF649
:101990008F70044044F070042C81BDE8F081F0B5F4
:1019A00004460D4616461F463B463246294620460B
:1019B000FFF7CCFF208940F480402081F0BD0185F5
:1019C000828270470A46002101884FF68F731940C2
:1019D000114301807047F0B50C4615461E460021A4
:1019E000002200230189028B038C4FF6F8773940DF
:1019F00021434FF6FC473A4040F201173A434FF675
:101A0000DD773B404FF6FF7707EA06172F433B434E
:101A1000018102830384F0BD0A460021018B4FF649
:101A20008F7319401143018370470A460021018BCF
:101A300048F6FF7319404FF6FF7303EA0223194378
:101A4000018370470A460021818B4FF68F7319403E
:101A50001143818370470A460021818B48F6FF734A
:101A600019404FF6FF7303EA02231943818370473D
:101A700021B1028842F08002028004E002884FF621
:101A80007F731A400280704721B1828842F00402BD
:101A9000828004E082884FF6FB731A408280704790
:101AA00021B1828842F00802828004E082884FF6E9
:101AB000F7731A408280704721B1828842F0010298
:101AC000828004E082884FF6FE731A40828070475D
:101AD0000A460021018B4FF6F77319401143018329
:101AE00070470A460021018B4FF2FF7319404FF6F1
:101AF000FF7303EA02231943018370470A4600215A
:101B0000818B4FF6F77319401143818370470A4662
:101B10000021818B4FF2FF7319404FF6FF7303EAE8
:101B200002231943818370470A460021018B4FF637
:101B3000FB7319401143018370470A460021018B52
:101B40004FF6FF3319404FF6FF7303EA02231943A0
:101B5000018370470A460021818B4FF6FB731940C1
:101B60001143818370470A460021818B4FF6FF3372
:101B700019404FF6FF7303EA02231943818370472C
:101B80000A460021018B4FF67F73194011430183F0
:101B900070470A460021018BC1F30E014FF6FF7317
:101BA00003EA02231943018370470A460021818B0F
:101BB0004FF67F7319401143818370470A46002115
:101BC000818BC1F30E014FF6FF7303EA0223194321
:101BD000818370470A460021018C4FF6FD7319403E
:101BE0001143018470470A460021018C4FF6F773B8
:101BF00019401143018470470A460021018C4FF6B9
:101C0000DF7319404FF6FF7303EA0213194301848F
:101C100070470A460021018C4FF67F7319404FF63A
:101C2000FF7303EA02131943018470470A46002137
:101C3000018C4FF6FF5319404FF6FF7303EA02235E
:101C40001943018470470A460021018C4FF2FF734B
:101C500019404FF6FF7303EA0223194301847047CA
:101C60000A460021018C4DF6FF7319404FF6FF73B1
:101C700003EA023319430184704730B5002301247D
:101C80008C40A3B2048C9C430484048C02FA01F5BA
:101C9000ADB22C43048430BD30B5002304248C4005
:101CA000A3B2048C9C430484048C02FA01F5ADB207
:101CB0002C43048430BD70B5034600200024184630
:101CC000183001258D40ACB21D8CA5431D8409B18F
:101CD000082909D100EB6100056825F07005056051
:101CE0000568154305600EE00D1FC5F34E05284439
:101CF000056825F4E045056005684FF6FF7606EABD
:101D000002263543056070BD21B1028842F002020F
:101D1000028004E002884FF6FD731A40028070478B
:101D200021B1028842F00402028004E002884FF6EA
:101D3000FB731A400280704721B1828842F0800212
:101D4000828004E082884FF67F731A408280704759
:101D500002884FF6F7731A40028002880A43028015
:101D6000704782884FF68F731A40828082880A43B8
:101D70008280704702894FF6F8731A400281028907
:101D80000A430281704702894FF67F731A4002812D
:101D900002890A43028170478184704781857047B8
:101DA000818670470187704781877047A0F840108F
:101DB000704702884FF6FF431A40028002880A43A8
:101DC000028070470146888E70470146088F704731
:101DD0000146888F70470146B1F8400070470146C0
:101DE000888C70470146088D704702460020138A90
:101DF0000B400BB1012000E000207047CA43028273
:101E0000704730B50246002000230024158A05EAF9
:101E10000103958905EA010413B10CB1012000E02A
:101E2000002030BDCA4302827047000001460020F6
:101E3000FE4A106800F03800084310607047FB4904
:101E4000096821F00801F94A116011460968014347
:101E500011607047F549096821F01001F34A1160DB
:101E600011460968014311607047F148EF49486025
:101E7000F04848607047EE48EC494860ED484860DB
:101E80007047EA48006940F08000E84908617047FF
:101E9000E648006940F08000E4490861704704208A
:101EA000E249C96801F0010109B101200EE0DF49F2
:101EB000C96801F0040109B1022007E0DB49C968E3
:101EC00001F0100109B1032000E00420704700B5C3
:101ED00002460423FFF7E3FF034603E0FFF7DFFFBB
:101EE0000346521E012B01D1002AF7D102B9052366
:101EF000184600BD30B5044604254FF43020FFF7E6
:101F0000E6FF0546042D17D1C848006940F00200DD
:101F1000C649086108464461006940F04000086114
:101F20004FF43020FFF7D3FF0546C048006941F663
:101F3000FD710840BD490861284630BD10B5042434
:101F40004FF43020FFF7C3FF0446042C16D1B748E6
:101F5000006940F00400B54908610846006940F096
:101F6000400008614FF43020FFF7B1FF0446AF484E
:101F7000006941F6FB710840AC490861204610BD7C
:101F800000B502460423FFF78AFF034603E0FFF78C
:101F900086FF0346521E012B01D1002AF7D102B958
:101FA0000523184600BD10B504244FF43020FFF778
:101FB000E7FF0446042C16D19C48006940F0040059
:101FC0009A4908610846006940F0400008614FF4F2
:101FD0003020FFF7D5FF04469448006941F6FB71B5
:101FE000084092490861204610BD00208F49C96908
:101FF00001F0020109B1012000E00020704730B576
:10200000A5250424FFF7F1FF00B100254FF430208F
:10201000FFF75DFF0446042C3AD185488349886068
:10202000844888600846006940F02000086108463E
:10203000006940F0400008614FF43020FFF747FF8F
:102040000446042C1BD17948006941F6DF71084031
:10205000764908610846006940F01000086176483A
:102060000580E002FFF733FF0446052C10D06F48CF
:10207000006941F6EF7108406C49086108E0052CE1
:1020800006D06A48006941F6EF7108406749086167
:10209000204630BD78B506460C4604250020009049
:1020A000E802FFF714FF0546042D24D15F480069BC
:1020B00040F001005D4908613480E802FFF707FF46
:1020C0000546042D10D1B01C0090200C009908800A
:1020D000E802FFF7FCFE05465448006941F6FE7130
:1020E00008405249086106E05048006941F6FE7117
:1020F00008404E490861284678BD70B504460D4633
:102100000426F002FFF7E3FE0646042E11D14748ED
:10211000006940F00100454908612580F002FFF7A1
:10212000D6FE06464148006941F6FE7108403F4927
:102130000861304670BD70B505460E460424E002C5
:10214000FFF7C5FE0446042C17D13948374988608B
:10215000384888600846006940F0100008612E8009
:10216000E002FFF7B4FE0446052C06D02F480069B4
:1021700041F6EF7108402D490861204670BD2DE9F8
:10218000F04304464FF6FF763746B046B146042585
:10219000E443E6B2C4F30727C4F307484FEA1469DF
:1021A000E802FFF794FE0546042D49D120481F4957
:1021B0008860204888600846006940F01000086187
:1021C000FF2E06D01C4808300680E802FFF77FFE8D
:1021D0000546042D08D1FF2F06D017480A30078086
:1021E000E802FFF774FE0546042D0AD1B8F1FF0F8F
:1021F00007D011480C30A0F80080E802FFF767FE16
:102200000546042D0AD1B9F1FF0F07D00A480E3058
:10221000A0F80090E802FFF75AFE0546052D0FD002
:102220000248006941F6EF71084007E000200240D3
:1022300023016745AB89EFCD00F8FF1F66490861B0
:102240002846BDE8F08330B5054604244FF430201D
:10225000FFF73DFE0446042C41D160485E4988608A
:102260005F4888600846006940F020000861084621
:10227000006940F0400008614FF43020FFF727FE6E
:102280000446042C22D15448006941F6DF7108400D
:10229000514908610846006940F0100008611DB10D
:1022A00000205049088002E0A5204E4908804FF4E4
:1022B0003020FFF70CFE0446052C10D0464800697C
:1022C00041F6EF7108404449086108E0052C06D04A
:1022D0004148006941F6DF7108403F4908612046E6
:1022E00030BDF0B505460E46174604243B483A4932
:1022F00088603B488860E002FFF7E9FD0446042C53
:1023000019D13548006940F010003349086147F0A1
:10231000F800304328433349891C0880E002FFF766
:10232000D6FD0446052C06D02B48006941F6EF7116
:102330000840294908612046F0BD2748C069800847
:1023400070472548006A704700202349096801F05A
:10235000200109B1012000E00020704729B11E4A88
:10236000126902431C4B1A6104E01B4A1269824342
:10237000194B1A61704701460020012908D1164AFD
:10238000D26902F001020AB1012008E0002006E053
:10239000114AD2680A400AB1012000E000207047CB
:1023A0000D49C860704704200B49C96801F001015C
:1023B00009B101200EE00849C96801F0040109B122
:1023C000022007E00449C96801F0100109B10320A7
:1023D00000E0042070470000002002402301674510
:1023E000AB89EFCD00F8FF1F10B50446BE4884420C
:1023F00008D101218014FEF7BDFB0021A014FEF7D7
:10240000B9FB16E0B948844208D101210014FEF757
:10241000BEFB00212014FEF7BAFB0AE0B448844258
:1024200007D10121C013FEF7B2FB0021E013FEF734
:10243000AEFB10BD10B50022028802F441520B8899
:102440004C8823438C882343CC8823430C89234323
:102450004C8923438C892343CC8923431A4302802C
:10246000838B4FF2FF74234083830B8A038210BD5A
:102470002DE9F04F85B005460C464FF000090227C4
:102480004FF000084FF0010B0026B246A88B4FF228
:1024900040010840A88302202884B5F81C90A06859
:1024A000022801D100BF38E0A08810B94FF0010B1D
:1024B00001E04FF0020B8D48854200D100E000BFE3
:1024C0006846FEF7D0FADDF800A0E088B0F5007F9E
:1024D0000AD14FEA1A2000EB80004000A168B0FB4F
:1024E000F1F0401D86B20BE04FEA4B10BAFBF0F062
:1024F00000EB80004000A168B0FBF1F0401D86B207
:102500000A20B6FBF0F606F00108A6EB0800C0F3BF
:102510004F074FF6FF7000EA0828022F01DBFF2F5C
:1025200002DD02274FF00008E08840EA0800384347
:102530002884A088A189084361880843218808432A
:1025400040F4006040EA0909A5F81C9005B0BDE818
:10255000F08F0021018041808180C1800181418113
:102560008181C18107210182704700210180418062
:102570008180C1800221816000218181704721B169
:10258000028842F04002028004E002884FF6BF73E6
:102590001A400280704721B1828B42F480628283AC
:1025A00004E0828B4FF6FF331A408283704730B5C8
:1025B000002400230C110125A540ABB21AB1858877
:1025C0001D43858002E085889D43858030BD1AB11A
:1025D00083880B43838002E083888B43838070472A
:1025E000818170470146888970474FF6FF629142AA
:1025F00004D0028842F48072028004E002884FF620
:10260000FF631A400280704721B1828842F00402C1
:10261000828004E082884FF6FB731A408280704704
:1026200002884FF2FF731A40028002880A43028038
:102630007047018841F480510180704721B10288C0
:1026400042F40052028004E002884DF6FF731A4003
:102650000280704702460020012901D0108B00E063
:10266000908A70470146088A7047B1F5804F04D1BF
:10267000028842F48042028004E002884BF6FF7335
:102680001A40028070470246002013890B400BB1AC
:10269000012000E000207047CA4302817047F0B576
:1026A0000246002000240023002501F00F07012628
:1026B000BE40B4B20B1101269E40B3B2968806EA22
:1026C00003051689264016B10DB1012000E0002057
:1026D000F0BD10B5002201F00F040123A3409AB20F
:1026E000D343038110BD000000300140003800409A
:1026F000003C004001B581B00AE04FF4005000906A
:1027000000BFBDF80000411E89B200910028F8D139
:10271000BDF80400411E89B201910028EDD10CBD25
:102720000EB576A00068029041F2B35001900646C3
:1027300041F264070024002500F05CF900F0C1F9C3
:1027400003F086FA02F097FE01F0DEFC06F058FD79
:1027500003F0E8FE03F00AFF01F023FF01F02EFF73
:1027600000F094FA40F27F2140F2E73003F0C8F91C
:1027700003F0B0FA02F010FB4FF4164003F0EAFC4D
:1027800000F002FB02F09EFF05F0B8FC5C4BDA7D26
:10279000997D587D03F054FF03F000FF4FF49671CC
:1027A000002003F065FA0121062003F061FA554884
:1027B0000078B0B9544890F82100012802D10020D7
:1027C00003F0D5FF504890F82200012809D106E017
:1027D00005F02AF94D480078012800D100E0F7E71C
:1027E00000BF8AE04748007800287AD106F0F6FA60
:1027F000454890F82100002835D104F072F950B313
:1028000022282FD1002004F063F900F0040018B151
:102810000421002004F036FA002004F095F9041E8B
:1028200018DD611C3A4807F03CF801A802AB2246CB
:1028300037490090002005F06DFB002504E0344985
:10284000485D01F0D0FD6D1CA542F8DB3148006801
:1028500001F03CFD06E0002332460221184605F057
:102860003BF900BF3DE0012004F03BF980B31328A1
:1028700004D0172806D01C2832D125E0012005F00D
:102880008BF92DE0012004F023F900F0010018B1CC
:102890000121084604F0F6F9012004F055F9044638
:1028A000002C10DD22461A49012005F08CFA1A4846
:1028B000046022461649194806F074FF1649098833
:1028C00088B201F0AFFB0BE0012005F0EBF807E068
:1028D000FFE720233A460121084605F0FDF800BF36
:1028E00000BF03F0A8FD03F020F801F01EFF00F088
:1028F000A9FC00F013FA00F050FD73E77237598F0E
:10290000341700208A0000204C1A0020DC00002030
:102910005A0100206C000020580000206C0A0020A2
:1029200010B5FDF79FFF4FF48030FDF7BBFFFDF7BB
:10293000F8FF0446012C5CD10020FEF738F8002097
:10294000FEF747F8A002FEF73BF80120FFF76EFA0A
:102950001020FFF77FFA4FF4E0112004FEF70AF889
:102960000120FEF713F800BF3920FDF7BEFF002855
:10297000FAD00220FEF70DF800BFFEF713F8082882
:10298000FBD10121FD20FEF7DBF801218803FEF7D2
:10299000E4F80121C806FEF7E0F801210807FEF778
:1029A000DCF80121C802FEF7CBF801210846FEF74A
:1029B000D4F801214802FEF7C3F84FF40040FEF7B7
:1029C00023F801210846FEF7AEF801210220FEF7A8
:1029D000AAF801218803FEF7B3F801214804FEF7A5
:1029E000BCF801218804FEF7B8F80121D648FDF7AC
:1029F000BCFE10BD10B5FDF735FF0120FDF7B7FF98
:102A000000BF2120FDF771FF0028FAD00020FDF75C
:102A1000CEFF0020FDF7DDFF4FF48060FDF7D0FF13
:102A20000120FFF703FA1020FFF714FA4FF46011AA
:102A30000020FDF79FFF0120FDF7A8FF00BF392010
:102A4000FDF753FF0028FAD00220FDF7A2FF00BFD8
:102A5000FDF7A8FF0828FBD10121FD20FEF770F843
:102A600001218803FEF779F80121C806FEF775F801
:102A700001210807FEF771F80121C802FEF760F88E
:102A800001210846FEF769F801214802FEF758F8CF
:102A90004FF40040FDF7B8FF01210846FEF743F868
:102AA00001210220FEF73FF801218803FEF748F8D4
:102AB00001214804FEF751F80121A348FDF755FE16
:102AC00010BD10B500214FF00060FDF7E6FC4FF49B
:102AD000A060FDF7ABFC10BD10B586B00446012127
:102AE0008803FEF72DF801210420FDF73EFE0021AA
:102AF0009648FEF758F94020ADF8140003208DF8F1
:102B0000160018208DF8170005A99148FDF75CFD07
:102B10008020ADF8140004208DF8170005A98C481A
:102B2000FDF752FD01940020ADF80800ADF80A0051
:102B3000ADF80C00ADF810000C20ADF80E0001A9A6
:102B40008248FEF7A4F801218048FEF72CF9012203
:102B500040F225517D48FEF732F925208DF800001E
:102B600000208DF801008DF8020001208DF803008F
:102B70006846FDF760FC06B010BD7FB505460C4603
:102B800001210220FDF7E9FFADF80850ADF804403F
:102B90000020ADF80A00ADF8060001A96D48FEF767
:102BA0000BFB012211466B48FEF77DFE1D208DF8C0
:102BB000000001208DF8010003208DF802000120A3
:102BC0008DF803006846FDF736FC01216148FEF7E9
:102BD0004FFE7FBD7FB505460C4601210420FDF761
:102BE000BCFFADF80850ADF804400020ADF80A0075
:102BF000ADF8060001A95848FEF7DEFA0122114699
:102C00005548FEF750FE1E208DF8000001208DF87B
:102C1000010003208DF8020001208DF803006846B2
:102C2000FDF709FC01214C48FEF722FE7FBD7FB570
:102C300004460D460121C802FDF782FF19208DF8D8
:102C4000000000208DF8010003208DF80200012013
:102C50008DF803006846FDF7EEFBADF80450002048
:102C6000ADF80600ADF80840ADF80A008DF80C008C
:102C700001A93A48FEF7A0FA012211463748FEF7AB
:102C800012FE00213548FEF7F3FD7FBD08B5482050
:102C90008DF8030003208DF802002020ADF800001D
:102CA00069462B48FDF790FC08BD08B510208DF84B
:102CB000030003208DF802004020ADF800006946B3
:102CC0002748FDF781FC40212548FDF72CFD08BD74
:102CD00010B540212248FDF726FD40212048FDF790
:102CE00020FD4FF4967001F048FA40211C48FDF792
:102CF0001AFD4FF4967001F040FA10BD10B5FFF7C1
:102D0000E7FFFFF7E5FF10BD10B5FFF7E1FFFFF7A5
:102D1000DFFFFFF7DDFFFFF7DBFF10BD10B56FF042
:102D20007F4420210A48FDF7E2FC01280AD003E095
:102D3000641E0CB906F05AFA20210548FDF7D7FCAD
:102D40000128F5D110BD000000023000003801401C
:102D5000000C01400004004000080040002C01402D
:102D600000080140704700BFFEE700BFFEE700BF5C
:102D7000FEE700BFFEE7704770477047704710B529
:102D800002F00AFF10BD000008B510208DF8030006
:102D900003208DF802004FF20300ADF800006946F1
:102DA000FB48FDF711FC10208DF8030003208DF87F
:102DB00002004FF41060ADF800006946F548FDF7D9
:102DC00003FC48208DF8030003208DF802004FF427
:102DD0007070ADF800006946ED48FDF7F5FB08BDE1
:102DE00010B51822EC49002003F086F90822EB49BF
:102DF000182003F081F910BD10B50221E448FDF759
:102E000090FC10BD10B50121E148FDF78AFC10BD12
:102E100010B54FF48051DE48FDF783FC10BD10B5AE
:102E20004FF40051DA48FDF77CFC10BD10B54FF4AB
:102E30008041D748FDF775FC10BD10B54FF4004137
:102E4000D348FDF76EFC10BD10B54FF48071D1482A
:102E5000FDF767FC10BD10B54FF40061CD48FDF7DC
:102E600060FC10BD10B50221C948FDF75CFC10BD27
:102E700010B50121C648FDF756FC10BD10B54FF442
:102E80008051C348FDF74FFC10BD10B54FF4005101
:102E9000BF48FDF748FC10BD10B54FF48041BC4859
:102EA000FDF741FC10BD10B54FF40041B848FDF7E7
:102EB0003AFC10BD10B54FF48071B648FDF733FCF5
:102EC00010BD10B54FF40061B248FDF72CFC10BDE9
:102ED00010B54FF40071AE48FDF709FC10BD10B5F8
:102EE0004FF48071AA48FDF702FC10BD10B5802197
:102EF000A748FDF7FCFB10BD10B54021A448FDF725
:102F0000F6FB10BD70B505460C46E91705EB51718F
:102F10000122B2EBE10F6BD104F0010020B10221DC
:102F20009B48FDF7FEFB03E002219948FDF7FBFB00
:102F300004F0020020B101219548FDF7F2FB03E007
:102F400001219348FDF7EFFB04F0040028B14FF492
:102F500080518F48FDF7E5FB04E04FF480518C4829
:102F6000FDF7E1FB04F0080028B14FF40051884858
:102F7000FDF7D7FB04E04FF400518548FDF7D3FB84
:102F800004F0100028B14FF480418148FDF7C9FBDF
:102F900004E04FF480417E48FDF7C5FB04F02000BB
:102FA00028B14FF400417A48FDF7BBFB04E04FF431
:102FB00000417748FDF7B7FB04F0400028B14FF41B
:102FC00080717448FDF7ADFB04E04FF480717148E7
:102FD000FDF7A9FB04F0800028B14FF400616D48B3
:102FE000FDF79FFB04E04FF400616A48FDF79BFB8F
:102FF00070BD10B54FF47A7001F0BFF84FF47A70DD
:1030000001F0BBF8002409E0654951F8240080472D
:103010004FF4967001F0B1F8601CC4B2082CF3DBD9
:103020004FF47A7001F0A9F8002409E05D4951F8E5
:10303000240080474FF4967001F09FF8601CC4B2E2
:10304000082CF3DB10BD70B504460D46082C00DCDF
:1030500014B94FF0FF3070BD012D05D1611E504AEB
:1030600052F82100804704E0611E4E4A52F82100C8
:103070008047601E49490D540020ECE770B50546B5
:103080000024002601240BE005F00106314620460D
:10309000FFF7D9FF601E41490E546D10601CC4B289
:1030A000092CF1DB70BD0020002100BF06E03B4A87
:1030B000525C8A400243D0B24A1CD1B20829F6DBE6
:1030C0007047014609B1082901DD00207047481EFC
:1030D000324A105CFAE770B50646002400250DE080
:1030E0006006040EC5F107012F4A52F821008047FF
:1030F000012801D144F00104681CC5B2082DEFDBA2
:10310000347070BD10B504460121601E274A02EBE1
:10311000400041700021601E02F81010052002F0EE
:10312000C9FD20B94FF49671052002F0A1FD10BD34
:1031300010B50124062002F0B5FD08B9A01E10BD8F
:103140000121062002F094FD002460E0164951F8A8
:103150002400804790BB1648005D80BB154830F8BE
:103160001400401C134921F81400084630F81400DC
:1031700032284ADD01200E490855A0400E49097841
:1031800008430D49087000200A4921F814003CE06A
:10319000000C0140000801405A0900202F000020C7
:1031A000D89E0008F89E0008189F000872090020A9
:1031B000430000204A0A00204B00002005E0FFE702
:1031C0000020F74921F814001FE0F64951F82400C7
:1031D0008047012819D1F448005D90B1F04830F8DB
:1031E0001400401CEE4921F81400084630F8140081
:1031F00032280ADD0020EC490855E94921F814007D
:1032000003E00020E94921F81400601CC4B2042C3A
:103210009CDB002093E710B588B004462021684667
:1032200006F061FB0320E2490870E24B2246E2A16E
:10323000684606F031F86A46E1A1E3A002F00BFC13
:1032400008B010BD10B5FFF773FF401C00B910BDEA
:10325000DF48007800B9FAE7002419E00120A04017
:10326000DB490978084080B1DA480078BB2804D1EE
:10327000D94951F82400804708E0611CC8B2FFF723
:10328000CAFF611CC8B2FFF73DFF00BF601CC4B29B
:10329000082CE3DB0020CE49087000BFD7E70246C8
:1032A0000AB1082A03DD12B14FF0FF30704701293F
:1032B00004D019B111B14FF0FF30F7E70020F5E766
:1032C0000022411EC54B03EB41014A7070472DE9B6
:1032D000F04704460D4616461F464FF00008C1460B
:1032E0000CB9032000E00120814605FB0940304471
:1032F0001FFA80F83978404602F085FEBDE8F08775
:1033000010B50246002022B1012A16D0022A38D177
:1033100026E000210EE04306180EC1F1070303EB7F
:103320004303AF4C23445B78012B01D1431CD8B23B
:103330004B1CD9B20829EEDB23E000210DE0430647
:10334000180EC1F1070303EB4303A54CE35C012B0B
:1033500001D1431CD8B24B1CD9B20829EFDB10E0D5
:1033600000210BE04306180EC1F107039D4CE35CFE
:10337000012B01D1431CD8B24B1CD9B20829F1DB77
:1033800000BF00BF10BD10B50220FFF7B9FF044613
:1033900021460820FFF7B6FD10BD10B5052002F04C
:1033A00081FC00B910BD052002F08CFC002422E055
:1033B0008A4800EB4400407801281AD1874810F869
:1033C0001400032810DA611CC8B2FFF724FF8348F9
:1033D00010F81400401C814901F814004FF4967154
:1033E000052002F045FC04E000207C4901EB44018B
:1033F0004870601CC4B2082CDADB00BFD2E72DE9AC
:10340000F05F0746884691469A46BB462C215846AF
:1034100006F0E6F8040004D000202070641C254665
:1034200003E04FF0FF30BDE8F09F2C21284606F066
:10343000D7F8040004D000202070641C264602E067
:103440004FF0FF30EFE7584606F0B6F888F8000076
:10345000284606F0B1F889F80000304606F0ACF8CE
:103460008AF800000020DEE730B593B00446002063
:10347000129011901090451E342103A806F033FAE3
:1034800011AB12AA10A9A068FFF7B9FF9DF8400080
:1034900055490978884207D19DF844109DF84800A5
:1034A000FFF7FDFE05462BE09DF840004E490978E8
:1034B00088420BDD9DF840004B4908709DF8441090
:1034C0009DF84800FFF7EBFE054619E046480078F6
:1034D0009DF84010401A01280BDD9DF8400042493C
:1034E00008709DF844109DF84800FFF7D8FE054687
:1034F00006E09DF844109DF84800FFF7D0FE054611
:10350000B5BB9DF844109DF84800FFF79CFD9DF861
:1035100044109DF84800401E324A11549DF848005E
:10352000401EC1B211AB00221820FFF7D0FE214887
:103530009DF84410CDE900109DF848309DF84020DA
:103540002AA103A805F0A8FE03AAD4E9000102F00D
:1035500082FA25480078401C23490870C821264873
:1035600006F09FF9322203A9234806F01BF947E031
:10357000FFE722489DF84410CDE900109DF848303F
:103580009DF8402019A103A805F086FE03AAD4E9FE
:10359000000102F060FA4FF0FF3013B030BD0000C0
:1035A0005A0A0020189F0008430000204A0A002001
:1035B0008D0000202E9F000825642C25730000003C
:1035C000414C41524D00000052454C415900000011
:1035D0004B0000204C000020D89E000872090020FB
:1035E0005A0900202F0000203700002025642C25D8
:1035F000642C25642C25730082090020289F000874
:10360000002013B030BD2DE9F04790B004464FF0D4
:103610000009002600254FF0FF3A342103A806F0E8
:1036200062F92C21A06805F0DBFF070004D0002020
:1036300038707F1CB84604E04FF0FF3010B0BDE892
:10364000F087A06805F0B8FFC5B2404605F0B4FFAA
:10365000C6B2FE480078854205D100213046FFF70A
:103660001EFE82461FE0F9480078854207DDF748D4
:10367000057000213046FFF712FE824613E0F34842
:103680000078401B012807DDF04805700021304616
:10369000FFF705FE824606E0ED4AD4E9000102F09C
:1036A000DAF90020CAE7BAF1000F21D1701EE9490A
:1036B00011F80090E84833462A46AFF2D001CDE930
:1036C000009003A805F0E8FD03AAD4E9000102F088
:1036D000C2F9DE480078401CDC490870C821DC488B
:1036E00006F0DFF8322203A9D94806F05BF80FE0B4
:1036F000DA4833462A46DAA1009003A805F0CCFD4B
:1037000003AAD4E9000102F0A6F94FF0FF3095E7D3
:10371000002093E7F0B58FB00446002600256F1E09
:10372000342102A806F0DFF8A06805F045FFC5B215
:10373000C6480078854201D1002718E0C3480078C8
:10374000854203DDC1480570002710E0BF480078BE
:10375000401B012803DDBD480570002707E0BC4A77
:10376000D4E9000102F077F900200FB0F0BDFFB9F5
:103770000220FFF7C5FD0646B74833462A46B8A1E2
:10378000009002A805F088FD02AAD4E9000102F029
:1037900062F9AE480078401CAC490870C821AC48BA
:1037A00006F07FF8322202A9A94805F0FBFF0EE0DF
:1037B000AA4B2A46AFF2002102A805F06DFD02AA2D
:1037C000D4E9000102F047F94FF0FF30CDE70020C7
:1037D000CBE770B590B0044600200F900025461E40
:1037E000342102A806F07FF8A06805F0E5FEC5B216
:1037F00096480078854201D1002618E09348007869
:10380000854203DD91480570002610E08F4800785E
:10381000401B012803DD8D480570002607E08C4A17
:10382000D4E9000102F017F9002010B070BDFEB914
:103830000FA8FFF750FC884800909DF83C302A46BE
:1038400087A102A805F028FD02AAD4E9000102F030
:1038500002F97E480078401C7C490870C8217C48E9
:1038600006F01FF8322202A9794805F09BFF10E00C
:103870007A4800909DF83C302A4679A102A805F0CC
:103880000BFD02AAD4E9000102F0E5F84FF0FF3089
:10389000CBE70020C9E72DE9F041044600272C21A1
:1038A000A06805F09DFE050008D0002028706D1C62
:1038B0002E46A06805F080FEC7B203E04FF0FF304F
:1038C000BDE8F08100213846FFF7E9FC401C10B943
:1038D0004FF0FF30F4E76049304606F057F818B96A
:1038E0003846FFF7EDFC02E04FF0FF30E8E700203C
:1038F000E6E730B593B00446002012901190109086
:10390000451E342103A805F0EEFF11AB12AA10A941
:10391000A068FFF774FD9DF840004C490978884283
:1039200007D19DF844109DF84800FFF7B8FC054604
:103930002CE09DF840004549097888420BDD9DF850
:103940004000424908709DF844109DF84800FFF778
:10395000A6FC05461AE03D4800789DF84010401A44
:1039600001280BDD9DF84000384908709DF844108F
:103970009DF84800FFF793FC054607E0344AD4E978
:10398000000102F068F8002013B030BDA5BB9DF81F
:1039900044109DF84800401E00EB4000334A10449C
:1039A00041709DF84800401EC1B211AB01220020B9
:1039B000FFF78DFC28489DF84410CDE900109DF8D4
:1039C00048309DF84020AFF2DC3103A805F064FCDC
:1039D00003AAD4E9000102F03EF81C480078401C1C
:1039E0001A490870C8211A4805F05BFF322203A962
:1039F000174805F0D7FE16E0FFE718489DF8441079
:103A0000CDE900109DF848309DF84020AFF22441E8
:103A100003A805F041FC03AAD4E9000102F01BF859
:103A20004FF0FF30B0E70020AEE7F0B58FB00446AE
:103A3000002600256F1E342102A805F054FFA0685F
:103A400005F0BAFDC5B20148007811E0370000204A
:103A5000820900202F0000202E9F0008289F0008C8
:103A600025642C25642C2573000000005A090020D1
:103A7000854201D1002718E0F8480078854203DD2F
:103A8000F6480570002710E0F4480078401B012834
:103A900003DDF2480570002707E0F14AD4E9000190
:103AA00001F0D9FF00200FB0F0BD07BB0020FFF7E9
:103AB00027FC0646EB4833462A46AFF25C010090ED
:103AC00002A805F0E9FB02AAD4E9000101F0C3FF56
:103AD000E2480078401CE1490870C821E04805F040
:103AE000E0FE322202A9DE4805F05CFE10E0DE486E
:103AF00033462A46AFF29801009002A805F0CCFBAD
:103B000002AAD4E9000101F0A6FF4FF0FF30CAE796
:103B10000020C8E730B593B0044600201290119001
:103B20001090451E342103A805F0DDFE11AB12AA4A
:103B300010A9A068FFF763FC9DF84000C749097809
:103B4000884207D19DF844109DF84800FFF7A7FB75
:103B500005462CE09DF84000C049097888420BDDFD
:103B60009DF84000BD4908709DF844109DF848003C
:103B7000FFF795FB05461AE0B84800789DF840101D
:103B8000401A01280BDD9DF84000B44908709DF8EB
:103B900044109DF84800FFF782FB054607E0B04A55
:103BA000D4E9000101F057FF002013B030BD9DBBE8
:103BB0009DF844109DF84800401E00EB4000AB4AC1
:103BC00011549DF84800401EC1B211AB00221046AE
:103BD000FFF77DFBA3489DF84410CDE900109DF848
:103BE00048309DF84020AFF2FC5103A805F054FB8B
:103BF00003AAD4E9000101F02EFF98480078401C88
:103C000096490870C821964805F04BFE322203A958
:103C1000934805F0C7FD16E0FFE793489DF8441070
:103C2000CDE900109DF848309DF84020AFF2446186
:103C300003A805F031FB03AAD4E9000101F00BFF52
:103C40004FF0FF30B1E70020AFE730B593B0044646
:103C50000020129011901090451E342103A805F009
:103C600042FE11AB12AA10A9A068FFF7C8FB9DF88D
:103C700040007A490978884206D100219DF8480021
:103C8000FFF70DFB05462AE09DF8400073490978CF
:103C900088420ADD9DF840007049087000219DF8B7
:103CA0004800FFF7FCFA054619E06C4800789DF8DB
:103CB0004010401A01280ADD9DF84000674908704D
:103CC00000219DF84800FFF7EAFA054607E0644A3C
:103CD000D4E9000101F0BFFE002013B030BDA5BB48
:103CE0009DF844109DF84800401E00EB40005F4ADC
:103CF000104481709DF84800401EC1B211AB0222F1
:103D00000020FFF7E4FA57489DF84410CDE9001071
:103D10009DF848309DF84020AFF2307103A805F0BF
:103D2000BBFA03AAD4E9000101F095FE4B480078E4
:103D3000401C4A490870C821494805F0B2FD3222AA
:103D400003A9474805F02EFD16E0FFE746489DF819
:103D50004410CDE900109DF848309DF84020AFF2A6
:103D6000747103A805F098FA03AAD4E9000101F0E0
:103D700072FE4FF0FF30B0E70020AEE72DE9F041D2
:103D800090B00446002600200F9000254FF0FF3829
:103D9000342102A805F0A7FD2C21A06805F020FC25
:103DA000070007D0002038707F1CA06805F004FCD5
:103DB000C5B204E04FF0FF3010B0BDE8F0812748F5
:103DC0000078854202D14FF0000815E023480078C2
:103DD000854202DD4FF000080EE020480078401BCD
:103DE000012802DD4FF0000806E01D4AD4E9000179
:103DF00001F031FE0020DFE7B8F1000F38D19DF867
:103E00003C10701E00EB4000184A10448170701E78
:103E1000C1B20FAB02220020FFF759FA11489DF8FA
:103E20003C1033462A46CDE90010AFF6400102A807
:103E300005F032FA02AAD4E9000101F00CFE0748AD
:103E40000078401C05490870C821054805F029FD87
:103E5000322202A9024805F0A5FC1DE0370000202F
:103E6000820900202E9F0008289F00085A09002080
:103E700091489DF83C1033462A46CDE90010AFF634
:103E8000940102A805F008FA02AAD4E9000101F0A1
:103E9000E2FD4FF0FF308FE700208DE72DE9F04F76
:103EA0008FB0044600264FF0FF3B342102A805F0F6
:103EB0001AFDB2462C21A06805F092FB5FEA0008CB
:103EC0000AD0002088F8000008F10108C146A06867
:103ED00005F072FBC6B204E04FF0FF300FB0BDE852
:103EE000F08F484605F068FB00F0FF0A574673481C
:103EF0000078864202D14FF0000B10E06F48007846
:103F0000864202DD4FF0000B09E06C480078801B10
:103F1000012802DD4FF0000B01E04FF0000BBBF178
:103F2000000F35D1002514E007F0010038B16449D5
:103F300051F82500804701206249485506E0624952
:103F400051F82500804700205E4948557F10681CC5
:103F5000C5B2082DE8DB5D4853463246AFF200514A
:103F6000009002A805F098F902AAD4E9000101F036
:103F700072FD52480078401C50490870C8215448CE
:103F800005F08FFC322202A9514805F00BFC0FE02E
:103F90004948534632464FA1009002A805F07CF9EB
:103FA00002AAD4E9000101F056FD4FF0FF3095E779
:103FB000002093E710B58EB00446342101A805F027
:103FC00092FC424B454A46A101A805F065F901AAB9
:103FD000D4E9000101F03FFD00200EB010BD30B566
:103FE00095B0054620210DA805F07DFC34216846DA
:103FF00005F079FC0DA801F0BCFA0DAA3AA16846BB
:1040000005F04AF9684605F057FB04462146684624
:1040100001F00EFDBB2038490870FEF7EAFF0020D2
:1040200015B030BDF0B5B5B006460027C82103A8CD
:1040300005F059FC3246314903A805F0B3FBC8210D
:104040002E4805F02EFC03A800902D21009805F0C5
:10405000C7FA040004D000202070641C019403E01F
:104060004FF0FF3035B0F0BD2D21204605F0B8FAF5
:10407000040004D000202070641C029402E04FF081
:10408000FF30EFE7002512E005EB85021C4B03EB48
:104090008201019805F07AFC38B91A4850F82510C9
:1040A0006846884707463846DCE7681CC5B20D2DD0
:1040B000EADB3846D6E70000289F000837000020DA
:1040C000D89E00082F000020F89E00082E9F0008B0
:1040D00082090020256425642C2573003900002006
:1040E00025732C2573000000484F53542D43484B33
:1040F0004C49432D257300004C0000206C0A002021
:10410000A09D0008A49E000810B56FF00400FCF705
:10411000DCF908202B4908700846007800EB4001C4
:10412000C1EBC0104FF6FF7101EAC00026490880BC
:1041300010BD0146234A12784A434FF0E0235A61EA
:1041400000229A611A46126942F001021A6100BF08
:104150004FF0E022106900F001021AB100F4803241
:10416000002AF5D04FF0E022126922F001024FF050
:10417000E0231A6100229A6170470146124A1288B0
:104180004A434FF0E0235A6100229A611A461269AD
:1041900042F001021A6100BF4FF0E022106900F006
:1041A00001021AB100F48032002AF5D04FF0E0226B
:1041B000126922F001024FF0E0231A6100229A6195
:1041C000704700004E000020500000200BE04FF42C
:1041D0009670FFF7D2FF4FF49670FFF7CEFF4FF4C3
:1041E0009670FFF7CAFFF2E708B510208DF80300BC
:1041F00003208DF802000220ADF800006946F74860
:10420000FCF7E2F90221F548FCF78BFA08BD002023
:10421000F3490860F34908707047F1480068704737
:104220000020F1490860F14908707047EE480068C5
:10423000704710B586B0044601214804FCF78DFC98
:104240000021EB48FCF7AFFD0420ADF8140003207B
:104250008DF8160018208DF8170005A9DF48FCF727
:10426000B3F90820ADF8140004208DF8170005A953
:10427000DA48FCF7A9F901940020ADF80800ADF880
:104280000A00ADF80C00ADF810000C20ADF80E00DF
:1042900001A9D748FCF7FBFC0121D548FCF783FDB9
:1042A000012240F22551D248FCF789FD26208DF8E5
:1042B000000000208DF8010001208DF802008DF82B
:1042C00003006846FCF7B7F806B010BD10B5044609
:1042D00004B9282464000021C648FDF7C9FA00206B
:1042E000C5490860C54804600020C24924310880DF
:1042F000BB4908600120BB4908700121BD48FDF79A
:10430000B7FA10BD10B5044604B928240021B948F5
:10431000FDF7AEFA0020BA490860BA4804600020F0
:10432000B44924310880B04908600120AF490870C1
:104330000121B048FDF79CFA10BD10B50021AD4831
:10434000FDF796FA10BD10B50121AA48FDF759FDF9
:1043500000283BD0A3480078012813D1A648006864
:10436000401CA549086008460068A44909688842BD
:1043700008D10020A0490860012099490860002068
:104380009849087099480078012813D19C48006822
:10439000401C9B490860084600689A4909688842A1
:1043A00008D100209649086001208F49086000204C
:1043B0008E4908708D48007820B98A48007808B97D
:1043C000FFF7BBFF01218B48FDF72CFD10BD00203E
:1043D0008D49086148618860704700208B490861F9
:1043E00048618860704788494A694969491C864B19
:1043F000596119460968885419464969B1F5807FA1
:1044000002D100211A4651617F4949697E4A1269E9
:10441000914210D97C498968B1F5807F0BD17A49E6
:104420000969491C784A116111460969B1F5807F13
:1044300001D10021116174498968491C724A916057
:1044400011468968B1F5807F02D94FF4807191607F
:1044500070476E494A694969491C6C4B5961194654
:104460000968885419464969B1F5807F02D1002155
:104470001A46516165494969644A1269914210D9E5
:1044800062498968B1F5807F0BD160490969491C8F
:104490005E4A116111460969B1F5807F01D10021A1
:1044A00011615A498968491C584A916011468968C6
:1044B000B1F5807F02D94FF4807191607047014659
:1044C00051480069504A5269904207D14E4880686D
:1044D000B0F5807F02D06FF0010070474A488068D5
:1044E000401E494A9060104600681269805C08705E
:1044F00045480069401C444A106110460069B0F507
:10450000807F01D1002010610020E6E701463F488E
:1045100000693E4A5269904207D13C488068B0F534
:10452000807F02D06FF00100704738488068401EDD
:10453000364A9060104600681269805C0870334803
:104540000069401C314A106110460069B0F5807F57
:1045500001D1002010610020E6E730B504460D4689
:10456000002308E0E018FFF7AAFF002802DA4FF066
:10457000FF3030BD5B1CAB42F4D30020F9E730B50F
:1045800004460D46002308E0E018FFF7BFFF0028AF
:1045900002DA4FF0FF3030BD5B1CAB42F4D3002099
:1045A000F9E710B51821184805F09DF91848164983
:1045B0000860FFF70CFF01F085F810BD10B5182159
:1045C000124805F090F9134810490860FFF705FFFD
:1045D00010BD114A1160114A106070470008014077
:1045E0008000002088000020840000208900002036
:1045F00000440040002C01407000002074000020A6
:10460000780000207C000020340E00204C0E00209A
:10461000340C0020340D00206C00002068000020C5
:10462000F849F94A12788854F7490978491CF64A3A
:10463000117011460978C82901DB002111707047FB
:10464000F2480078401CF149087008460078C828F4
:1046500001DB0020087070470020EB490978EB4A25
:104660001278914206DBE8490978E84A1278891AFB
:10467000C8B206E0E5490978C831E34A1278891AD8
:10468000C8B2704700B50346FFF7E6FF984204DA68
:10469000DD480078DD4908700CE0DC4800781844FB
:1046A000DA49087008460078C82803DB0846007815
:1046B000C838087000BD02461146612904DB7A291A
:1046C00002DCA1F12000C1B2392903DDA1F13700DC
:1046D000C0B27047A1F13000C0B2FAE730B505466C
:1046E0000C4600232846FFF7E6FF0346F02000EAC9
:1046F00003132046FFF7DFFF0343184630BD70B5B4
:1047000004460D4626460BE000BF4021C048FCF79A
:1047100025FC0028F9D016F8011BBD48FCF7B0FBBA
:104720002800A5F10105EFD170BD70B59AB0002445
:10473000FFF792FF04460D2C21DBB248B3490978FC
:10474000405C52287ED1152C50DBB04800781530E3
:10475000C82818DAAB49AD4A127888181522ADA1DD
:1047600004F0C9FF60B92022B04912A805F05FF833
:104770001E2112A8FFF7C3FF1520FFF783FFE4E215
:10478000FFF75EFFE1E2182114A805F0ACF89F489E
:104790000078C0F1C8029B489C4B1B78C11814A834
:1047A00005F000F899490978A1F1B3029749097811
:1047B000C1F1C80114ABC818924904F0F3FF1522E7
:1047C0009BA114A804F097FF68B9202297492031D3
:1047D0000CA805F02CF81E210CA8FFF790FF15205F
:1047E000FFF750FF01E0FFF72BFFAEE2122C60DB7A
:1047F000864800781230C82825DA8249834A127820
:10480000881810228AA104F076FF0028B7D100256D
:104810007C4B7E4A12781132995C7C4A12781032B5
:10482000985CFFF75BFF05462846FEF727FC7549B5
:10483000764A127888181221FFF761FF1220FFF7DD
:1048400021FF82E27FE2142115A805F04CF86F48A1
:104850000078C0F1C8026B486C4B1B78C11815A8D2
:1048600004F0A0FF69490978A1F1B6026749097807
:10487000C1F1C80115ABC818624904F093FF1022BA
:104880006BA115A804F037FF90B900259DF86510BD
:104890009DF86400FFF722FF05462846FEF7EEFB71
:1048A000122115A8FFF72BFF1220FFF7EBFE00BF28
:1048B0004BE20F2C77DB554800780F30C82830DAF0
:1048C0005049524A127888180C225EA104F013FF56
:1048D00000288AD15549403103C9CDE91801494A18
:1048E0004A4909780E31505CFFF7E5FE0546454A16
:1048F000464909780C31505CFFF7DDFE0646294633
:10490000FEF7A1FB3F49414A127888180F21FFF7B3
:10491000F6FE032118A8FFF7F2FE0F20FFF7B2FE04
:1049200013E2142115A804F0DEFF38480078C0F126
:10493000C8023448354B1B78C11815A804F032FF63
:1049400032490978A1F1B90230490978C1F1C801A9
:1049500015ABC8182B4904F025FF0C2239A115A866
:1049600004F0C9FEE8B93149483103C9CDE9130162
:104970009DF86200FFF79FFE05469DF86000FFF777
:104980009AFE06462946FEF75EFB0F2115A8FFF7A3
:10499000B6FE032113A8FFF7B2FE0F20FFF772FE49
:1049A00000BFD2E1FFE70E2C7CDB184800780E3008
:1049B000C82878DA1349154A127888180D2225A1DB
:1049C00004F099FEE8B90025142226A115A804F0E8
:1049D0002EFF0C4A0D4909780D31505CFFF76BFE34
:1049E0000646FEF76EFB054605F13000C0B28DF8B5
:1049F0006300132115A8FFF782FE0E20FFF742FE89
:104A0000A3E139E0640E00208C0000208B00002020
:104A10000044004052454C41592D5343414E5F44A0
:104A200045564943452D4E4F57000000349F00081E
:104A300052454C41592D5345545F414C4C2D312C1E
:104A40000000000052454C41592D5345542D312C46
:104A50000000000052454C41592D524541442D3132
:104A60002C00000052454C41592D524541442D31F6
:104A70002C312C312C4F4B00F549F64A127888180E
:104A80000E22F5A104F037FE70B91422F64915A8DC
:104A900004F0CDFE102115A8FFF731FE0E20FFF720
:104AA000F1FD52E19CE025E0E949EA4A12788818D4
:104AB0000E22EEA104F01FFE0028A1D1202112A891
:104AC00004F011FF342105A804F00DFF12A800F036
:104AD00050FD12AAE9A105A804F0DEFB05A804F028
:104AE000EBFD0546294605A8FFF709FE0E20FFF756
:104AF000C9FD2AE1142115A804F0F5FED548007877
:104B0000C0F1C802D248D34B1B78C11815A804F0D5
:104B100049FED0490978A1F1BA02CE490978C1F11C
:104B2000C80115ABC818CA4904F03CFE0D22AFF20B
:104B3000DC0115A804F0DFFDD8B900251422AFF27E
:104B4000DC0110A804F073FE9DF86100FFF7B3FDCF
:104B50000646FEF7B6FA054605F13000C0B28DF8FC
:104B60004F00132110A8FFF7CAFD0E20FFF78AFDA2
:104B700035E00E22B8A115A804F0BDFD68B91422D5
:104B8000B949143110A804F052FE102110A8FFF703
:104B9000B6FD0E20FFF776FD21E00E22B3A115A889
:104BA00004F0A9FDD8B920210DA804F09CFE342101
:104BB000684604F098FE0DA800F0DBFC0DAAAFA13A
:104BC000684604F069FB684604F076FD0546294610
:104BD0006846FFF794FD0E20FFF754FD00BFB4E0D8
:104BE0000D2C86DB9B4800780D30C8284DDA98499B
:104BF000984A127888180D22A4A104F07CFDD0BB3D
:104C0000002514229849283115A804F010FEFEF75B
:104C10004AFA054628118DF862009DF862000A28BC
:104C200006DA9DF862003030C0B28DF8620005E00F
:104C30009DF862003730C0B28DF8620005F00F00B9
:104C40008DF863009DF863000A2806DA9DF863007A
:104C50003030C0B28DF8630005E09DF86300373056
:104C6000C0B28DF86300102115A8FFF748FD0D2094
:104C7000FFF708FD69E0FFE77549764A1278881862
:104C80000C2286A104F037FD5FE0142115A804F082
:104C90002AFE70480078C0F1C8026D486D4B1B7841
:104CA000C11815A804F07EFD6A490978A1F1BB027C
:104CB00068490978C1F1C80115ABC818644904F006
:104CC00071FD0D2271A115A804F015FDD0BB0025C2
:104CD000142265493C3110A804F0A9FDFEF7E3F960
:104CE000054628118DF84E009DF84E000A2806DA78
:104CF0009DF84E003030C0B28DF84E0005E09DF8B2
:104D00004E003730C0B28DF84E0005F00F008DF820
:104D10004F009DF84F000A2806DA9DF84F0030300A
:104D2000C0B28DF84F0005E09DF84F003730C0B29B
:104D30008DF84F00102110A8FFF7E1FC0D20FFF7C0
:104D4000A1FC00BF01E0FFF77BFC1AB070BD10B5FD
:104D500040F225515548FCF717F940B15348FCF78C
:104D600093F8C4B240F225515048FCF737F910BD12
:104D700010B540F225514E48FCF706F958B14C48A1
:104D8000FCF782F8C4B22046FFF74AFC40F22551F6
:104D90004748FCF723F910BD10B54FF41650FFF744
:104DA00048FAC8212A4804F09EFD10BD70B586B0AF
:104DB00004460D463FA00068059041F2B3563E48B8
:104DC000007888B93D4890F8210038B905AB2A46EB
:104DD00021460020009603F017F81BE02A462146E2
:104DE000012002F087FF15E035A207CA02AB07C316
:104DF0001A2001900C2102A801F01FFA6420FFF78D
:104E0000BCF92946204601F018FA012101A801F059
:104E100014FA00BF06B070BD302804DB392802DC6C
:104E2000A0F13001C8B2412804DB5A2802DCA0F10D
:104E30003701C8B2704710B504460B46012B03D1A9
:104E40002046FFF73CFB10BD2046FFF75FFBFAE76B
:104E5000640E00208B00002052454C41592D5445D2
:104E600053542D4E4F570000849F000852454C412B
:104E7000592D484F53542D4E4F570000484F53540F
:104E80002D43484B4C49432D2573000052454C415E
:104E9000592D53544154452D3100000052454C4189
:104EA000592D414C41524D2D00000000004800405A
:104EB000004400407237598F8A0000204C1A0020AD
:104EC00041542B43495053454E440A0002460020AA
:104ED000704738B50546002434480078042802D1CC
:104EE000FFF79BF948B931480078012802D13048D2
:104EF000006810B96FF0010038BDFFF788F9C821CC
:104F00002C4804F0F0FC0DE06846FFF7D8FA801C4E
:104F100000B908E0C82C03DA9DF8000025490855BF
:104F2000601CC4B2F0E700BF20480078042806D116
:104F3000C82C01DA204600E0C820286006E01B48A3
:104F40000078012802D11A480068286001201A4917
:104F500008700020D0E738B505460024FFF766F951
:104F600008B9A01E38BDFFF75BF9C821114804F04D
:104F7000BAFC0DE06846FFF7C9FA801C00B908E0EA
:104F8000C82C03DA9DF800000A490855601CC4B219
:104F9000F0E700BFC82C01DA204600E0C8202860F6
:104FA0000220054908700020DCE7000054000020C2
:104FB000600000206C0A00208D00002030B5024601
:104FC0000B4600200EE0002109E0145CC1F107054A
:104FD0002C4104F0010401EBC0055C55491C082973
:104FE000F3DB401C0828EEDB30BD30B50346002063
:104FF00015E0002210E002EBC0041C5D2CB90C5C33
:1050000080251541AC430C5405E00C5C802515410E
:10501000EDB22C430C54521C082AECDB401C08282F
:10502000E7DB30BD30B50346002004E01C5C0D5CBE
:105030006C401C54401C9042F8DB30BD70B50546F6
:10504000002405E0EE48005D285CEE490855641C2C
:10505000402CF7DB4022EB49284604F0A3FB70BD4F
:1050600070B50546002405E0E748005D285CE74987
:105070000855641C402CF7DB4022E449284604F024
:1050800091FB70BD70B506460D46E1493046FFF70D
:1050900095FF002405E0DF48005DDD49085C2855E8
:1050A000641C382CF7DB70BD70B505460C461C221D
:1050B0002946D94804F076FB1C2094FBF0F100FB54
:1050C0001144C4F11C06D44801193246284604F0A4
:1050D00069FBA8192246D04904F064FB70BD70B585
:1050E00005460C461C222946CC4804F05BFB1C20DC
:1050F00094FBF0F100FB1144C4F11C062819324660
:10510000C64904F04FFBC54881192246284604F0E1
:1051100049FB70BD2DE9F0410646884614461F46FE
:10512000652F01D0452F0BD1BD48015D3046FFF7FB
:10513000BBFFBB48015D06F11C00FFF7B5FF0AE0AD
:10514000B848015D3046FFF7CAFFB648015D06F179
:105150001C00FFF7C4FF002505E0B348405D305C4C
:1051600008F805006D1C302DF7DBBDE8F081024624
:10517000002004E0AD4B1B5CD35C0B54401C30287A
:10518000F8DB7047F0B502460B460020002133E003
:10519000471DD75D12F800C007EB4C05471CD75DD3
:1051A0004FEAC70C871CD75D0CEB870CC71CD75D7B
:1051B0000CEB470C071DD75D0CEB0706062790FB91
:1051C000F7F7DFF86CC20CEB871707EB0517BC5D30
:1051D000C4F3C0075F54C4F3800C4F1C03F807C02E
:1051E000C4F3400C8F1C03F807C004F0010CCF1C63
:1051F00003F807C0801D091D3028C9DBF0BD70B55C
:105200000546002405E08B48005D285C8A49085566
:10521000641C202CF7DB20228749284604F0C2FAC0
:1052200070BD2DE9F04106460F4615469846834964
:105230003046FFF7C3FE8148FFF700FF804928464C
:10524000FFF720FF01242AE0434622467D497C489F
:10525000FFF760FF7C4979482030FFF788FF302254
:1052600078497948FFF7DEFE2022744920317548DD
:1052700004F098FA714920317348FFF783FF6F48B3
:105280002030FFF7BCFF20226C4901F12000FFF71E
:10529000C9FE20226B49694804F084FA641C102C72
:1052A000D2DD20226549684804F07CFA2022634957
:1052B0002031624804F076FA202263495F482030AA
:1052C00004F070FA5D48FFF7CBFE39465B48FFF704
:1052D0008CFEBDE8F0812DE9F04107460E461446EC
:1052E0001D46652D01D0452D13D16523224631463B
:1052F0003846FFF796FF642304F108023146304632
:10530000FFF78FFF6523224631463046FFF789FFBE
:1053100012E06423224631463846FFF782FF6523B8
:1053200004F1080231463046FFF77BFF6423224632
:1053300031463046FFF775FFBDE8F0812DE9F05F9B
:105340008046894615461E46DDF828A0E81DC1178F
:1053500000EB5171C910CF004FF0000BCAF800707C
:10536000002404E019F8040038490855641CAC42D4
:10537000F8DB0CE0BBF1000F05D180203349085564
:105380004FF0010B02E0002030490855641CBC427C
:10539000F0DB002412E0B8F1030F07D131192B4ADA
:1053A000101965230B9AFFF796FF06E03119274A7B
:1053B000101965230B9AFFF734FF0834BC42EADB6F
:1053C000BDE8F09F2DE9F04707460D4690461E4682
:1053D000DDF8209000240FE0032F06D131192819A1
:1053E00064234A46FFF777FF05E031192819642343
:1053F0004A46FFF716FF08344445EDDBBDE8F08769
:10540000D29F00082C0F002012A000086C0F002073
:10541000AC0F002052A00008EC0F00200810002064
:10542000BAA00008CBA000088AA00008DCA00008F1
:105430000CA100080CA30008241000204410002038
:10544000B4100020EC100020841000201C1100205B
:10545000F8B50446002500260027F9480568001D18
:105460000668001D076833462A46F6A120460097C5
:1054700003F012FFF8BDF0B5A1B00026002700250B
:10548000002400202090202118A804F02CFA2021CC
:1054900010A804F028FA342103A804F024FA2021EB
:1054A00018A804F020FA202110A804F01CFA3421D6
:1054B00003A804F018FA18A8FFF7CAFFE5481A99DC
:1054C0008160BDF86C10818120A910AB1822CDE954
:1054D000001018A90320FFF731FF00BF00BF24E030
:1054E00010A8005D060910A8005D00F00F07092E46
:1054F00003DC06F13000C6B202E006F15700C6B286
:10550000092F03DC07F13000C7B202E007F15700B2
:10551000C7B22846691CCDB203A90E542846691C9F
:10552000CDB203A90F54601CC4B2182CD8DB0024E0
:1055300000250DE003A8405DC749085503A9681C74
:10554000095CC54A601C1154A01CC4B2281DC5B218
:10555000172CEFDB21B0F0BD10B504461822BE4970
:10556000204604F059F808B9002010BD4FF0FF3074
:10557000FBE710B504461822B749204604F012F99B
:1055800010BD7FB588B005461C4600266846FFF76B
:10559000F0FF5E20B1490870012048700846BDF850
:1055A000281041809DF82400AC4948719DF82500E1
:1055B000087118226946A948801D04F0F3F82021DB
:1055C000684604F090F934B9A44822300021016003
:1055D0004160018107E0A1482230216801606168D3
:1055E000416021890181099828B129469B482C30C6
:1055F000099A04F0D7F8099800F12C06314697482B
:10560000FFF7D4FB4FF40071944804F06CF90020CC
:105610000CB070BD2DE9F0410546002700269048EA
:105620000078052801D0BDE8F08100241BE08D49F9
:1056300001EB0411081D0A22294603F0EDFF28B9E9
:105640000020884901EB04110860ECE7854800EB75
:1056500004100068B84204D9824800EB04100768BF
:105660002646601CC4B20A2CE1DB002415E07D480C
:1056700000EB0410007970B97A4800EB0410296837
:10568000416069688160298981810020754901EB49
:105690000411086003E0601CC4B20A2CE7DB00BF01
:1056A0000A2C0DDB6F4800EB061029684160696821
:1056B00081602989818100206A4901EB0611086017
:1056C00000BFB0E710B5A021664804F00CF910BD8A
:1056D0002DE9F04190B005460E464FF00008002736
:1056E00000240FA8FEF7EBFE074616E09DF83C00ED
:1056F0005E280ED10FA8FEF7E2FE070004D19DF848
:105700003C00012809D10BE04FF0FF3010B0BDE89C
:10571000F0810FA8FEF7D3FE0746B81C0028E5D19C
:1057200000BFB81C20B9FEF772FD6FF00100EDE775
:105730000EA8FEF7C4FE002805DB0DF13900FEF7C8
:10574000BEFE002802DA4FF0FF30DFE70E980D9022
:105750000EA8FEF7B4FE002805DB0DF13900FEF7B8
:10576000AEFE002802DA4FF0FF30CFE79DF8388018
:105770009DF839008DF838008DF839800E980C901E
:10578000002409E006A90819FEF799FE002802DAAC
:105790004FF0FF30BAE7641C182CF3DB6846FFF7C4
:1057A000E8FE1822694606A803F036FF10B14FF054
:1057B000FF30ABE7002408E00FA8FEF780FE0028CA
:1057C00002DA4FF0FF30A1E7641C042CF4DB002464
:1057D00008E025490819FEF772FE10B14FF0FF30BE
:1057E00094E7641C0A2CF4DB00203060BDF8340020
:1057F000C02855D0B0F5D07F03D0B0F5687F53D125
:1058000034E015B11848007828701748007801284E
:105810000CD1052012490870FFF754FF002000F05A
:105820001DFA6421042000F023FA07E04FF47A7196
:10583000002000F01DFA02200949087034E0000041
:10584000E8F7FF1F2530387825303878253038784C
:10585000000000008E0000203417002034150020C6
:10586000550000204C170020EC17002015B195487A
:105870000078287093480078012808D100209249C8
:10588000087040F6B831042000F0F2F907E04FF458
:105890007A71002000F0ECF902208C49087003E0D6
:1058A000BDF83000306000BF00BF00202EE710B50B
:1058B0004FF4FA61002000F0DBF90023A022194622
:1058C0001846FFF75EFEFEF7A2FC04207F49087031
:1058D00010BD10B500234FF4287219461846FFF783
:1058E00050FE4FF49671042000F0C2F9764800781B
:1058F000401C7549087010BD10B573480078052824
:1059000011DD032071490870042000F0A7F902207E
:105910006E4908704FF47A71002000F0A9F9002058
:105920006949087010BD00BFFCE710B568480078F1
:10593000012804D167480068022800D010BD6648DD
:1059400090F8210068BB61480078042805DC00203D
:1059500000F0A8F908B1FFF7AAFF5C480078052815
:1059600003D05A480078042809D1042000F09AF99D
:1059700008B1FFF7AEFF59490020FFF7A9FE5848CC
:10598000FFF7A7FA40B95649098888B2FEF74AFBE3
:1059900000205249086002E0002050490860FFF7EB
:1059A000ABFF00BFCAE710B54D48FFF7D4FA20B9E6
:1059B0004B49098888B2FEF735FB10BD70B5054626
:1059C0000E460A2422464749474803F0EBFE0020D2
:1059D00045490855601C0D54A01C0E54E41C21467A
:1059E0004148FFF7E3F9002070BD38B53F4C1EE099
:1059F0003F4C00203F49086001211420FFF7DEFFE3
:105A000011E03C48006870B16846FEF758FD9DF80B
:105A10000000022803D101203749087002E0042069
:105A20003549087038BD201EA4F10104E9DCDFE728
:105A300070B504460D46284890F8210030B9214B36
:105A4000D02229462046FFF79CFD03E02946204648
:105A5000FFF7ACF970BD2DE9F041A0B004460F4648
:105A600015468021684603F03EFF8021684603F01A
:105A70003AFF3CB12146684603F088FE1FA1684604
:105A800003F084FE3946684603F080FE1BA1684699
:105A900003F07CFE2946684603F078FE684603F072
:105AA0000BFE86B200200DF80600684603F004FEE7
:105AB00000F1010841466846FFF7BAFF20B0BDE893
:105AC000F0810000EC170020640000205500002049
:105AD0008A000020B40000204C1A00206000002042
