:020000040800F2
:10000000203400205D010008F52C0008F72C0008C2
:10001000FB2C0008FF2C0008032D00080000000046
:10002000000000000000000000000000072D000894
:10003000092D0008000000000B2D00080D2D000800
:1000400077010008770100087701000877010008B0
:1000500077010008770100087701000877010008A0
:100060007701000877010008770100087701000890
:100070007701000877010008770100087701000880
:100080007701000877010008770100087701000870
:100090007701000877010008770100087701000860
:1000A00077010008874300087701000877010008FE
:1000B0000F2D00087701000877010008770100087C
:1000C0007701000877010008770100087701000830
:1000D000770100081B630008BB4D0008994D00081C
:1000E0007701000877010008770100087701000810
:1000F0007701000877010008770100087701000800
:1001000077010008770100087701000877010008EF
:1001100077010008770100087701000877010008DF
:1001200077010008770100087701000877010008CF
:10013000DFF80CD009F0A0FD004800475526000864
:10014000203400204FF0010080F313880148024959
:100150000160FEE70CED00E00400FA050648804768
:1001600006480047FEE7FEE7FEE7FEE7FEE7FEE79C
:10017000FEE7FEE7FEE7FEE75F0200083101000848
:100180000CB50020019000906C48006840F480306D
:100190006A49086000BF6948006800F400300090B8
:1001A0000198401C0190009818B90198B0F5A06F13
:1001B000F1D16248006800F4003010B101200090D5
:1001C00001E0002000900098012843D15C480068BD
:1001D00040F010005A4908600846006820F003000B
:1001E00008600846006840F0020008605348406814
:1001F000524948600846406848600846406840F4F4
:10020000806048600846406820F47C1048600846DA
:10021000406840F4E81048600846006840F080708C
:10022000086000BF4548006800F000700028F9D061
:100230004248406820F00300404948600846406852
:1002400040F00200486000BF3C48406800F00C00ED
:100250000828F9D10CBD10B5FFF792FF10BD10B5FD
:100260003648006840F0010034490860084640689C
:10027000344908403149486008460068324908401E
:100280002E4908600846006820F48020086008466F
:10029000406820F4FE0048604FF41F008860FFF7BC
:1002A000DAFF4FF000602949086010BD10B5002149
:1002B00000200022214B5B6803F00C0121B10429CE
:1002C00006D0082928D107E0214B224C236027E0E3
:1002D0001F4B204C236023E0184B5B6803F4701025
:1002E000164B5B6803F48032022303EB904022B983
:1002F000194B4343174C23600DE0104B5B6803F42C
:10030000003323B1144B4343124C236003E0104BE2
:100310004343104C236003E00D4B0E4C236000BFA1
:1003200000BF064B5B68C3F303130C4CE15C094B45
:100330001B68CB40074C236010BD0000001002403A
:10034000002002400000FFF8FFFFF6FE08ED00E08D
:1003500000127A000000002000093D000400002087
:1003600031490143314A1160704770B500210023C3
:100370000F22C47804B32D4C246804F4E064C4F55F
:10038000E064210AC1F10403CA40447804FA03F18D
:100390008478144021430901254C0678A15504783E
:1003A00004F01F050124AC4005786D11AD0005F186
:1003B000E025C5F8004109E0047804F01F05012498
:1003C000AC401C4D0678761145F8264070BD1A4A9F
:1003D0000A400243154B1B1F1A60704739B1134A7C
:1003E000121D12680243114B1B1D1A6006E00F4AD2
:1003F000121D126882430D4B1B1D1A6070470428A2
:1004000008D14FF0E021096941F004014FF0E022EA
:10041000116107E04FF0E021096921F004014FF07C
:10042000E0221161704700000000FA050CED00E0C9
:1004300000E400E080E100E080FFFF1F10B504460B
:10044000CC48844208D10121042000F02DFB00217A
:10045000042000F029FB46E0C748844208D101216E
:10046000082000F021FB0021082000F01DFB3AE0ED
:10047000C248844208D10121102000F015FB002160
:10048000102000F011FB2EE0BD48844208D101216C
:10049000202000F009FB0021202000F005FB22E0D5
:1004A000B848844208D10121402000F0FDFA002123
:1004B000402000F0F9FA16E0B348844208D1012147
:1004C000802000F0F1FA0021802000F0EDFA0AE02F
:1004D000AE48844207D10121801500F0E5FA0021E1
:1004E000A01500F0E1FA10BD10B50121084600F09A
:1004F000DBFA0021012000F0D7FA10BD2DE9F04110
:10050000024600250026002000230024002791F841
:1005100003C00CF00F0591F803C00CF0100CBCF1F7
:10052000000F03D091F802C04CEA050591F800C015
:10053000BCF1000F31D0146800202BE04FF0010C0B
:100540000CFA00F3B1F800C00CEA03069E4220D179
:1005500083004FF00F0C0CFA03F7BC4305FA03FCC1
:100560004CEA040491F803C0BCF1280F06D14FF007
:10057000010C0CFA00FCC2F814C00AE091F803C0A8
:10058000BCF1480F05D14FF0010C0CFA00FCC2F889
:1005900010C0401C0828D1D31460B1F800C0BCF1D1
:1005A000FF0F34DD546800202EE000F1080C4FF0FE
:1005B000010808FA0CF3B1F800C00CEA03069E42E9
:1005C00021D183004FF00F0C0CFA03F7BC4305FA5E
:1005D00003FC4CEA040491F803C0BCF1280F05D1D8
:1005E00000F1080C08FA0CF8C2F8148091F803C066
:1005F000BCF1480F07D100F1080C4FF0010808FAD0
:100600000CF8C2F81080401C0828CED35460BDE816
:10061000F0814FF6FF710180022181700421C170C9
:1006200070470246002093680B400BB1012000E0A8
:10063000002070470146886880B27047024600205B
:10064000D3680B400BB1012000E000207047014649
:10065000C86880B2704701617047416170470AB154
:10066000016100E041617047C16070474FF4803222
:100670000A438261816182618269826970470246B0
:100680000020434B18684FF68073184040EA021070
:1006900008433F4B186070473E49C8617047F0B54A
:1006A0000A46002300240021002500F00046B6F190
:1006B000004F02D1364EF16901E0354E7168C0F34A
:1006C000034583B200F44016B6F5401F08D121F06F
:1006D00070612F4E766826F070662D4F7E6012E0B6
:1006E00000F48016B6F5801F06D1032606FA05F43D
:1006F000A14341F0706106E0460D360103FA06F6AB
:10070000B14341F0706122B1460D360103FA06F69D
:10071000314300F00046B6F1004F02D11C4EF161AA
:1007200001E01B4E7160F0BD30B500228B071C0F3D
:100730000F2303FA04F2164B08338C1053F82430BD
:100740009343134C08348D1044F8253023468C1005
:1007500053F824308C07240F00FA04F423430C4C84
:1007600008348D1044F8253030BD0A49DC3108606A
:100770007047000000080140000C014000100140DB
:100780000014014000180140001C014000200140FD
:100790000000014000002042DF48006840F00100F6
:1007A000DD49086008464068DC490840DA4948608D
:1007B00008460068DA490840D749086008460068DA
:1007C00020F4802008600846406820F4FE0048605D
:1007D0004FF41F0088607047CF49096821F48031C9
:1007E000CD4A11601146096821F480211160B0F5ED
:1007F000803F03D0B0F5802F0ED106E0C6490968CE
:1008000041F48031C44A116007E0C349096841F4EA
:10081000A021C14A116000E000BF00BF704710B5C1
:1008200001460022002300204A11012A02D1BA4CBD
:10083000236806E0022A02D1B74C236A01E0B64CD5
:10084000636A01F01F02012494401C400CB1012096
:1008500000E0002010BD38B50020009000240025E5
:1008600000BF3120FFF7DBFF05460098401C0090D9
:100870000098B0F5A06F01D0002DF2D03120FFF725
:10088000CEFF08B1012400E00024204638BD014617
:100890000020A14A106820F0F80040EAC100106072
:1008A0007047A04908607047024600209A4B58687C
:1008B00020F47C1042EA01031843974B58607047BC
:1008C00098490866704701460020934A506820F016
:1008D00003000843506070478F48406800F00C00E8
:1008E0007047014600208C4A506820F0F000084311
:1008F0005060704701460020874A506820F4E0604D
:1009000008435060704701460020834A506820F435
:10091000605040EAC1005060704729B17E4A527A67
:1009200002437D4B5A7204E07B4A527A82437A4BEF
:100930005A7270477B49D8310860704701460020E1
:10094000754A506820F440400843506070470021C9
:10095000714A20321170704A82F82010012802D0AA
:1009600004280AD104E001216B4A2032117005E00D
:100970000521694A2032117000E000BF00BF7047B6
:100980006949086070476449096A0143624A116213
:100990007047654944390860704730B5002100222E
:1009A000002400235C4D6D6805F00C0121B1042981
:1009B00005D0082923D105E05C4D056022E05B4DA0
:1009C00005601FE0544D6D6805F47012524D6D685E
:1009D00005F48034022505EB92421CB9544D554371
:1009E00005600BE04C4D6D6805F400351DB1504DB0
:1009F0005543056002E04D4D5543056002E04B4D07
:100A0000056000BF00BF444D6D6805F0F0010909A5
:100A1000484D6B5C0568DD4045603F4D6D6805F4F1
:100A2000E061090A434D6B5C4568DD4085603A4DE5
:100A30006D6805F46051C90A3E4D6B5C4568DD4048
:100A4000C560354D6D6805F44041890B3A4D6B5CCE
:100A5000C568B5FBF3F5056130BD29B12E4A526971
:100A600002432D4B5A6104E02B4A526982432A4BC0
:100A70005A61704729B1284A92690243264B9A610C
:100A800004E0254A92698243234B9A61704729B159
:100A9000214AD2690243204BDA6104E01E4AD2693E
:100AA00082431D4BDA61704729B11B4AD268024369
:100AB000194BDA6004E0184AD2688243164BDA60B8
:100AC000704729B1144A12690243134B1A6104E0BA
:100AD000114A12698243104B1A617047124940391A
:100AE000086070470F49C86470470B49C871704768
:100AF0000948406A40F080700749486270470146E3
:100B00000020054A92680A400AB1012000E0002056
:100B10007047014988727047001002400000FFF8DA
:100B2000FFFFF6FE000042428004424200127A00BB
:100B300000093D00140000202400002010B50446E8
:100B4000FB48844209D101218803FFF7ADFF002152
:100B50004FF48040FFF7A8FF32E0F648844209D105
:100B600001214804FFF7ADFF00214FF40030FFF7EB
:100B7000A8FF25E0F048844209D101218804FFF74D
:100B8000A0FF00214FF48020FFF79BFF18E0EB4807
:100B9000844209D10121C804FFF793FF00214FF4DB
:100BA0000020FFF78EFF0BE0E548844208D10121C9
:100BB0000805FFF786FF00214FF48010FFF781FF43
:100BC00010BD2DE9F04786B005460E460024A2462A
:100BD00000BFA1460027B08900B100BF2F462C8A74
:100BE0004CF6FF700440F08804432C82AC894EF62A
:100BF000F3100440B08831890843718908430443E5
:100C0000AC81AC8A4FF6FF400440B0890443AC820B
:100C100001A8FFF7C2FEC648874202D1DDF810A046
:100C200001E0DDF80CA0A88900F4004040B10AEB17
:100C3000CA0000EB0A1031684900B0FBF1F807E088
:100C40000AEBCA0000EB0A1031688900B0FBF1F82A
:100C50006420B8FBF0F004012009642101FB108935
:100C6000A88900F4004040B1322000EBC900B0FB7D
:100C7000F1F000F00700044308E0322000EB091017
:100C80006421B0FBF1F000F00F0004432C8106B0AA
:100C9000BDE8F0874FF41651016000218180C180CA
:100CA00001810C21418100218181704710B50246EC
:100CB0000020108A4FF2FF0318400B884C88234312
:100CC0008C882343CC8823431843108210BD002115
:100CD000018041808180C180704721B1828942F4C6
:100CE0000052828104E082894DF6FF731A408281AE
:100CF0007047F0B50346002400260025002040F68A
:100D00006A17B94200D100BF1846C1F3421401F07E
:100D10001F06012707FA06F5012C01D10C3004E06B
:100D2000022C01D1103000E014301AB107682F43B3
:100D3000076002E00768AF430760F0BD1AB1838A1D
:100D40000B43838202E0838A8B4383827047028A4B
:100D50004FF6F0731A400282028A0A4302827047F9
:100D600082894FF2FF731A40828182890A4382810D
:100D7000704721B1828942F00202828104E08289B7
:100D80004FF6FD731A4082817047028A4FF6DF7377
:100D90001A400282028A0A430282704721B1028A03
:100DA00042F48042028204E0028A4BF6FF731A404A
:100DB00002827047C1F3080282807047014688882A
:100DC000C0F308007047818941F0010181817047BB
:100DD000028BD2B20283028B42EA01220283704765
:100DE000028B02F47F420283028B0A430283704724
:100DF00021B1828A42F02002828204E0828A4FF688
:100E0000DF731A408282704721B1828A42F0100259
:100E1000828204E0828A4FF6EF731A408282704722
:100E200021B1828A42F00802828204E0828A4FF66F
:100E3000F7731A408282704721B1828942F40042DE
:100E4000828103E08289C2F30E028281704721B160
:100E5000828A42F40062828204E0828A4FF2FF7347
:100E60001A4082827047828A4FF6FB731A40828250
:100E7000828A0A438282704721B1828A42F002024A
:100E8000828204E0828A4FF6FD731A4082827047A4
:100E900002460020B1F5007F00D100BF13880B404F
:100EA0000BB1012000E00020704701F40072B2F5A0
:100EB000007F00D100BFCA430280704770B5024670
:100EC000002400230025002040F66A16B14200D11C
:100ED00000BFC1F3421501F01F03012606FA03F318
:100EE000012D02D19689334006E0022D02D1168AE7
:100EF000334001E0968A33400C12012606FA04F4CE
:100F00001688344013B10CB1012000E0002070BD00
:100F100010B50022002340F66A14A14200D100BFA0
:100F20000A1201249440A3B2DC43048010BD0000E7
:100F3000003801400044004000480040004C0040A0
:100F40000050004010B50446FE48844208D10121FB
:100F5000C014FFF7A9FD0021E014FFF7A5FDC4E0D0
:100F6000B4F1804F08D101210846FFF7AAFD002106
:100F70000120FFF7A6FDB8E0F348844208D1012123
:100F80000220FFF79EFD00210220FFF79AFDACE052
:100F9000EE48844208D101210420FFF792FD002190
:100FA0000420FFF78EFDA0E0E948844208D101212A
:100FB0000820FFF786FD00210820FFF782FD94E05E
:100FC000E448844208D101211020FFF77AFD002176
:100FD0001020FFF776FD88E0DF48844208D1012128
:100FE0002020FFF76EFD00212020FFF76AFD7CE046
:100FF000DA48844208D101214014FFF755FD002151
:101000006014FFF751FD70E0D548844209D10121F9
:10101000C804FFF749FD00214FF40020FFF744FD0D
:1010200063E0D048844209D101210805FFF73CFD67
:1010300000214FF48010FFF737FD56E0CA48844284
:1010400009D101214805FFF72FFD00214FF40010C1
:10105000FFF72AFD49E0C548844208D1012140201C
:10106000FFF72FFD00214020FFF72BFD3DE0C0489A
:10107000844208D101218020FFF723FD0021802038
:10108000FFF71FFD31E0BB48844208D101218015E4
:10109000FFF717FD0021A015FFF713FD25E0B64867
:1010A000844209D101210804FFF7FEFC00214FF41E
:1010B0008030FFF7F9FC18E0B048844209D10121E3
:1010C0004804FFF7F1FC00214FF40030FFF7ECFC7F
:1010D0000BE0AB48844208D101218804FFF7E4FC0F
:1010E00000214FF48020FFF7DFFC10BD00220288B2
:1010F000944B98420ED0994B98420BD0B0F1804F50
:1011000008D0914B984205D0904B984202D0904B1A
:10111000984204D14FF68F731A404B881A438D4B77
:10112000984207D08C4B984204D04FF6FF431A40A8
:10113000CB881A4302808B8883850B880385814B7B
:1011400098420BD0854B984208D08B4B984205D0E3
:101150008A4B984202D08A4B984201D10B7A03867F
:1011600001238382704770B5002400220023058C80
:101170004FF6FE7635400584028C8388048B4FF64B
:101180008F752C40B51E2C400D882C43751E2A40AF
:101190000D892A434D882A436A4DA8420BD06F4DD2
:1011A000A84208D0744DA84205D0744DA84202D080
:1011B000734DA84213D14FF6F7752A404D892A4343
:1011C0004FF6FB752A408D882A434FF6FF652B406A
:1011D0004FF6FF552B408D892B43CD892B438380C0
:1011E0000483CD888586028470BD70B500240022FA
:1011F0000023058C4FF6EF7635400584028C8388FA
:10120000048B48F6FF752C404FF6FF452C400D88A7
:101210004FF6FF7606EA05252C434FF6DF752A4088
:101220000D8906EA05152A434D8806EA05152A4365
:10123000444DA84202D0494DA8421DD14FF67F75BA
:101240002A404D894FF6FF7606EA05152A434FF6E8
:10125000BF752A408D8806EA05152A434FF6FF35EB
:101260002B404FF2FF752B408D8906EA85052B43F5
:10127000CD8906EA85052B4383800483CD880587C5
:10128000028470BD70B5002400220023058C4FF647
:10129000FF6635400584028C8388848B4FF68F75FA
:1012A0002C404FF6FC752C400D882C434FF6FF5513
:1012B0002A400D894FF6FF7606EA05252A434D8818
:1012C00006EA05252A431F4DA84202D0234DA84215
:1012D0001DD14FF2FF752A404D894FF6FF7606EA81
:1012E00005252A434FF6FF352A408D8806EA052555
:1012F0002A434EF6FF752B404DF6FF752B408D8926
:1013000006EA05152B43CD8906EA05152B43838094
:101310008483CD888587028470BD70B50022002348
:101320000024058C4EF6FF7635400584038C8488B6
:10133000828B48F6FF752A404FF6FF452A400D88FC
:1013400020E00000002C01400004004000080040A4
:10135000000C004000100040001400400034014028
:10136000004C014000500140005401400018004072
:10137000001C0040002000400040014000440140AB
:10138000004801404FF6FF7606EA05252A434DF650
:10139000FF752B400D8906EA05352B434D8806EA7B
:1013A00005352B43FA4DA84202D0FA4DA84208D188
:1013B0004BF6FF752C408D894FF6FF7606EA8515B2
:1013C0002C4384808283CD88A0F84050038470BD74
:1013D000828B4FF2FF331A408283828B4FF6FF736A
:1013E00003EA01231A4382837047F0B50C46154681
:1013F000002200210026078C4EF6FF7C07EA0C072E
:101400000784828B018C4FF6FF7707EA043640F69B
:10141000FF473A404FF6FF7707EA05273A434FF672
:10142000FF7707EA03373A43D94FB8420ED0D94F76
:10143000B8420BD0B0F1804F08D0D74FB84205D09A
:10144000D64FB84202D0D64FB84206D14DF6FF77FC
:10145000394046F48057394305E047F6FF57394095
:1014600044F48057394382830184F0BD828B4FF668
:10147000F3731A408283828B0A4382837047F0B5EC
:101480000C461546002200210026078C4FF6FF6C03
:1014900007EA0C070784828B018C4FF6FF7707EA77
:1014A00004264FF60C773A404FF6FF7707EA03170A
:1014B0002F433A43B64FB8420ED0B64FB8420BD086
:1014C000B0F1804F08D0B44FB84205D0B34FB84206
:1014D00002D0B34FB84206D14FF6FF57394046F419
:1014E0008077394305E04FF2FF57394044F4807765
:1014F000394382830184F0BD028B4FF2FF331A40DF
:101500000283028B4FF6FF7303EA01231A4302831F
:101510007047F0B50C461546002200210026078CC6
:101520004FF6EF7C07EA0C070784028B018C4FF61D
:10153000FF7707EA041640F6FF473A404FF6FF7779
:1015400007EA03373A434FF6FF7707EA05273A439E
:101550008F4FB8420ED08F4FB8420BD0B0F1804FB2
:1015600008D08D4FB84205D08C4FB84202D08C4F76
:10157000B84206D14FF6DF77394046F010073943BD
:1015800005E04FF65F77394044F010073943028396
:101590000184F0BD028B4FF6F3731A400283028B75
:1015A0000A4302837047F0B50C461546002200211D
:1015B000068C4FF6FE773E400684028B018C4FF678
:1015C0000C7632407E1C06EA03162E433243704EE0
:1015D000B0420ED06F4EB0420BD0B0F1804F08D069
:1015E0006D4EB04205D06D4EB04202D06C4EB0424E
:1015F00006D14FF6FD76314044F00106314305E057
:101600004FF6F576314044F0010631430283018400
:10161000F0BD70B505460C465D4885420ED05D486C
:1016200085420BD0B5F1804F08D05B48854205D08C
:101630005A48854202D05A48854200D100E000BF96
:10164000208850B92389A28861882846FFF7ABFF1C
:10165000E1882846FFF79EFF25E0208804280AD16C
:101660002389A28861882846FFF753FFE18828462E
:10167000FFF742FF17E0208808280AD12389A288B3
:1016800061882846FFF7FBFEE1882846FFF7EEFE5B
:1016900009E02389A28861882846FFF7A6FEE18831
:1016A0002846FFF795FE70BD2DE9F04105460C4632
:1016B00000260127608808B9022600E00026A088DD
:1016C000012801D1022700E001272088A0B9238941
:1016D000A28861882846FFF766FFE1882846FFF761
:1016E00059FF23893A4631462846FFF712FFE18821
:1016F0002846FFF701FF13E02389A2886188284666
:10170000FFF707FFE1882846FFF7F6FE23893A46F0
:1017100031462846FFF747FFE1882846FFF73AFFA2
:10172000BDE8F0810A884B881A438B881A43CB881E
:101730001A430B891A434B891A438B891A43A0F821
:10174000442070474FF6FF71818000210180C180E5
:101750004180017270470021018041808180C180F9
:10176000018141818181C1817047002101804180D7
:10177000012181800021C180018170470021018009
:1017800041808180C1800181418181817047000059
:10179000002C0140003401400004004000080040DB
:1017A000000C004021B1028842F00102028004E0F6
:1017B00002884FF6FE731A400280704731B1B0F8CC
:1017C000442042F40042A0F8442005E0B0F8442050
:1017D000C2F30E02A0F8442070471AB183890B436C
:1017E000838102E083898B438381704781827047C4
:1017F00041EA0203A0F8483070471AB183890B43CD
:10180000838102E083898B438381704701894FF68E
:10181000F8721140018170470A46002101894FF694
:101820008F73194011430181704730B504460D464E
:1018300029462046FFF7F0FF208940F0070020816D
:1018400030BD2DE9F04104460D4616461F46602D79
:1018500006D13B46012231462046FFF75AFE05E0FD
:101860003B46012231462046FFF79DFE2946204691
:10187000FFF7D2FF208940F007002081BDE8F0810A
:1018800030B50C4600210189C9B24FF6FF7505EA53
:101890000325154325432943018130BD2DE9F0413E
:1018A00005460E4617469846002443463A463146BA
:1018B0002846FFF7E5FF2C894FF6F870044044F006
:1018C00007044FF68F70044044F070042C81BDE88B
:1018D000F081F0B504460D4616461F463B4632469B
:1018E00029462046FFF7CCFF208940F48040208124
:1018F000F0BD0185828270470A46002101884FF6BB
:101900008F731940114301807047F0B50C4615469E
:101910001E460021002200230189028B038C4FF612
:10192000F877394021434FF6FC473A4040F201171F
:101930003A434FF6DD773B404FF6FF7707EA06174D
:101940002F433B43018102830384F0BD0A460021FB
:10195000018B4FF68F7319401143018370470A467C
:101960000021018B48F6FF7319404FF6FF7303EA1D
:1019700002231943018370470A460021818B4FF6E9
:101980008F7319401143818370470A460021818B70
:1019900048F6FF7319404FF6FF7303EA0223194319
:1019A0008183704721B1028842F08002028004E006
:1019B00002884FF67F731A400280704721B18288F7
:1019C00042F00402828004E082884FF6FB731A40E2
:1019D0008280704721B1828842F00802828004E050
:1019E00082884FF6F7731A408280704721B182884F
:1019F00042F00102828004E082884FF6FE731A40B2
:101A0000828070470A460021018B4FF6F773194018
:101A10001143018370470A460021018B4FF2FF7387
:101A200019404FF6FF7303EA0223194301837047FD
:101A30000A460021818B4FF6F773194011438183C9
:101A400070470A460021818B4FF2FF7319404FF611
:101A5000FF7303EA02231943818370470A4600217A
:101A6000018B4FF6FB7319401143018370470A46FF
:101A70000021018B4FF6FF3319404FF6FF7303EA45
:101A800002231943018370470A460021818B4FF6D8
:101A9000FB7319401143818370470A460021818BF3
:101AA0004FF6FF3319404FF6FF7303EA0223194341
:101AB000818370470A460021018B4FF67F731940DE
:101AC0001143018370470A460021018BC1F30E01C7
:101AD0004FF6FF7303EA02231943018370470A4656
:101AE0000021818B4FF67F7319401143818370472A
:101AF0000A460021818BC1F30E014FF6FF7303EA02
:101B000002231943818370470A460021018C4FF656
:101B1000FD7319401143018470470A460021018C6E
:101B20004FF6F77319401143018470470A460021AC
:101B3000018C4FF6DF7319404FF6FF7303EA02136F
:101B40001943018470470A460021018C4FF67F73C8
:101B500019404FF6FF7303EA0213194301847047DB
:101B60000A460021018C4FF6FF5319404FF6FF73D0
:101B700003EA02231943018470470A460021018CBD
:101B80004FF2FF7319404FF6FF7303EA0223194324
:101B9000018470470A460021018C4DF6FF731940FD
:101BA0004FF6FF7303EA023319430184704730B5DF
:101BB000002301248C40A3B2048C9C430484048C35
:101BC00002FA01F5ADB22C43048430BD30B50023D8
:101BD00004248C40A3B2048C9C430484048C02FA39
:101BE00001F5ADB22C43048430BD70B5034600202E
:101BF00000241846183001258D40ACB21D8CA54339
:101C00001D8409B1082909D100EB6100056825F0A0
:101C1000700505600568154305600EE00D1FC5F3EE
:101C20004E052844056825F4E045056005684FF633
:101C3000FF7606EA02263543056070BD21B10288B1
:101C400042F00202028004E002884FF6FD731A405F
:101C50000280704721B1028842F00402028004E051
:101C600002884FF6FB731A400280704721B18288C8
:101C700042F08002828004E082884FF67F731A402F
:101C80008280704702884FF6F7731A4002800288FC
:101C90000A430280704782884FF68F731A40828011
:101CA00082880A438280704702894FF6F8731A408F
:101CB000028102890A430281704702894FF67F73CD
:101CC0001A40028102890A43028170478184704769
:101CD000818570478186704701877047818770478B
:101CE000A0F84010704702884FF6FF431A40028068
:101CF00002880A43028070470146888E7047014679
:101D0000088F70470146888F70470146B1F8400040
:101D100070470146888C70470146088D704702461F
:101D20000020138A0B400BB1012000E00020704717
:101D3000CA430282704730B50246002000230024C7
:101D4000158A05EA0103958905EA010413B10CB16E
:101D5000012000E0002030BDCA430282704700002D
:101D600001460020FE4A106800F038000843106069
:101D70007047FB49096821F00801F94A11601146D2
:101D80000968014311607047F549096821F01001A5
:101D9000F34A116011460968014311607047F14828
:101DA000EF494860F04848607047EE48EC494860A9
:101DB000ED4848607047EA48006940F08000E84913
:101DC00008617047E648006940F08000E449086116
:101DD00070470420E249C96801F0010109B10120FE
:101DE0000EE0DF49C96801F0040109B1022007E0F3
:101DF000DB49C96801F0100109B1032000E00420AB
:101E0000704700B502460423FFF7E3FF034603E0F3
:101E1000FFF7DFFF0346521E012B01D1002AF7D145
:101E200002B90523184600BD30B5044604254FF419
:101E30003020FFF7E6FF0546042D17D1C84800699A
:101E400040F00200C649086108464461006940F05C
:101E5000400008614FF43020FFF7D3FF0546C0482B
:101E6000006941F6FD710840BD490861284630BD52
:101E700010B504244FF43020FFF7C3FF0446042CB0
:101E800016D1B748006940F00400B549086108461A
:101E9000006940F0400008614FF43020FFF7B1FFC7
:101EA0000446AF48006941F6FB710840AC4908613F
:101EB000204610BD00B502460423FFF78AFF034603
:101EC00003E0FFF786FF0346521E012B01D1002AD3
:101ED000F7D102B90523184600BD10B504244FF40C
:101EE0003020FFF7E7FF0446042C16D19C48006918
:101EF00040F004009A4908610846006940F040003B
:101F000008614FF43020FFF7D5FF0446944800697C
:101F100041F6FB71084092490861204610BD00203F
:101F20008F49C96901F0020109B1012000E00020D8
:101F3000704730B5A5250424FFF7F1FF00B1002557
:101F40004FF43020FFF75DFF0446042C3AD185485A
:101F500083498860844888600846006940F0200012
:101F600008610846006940F0400008614FF43020E5
:101F7000FFF747FF0446042C1BD17948006941F65E
:101F8000DF710840764908610846006940F010009A
:101F9000086176480580E002FFF733FF0446052C10
:101FA00010D06F48006941F6EF7108406C49086134
:101FB00008E0052C06D06A48006941F6EF71084038
:101FC00067490861204630BD78B506460C460425B1
:101FD00000200090E802FFF714FF0546042D24D1ED
:101FE0005F48006940F001005D4908613480E80203
:101FF000FFF707FF0546042D10D1B01C0090200C00
:1020000000990880E802FFF7FCFE05465448006985
:1020100041F6FE7108405249086106E050480069E7
:1020200041F6FE7108404E490861284678BD70B5FA
:1020300004460D460426F002FFF7E3FE0646042E92
:1020400011D14748006940F00100454908612580E9
:10205000F002FFF7D6FE06464148006941F6FE71E0
:1020600008403F490861304670BD70B505460E46D0
:102070000424E002FFF7C5FE0446042C17D13948BA
:1020800037498860384888600846006940F0100089
:1020900008612E80E002FFF7B4FE0446052C06D04E
:1020A0002F48006941F6EF7108402D49086120462C
:1020B00070BD2DE9F04304464FF6FF763746B04633
:1020C000B1460425E443E6B2C4F30727C4F3074846
:1020D0004FEA1469E802FFF794FE0546042D49D142
:1020E00020481F498860204888600846006940F001
:1020F00010000861FF2E06D01C4808300680E80258
:10210000FFF77FFE0546042D08D1FF2F06D01748A4
:102110000A300780E802FFF774FE0546042D0AD155
:10212000B8F1FF0F07D011480C30A0F80080E8028A
:10213000FFF767FE0546042D0AD1B9F1FF0F07D05E
:102140000A480E30A0F80090E802FFF75AFE054654
:10215000052D0FD00248006941F6EF71084007E0F5
:102160000020024023016745AB89EFCD00F8FF1F37
:10217000664908612846BDE8F08330B50546042469
:102180004FF43020FFF73DFE0446042C41D1604857
:102190005E4988605F4888600846006940F020001A
:1021A00008610846006940F0400008614FF43020A3
:1021B000FFF727FE0446042C22D15448006941F65B
:1021C000DF710840514908610846006940F010007D
:1021D00008611DB100205049088002E0A5204E4949
:1021E00008804FF43020FFF70CFE0446052C10D079
:1021F0004648006941F6EF7108404449086108E02B
:10220000052C06D04148006941F6DF7108403F497E
:102210000861204630BDF0B505460E461746042439
:102220003B483A4988603B488860E002FFF7E9FD97
:102230000446042C19D13548006940F01000334998
:10224000086147F0F800304328433349891C08806F
:10225000E002FFF7D6FD0446052C06D02B480069A6
:1022600041F6EF710840294908612046F0BD274832
:10227000C069800870472548006A704700202349DC
:10228000096801F0200109B1012000E00020704739
:1022900029B11E4A126902431C4B1A6104E01B4A11
:1022A00012698243194B1A617047014600200129C7
:1022B00008D1164AD26902F001020AB1012008E0F1
:1022C000002006E0114AD2680A400AB1012000E06D
:1022D000002070470D49C860704704200B49C96849
:1022E00001F0010109B101200EE00849C96801F0BF
:1022F000040109B1022007E00449C96801F0100196
:1023000009B1032000E004207047000000200240D3
:1023100023016745AB89EFCD00F8FF1F10B50446D8
:10232000BE48844208D101218014FEF7BDFB002184
:10233000A014FEF7B9FB16E0B948844208D1012188
:102340000014FEF7BEFB00212014FEF7BAFB0AE0E2
:10235000B448844207D10121C013FEF7B2FB00212B
:10236000E013FEF7AEFB10BD10B50022028802F4A8
:1023700041520B884C8823438C882343CC882343C9
:102380000C8923434C8923438C892343CC892343E1
:102390001A430280838B4FF2FF74234083830B8A9E
:1023A000038210BD2DE9F04F85B005460C464FF075
:1023B000000902274FF000084FF0010B0026B2463B
:1023C000A88B4FF240010840A88302202884B5F86A
:1023D0001C90A068022801D100BF38E0A08810B985
:1023E0004FF0010B01E04FF0020B8D48854200D108
:1023F00000E000BF6846FEF7D0FADDF800A0E088F4
:10240000B0F5007F0AD14FEA1A2000EB80004000AF
:10241000A168B0FBF1F0401D86B20BE04FEA4B1013
:10242000BAFBF0F000EB80004000A168B0FBF1F0D7
:10243000401D86B20A20B6FBF0F606F00108A6EBB6
:102440000800C0F34F074FF6FF7000EA0828022F7C
:1024500001DBFF2F02DD02274FF00008E08840EA91
:10246000080038432884A088A1890843618808436C
:102470002188084340F4006040EA0909A5F81C904F
:1024800005B0BDE8F08F0021018041808180C180CE
:10249000018141818181C181072101827047002131
:1024A000018041808180C180022181600021818181
:1024B000704721B1028842F04002028004E00288A5
:1024C0004FF6BF731A400280704721B1828B42F4ED
:1024D0008062828304E0828B4FF6FF331A4082834E
:1024E000704730B5002400230C110125A540ABB284
:1024F0001AB185881D43858002E085889D438580CB
:1025000030BD1AB183880B43838002E083888B43FC
:1025100083807047818170470146888970474FF6F4
:10252000FF62914204D0028842F48072028004E08B
:1025300002884FF6FF631A400280704721B18288FB
:1025400042F00402828004E082884FF6FB731A4056
:102550008280704702884FF2FF731A40028002881F
:102560000A4302807047018841F48051018070471E
:1025700021B1028842F40052028004E002884DF644
:10258000FF731A400280704702460020012901D0E3
:10259000108B00E0908A70470146088A7047B1F5B9
:1025A000804F04D1028842F48042028004E0028815
:1025B0004BF6FF731A4002807047024600201389D1
:1025C0000B400BB1012000E000207047CA4302819C
:1025D0007047F0B50246002000240023002501F0DA
:1025E0000F070126BE40B4B20B1101269E40B3B2C4
:1025F000968806EA03051689264016B10DB101201A
:1026000000E00020F0BD10B5002201F00F0401230E
:10261000A3409AB2D343038110BD000000300140B3
:1026200000380040003C004001B581B00AE04FF4A2
:102630000050009000BFBDF80000411E89B200911B
:102640000028F8D1BDF80400411E89B2019100288C
:10265000EDD10CBD0EB578A00068029041F2B350E8
:102660000190064641F264070024002500F076F947
:1026700000F0DBF903F084FB02F021FF01F026FDFE
:1026800002F0AFFB07F06FF903F0E4FF04F006F887
:1026900001F0C1FF01F0CCFF00F0ACFA40F27F2165
:1026A00040F2E73003F0C4FA03F0ACFB4FF41640FD
:1026B00003F0E8FD00F030FB03F028F806F0A6F880
:1026C0005E4BDA7D997D587D04F0B9F803F0FEFF8A
:1026D0004FF49671002003F063FB0121062003F004
:1026E0005FFB57A359A255495BA007F083FB5F48E6
:1026F0000078B0B95E4890F82100012802D100208E
:1027000004F005FA5A4890F82200012809D106E0A1
:1027100005F033FC57480078012800D100E0F7E7C6
:1027200000BF88E05148007800287AD106F0EAFE20
:102730004F4890F82100002835D104F0A2FB50B397
:1027400022282FD1002004F093FB00F0040018B1E0
:102750000421002004F066FC002004F0C5FB041EE8
:1027600018DD611C444807F076F901A802AB224647
:1027700041490090002005F055FF002504E03E4946
:10278000485D01F050FE6D1CA542F8DB3B48006837
:1027900001F0BCFD06E0002332460221184605F098
:1027A00023FD00BF3DE0012004F06BFB80B3132844
:1027B00004D0172806D01C2832D125E0012005F0CE
:1027C00073FD2DE0012004F053FB00F0010018B16F
:1027D0000121084604F026FC012004F085FB044694
:1027E000002C10DD22462449012005F074FE244807
:1027F000046022462049234807F014F9204909883B
:1028000088B201F0E3FB0BE0012005F0D3FC07E008
:10281000FFE720233A460121084605F0E5FC00BF0A
:1028200000BF03F0A0FE03F0C5F800F0D3FC00F0F9
:1028300029FA00F07AFD75E77237598F3C170020AE
:1028400031313A30323A3434000000004F637420A2
:10285000313420323031370073746D3332204944C3
:102860003A25735B25732025735D0A008A000020DA
:10287000541A0020DC000020620100206C000020BF
:1028800058000020740A002010B5FDF785FF4FF4B2
:102890008030FDF7A1FFFDF7DEFF0446012C5CD17F
:1028A0000020FEF71EF80020FEF72DF8A002FEF72C
:1028B00021F80120FFF754FA1020FFF765FA4FF4D2
:1028C000E0112004FDF7F0FF0120FDF7F9FF00BF44
:1028D0003920FDF7A4FF0028FAD00220FDF7F3FF0E
:1028E00000BFFDF7F9FF0828FBD10121FD20FEF70D
:1028F000C1F801218803FEF7CAF80121C806FEF7D6
:10290000C6F801210807FEF7C2F80121C802FEF748
:10291000B1F801210846FEF7BAF801214802FEF796
:10292000A9F84FF40040FEF709F801210846FEF728
:1029300094F801210220FEF790F801218803FEF7A8
:1029400099F801214804FEF7A2F801218804FEF756
:102950009EF80121DC48FDF7A2FE10BD10B5FDF781
:102960001BFF0120FDF79DFF00BF2120FDF757FF52
:102970000028FAD00020FDF7B4FF0020FDF7C3FFC8
:102980004FF48060FDF7B6FF0120FFF7E9F9102052
:10299000FFF7FAF94FF460110020FDF785FF0120E1
:1029A000FDF78EFF00BF3920FDF739FF0028FAD070
:1029B0000220FDF788FF00BFFDF78EFF0828FBD13E
:1029C0000121FD20FEF756F801218803FEF75FF88C
:1029D0000121C806FEF75BF801210807FEF757F84A
:1029E0000121C802FEF746F801210846FEF74FF81C
:1029F00001214802FEF73EF84FF40040FDF79EFF2C
:102A000001210846FEF729F801210220FEF725F8EA
:102A100001218803FEF72EF801214804FEF737F85C
:102A20000121A948FDF73BFE10BD10B500214FF074
:102A30000060FDF7CCFC4FF4A060FDF791FC10BDE9
:102A400010B586B0044601218803FEF713F8012172
:102A50000420FDF724FE00219C48FEF73EF94020AB
:102A6000ADF8140003208DF8160018208DF817001B
:102A700005A99748FDF742FD8020ADF81400042019
:102A80008DF8170005A99248FDF738FD0194002044
:102A9000ADF80800ADF80A00ADF80C00ADF8100074
:102AA0000C20ADF80E0001A98848FEF78AF8012134
:102AB0008648FEF712F9012240F225518348FEF7BD
:102AC00018F925208DF8000000208DF801008DF800
:102AD000020001208DF803006846FDF746FC06B0B1
:102AE00010BD7FB505460C4601210220FDF7CFFF42
:102AF000ADF80850ADF804400020ADF80A00ADF87C
:102B0000060001A97348FEF7F1FA01221146714847
:102B1000FEF763FE1D208DF8000001208DF80100F6
:102B200003208DF8020001208DF803006846FDF7B0
:102B30001CFC01216748FEF735FE7FBD7FB50546C9
:102B40000C4601210420FDF7A2FFADF80850ADF8B6
:102B500004400020ADF80A00ADF8060001A95E4867
:102B6000FEF7C4FA012211465B48FEF736FE1E202E
:102B70008DF8000001208DF8010003208DF802007F
:102B800001208DF803006846FDF7EFFB0121524854
:102B9000FEF708FE7FBD7FB504460D460121C80241
:102BA000FDF768FF19208DF8000000208DF8010066
:102BB00003208DF8020001208DF803006846FDF720
:102BC000D4FBADF804500020ADF80600ADF8084085
:102BD000ADF80A008DF80C0001A94048FEF786FA0E
:102BE000012211463D48FEF7F8FD00213B48FEF763
:102BF000D9FD7FBD08B548208DF8030003208DF86E
:102C000002002020ADF8000069463148FDF776FC4F
:102C100008BD08B510208DF8030003208DF80200D0
:102C20004020ADF8000069462D48FDF767FC4021C3
:102C30002B48FDF712FD08BD10B540212848FDF7CF
:102C40000CFD40212648FDF706FD4FF4967001F07B
:102C500076FA40212248FDF700FD4FF4967001F00E
:102C60006EFA10BD10B5FFF7E7FFFFF7E5FF10BDE7
:102C700010B5FFF7E1FFFFF7DFFFFFF7DDFFFFF71D
:102C8000DBFF10BD10B56FF07F4420211048FDF729
:102C9000C8FC012817D010E0641E74B911A007F019
:102CA000A9F8134BDA7D997D587D03F01CFE06F0E0
:102CB00046FE06F025FEFDF745FA20210448FDF703
:102CC000B0FC0128E8D110BD0002300000380140FE
:102CD000000C01400004004000080040002C0140AE
:102CE000000801406B657920646F776E0A00000070
:102CF0003C170020704700BFFEE700BFFEE700BFA3
:102D0000FEE700BFFEE7704770477047704710B599
:102D100002F0DAFF10BD000008B510208DF80300A6
:102D200003208DF802004FF20300ADF80000694661
:102D3000FB48FDF7E3FB10208DF8030003208DF81E
:102D400002004FF41060ADF800006946F548FDF749
:102D5000D5FB48208DF8030003208DF802004FF4C6
:102D60007070ADF800006946ED48FDF7C7FB08BD7F
:102D700010B51822EC49002003F056FA0822EB495E
:102D8000182003F051FA10BD10B50221E448FDF7F8
:102D900062FC10BD10B50121E148FDF75CFC10BDDF
:102DA00010B54FF48051DE48FDF755FC10BD10B54D
:102DB0004FF40051DA48FDF74EFC10BD10B54FF44A
:102DC0008041D748FDF747FC10BD10B54FF40041D6
:102DD000D348FDF740FC10BD10B54FF48071D148C9
:102DE000FDF739FC10BD10B54FF40061CD48FDF77B
:102DF00032FC10BD10B50221C948FDF72EFC10BDF4
:102E000010B50121C648FDF728FC10BD10B54FF4E0
:102E10008051C348FDF721FC10BD10B54FF400519F
:102E2000BF48FDF71AFC10BD10B54FF48041BC48F7
:102E3000FDF713FC10BD10B54FF40041B848FDF785
:102E40000CFC10BD10B54FF48071B648FDF705FCC1
:102E500010BD10B54FF40061B248FDF7FEFB10BD88
:102E600010B54FF40071AE48FDF7DBFB10BD10B597
:102E70004FF48071AA48FDF7D4FB10BD10B5802136
:102E8000A748FDF7CEFB10BD10B54021A448FDF7C3
:102E9000C8FB10BD70B505460C46E91705EB51712E
:102EA0000122B2EBE10F6BD104F0010020B102214D
:102EB0009B48FDF7D0FB03E002219948FDF7CDFBCD
:102EC00004F0020020B101219548FDF7C4FB03E0A6
:102ED00001219348FDF7C1FB04F0040028B14FF431
:102EE00080518F48FDF7B7FB04E04FF480518C48C8
:102EF000FDF7B3FB04F0080028B14FF400518848F7
:102F0000FDF7A9FB04E04FF400518548FDF7A5FB50
:102F100004F0100028B14FF480418148FDF79BFB7D
:102F200004E04FF480417E48FDF797FB04F0200059
:102F300028B14FF400417A48FDF78DFB04E04FF4CF
:102F400000417748FDF789FB04F0400028B14FF4B9
:102F500080717448FDF77FFB04E04FF48071714885
:102F6000FDF77BFB04F0800028B14FF400616D4851
:102F7000FDF771FB04E04FF400616A48FDF76DFB5B
:102F800070BD10B54FF47A7001F0D9F84FF47A7033
:102F900001F0D5F8002409E0654951F82400804784
:102FA0004FF4967001F0CBF8601CC4B2082CF3DB30
:102FB0004FF47A7001F0C3F8002409E05D4951F83C
:102FC000240080474FF4967001F0B9F8601CC4B239
:102FD000082CF3DB10BD70B504460D46082C00DC50
:102FE00014B94FF0FF3070BD012D05D1611E504A5C
:102FF00052F82100804704E0611E4E4A52F8210039
:103000008047601E49490D540020ECE770B5054625
:103010000024002601240BE005F00106314620467D
:10302000FFF7D9FF601E41490E546D10601CC4B2F9
:10303000092CF1DB70BD0020002100BF06E03B4AF7
:10304000525C8A400243D0B24A1CD1B20829F6DB56
:103050007047014609B1082901DD00207047481E6C
:10306000324A105CFAE770B50646002400250DE0F0
:103070006006040EC5F107012F4A52F8210080476F
:10308000012801D144F00104681CC5B2082DEFDB12
:10309000347070BD10B504460121601E274A02EB52
:1030A000400041700021601E02F81010052002F05F
:1030B00099FE20B94FF49671052002F071FE10BD03
:1030C00010B50124062002F085FE08B9A01E10BD2F
:1030D0000121062002F064FE002460E0164951F848
:1030E0002400804790BB1648005D80BB154830F82F
:1030F0001400401C134921F81400084630F814004D
:1031000032284ADD01200E490855A0400E490978B1
:1031100008430D49087000200A4921F814003CE0DA
:10312000000C014000080140620900202F0000202F
:1031300008A4000828A4000848A400087A09002070
:1031400043000020520A00204B00002005E0FFE76A
:103150000020F74921F814001FE0F64951F8240037
:103160008047012819D1F448005D90B1F04830F84B
:103170001400401CEE4921F81400084630F81400F1
:1031800032280ADD0020EC490855E94921F81400ED
:1031900003E00020E94921F81400601CC4B2042CAB
:1031A0009CDB002093E710B588B0044620216846D8
:1031B00006F051FC0320E2490870E24B2246E2A1EE
:1031C000684606F027FE6A46E1A1E3A002F088FC0B
:1031D00008B010BD10B5FFF773FF401C00B910BD5B
:1031E000DF48007800B9FAE7002419E00120A04088
:1031F000DB490978084080B1DA480078BB2804D15F
:10320000D94951F82400804708E0611CC8B2FFF793
:10321000CAFF611CC8B2FFF73DFF00BF601CC4B20B
:10322000082CE3DB0020CE49087000BFD7E7024638
:103230000AB1082A03DD12B14FF0FF3070470129AF
:1032400004D019B111B14FF0FF30F7E70020F5E7D6
:103250000022411EC54B03EB41014A7070472DE926
:10326000F04704460D4616461F464FF00008C1467B
:103270000CB9032000E00120814605FB09403044E1
:103280001FFA80F83978404602F055FFBDE8F08714
:1032900010B50246002022B1012A16D0022A38D1E8
:1032A00026E000210EE04306180EC1F1070303EBF0
:1032B0004303AF4C23445B78012B01D1431CD8B2AC
:1032C0004B1CD9B20829EEDB23E000210DE04306B8
:1032D000180EC1F1070303EB4303A54CE35C012B7C
:1032E00001D1431CD8B24B1CD9B20829EFDB10E046
:1032F00000210BE04306180EC1F107039D4CE35C6F
:10330000012B01D1431CD8B24B1CD9B20829F1DBE7
:1033100000BF00BF10BD10B50220FFF7B9FF044683
:1033200021460820FFF7B6FD10BD10B5052002F0BC
:1033300051FD00B910BD052002F05CFD002422E023
:103340008A4800EB4400407801281AD1874810F8D9
:103350001400032810DA611CC8B2FFF724FF834869
:1033600010F81400401C814901F814004FF49671C4
:10337000052002F015FD04E000207C4901EB44012A
:103380004870601CC4B2082CDADB00BFD2E72DE91C
:10339000F05F0746884691469A46BB462C21584620
:1033A00006F08EFB040004D000202070641C25462B
:1033B00003E04FF0FF30BDE8F09F2C21284606F0D7
:1033C0007FFB040004D000202070641C264602E02D
:1033D0004FF0FF30EFE7584606F0D8FB88F80000C2
:1033E000284606F0D3FB89F80000304606F0CEFBF5
:1033F0008AF800000020DEE730B593B004460020D4
:10340000129011901090451E342103A806F023FB62
:1034100011AB12AA10A9A068FFF7B9FF9DF84000F0
:1034200055490978884207D19DF844109DF8480015
:10343000FFF7FDFE05462BE09DF840004E49097858
:1034400088420BDD9DF840004B4908709DF8441000
:103450009DF84800FFF7EBFE054619E04648007866
:103460009DF84010401A01280BDD9DF840004249AC
:1034700008709DF844109DF84800FFF7D8FE0546F7
:1034800006E09DF844109DF84800FFF7D0FE054681
:10349000B5BB9DF844109DF84800FFF79CFD9DF8D2
:1034A00044109DF84800401E324A11549DF84800CF
:1034B000401EC1B211AB00221820FFF7D0FE2148F8
:1034C0009DF84410CDE900109DF848309DF840204B
:1034D0002AA103A806F09EFC03AAD4E9000102F089
:1034E000FFFA25480078401C23490870C821264867
:1034F00006F0B1FA322203A9234806F093FA47E016
:10350000FFE722489DF84410CDE900109DF84830AF
:103510009DF8402019A103A806F07CFC03AAD4E979
:10352000000102F0DDFA4FF0FF3013B030BD0000B3
:10353000620A002048A4000843000020520A00202C
:103540008D0000205EA4000825642C257300000077
:10355000414C41524D00000052454C415900000081
:103560004B0000204C00002008A400087A0900202D
:10357000620900202F0000203700002025642C2540
:10358000642C25642C2573008A09002058A40008A7
:10359000002013B030BD2DE9F04790B004464FF045
:1035A0000009002600254FF0FF3A342103A806F059
:1035B00052FA2C21A06806F083FA070004D00020FC
:1035C00038707F1CB84604E04FF0FF3010B0BDE803
:1035D000F087A06806F0DAFAC5B2404606F0D6FADF
:1035E000C6B2F7480078854205D100213046FFF782
:1035F0001EFE82461FE0F2480078854207DDF04853
:10360000057000213046FFF712FE824613E0EC48B9
:103610000078401B012807DDE9480570002130468D
:10362000FFF705FE824606E0E64AD4E9000102F013
:1036300057FA0020CAE7BAF1000F25D1701EE249FF
:1036400011F80090E14833462A46AFF2D001CDE9A7
:10365000009003A806F0DEFB4946DDA006F0CAFB99
:1036600003AAD4E9000102F03BFAD5480078401CD7
:10367000D3490870C821D34806F0EDF9322203A9D6
:10368000D04806F0CFF90FE0D54833462A46D5A1F9
:10369000009003A806F0BEFB03AAD4E9000102F0E3
:1036A0001FFA4FF0FF3091E700208FE7F0B58FB0A1
:1036B0000446002600256F1E342102A806F0CBF92F
:1036C000A06806F063FAC5B2BD480078854201D112
:1036D000002718E0BA480078854203DDB848057035
:1036E000002710E0B6480078401B012803DDB448ED
:1036F0000570002707E0B34AD4E9000102F0F0F9B1
:1037000000200FB0F0BDFFB90220FFF7C1FD064653
:10371000AE4833462A46B3A1009002A806F07AFBD1
:1037200002AAD4E9000102F0DBF9A5480078401CA8
:10373000A3490870C821A34806F08DF9322202A9D6
:10374000A04806F06FF90EE0A54B2A46AFF208211B
:1037500002A806F05FFB02AAD4E9000102F0C0F95A
:103760004FF0FF30CDE70020CBE770B590B00446B6
:1037700000200F900025461E342102A806F06BF9A8
:10378000A06806F003FAC5B28D480078854201D1E1
:10379000002618E08A480078854203DD88480570D5
:1037A000002610E086480078401B012803DD84488D
:1037B0000570002607E0834AD4E9000102F090F981
:1037C000002010B070BDFEB90FA8FFF74CFC7F4879
:1037D00000909DF83C302A4682A102A806F01AFB10
:1037E00002AAD4E9000102F07BF975480078401C78
:1037F00073490870C821734806F02DF9322202A9D6
:10380000704806F00FF910E0754800909DF83C30C4
:103810002A4674A102A806F0FDFA02AAD4E9000122
:1038200002F05EF94FF0FF30CBE70020C9E72DE949
:10383000F041044600272C21A06806F041F905005C
:1038400008D0002028706D1C2E46A06806F09EF956
:10385000C7B203E04FF0FF30BDE8F08100213846E9
:10386000FFF7E5FC401C10B94FF0FF30F4E7574973
:10387000304606F036F918B93846FFF7E9FC02E0A1
:103880004FF0FF30E8E70020E6E730B593B004469C
:103890000020129011901090451E342103A806F0CC
:1038A000DAF811AB12AA10A9A068FFF770FD9DF815
:1038B000400043490978884207D19DF844109DF89B
:1038C0004800FFF7B4FC05462CE09DF840003C4959
:1038D000097888420BDD9DF84000394908709DF851
:1038E00044109DF84800FFF7A2FC05461AE0344852
:1038F00000789DF84010401A01280BDD9DF840002B
:103900002F4908709DF844109DF84800FFF78FFC80
:10391000054607E02B4AD4E9000102F0E1F8002057
:1039200013B030BDA5BB9DF844109DF84800401E63
:1039300000EB40002E4A104441709DF84800401EA4
:10394000C1B211AB01220020FFF789FC1F489DF88E
:103950004410CDE900109DF848309DF84020AFF2AA
:10396000E43103A806F056FA03AAD4E9000102F0F4
:10397000B7F813480078401C11490870C821114855
:1039800006F069F8322203A90E4806F04BF831E040
:10399000FFE713489DF84410CDE900109DF848302A
:1039A0009DF84020AFF22C4103A806F033FA03AA99
:1039B000D4E9000102F094F84FF0FF30B0E70000C6
:1039C000370000208A0900202F0000205EA4000894
:1039D0007377697463685F646174613D25640A008C
:1039E00058A4000825642C25642C257300000000D1
:1039F00062090020002093E7F0B58FB0044600264E
:103A000000256F1E342102A806F025F8A06806F0F4
:103A1000BDF8C5B2FB480078854201D1002718E007
:103A2000F8480078854203DDF6480570002710E06D
:103A3000F4480078401B012803DDF2480570002798
:103A400007E0F14AD4E9000102F04AF800200FB083
:103A5000F0BD07BB0020FFF71BFC0646EB483346D2
:103A60002A46AFF28001009002A806F0D3F902AA1C
:103A7000D4E9000102F034F8E2480078401CE14942
:103A80000870C821E04805F0E6FF322202A9DE48AE
:103A900005F0C8FF10E0DE4833462A46AFF2BC010D
:103AA000009002A806F0B6F902AAD4E9000102F0DB
:103AB00017F84FF0FF30CAE70020C8E730B593B0E1
:103AC00004460020129011901090451E342103A846
:103AD00005F0C1FF11AB12AA10A9A068FFF757FCAF
:103AE0009DF84000C7490978884207D19DF84410E5
:103AF0009DF84800FFF79BFB05462CE09DF8400031
:103B0000C049097888420BDD9DF84000BD49087026
:103B10009DF844109DF84800FFF789FB05461AE020
:103B2000B84800789DF84010401A01280BDD9DF838
:103B30004000B44908709DF844109DF84800FFF714
:103B400076FB054607E0B04AD4E9000101F0C8FF62
:103B5000002013B030BD9DBB9DF844109DF8480077
:103B6000401E00EB4000AB4A11549DF84800401E37
:103B7000C1B211AB00221046FFF771FBA3489DF8BC
:103B80004410CDE900109DF848309DF84020AFF278
:103B9000146103A806F03EF903AAD4E9000101F07C
:103BA0009FFF98480078401C96490870C8219648A5
:103BB00005F051FF322203A9934805F033FF16E0C8
:103BC000FFE793489DF84410CDE900109DF8483078
:103BD0009DF84020AFF25C6103A806F01BF903AA30
:103BE000D4E9000101F07CFF4FF0FF30B1E7002085
:103BF000AFE730B593B004460020129011901090BA
:103C0000451E342103A805F026FF11AB12AA10A906
:103C1000A068FFF7BCFB9DF840007A49097888420C
:103C200006D100219DF84800FFF701FB05462AE078
:103C30009DF840007349097888420ADD9DF84000EC
:103C40007049087000219DF84800FFF7F0FA05461A
:103C500019E06C4800789DF84010401A01280ADDF0
:103C60009DF840006749087000219DF84800FFF763
:103C7000DEFA054607E0644AD4E9000101F030FFAE
:103C8000002013B030BDA5BB9DF844109DF848003E
:103C9000401E00EB40005F4A104481709DF84800D0
:103CA000401EC1B211AB02220020FFF7D8FA5748DC
:103CB0009DF84410CDE900109DF848309DF8402053
:103CC000AFF2487103A806F0A5F803AAD4E90001F1
:103CD00001F006FF4B480078401C4A490870C82193
:103CE000494805F0B8FE322203A9474805F09AFE7C
:103CF00016E0FFE746489DF84410CDE900109DF816
:103D000048309DF84020AFF28C7103A806F082F88D
:103D100003AAD4E9000101F0E3FE4FF0FF30B0E761
:103D20000020AEE72DE9F04190B0044600260020C7
:103D30000F9000254FF0FF38342102A805F08BFECC
:103D40002C21A06805F0BCFE070007D000203870C9
:103D50007F1CA06805F01AFFC5B204E04FF0FF30E9
:103D600010B0BDE8F08127480078854202D14FF0BD
:103D7000000815E023480078854202DD4FF0000876
:103D80000EE020480078401B012802DD4FF00008BB
:103D900006E01D4AD4E9000101F0A2FE0020DFE7A1
:103DA000B8F1000F38D19DF83C10701E00EB4000B8
:103DB000184A10448170701EC1B20FAB022200205D
:103DC000FFF74DFA11489DF83C1033462A46CDE9DD
:103DD0000010AFF6580102A806F01CF802AAD4E9B8
:103DE000000101F07DFE07480078401C054908707D
:103DF000C821054805F02FFE322202A9024805F02D
:103E000011FE1DE0370000208A0900205EA4000892
:103E100058A400086209002093489DF83C103346DE
:103E20002A46CDE90010AFF6AC0102A805F0F2FF7A
:103E300002AAD4E9000101F053FE4FF0FF308FE7F2
:103E400000208DE72DE9F04F8FB0044600264FF09B
:103E5000FF3B342102A805F0FEFDB2462C21A068EC
:103E600005F02EFE5FEA00080AD0002088F8000066
:103E700008F10108C146A06805F088FEC6B204E05A
:103E80004FF0FF300FB0BDE8F08F484605F07EFEE2
:103E900000F0FF0A574675480078864202D14FF07D
:103EA000000B10E071480078864202DD4FF0000BF5
:103EB00009E06E480078801B012802DD4FF0000BFE
:103EC00001E04FF0000BBBF1000F35D1002514E0ED
:103ED00007F0010038B1664951F8250080470120FC
:103EE0006449485506E0644951F8250080470020A0
:103EF000604948557F10681CC5B2082DE8DB5F4853
:103F000053463246AFF22451009002A805F082FFDA
:103F100002AAD4E9000101F0E3FD54480078401CF6
:103F200052490870C821564805F095FD322202A971
:103F3000534805F077FD0FE04B485346324651A1F8
:103F4000009002A805F066FF02AAD4E9000101F082
:103F5000C7FD4FF0FF3095E7002093E710B58EB016
:103F60000446342101A805F076FD444B474A48A198
:103F700001A805F04FFF01AAD4E9000101F0B0FD4E
:103F800000200EB010BD30B595B0054620210DA81B
:103F900005F061FD3421684605F05DFD0DA801F0D6
:103FA0000CFB0DAA3CA1684605F034FF684605F0FD
:103FB00091FD04462146684601F07FFDBB203A4949
:103FC0000870FEF7DEFF002015B030BDF0B5B5B0CB
:103FD00006460027C82103A805F03DFD32463349B7
:103FE00003A805F01FFDC821304805F034FD03A8E3
:103FF00000902FA0009905F0FDFE2D21009805F0FE
:104000005FFD040004D000202070641C019403E0D4
:104010004FF0FF3035B0F0BD2D21204605F050FDAA
:10402000040004D000202070641C029402E04FF0D1
:10403000FF30EFE7002512E005EB8502214B03EB93
:104040008201019805F04DFD38B91F4850F8251040
:104050006846884707463846DCE7681CC5B20D2D20
:10406000EADB3846D6E7000058A4000837000020F5
:1040700008A400082F00002028A400085EA400085F
:104080008A090020256425642C257300390000204E
:1040900025732C2573000000484F53542D43484B83
:1040A0004C49432D257300004C000020740A002069
:1040B00070726F746F636F6C2E6F626A6563743AAF
:1040C00025730A00D0A20008D4A3000810B56FF031
:1040D0000400FCF794F908202B4908700846007882
:1040E00000EB4001C1EBC0104FF6FF7101EAC000C8
:1040F0002649088010BD0146234A12784A434FF0F2
:10410000E0235A6100229A611A46126942F00102C4
:104110001A6100BF4FF0E022106900F001021AB1ED
:1041200000F48032002AF5D04FF0E022126922F02C
:1041300001024FF0E0231A6100229A6170470146A4
:10414000124A12884A434FF0E0235A6100229A61D2
:104150001A46126942F001021A6100BF4FF0E022D4
:10416000106900F001021AB100F48032002AF5D083
:104170004FF0E022126922F001024FF0E0231A61B1
:1041800000229A61704700004E000020500000207D
:104190000BE04FF49670FFF7D2FF4FF49670FFF7E5
:1041A000CEFF4FF49670FFF7CAFFF2E708B5102074
:1041B0008DF8030003208DF802000220ADF8000006
:1041C0006946F848FCF79AF90221F648FCF743FAE9
:1041D00008BD0020F4490860F44908707047F248AF
:1041E000006870470020F2490860F2490870704783
:1041F000EF480068704710B586B0044601214804B6
:10420000FCF745FC0021EC48FCF767FD0420ADF805
:10421000140003208DF8160018208DF8170005A94A
:10422000E048FCF76BF90820ADF8140004208DF885
:10423000170005A9DB48FCF761F901940020ADF8EF
:104240000800ADF80A00ADF80C00ADF810000C2025
:10425000ADF80E0001A9D848FCF7B3FC0121D648FF
:10426000FCF73BFD012240F22551D348FCF741FD0C
:1042700026208DF8000000208DF8010001208DF827
:1042800002008DF803006846FCF76FF806B010BD19
:1042900070B504460D46E1B2C748FCF78BFD00BF80
:1042A0008021C548FCF7F4FD0028F9D0204670BDF8
:1042B00010B504462146C048FCF77CFD00BF8021B4
:1042C000BD48FCF7E5FD0028F9D010BD10B5044647
:1042D0000BE014F8011BB848FCF76CFD00BF80210F
:1042E000B548FCF7D5FD0028F9D020780028F0D19A
:1042F00010BD00BFB048008800F020000028F9D0B1
:10430000AD48001D0088C0F30800704710B5044692
:1043100004B9282464000021A848FDF743FA0020CE
:10432000A7490860A74804600020A44924310880F8
:104330009D49086001209D49087001219F48FDF7B3
:1043400031FA10BD10B5044604B9282400219B4859
:10435000FDF728FA00209C4908609C480460002072
:1043600096492431088092490860012091490870DB
:1043700001219248FDF716FA10BD10B500218F48B3
:10438000FDF710FA10BD10B501218C48FDF7D3FCE4
:1043900000283BD085480078012813D18848006860
:1043A000401C8749086008460068864909688842B9
:1043B00008D100208249086001207B490860002064
:1043C0007A4908707B480078012813D17E4800683C
:1043D000401C7D490860084600687C49096888429D
:1043E00008D1002078490860012071490860002048
:1043F000704908706F48007820B96C48007808B997
:10440000FFF7BBFF01216D48FDF7A6FC10BD0020A2
:104410006F49086148618860704700206D490861F4
:104420004861886070476A494A694969491C684B14
:10443000596119460968885419464969B1F5807F60
:1044400002D100211A46516161494969604A1269E5
:10445000914210D95E498968B1F5807F0BD15C49E2
:104460000969491C5A4A116111460969B1F5807FF1
:1044700001D10021116156498968491C544A916053
:1044800011468968B1F5807F02D94FF4807191603F
:10449000704750494A694969491C4E4B5961194650
:1044A0000968885419464969B1F5807F02D1002115
:1044B0001A46516147494969464A1269914210D9E1
:1044C00044498968B1F5807F0BD142490969491C8B
:1044D000404A116111460969B1F5807F01D100217F
:1044E00011613C498968491C3A4A916011468968C2
:1044F000B1F5807F02D94FF4807191607047014619
:1045000033480069324A5269904207D13048806886
:10451000B0F5807F02D06FF0010070472C488068B2
:10452000401E2B4A9060104600681269805C08703B
:1045300027480069401C264A106110460069B0F502
:10454000807F01D1002010610020E6E7014621486C
:104550000069204A5269904207D11E488068B0F530
:10456000807F02D06FF0010070471A488068401EBB
:10457000184A9060104600681269805C08701548FF
:104580000069401C134A106110460069B0F5807F35
:1045900001D1002010610020E6E730B504460D4649
:1045A000002322E000080140800000208800002055
:1045B000840000208900002000440040002C0140BD
:1045C0007000002074000020780000207C00002093
:1045D0003C0E0020540E0020E018FFF790FF00284A
:1045E00002DA4FF0FF3030BD5B1CAB42F4D3002049
:1045F000F9E730B504460D46002308E0E018FFF760
:10460000A5FF002802DA4FF0FF3030BD5B1CAB4243
:10461000F4D30020F9E710B51821FD4805F01BFA86
:10462000FC48FB490860FFF7F2FE01F06FF810BD8F
:1046300010B51821F84805F00EFAF848F649086058
:10464000FFF7EBFE10BDF64A1160F64A10607047A6
:10465000F549F64A12788854F4490978491CF34A16
:10466000117011460978C82901DB002111707047CB
:10467000EF480078401CEE49087008460078C828CA
:1046800001DB0020087070470020E8490978E84AFB
:104690001278914206DBE5490978E54A1278891AD1
:1046A000C8B206E0E2490978C831E04A1278891AAE
:1046B000C8B2704700B50346FFF7E6FF984204DA38
:1046C000DA480078DA4908700CE0D94800781844D4
:1046D000D749087008460078C82803DB08460078E8
:1046E000C838087000BD02461146612904DB7A29EA
:1046F00002DCA1F12000C1B2392903DDA1F13700AC
:10470000C0B27047A1F13000C0B2FAE730B505463B
:104710000C4600232846FFF7E6FF0346F02000EA98
:1047200003132046FFF7DFFF0343184630BD70B583
:1047300004460D4626460BE000BF4021BD48FCF76D
:10474000A7FB0028F9D016F8011BBA48FCF732FB8A
:104750002800A5F10105EFD170BD70B59AB0002415
:10476000FFF792FF04460D2C21DBAF48B0490978D2
:10477000405C52287ED1152C50DBAD4800781530B6
:10478000C82818DAA849AA4A127888181522AAA1B6
:1047900005F0CBF960B92022AD4912A805F042F925
:1047A0001E2112A8FFF7C3FF1520FFF783FFF1E2D8
:1047B000FFF75EFFEEE2182114A805F04CF99C48C3
:1047C0000078C0F1C8029848994B1B78C11814A80A
:1047D00005F028F996490978A1F1B30294490978BE
:1047E000C1F1C80114ABC8188F4905F01BF9152297
:1047F00098A114A805F099F968B9202294492031AC
:104800000CA805F00FF91E210CA8FFF790FF15204A
:10481000FFF750FF01E0FFF72BFFBBE2122C60DB3C
:10482000834800781230C82825DA7F49804A1278F8
:104830008818102287A105F078F90028B7D1002543
:10484000794B7B4A12781132995C794A127810328E
:10485000985CFFF75BFF05462846FEF7D7FB7249D9
:10486000734A127888181221FFF761FF1220FFF7B0
:1048700021FF8FE28CE2142115A805F0ECF86C48BA
:104880000078C0F1C8026848694B1B78C11815A8A8
:1048900005F0C8F866490978A1F1B60264490978BB
:1048A000C1F1C80115ABC8185F4905F0BBF810226B
:1048B00068A115A805F039F990B900259DF8651093
:1048C0009DF86400FFF722FF05462846FEF79EFB91
:1048D000122115A8FFF72BFF1220FFF7EBFE00BFF8
:1048E00058E20F2C77DB524800780F30C82830DAB6
:1048F0004D494F4A127888180C225BA105F015F932
:1049000000288AD15249403103C9CDE91801464AED
:10491000474909780E31505CFFF7E5FE0546424AEB
:10492000434909780C31505CFFF7DDFE0646294605
:10493000FEF751FB3C493E4A127888180F21FFF7D9
:10494000F6FE032118A8FFF7F2FE0F20FFF7B2FED4
:1049500020E2142115A805F07EF835480078C0F152
:10496000C8023148324B1B78C11815A805F05AF817
:104970002F490978A1F1B9022D490978C1F1C8017F
:1049800015ABC818284905F04DF80C2236A115A81A
:1049900005F0CBF8E8B92E49483103C9CDE9130138
:1049A0009DF86200FFF79FFE05469DF86000FFF747
:1049B0009AFE06462946FEF70EFB0F2115A8FFF7C3
:1049C000B6FE032113A8FFF7B2FE0F20FFF772FE19
:1049D00000BFDFE1FFE70E2C73DB154800780E30D7
:1049E000C8286FDA1049124A127888180D2222A1BD
:1049F00005F09BF858B90025142223A115A805F04D
:104A000011F8094A0A4909780D31505C46E05AE02C
:104A10003C0E00203C0C0020540E00203C0D0020D9
:104A20006C000020680000206C0E00208C0000202C
:104A30008B0000200044004052454C41592D534307
:104A4000414E5F4445564943452D4E4F57000000A7
:104A500064A4000852454C41592D5345545F414CC4
:104A60004C2D312C0000000052454C41592D53452E
:104A7000542D312C0000000052454C41592D524517
:104A800041442D312C00000052454C41592D5245D6
:104A900041442D312C312C312C4F4B00FFF723FE9C
:104AA0000646FEF7D6FA054605F13000C0B28DF88D
:104AB0006300132115A8FFF73AFE0E20FFF7FAFD59
:104AC00068E1B2E03BE0F649F64A127888180E2217
:104AD000F5A105F02AF860B91422F74915A804F0E9
:104AE000A1FF102115A8FFF722FE0E20FFF7E2FD1F
:104AF00050E1EB49EB4A127888180E22EFA105F03D
:104B000014F80028DCD1202112A804F0A4FF3421DD
:104B100005A804F0A0FF12A800F04FFD12AAEBA117
:104B200005A805F077F905A804F0D4FF0546294645
:104B300005A8FFF7FCFD0E20FFF7BCFD2AE11421BC
:104B400015A804F088FFD7480078C0F1C802D448FF
:104B5000D44B1B78C11815A804F064FFD14909781B
:104B6000A1F1BA02CF490978C1F1C80115ABC81843
:104B7000CB4904F057FF0D22AFF2041115A804F041
:104B8000D4FFD8B900251422AFF2041110A804F004
:104B900049FF9DF86100FFF7A6FD0646FEF759FAAA
:104BA000054605F13000C0B28DF84F00132110A862
:104BB000FFF7BDFD0E20FFF77DFD35E00E22BAA107
:104BC00015A804F0B2FF68B91422BB49143110A82B
:104BD00004F028FF102110A8FFF7A9FD0E20FFF711
:104BE00069FD21E00E22B5A115A804F09EFFD8B9F9
:104BF00020210DA804F02FFF3421684604F02BFF7C
:104C00000DA800F0DAFC0DAAB0A1684605F002F983
:104C1000684604F05FFF054629466846FFF787FDB2
:104C20000E20FFF747FD00BFB4E00D2C86DB9D484A
:104C300000780D30C8284DDA99499A4A12788818B8
:104C40000D22A6A104F071FFD0BB002514229A49C1
:104C5000283115A804F0E6FEFEF7EDF90546281107
:104C60008DF862009DF862000A2806DA9DF862005D
:104C70003030C0B28DF8620005E09DF86200373038
:104C8000C0B28DF8620005F00F008DF863009DF84A
:104C900063000A2806DA9DF863003030C0B28DF850
:104CA000630005E09DF863003730C0B28DF8630003
:104CB000102115A8FFF73BFD0D20FFF7FBFC69E075
:104CC000FFE77749774A127888180C2287A104F009
:104CD0002CFF5FE0142115A804F0BDFE7148007898
:104CE000C0F1C8026E486F4B1B78C11815A804F0BC
:104CF00099FE6C490978A1F1BB026A490978C1F1B2
:104D0000C80115ABC818664904F08CFE0D2273A1CA
:104D100015A804F00AFFD0BB0025142266493C31D7
:104D200010A804F07FFEFEF786F9054628118DF8DD
:104D30004E009DF84E000A2806DA9DF84E003030ED
:104D4000C0B28DF84E0005E09DF84E003730C0B27D
:104D50008DF84E0005F00F008DF84F009DF84F00C4
:104D60000A2806DA9DF84F003030C0B28DF84F00A7
:104D700005E09DF84F003730C0B28DF84F0010218C
:104D800010A8FFF7D4FC0D20FFF794FC00BF01E052
:104D9000FFF76EFC1AB070BD10B540F225515748B0
:104DA000FCF78CF840B15548FCF708F8C4B240F263
:104DB00025515248FCF7ACF810BD10B540F2255112
:104DC0004F48FCF77BF858B14D48FBF7F7FFC4B2EA
:104DD0002046FFF73DFC40F225514948FCF798F882
:104DE00010BD10B54FF4E130FFF705FAC8212C488B
:104DF00004F031FE10BD70B586B004460D4641A0EA
:104E00000068059041F2B3563F48007888B93F48A2
:104E100090F8210038B905AB2A46214600200096BB
:104E200003F07AFB1BE02A462146012003F0EAFA50
:104E300015E037A207CA02AB07C31A2001900C2164
:104E400002A801F092FA6420FFF779F9294620467A
:104E500001F08BFA012101A801F087FA00BF06B02A
:104E600070BD302804DB392802DCA0F13001C8B263
:104E7000412804DB5A2802DCA0F13701C8B2704790
:104E800010B504460B46012B03D12046FFF737FB34
:104E900010BD2046FFF75AFBFAE702460020704794
:104EA0006C0E00208B00002052454C41592D54457A
:104EB00053542D4E4F570000B4A4000852454C41A6
:104EC000592D484F53542D4E4F570000484F5354BF
:104ED0002D43484B4C49432D2573000052454C410E
:104EE000592D53544154452D3100000052454C4139
:104EF000592D414C41524D2D00000000004800400A
:104F0000004400407237598F8A000020541A002054
:104F100041542B43495053454E440A0038B5054689
:104F2000002434480078042802D1FFF758F948B922
:104F300030480078012802D12F48006810B96FF07E
:104F4000010038BDFFF745F9C8212C4804F083FD66
:104F50000DE06846FFF7D3FA801C00B908E0C82CC2
:104F600003DA9DF8000025490855601CC4B2F0E73B
:104F700000BF20480078042806D1C82C01DA20465A
:104F800000E0C820286006E01A480078012802D115
:104F90001948006828600120194908700020D0E7EE
:104FA00038B505460024FFF723F908B9A01E38BD1F
:104FB000FFF718F9C821114804F04DFD0DE06846CF
:104FC000FFF7C4FA801C00B908E0C82C03DA9DF88A
:104FD00000000A490855601CC4B2F0E700BFC82CA5
:104FE00001DA204600E0C820286002200449087049
:104FF0000020DCE75400002060000020740A00203C
:105000008D00002030B502460B4600200EE0002146
:1050100009E0145CC1F107052C4104F0010401EB27
:10502000C0055C55491C0829F3DB401C0828EEDB51
:1050300030BD30B50346002015E0002210E002EB41
:10504000C0041C5D2CB90C5C80251541AC430C548C
:1050500005E00C5C80251541EDB22C430C54521C2C
:10506000082AECDB401C0828E7DB30BD30B50346DE
:10507000002004E01C5C0D5C6C401C54401C904201
:10508000F8DB30BD70B50546002405E0EE48005D54
:10509000285CEE490855641C402CF7DB4022EB49A4
:1050A000284604F0BFFC70BD70B50546002405E03D
:1050B000E748005D285CE7490855641C402CF7DB95
:1050C0004022E449284604F0ADFC70BD70B50646A8
:1050D0000D46E1493046FFF795FF002405E0DF4823
:1050E000005DDD49085C2855641C382CF7DB70BD79
:1050F00070B505460C461C222946D94804F092FC9E
:105100001C2094FBF0F100FB1144C4F11C06D448B0
:1051100001193246284604F085FCA8192246D049D8
:1051200004F080FC70BD70B505460C461C22294673
:10513000CC4804F077FC1C2094FBF0F100FB1144F8
:10514000C4F11C0628193246C64904F06BFCC54858
:1051500081192246284604F065FC70BD2DE9F04116
:105160000646884614461F46652F01D0452F0BD1B1
:10517000BD48015D3046FFF7BBFFBB48015D06F14E
:105180001C00FFF7B5FF0AE0B848015D3046FFF7A5
:10519000CAFFB648015D06F11C00FFF7C4FF0025F9
:1051A00005E0B348405D305C08F805006D1C302D0B
:1051B000F7DBBDE8F0810246002004E0AD4B1B5C4C
:1051C000D35C0B54401C3028F8DB7047F0B5024626
:1051D0000B460020002133E0471DD75D12F800C0C8
:1051E00007EB4C05471CD75D4FEAC70C871CD75D02
:1051F0000CEB870CC71CD75D0CEB470C071DD75D6C
:105200000CEB0706062790FBF7F7DFF86CC20CEBF8
:10521000871707EB0517BC5DC4F3C0075F54C4F3E1
:10522000800C4F1C03F807C0C4F3400C8F1C03F81C
:1052300007C004F0010CCF1C03F807C0801D091D36
:105240003028C9DBF0BD70B50546002405E08B4869
:10525000005D285C8A490855641C202CF7DB20225D
:105260008749284604F0DEFB70BD2DE9F041064673
:105270000F461546984683493046FFF7C3FE8148DE
:10528000FFF700FF80492846FFF720FF01242AE0AE
:10529000434622467D497C48FFF760FF7C497948B8
:1052A0002030FFF788FF302278497948FFF7DEFE8B
:1052B000202274492031754804F0B4FB7149203133
:1052C0007348FFF783FF6F482030FFF7BCFF2022B1
:1052D0006C4901F12000FFF7C9FE20226B496948A3
:1052E00004F0A0FB641C102CD2DD20226549684824
:1052F00004F098FB202263492031624804F092FBBD
:10530000202263495F48203004F08CFB5D48FFF7A2
:10531000CBFE39465B48FFF78CFEBDE8F0812DE9F6
:10532000F04107460E4614461D46652D01D0452D19
:1053300013D16523224631463846FFF796FF642392
:1053400004F1080231463046FFF78FFF65232246FD
:1053500031463046FFF789FF12E06423224631468A
:105360003846FFF782FF652304F1080231463046D4
:10537000FFF77BFF6423224631463046FFF775FF77
:10538000BDE8F0812DE9F05F8046894615461E464E
:10539000DDF828A0E81DC11700EB5171C910CF003E
:1053A0004FF0000BCAF80070002404E019F8040064
:1053B00038490855641CAC42F8DB0CE0BBF1000F27
:1053C00005D18020334908554FF0010B02E0002041
:1053D00030490855641CBC42F0DB002412E0B8F1EF
:1053E000030F07D131192B4A101965230B9AFFF7C8
:1053F00096FF06E03119274A101965230B9AFFF72B
:1054000034FF0834BC42EADBBDE8F09F2DE9F047E9
:1054100007460D4690461E46DDF8209000240FE01A
:10542000032F06D13119281964234A46FFF777FF65
:1054300005E03119281964234A46FFF716FF08349E
:105440004445EDDBBDE8F08702A50008340F0020DD
:1054500042A50008740F0020B40F002082A50008A8
:10546000F40F002010100020EAA50008FBA500089A
:10547000BAA500080CA600083CA600083CA8000835
:105480002C1000204C100020BC100020F410002034
:105490008C10002024110020F8B5044600250026B9
:1054A0000027FA480568001D0668001D0768334696
:1054B0002A46F7A12046009704F0ACFCF8BDF0B5F1
:1054C000A1B00026002700250024002020902021E4
:1054D00018A804F0C0FA202110A804F0BCFA342166
:1054E00003A804F0B8FA202118A804F0B4FA202187
:1054F00010A804F0B0FA342103A804F0ACFA18A8FC
:10550000FFF7CAFFE6481A998160BDF86C108181E7
:1055100020A910AB1822CDE9001018A90320FFF72D
:1055200031FF00BF00BF24E010A8005D060910A8ED
:10553000005D00F00F07092E03DC06F13000C6B253
:1055400002E006F15700C6B2092F03DC07F1300074
:10555000C7B202E007F15700C7B22846691CCDB2B6
:1055600003A90E542846691CCDB203A90F54601C30
:10557000C4B2182CD8DB002400250DE003A8405D40
:10558000C849085503A9681C095CC64A601C115427
:10559000A01CC4B2281DC5B2172CEFDB21B0F0BD92
:1055A00010B504461822BF49204604F0A8FA08B9ED
:1055B000002010BD4FF0FF30FBE710B50446182265
:1055C000B849204604F02EFA10BD7FB588B00546D4
:1055D0001C4600266846FFF7F0FF5E20B2490870BF
:1055E000012048700846BDF8281041809DF824002D
:1055F000AD4948719DF82500087118226946AA48EE
:10560000801D04F00FFA2021684604F024FA34B912
:10561000A5482230002101604160018107E0A248D5
:105620002230216801606168416021890181099807
:1056300028B129469C482C30099A04F0F3F90998BE
:1056400000F12C0631469848FFF7D5FB4FF4007166
:10565000954804F000FA00200CB070BD2DE9F0412F
:1056600005460027002691480078052801D0BDE8AE
:10567000F08100241BE08E4901EB0411081D0A2271
:10568000294604F03CFA28B90020894901EB0411AD
:105690000860ECE7864800EB04100068B84204D9C3
:1056A000834800EB041007682646601CC4B20A2C2D
:1056B000E1DB002415E07E4800EB0410007970B9AE
:1056C0007B4800EB04102968416069688160298982
:1056D00081810020764901EB0411086003E0601C21
:1056E000C4B20A2CE7DB00BF0A2C0DDB704800EBCC
:1056F00006102968416069688160298981810020DC
:105700006B4901EB0611086000BFB0E710B5A0219E
:10571000674804F0A0F910BD2DE9F04190B00546AE
:105720000E464FF00008002700240FA8FEF7E7FE02
:10573000074616E09DF83C005E280ED10FA8FEF744
:10574000DEFE070004D19DF83C00012809D10BE0E2
:105750004FF0FF3010B0BDE8F0810FA8FEF7CFFE8C
:105760000746B81C0028E5D100BFB81C20B9FEF7D9
:1057700030FD6FF00100EDE70EA8FEF7C0FE002837
:1057800005DB0DF13900FEF7BAFE002802DA4FF012
:10579000FF30DFE70E980D900EA8FEF7B0FE002850
:1057A00005DB0DF13900FEF7AAFE002802DA4FF002
:1057B000FF30CFE79DF838809DF839008DF838002C
:1057C0008DF839800E980C90002409E006A908197C
:1057D000FEF795FE002802DA4FF0FF30BAE7641CAE
:1057E000182CF3DB6846FFF7E8FE1822694606A886
:1057F00004F085F910B14FF0FF30ABE7002408E06A
:105800000FA8FEF77CFE002802DA4FF0FF30A1E778
:10581000641C042CF4DB002408E026490819FEF778
:105820006EFE10B14FF0FF3094E7641C0A2CF4DBDD
:1058300000203060BDF83400C0286BD0B0F5D07FB8
:1058400003D0B0F5687F6CD144E015B119480078F9
:1058500028701848007801280FD1052013490870D6
:10586000FFF754FF002000F091FA6421042000F0BB
:1058700097FA11A004F0BEFA2BE04FF47A710020E1
:1058800000F08EFA0220094908701FE0E8F7FF1FB8
:1058900025303878253038782530387800000000F9
:1058A0008E0000203C1700203C15002055000020F1
:1058B00054170020F4170020636F6E6E6563742028
:1058C000736572766572206F6B0A0000A1A004F008
:1058D00091FA26E015B1A54800782870A348007811
:1058E00001280BD10020A249087040F6B8310420ED
:1058F00000F056FA9FA004F07DFA0AE04FF47A71A6
:10590000002000F04DFA0220A0490870A0A004F089
:1059100071FA06E0A5A004F06DFABDF83000306021
:1059200000BF00BF002015E710B54FF4FA6100205A
:1059300000F036FA0023A02219461846FFF745FE6C
:10594000FEF747FC0420914908709EA004F052FA2B
:1059500010BD10B500234FF4287219461846FFF702
:1059600034FE4FF49671042000F01AFA8048007853
:10597000401C7F4908700846017897A004F03AFA65
:1059800010BD10B57A480078052811DD03207F4945
:105990000870042000F0FAF902207C4908704FF4E6
:1059A0007A71002000F0FCF900207149087010BDE8
:1059B00000BFFCE710B58F480078012804D18E485D
:1059C0000068022800D010BD8C4890F8210068BB08
:1059D0006E480078042805DC002000F0FBF908B1CF
:1059E000FFF7A2FF69480078052803D067480078D0
:1059F000042809D1042000F0EDF908B1FFF7A9FF50
:105A00007F490020FFF788FE7E48FFF787FA40B9FC
:105A10007C49098888B2FEF7D9FA002078490860E5
:105A200002E0002076490860FFF7ABFF00BFCAE73D
:105A300010B57448FFF7B4FA20B97249098888B2E2
:105A4000FEF7C4FA10BD70B505460E460A2422467C
:105A50006D496E4803F0E6FF00206C490855601C54
:105A60000D54A01C0E54E41C21466848FFF7C3F9EE
:105A7000002070BD38B5664C1EE0664C00206649BB
:105A8000086001211420FFF7DEFF11E06248006882
:105A900070B16846FEF733FD9DF80000022803D17F
:105AA00001205E49087002E004205C49087038BD9E
:105AB000201EA4F10104E9DCDFE770B504460D46C1
:105AC0004E4890F8210030B9284BD0222946204674
:105AD000FFF77BFD03E029462046FFF78CF970BDF8
