:020000040800F2
:10000000580900205D010008A12D0008A32D00085B
:10001000A72D0008AB2D0008AF2D00080000000040
:10002000000000000000000000000000B32D0008E8
:10003000B52D000800000000B72D0008B92D0008FC
:1000400077010008770100087701000877010008B0
:1000500077010008770100087701000877010008A0
:100060007701000877010008770100087701000890
:100070007701000877010008770100087701000880
:100080007701000877010008770100087701000870
:100090007701000877010008770100087701000860
:1000A000770100081D31000877010008770100087A
:1000B000BB2D0008770100087701000877010008D0
:1000C0007701000877010008770100087701000830
:1000D00077010008BF3200089B4100087941000801
:1000E0007701000877010008770100087701000810
:1000F0007701000877010008770100087701000800
:1001000077010008770100087701000877010008EF
:1001100077010008770100087701000877010008DF
:1001200077010008770100087701000877010008CF
:10013000DFF80CD004F0D2FA004800475928000834
:10014000580900204FF0010080F31388014802494C
:100150000160FEE70CED00E00400FA050648804768
:1001600006480047FEE7FEE7FEE7FEE7FEE7FEE79C
:10017000FEE7FEE7FEE7FEE75F0200083101000848
:100180000CB50020019000906C48006840F480306D
:100190006A49086000BF6948006800F400300090B8
:1001A0000198401C0190009818B90198B0F5A06F13
:1001B000F1D16248006800F4003010B101200090D5
:1001C00001E0002000900098012843D15C480068BD
:1001D00040F010005A4908600846006820F003000B
:1001E00008600846006840F0020008605348406814
:1001F000524948600846406848600846406840F4F4
:10020000806048600846406820F47C1048600846DA
:10021000406840F4E81048600846006840F080708C
:10022000086000BF4548006800F000700028F9D061
:100230004248406820F00300404948600846406852
:1002400040F00200486000BF3C48406800F00C00ED
:100250000828F9D10CBD10B5FFF792FF10BD10B5FD
:100260003648006840F0010034490860084640689C
:10027000344908403149486008460068324908401E
:100280002E4908600846006820F48020086008466F
:10029000406820F4FE0048604FF41F008860FFF7BC
:1002A000DAFF4FF000602949086010BD10B5002149
:1002B00000200022214B5B6803F00C0121B10429CE
:1002C00006D0082928D107E0214B224C236027E0E3
:1002D0001F4B204C236023E0184B5B6803F4701025
:1002E000164B5B6803F48032022303EB904022B983
:1002F000194B4343174C23600DE0104B5B6803F42C
:10030000003323B1144B4343124C236003E0104BE2
:100310004343104C236003E00D4B0E4C236000BFA1
:1003200000BF064B5B68C3F303130C4CE15C094B45
:100330001B68CB40074C236010BD0000001002403A
:10034000002002400000FFF8FFFFF6FE08ED00E08D
:1003500000127A000000002000093D000400002087
:1003600031490143314A1160704770B500210023C3
:100370000F22C47804B32D4C246804F4E064C4F55F
:10038000E064210AC1F10403CA40447804FA03F18D
:100390008478144021430901254C0678A15504783E
:1003A00004F01F050124AC4005786D11AD0005F186
:1003B000E025C5F8004109E0047804F01F05012498
:1003C000AC401C4D0678761145F8264070BD1A4A9F
:1003D0000A400243154B1B1F1A60704739B1134A7C
:1003E000121D12680243114B1B1D1A6006E00F4AD2
:1003F000121D126882430D4B1B1D1A6070470428A2
:1004000008D14FF0E021096941F004014FF0E022EA
:10041000116107E04FF0E021096921F004014FF07C
:10042000E0221161704700000000FA050CED00E0C9
:1004300000E400E080E100E080FFFF1F10B504460B
:10044000CC48844208D10121042000F02DFB00217A
:10045000042000F029FB46E0C748844208D101216E
:10046000082000F021FB0021082000F01DFB3AE0ED
:10047000C248844208D10121102000F015FB002160
:10048000102000F011FB2EE0BD48844208D101216C
:10049000202000F009FB0021202000F005FB22E0D5
:1004A000B848844208D10121402000F0FDFA002123
:1004B000402000F0F9FA16E0B348844208D1012147
:1004C000802000F0F1FA0021802000F0EDFA0AE02F
:1004D000AE48844207D10121801500F0E5FA0021E1
:1004E000A01500F0E1FA10BD10B50121084600F09A
:1004F000DBFA0021012000F0D7FA10BD2DE9F04110
:10050000024600250026002000230024002791F841
:1005100003C00CF00F0591F803C00CF0100CBCF1F7
:10052000000F03D091F802C04CEA050591F800C015
:10053000BCF1000F31D0146800202BE04FF0010C0B
:100540000CFA00F3B1F800C00CEA03069E4220D179
:1005500083004FF00F0C0CFA03F7BC4305FA03FCC1
:100560004CEA040491F803C0BCF1280F06D14FF007
:10057000010C0CFA00FCC2F814C00AE091F803C0A8
:10058000BCF1480F05D14FF0010C0CFA00FCC2F889
:1005900010C0401C0828D1D31460B1F800C0BCF1D1
:1005A000FF0F34DD546800202EE000F1080C4FF0FE
:1005B000010808FA0CF3B1F800C00CEA03069E42E9
:1005C00021D183004FF00F0C0CFA03F7BC4305FA5E
:1005D00003FC4CEA040491F803C0BCF1280F05D1D8
:1005E00000F1080C08FA0CF8C2F8148091F803C066
:1005F000BCF1480F07D100F1080C4FF0010808FAD0
:100600000CF8C2F81080401C0828CED35460BDE816
:10061000F0814FF6FF710180022181700421C170C9
:1006200070470246002093680B400BB1012000E0A8
:10063000002070470146886880B27047024600205B
:10064000D3680B400BB1012000E000207047014649
:10065000C86880B2704701617047416170470AB154
:10066000016100E041617047C16070474FF4803222
:100670000A438261816182618269826970470246B0
:100680000020434B18684FF68073184040EA021070
:1006900008433F4B186070473E49C8617047F0B54A
:1006A0000A46002300240021002500F00046B6F190
:1006B000004F02D1364EF16901E0354E7168C0F34A
:1006C000034583B200F44016B6F5401F08D121F06F
:1006D00070612F4E766826F070662D4F7E6012E0B6
:1006E00000F48016B6F5801F06D1032606FA05F43D
:1006F000A14341F0706106E0460D360103FA06F6AB
:10070000B14341F0706122B1460D360103FA06F69D
:10071000314300F00046B6F1004F02D11C4EF161AA
:1007200001E01B4E7160F0BD30B500228B071C0F3D
:100730000F2303FA04F2164B08338C1053F82430BD
:100740009343134C08348D1044F8253023468C1005
:1007500053F824308C07240F00FA04F423430C4C84
:1007600008348D1044F8253030BD0A49DC3108606A
:100770007047000000080140000C014000100140DB
:100780000014014000180140001C014000200140FD
:100790000000014000002042DF48006840F00100F6
:1007A000DD49086008464068DC490840DA4948608D
:1007B00008460068DA490840D749086008460068DA
:1007C00020F4802008600846406820F4FE0048605D
:1007D0004FF41F0088607047CF49096821F48031C9
:1007E000CD4A11601146096821F480211160B0F5ED
:1007F000803F03D0B0F5802F0ED106E0C6490968CE
:1008000041F48031C44A116007E0C349096841F4EA
:10081000A021C14A116000E000BF00BF704710B5C1
:1008200001460022002300204A11012A02D1BA4CBD
:10083000236806E0022A02D1B74C236A01E0B64CD5
:10084000636A01F01F02012494401C400CB1012096
:1008500000E0002010BD38B50020009000240025E5
:1008600000BF3120FFF7DBFF05460098401C0090D9
:100870000098B0F5A06F01D0002DF2D03120FFF725
:10088000CEFF08B1012400E00024204638BD014617
:100890000020A14A106820F0F80040EAC100106072
:1008A0007047A04908607047024600209A4B58687C
:1008B00020F47C1042EA01031843974B58607047BC
:1008C00098490866704701460020934A506820F016
:1008D00003000843506070478F48406800F00C00E8
:1008E0007047014600208C4A506820F0F000084311
:1008F0005060704701460020874A506820F4E0604D
:1009000008435060704701460020834A506820F435
:10091000605040EAC1005060704729B17E4A527A67
:1009200002437D4B5A7204E07B4A527A82437A4BEF
:100930005A7270477B49D8310860704701460020E1
:10094000754A506820F440400843506070470021C9
:10095000714A20321170704A82F82010012802D0AA
:1009600004280AD104E001216B4A2032117005E00D
:100970000521694A2032117000E000BF00BF7047B6
:100980006949086070476449096A0143624A116213
:100990007047654944390860704730B5002100222E
:1009A000002400235C4D6D6805F00C0121B1042981
:1009B00005D0082923D105E05C4D056022E05B4DA0
:1009C00005601FE0544D6D6805F47012524D6D685E
:1009D00005F48034022505EB92421CB9544D554371
:1009E00005600BE04C4D6D6805F400351DB1504DB0
:1009F0005543056002E04D4D5543056002E04B4D07
:100A0000056000BF00BF444D6D6805F0F0010909A5
:100A1000484D6B5C0568DD4045603F4D6D6805F4F1
:100A2000E061090A434D6B5C4568DD4085603A4DE5
:100A30006D6805F46051C90A3E4D6B5C4568DD4048
:100A4000C560354D6D6805F44041890B3A4D6B5CCE
:100A5000C568B5FBF3F5056130BD29B12E4A526971
:100A600002432D4B5A6104E02B4A526982432A4BC0
:100A70005A61704729B1284A92690243264B9A610C
:100A800004E0254A92698243234B9A61704729B159
:100A9000214AD2690243204BDA6104E01E4AD2693E
:100AA00082431D4BDA61704729B11B4AD268024369
:100AB000194BDA6004E0184AD2688243164BDA60B8
:100AC000704729B1144A12690243134B1A6104E0BA
:100AD000114A12698243104B1A617047124940391A
:100AE000086070470F49C86470470B49C871704768
:100AF0000948406A40F080700749486270470146E3
:100B00000020054A92680A400AB1012000E0002056
:100B10007047014988727047001002400000FFF8DA
:100B2000FFFFF6FE000042428004424200127A00BB
:100B300000093D00140000202400002010B50446E8
:100B4000FB48844209D101218803FFF7ADFF002152
:100B50004FF48040FFF7A8FF32E0F648844209D105
:100B600001214804FFF7ADFF00214FF40030FFF7EB
:100B7000A8FF25E0F048844209D101218804FFF74D
:100B8000A0FF00214FF48020FFF79BFF18E0EB4807
:100B9000844209D10121C804FFF793FF00214FF4DB
:100BA0000020FFF78EFF0BE0E548844208D10121C9
:100BB0000805FFF786FF00214FF48010FFF781FF43
:100BC00010BD2DE9F04786B005460E460024A2462A
:100BD00000BFA1460027B08900B100BF2F462C8A74
:100BE0004CF6FF700440F08804432C82AC894EF62A
:100BF000F3100440B08831890843718908430443E5
:100C0000AC81AC8A4FF6FF400440B0890443AC820B
:100C100001A8FFF7C2FEC648874202D1DDF810A046
:100C200001E0DDF80CA0A88900F4004040B10AEB17
:100C3000CA0000EB0A1031684900B0FBF1F807E088
:100C40000AEBCA0000EB0A1031688900B0FBF1F82A
:100C50006420B8FBF0F004012009642101FB108935
:100C6000A88900F4004040B1322000EBC900B0FB7D
:100C7000F1F000F00700044308E0322000EB091017
:100C80006421B0FBF1F000F00F0004432C8106B0AA
:100C9000BDE8F0874FF41651016000218180C180CA
:100CA00001810C21418100218181704710B50246EC
:100CB0000020108A4FF2FF0318400B884C88234312
:100CC0008C882343CC8823431843108210BD002115
:100CD000018041808180C180704721B1828942F4C6
:100CE0000052828104E082894DF6FF731A408281AE
:100CF0007047F0B50346002400260025002040F68A
:100D00006A17B94200D100BF1846C1F3421401F07E
:100D10001F06012707FA06F5012C01D10C3004E06B
:100D2000022C01D1103000E014301AB107682F43B3
:100D3000076002E00768AF430760F0BD1AB1838A1D
:100D40000B43838202E0838A8B4383827047028A4B
:100D50004FF6F0731A400282028A0A4302827047F9
:100D600082894FF2FF731A40828182890A4382810D
:100D7000704721B1828942F00202828104E08289B7
:100D80004FF6FD731A4082817047028A4FF6DF7377
:100D90001A400282028A0A430282704721B1028A03
:100DA00042F48042028204E0028A4BF6FF731A404A
:100DB00002827047C1F3080282807047014688882A
:100DC000C0F308007047818941F0010181817047BB
:100DD000028BD2B20283028B42EA01220283704765
:100DE000028B02F47F420283028B0A430283704724
:100DF00021B1828A42F02002828204E0828A4FF688
:100E0000DF731A408282704721B1828A42F0100259
:100E1000828204E0828A4FF6EF731A408282704722
:100E200021B1828A42F00802828204E0828A4FF66F
:100E3000F7731A408282704721B1828942F40042DE
:100E4000828103E08289C2F30E028281704721B160
:100E5000828A42F40062828204E0828A4FF2FF7347
:100E60001A4082827047828A4FF6FB731A40828250
:100E7000828A0A438282704721B1828A42F002024A
:100E8000828204E0828A4FF6FD731A4082827047A4
:100E900002460020B1F5007F00D100BF13880B404F
:100EA0000BB1012000E00020704701F40072B2F5A0
:100EB000007F00D100BFCA430280704770B5024670
:100EC000002400230025002040F66A16B14200D11C
:100ED00000BFC1F3421501F01F03012606FA03F318
:100EE000012D02D19689334006E0022D02D1168AE7
:100EF000334001E0968A33400C12012606FA04F4CE
:100F00001688344013B10CB1012000E0002070BD00
:100F100010B50022002340F66A14A14200D100BFA0
:100F20000A1201249440A3B2DC43048010BD0000E7
:100F3000003801400044004000480040004C0040A0
:100F40000050004010B50446FA48844208D10121FF
:100F50004015FFF7A9FD00216015FFF7A5FD17E07B
:100F6000F548844208D101210015FFF79DFD0021BD
:100F70002015FFF799FD0BE0F048844208D10121CC
:100F8000C803FFF791FD00214FF40040FFF78CFDEF
:100F900010BD30B50246002000235068E84C2040C8
:100FA0000D790C6844EA0524204350609068E54CB4
:100FB0002040D1E902542C434D7944EA45042043B2
:100FC0009060D06A20F470000C7C641EE4B223436D
:100FD00040EA0350D06230BD0021016001714171CF
:100FE0008160C16001210174704721B1826842F0C3
:100FF0000102826003E0826822F001028260704791
:1010000021B1826842F48072826003E0826822F437
:1010100080728260704710B50023CBB21AB1446869
:101020001C43446002E044689C43446010BD8168F6
:1010300041F0080181607047014600208A6802F093
:1010400008020AB1012000E000207047816841F0E9
:10105000040181607047014600208A6802F00402A2
:101060000AB1012000E00020704721B1826842F4FB
:10107000A002826003E0826822F4A00282607047CE
:10108000014600208A6802F480020AB1012000E0D3
:101090000020704710B50A4600210023416821F462
:1010A0006041531E41EA4331416010BD21B14268A5
:1010B00042F40062426003E0426822F4006242604F
:1010C0007047F0B504460D4600200021092D11DDC2
:1010D000E068A5F10A0606EB4607072606FA07F1BF
:1010E0008843A5F10A0606EB460603FA06F1084313
:1010F000E0600CE0206905EB4507072606FA07F1DA
:10110000884305EB450603FA06F108432061072AE8
:101110000FDA606B561E06EB86071F2606FA07F1EC
:101120008843561E06EB860605FA06F108436063FF
:1011300022E00D2A0FDA206BD61F06EB86071F264A
:1011400006FA07F18843D61F06EB860605FA06F174
:101150000843206310E0E06AA2F10D0606EB860763
:101160001F2606FA07F18843A2F10D0606EB860654
:1011700005FA06F10843E062F0BD21B1826842F44D
:101180008012826003E0826822F4801282607047DD
:101190000146C86C80B2704766484C3000687047A2
:1011A00021B1426842F48062426003E0426822F466
:1011B00080624260704721B1426842F480524260CE
:1011C00003E0426822F48052426070470A460021E0
:1011D000816821F4E04111438160704721B1826848
:1011E00042F40042826003E0826822F4004282609E
:1011F000704721B1826842F40212826003E0826883
:1012000022F4021282607047014600208A6802F4CC
:1012100000120AB1012000E000207047F0B504463A
:101220001546002000220026092911DDE068A1F101
:101230000A0707EB470C072707FA0CF29043A1F1C6
:101240000A0707EB470703FA07F21043E0600CE0D8
:10125000206901EB410C072707FA0CF2904301EBE0
:10126000410703FA07F210432061A06BC0F3015657
:10127000EF1C06F1010CA7EB0C0707EB870C1F27EF
:1012800007FA0CF29043EF1C06F1010CA7EB0C07D8
:1012900007EB870701FA07F21043A063F0BD10B512
:1012A0000A4600210023816B21F44011531E41EABC
:1012B0000351816310BD08B5002300930090009B8B
:1012C0000B440093009B1A6008BD08B5024600203D
:1012D0000090009201F12800009B184400900098B3
:1012E000006880B208BD0A4600214168164B1940CB
:1012F0001143416070474162826270470A46002193
:10130000416821F01F0111434160704740B1094914
:101310000831096841F40001064A0832116007E00B
:1013200004490831096821F40001024A08321160B9
:10133000704700000024014000280140003C0140AB
:10134000FFFEF0FFFDF7F1FFFFFD3FFF024600202B
:1013500013680B400BB1012000E000207047CA4326
:101360000260704770B502460020002300240B1273
:101370005568CEB205EA060415681D4015B10CB1DA
:10138000012000E0002070BD00220A12D343036058
:101390007047000010B50446FE48844208D1012180
:1013A000C014FFF781FB0021E014FFF77DFBC4E0D0
:1013B000B4F1804F08D101210846FFF782FB0021DC
:1013C0000120FFF77EFBB8E0F348844208D10121F9
:1013D0000220FFF776FB00210220FFF772FBACE052
:1013E000EE48844208D101210420FFF76AFB002166
:1013F0000420FFF766FBA0E0E948844208D1012100
:101400000820FFF75EFB00210820FFF75AFB94E05D
:10141000E448844208D101211020FFF752FB00214B
:101420001020FFF74EFB88E0DF48844208D10121FD
:101430002020FFF746FB00212020FFF742FB7CE045
:10144000DA48844208D101214014FFF72DFB002126
:101450006014FFF729FB70E0D548844209D10121CF
:10146000C804FFF721FB00214FF40020FFF71CFB0D
:1014700063E0D048844209D101210805FFF714FB3D
:1014800000214FF48010FFF70FFB56E0CA4884425A
:1014900009D101214805FFF707FB00214FF4001097
:1014A000FFF702FB49E0C548844208D101214020F2
:1014B000FFF707FB00214020FFF703FB3DE0C0489A
:1014C000844208D101218020FFF7FBFA002180200F
:1014D000FFF7F7FA31E0BB48844208D101218015BB
:1014E000FFF7EFFA0021A015FFF7EBFA25E0B64869
:1014F000844209D101210804FFF7D6FA00214FF4F4
:101500008030FFF7D1FA18E0B048844209D10121B8
:101510004804FFF7C9FA00214FF40030FFF7C4FA7E
:101520000BE0AB48844208D101218804FFF7BCFAE4
:1015300000214FF48020FFF7B7FA10BD0022028887
:10154000944B98420ED0994B98420BD0B0F1804FFB
:1015500008D0914B984205D0904B984202D0904BC6
:10156000984204D14FF68F731A404B881A438D4B23
:10157000984207D08C4B984204D04FF6FF431A4054
:10158000CB881A4302808B8883850B880385814B27
:1015900098420BD0854B984208D08B4B984205D08F
:1015A0008A4B984202D08A4B984201D10B7A03862B
:1015B00001238382704770B5002400220023058C2C
:1015C0004FF6FE7635400584028C8388048B4FF6F7
:1015D0008F752C40B51E2C400D882C43751E2A405B
:1015E0000D892A434D882A436A4DA8420BD06F4D7E
:1015F000A84208D0744DA84205D0744DA84202D02C
:10160000734DA84213D14FF6F7752A404D892A43EE
:101610004FF6FB752A408D882A434FF6FF652B4015
:101620004FF6FF552B408D892B43CD892B4383806B
:101630000483CD888586028470BD70B500240022A5
:101640000023058C4FF6EF7635400584028C8388A5
:10165000048B48F6FF752C404FF6FF452C400D8853
:101660004FF6FF7606EA05252C434FF6DF752A4034
:101670000D8906EA05152A434D8806EA05152A4311
:10168000444DA84202D0494DA8421DD14FF67F7566
:101690002A404D894FF6FF7606EA05152A434FF694
:1016A000BF752A408D8806EA05152A434FF6FF3597
:1016B0002B404FF2FF752B408D8906EA85052B43A1
:1016C000CD8906EA85052B4383800483CD88058771
:1016D000028470BD70B5002400220023058C4FF6F3
:1016E000FF6635400584028C8388848B4FF68F75A6
:1016F0002C404FF6FC752C400D882C434FF6FF55BF
:101700002A400D894FF6FF7606EA05252A434D88C3
:1017100006EA05252A431F4DA84202D0234DA842C0
:101720001DD14FF2FF752A404D894FF6FF7606EA2C
:1017300005252A434FF6FF352A408D8806EA052500
:101740002A434EF6FF752B404DF6FF752B408D89D1
:1017500006EA05152B43CD8906EA05152B43838040
:101760008483CD888587028470BD70B500220023F4
:101770000024058C4EF6FF7635400584038C848862
:10178000828B48F6FF752A404FF6FF452A400D88A8
:1017900020E00000002C0140000400400008004050
:1017A000000C0040001000400014004000340140D4
:1017B000004C01400050014000540140001800401E
:1017C000001C004000200040004001400044014057
:1017D000004801404FF6FF7606EA05252A434DF6FC
:1017E000FF752B400D8906EA05352B434D8806EA27
:1017F00005352B43FA4DA84202D0FA4DA84208D134
:101800004BF6FF752C408D894FF6FF7606EA85155D
:101810002C4384808283CD88A0F84050038470BD1F
:10182000828B4FF2FF331A408283828B4FF6FF7315
:1018300003EA01231A4382837047F0B50C4615462C
:10184000002200210026078C4EF6FF7C07EA0C07D9
:101850000784828B018C4FF6FF7707EA043640F647
:10186000FF473A404FF6FF7707EA05273A434FF61E
:10187000FF7707EA03373A43D94FB8420ED0D94F22
:10188000B8420BD0B0F1804F08D0D74FB84205D046
:10189000D64FB84202D0D64FB84206D14DF6FF77A8
:1018A000394046F48057394305E047F6FF57394041
:1018B00044F48057394382830184F0BD828B4FF614
:1018C000F3731A408283828B0A4382837047F0B598
:1018D0000C461546002200210026078C4FF6FF6CAF
:1018E00007EA0C070784828B018C4FF6FF7707EA23
:1018F00004264FF60C773A404FF6FF7707EA0317B6
:101900002F433A43B64FB8420ED0B64FB8420BD031
:10191000B0F1804F08D0B44FB84205D0B34FB842B1
:1019200002D0B34FB84206D14FF6FF57394046F4C4
:101930008077394305E04FF2FF57394044F4807710
:10194000394382830184F0BD028B4FF2FF331A408A
:101950000283028B4FF6FF7303EA01231A430283CB
:101960007047F0B50C461546002200210026078C72
:101970004FF6EF7C07EA0C070784028B018C4FF6C9
:10198000FF7707EA041640F6FF473A404FF6FF7725
:1019900007EA03373A434FF6FF7707EA05273A434A
:1019A0008F4FB8420ED08F4FB8420BD0B0F1804F5E
:1019B00008D08D4FB84205D08C4FB84202D08C4F22
:1019C000B84206D14FF6DF77394046F01007394369
:1019D00005E04FF65F77394044F010073943028342
:1019E0000184F0BD028B4FF6F3731A400283028B21
:1019F0000A4302837047F0B50C46154600220021C9
:101A0000068C4FF6FE773E400684028B018C4FF623
:101A10000C7632407E1C06EA03162E433243704E8B
:101A2000B0420ED06F4EB0420BD0B0F1804F08D014
:101A30006D4EB04205D06D4EB04202D06C4EB042F9
:101A400006D14FF6FD76314044F00106314305E002
:101A50004FF6F576314044F00106314302830184AC
:101A6000F0BD70B505460C465D4885420ED05D4818
:101A700085420BD0B5F1804F08D05B48854205D038
:101A80005A48854202D05A48854200D100E000BF42
:101A9000208850B92389A28861882846FFF7ABFFC8
:101AA000E1882846FFF79EFF25E0208804280AD118
:101AB0002389A28861882846FFF753FFE1882846DA
:101AC000FFF742FF17E0208808280AD12389A2885F
:101AD00061882846FFF7FBFEE1882846FFF7EEFE07
:101AE00009E02389A28861882846FFF7A6FEE188DD
:101AF0002846FFF795FE70BD2DE9F04105460C46DE
:101B000000260127608808B9022600E00026A08888
:101B1000012801D1022700E001272088A0B92389EC
:101B2000A28861882846FFF766FFE1882846FFF70C
:101B300059FF23893A4631462846FFF712FFE188CC
:101B40002846FFF701FF13E02389A2886188284611
:101B5000FFF707FFE1882846FFF7F6FE23893A469C
:101B600031462846FFF747FFE1882846FFF73AFF4E
:101B7000BDE8F0810A884B881A438B881A43CB88CA
:101B80001A430B891A434B891A438B891A43A0F8CD
:101B9000442070474FF6FF71818000210180C18091
:101BA0004180017270470021018041808180C180A5
:101BB000018141818181C181704700210180418083
:101BC000012181800021C1800181704700210180B5
:101BD00041808180C1800181418181817047000005
:101BE000002C014000340140000400400008004087
:101BF000000C004021B1028842F00102028004E0A2
:101C000002884FF6FE731A400280704731B1B0F877
:101C1000442042F40042A0F8442005E0B0F84420FB
:101C2000C2F30E02A0F8442070471AB183890B4317
:101C3000838102E083898B4383817047818270476F
:101C400041EA0203A0F8483070471AB183890B4378
:101C5000838102E083898B438381704701894FF63A
:101C6000F8721140018170470A46002101894FF640
:101C70008F73194011430181704730B504460D46FA
:101C800029462046FFF7F0FF208940F00700208119
:101C900030BD2DE9F04104460D4616461F46602D25
:101CA00006D13B46012231462046FFF75AFE05E0A9
:101CB0003B46012231462046FFF79DFE294620463D
:101CC000FFF7D2FF208940F007002081BDE8F081B6
:101CD00030B50C4600210189C9B24FF6FF7505EAFF
:101CE0000325154325432943018130BD2DE9F041EA
:101CF00005460E4617469846002443463A46314666
:101D00002846FFF7E5FF2C894FF6F870044044F0B1
:101D100007044FF68F70044044F070042C81BDE836
:101D2000F081F0B504460D4616461F463B46324646
:101D300029462046FFF7CCFF208940F480402081CF
:101D4000F0BD0185828270470A46002101884FF666
:101D50008F731940114301807047F0B50C4615464A
:101D60001E460021002200230189028B038C4FF6BE
:101D7000F877394021434FF6FC473A4040F20117CB
:101D80003A434FF6DD773B404FF6FF7707EA0617F9
:101D90002F433B43018102830384F0BD0A460021A7
:101DA000018B4FF68F7319401143018370470A4628
:101DB0000021018B48F6FF7319404FF6FF7303EAC9
:101DC00002231943018370470A460021818B4FF695
:101DD0008F7319401143818370470A460021818B1C
:101DE00048F6FF7319404FF6FF7303EA02231943C5
:101DF0008183704721B1028842F08002028004E0B2
:101E000002884FF67F731A400280704721B18288A2
:101E100042F00402828004E082884FF6FB731A408D
:101E20008280704721B1828842F00802828004E0FB
:101E300082884FF6F7731A408280704721B18288FA
:101E400042F00102828004E082884FF6FE731A405D
:101E5000828070470A460021018B4FF6F7731940C4
:101E60001143018370470A460021018B4FF2FF7333
:101E700019404FF6FF7303EA0223194301837047A9
:101E80000A460021818B4FF6F77319401143818375
:101E900070470A460021818B4FF2FF7319404FF6BD
:101EA000FF7303EA02231943818370470A46002126
:101EB000018B4FF6FB7319401143018370470A46AB
:101EC0000021018B4FF6FF3319404FF6FF7303EAF1
:101ED00002231943018370470A460021818B4FF684
:101EE000FB7319401143818370470A460021818B9F
:101EF0004FF6FF3319404FF6FF7303EA02231943ED
:101F0000818370470A460021018B4FF67F73194089
:101F10001143018370470A460021018BC1F30E0172
:101F20004FF6FF7303EA02231943018370470A4601
:101F30000021818B4FF67F731940114381837047D5
:101F40000A460021818BC1F30E014FF6FF7303EAAD
:101F500002231943818370470A460021018C4FF602
:101F6000FD7319401143018470470A460021018C1A
:101F70004FF6F77319401143018470470A46002158
:101F8000018C4FF6DF7319404FF6FF7303EA02131B
:101F90001943018470470A460021018C4FF67F7374
:101FA00019404FF6FF7303EA021319430184704787
:101FB0000A460021018C4FF6FF5319404FF6FF737C
:101FC00003EA02231943018470470A460021018C69
:101FD0004FF2FF7319404FF6FF7303EA02231943D0
:101FE000018470470A460021018C4DF6FF731940A9
:101FF0004FF6FF7303EA023319430184704730B58B
:10200000002301248C40A3B2048C9C430484048CE0
:1020100002FA01F5ADB22C43048430BD30B5002383
:1020200004248C40A3B2048C9C430484048C02FAE4
:1020300001F5ADB22C43048430BD70B503460020D9
:1020400000241846183001258D40ACB21D8CA543E4
:102050001D8409B1082909D100EB6100056825F04C
:10206000700505600568154305600EE00D1FC5F39A
:102070004E052844056825F4E045056005684FF6DF
:10208000FF7606EA02263543056070BD21B102885D
:1020900042F00202028004E002884FF6FD731A400B
:1020A0000280704721B1028842F00402028004E0FD
:1020B00002884FF6FB731A400280704721B1828874
:1020C00042F08002828004E082884FF67F731A40DB
:1020D0008280704702884FF6F7731A4002800288A8
:1020E0000A430280704782884FF68F731A408280BD
:1020F00082880A438280704702894FF6F8731A403B
:10210000028102890A430281704702894FF67F7378
:102110001A40028102890A43028170478184704714
:102120008185704781867047018770478187704736
:10213000A0F84010704702884FF6FF431A40028013
:1021400002880A43028070470146888E7047014624
:10215000088F70470146888F70470146B1F84000EC
:1021600070470146888C70470146088D70470246CB
:102170000020138A0B400BB1012000E000207047C3
:10218000CA430282704730B5024600200023002473
:10219000158A05EA0103958905EA010413B10CB11A
:1021A000012000E0002030BDCA43028270470000D9
:1021B00001460020FE4A106800F038000843106015
:1021C0007047FB49096821F00801F94A116011467E
:1021D0000968014311607047F549096821F0100151
:1021E000F34A116011460968014311607047F148D4
:1021F000EF494860F04848607047EE48EC49486055
:10220000ED4848607047EA48006940F08000E849BE
:1022100008617047E648006940F08000E4490861C1
:1022200070470420E249C96801F0010109B10120A9
:102230000EE0DF49C96801F0040109B1022007E09E
:10224000DB49C96801F0100109B1032000E0042056
:10225000704700B502460423FFF7E3FF034603E09F
:10226000FFF7DFFF0346521E012B01D1002AF7D1F1
:1022700002B90523184600BD30B5044604254FF4C5
:102280003020FFF7E6FF0546042D17D1C848006946
:1022900040F00200C649086108464461006940F008
:1022A000400008614FF43020FFF7D3FF0546C048D7
:1022B000006941F6FD710840BD490861284630BDFE
:1022C00010B504244FF43020FFF7C3FF0446042C5C
:1022D00016D1B748006940F00400B54908610846C6
:1022E000006940F0400008614FF43020FFF7B1FF73
:1022F0000446AF48006941F6FB710840AC490861EB
:10230000204610BD00B502460423FFF78AFF0346AE
:1023100003E0FFF786FF0346521E012B01D1002A7E
:10232000F7D102B90523184600BD10B504244FF4B7
:102330003020FFF7E7FF0446042C16D19C480069C3
:1023400040F004009A4908610846006940F04000E6
:1023500008614FF43020FFF7D5FF04469448006928
:1023600041F6FB71084092490861204610BD0020EB
:102370008F49C96901F0020109B1012000E0002084
:10238000704730B5A5250424FFF7F1FF00B1002503
:102390004FF43020FFF75DFF0446042C3AD1854806
:1023A00083498860844888600846006940F02000BE
:1023B00008610846006940F0400008614FF4302091
:1023C000FFF747FF0446042C1BD17948006941F60A
:1023D000DF710840764908610846006940F0100046
:1023E000086176480580E002FFF733FF0446052CBC
:1023F00010D06F48006941F6EF7108406C490861E0
:1024000008E0052C06D06A48006941F6EF710840E3
:1024100067490861204630BD78B506460C4604255C
:1024200000200090E802FFF714FF0546042D24D198
:102430005F48006940F001005D4908613480E802AE
:10244000FFF707FF0546042D10D1B01C0090200CAB
:1024500000990880E802FFF7FCFE05465448006931
:1024600041F6FE7108405249086106E05048006993
:1024700041F6FE7108404E490861284678BD70B5A6
:1024800004460D460426F002FFF7E3FE0646042E3E
:1024900011D14748006940F0010045490861258095
:1024A000F002FFF7D6FE06464148006941F6FE718C
:1024B00008403F490861304670BD70B505460E467C
:1024C0000424E002FFF7C5FE0446042C17D1394866
:1024D00037498860384888600846006940F0100035
:1024E00008612E80E002FFF7B4FE0446052C06D0FA
:1024F0002F48006941F6EF7108402D4908612046D8
:1025000070BD2DE9F04304464FF6FF763746B046DE
:10251000B1460425E443E6B2C4F30727C4F30748F1
:102520004FEA1469E802FFF794FE0546042D49D1ED
:1025300020481F498860204888600846006940F0AC
:1025400010000861FF2E06D01C4808300680E80203
:10255000FFF77FFE0546042D08D1FF2F06D0174850
:102560000A300780E802FFF774FE0546042D0AD101
:10257000B8F1FF0F07D011480C30A0F80080E80236
:10258000FFF767FE0546042D0AD1B9F1FF0F07D00A
:102590000A480E30A0F80090E802FFF75AFE054600
:1025A000052D0FD00248006941F6EF71084007E0A1
:1025B0000020024023016745AB89EFCD00F8FF1FE3
:1025C000664908612846BDE8F08330B50546042415
:1025D0004FF43020FFF73DFE0446042C41D1604803
:1025E0005E4988605F4888600846006940F02000C6
:1025F00008610846006940F0400008614FF430204F
:10260000FFF727FE0446042C22D15448006941F606
:10261000DF710840514908610846006940F0100028
:1026200008611DB100205049088002E0A5204E49F4
:1026300008804FF43020FFF70CFE0446052C10D024
:102640004648006941F6EF7108404449086108E0D6
:10265000052C06D04148006941F6DF7108403F492A
:102660000861204630BDF0B505460E4617460424E5
:102670003B483A4988603B488860E002FFF7E9FD43
:102680000446042C19D13548006940F01000334944
:10269000086147F0F800304328433349891C08801B
:1026A000E002FFF7D6FD0446052C06D02B48006952
:1026B00041F6EF710840294908612046F0BD2748DE
:1026C000C069800870472548006A70470020234988
:1026D000096801F0200109B1012000E000207047E5
:1026E00029B11E4A126902431C4B1A6104E01B4ABD
:1026F00012698243194B1A61704701460020012973
:1027000008D1164AD26902F001020AB1012008E09C
:10271000002006E0114AD2680A400AB1012000E018
:10272000002070470D49C860704704200B49C968F4
:1027300001F0010109B101200EE00849C96801F06A
:10274000040109B1022007E00449C96801F0100141
:1027500009B1032000E0042070470000002002407F
:1027600023016745AB89EFCD00F8FF1F0E490860D4
:1027700070470D49486070470B49886070474AF6BA
:10278000AA200949086070474CF6CC400649086009
:10279000704701460020044AD2680A400AB101206D
:1027A00000E00020704700000030004070B5054692
:1027B0000C4645F25550FFF7D9FF2846FFF7D9FFE1
:1027C0002046FFF7D9FFFFF7DAFFFFF7DDFF70BD07
:1027D00010B5FFF7D4FF10BD01B581B00AE04FF48A
:1027E0000050009000BFBDF80000411E89B200916A
:1027F0000028F8D1BDF80400411E89B201910028DB
:10280000EDD10CBD08B52020ADF8000003208DF8F7
:10281000020010208DF8030069463948FDF76EFE6E
:1028200020213748FDF717FF08BD08B5C020ADF8D7
:10283000000003208DF8020010208DF80300694687
:102840003048FDF75BFE40212E48FDF704FF802154
:102850002C48FDF702FF08BD00F0FAF800F064F91B
:1028600000F0B0FA00F0AEFCFFF7CCFFFFF7DDFFA1
:1028700001F088F900F021FC01F0A3FC4FF41640B0
:1028800000F0D2FC4FF4165001F02DFB01F0ECFAF1
:1028900040F27F2140F2E73000F00BFB1AA21DA1AD
:1028A0001FA001F04DFF4FF4FA610720FFF77EFFF4
:1028B00025E000F08FFF01F047FC2448007810B9B4
:1028C00023480068C8B90020204908702148B0F9A1
:1028D00000000A2190FBF1F201FB12041D48B0F93F
:1028E000000090FBF1F5224629461BA001F028FFCD
:1028F0001D4801881DA001F023FFFFF769FFD8E7FD
:1029000000080140000C014032333A33323A303390
:102910000000000046656220323420323031390038
:102920003E3E3E3E3E3E3E3E3E3E3E6D61696E2038
:1029300073746172745B25732025735D3E3E3E3E69
:102940003E3E3E3E3E3E3E3E0A0000002800002045
:102950004C0000205C00002074705F76616C203DAC
:102960002025642E25640A005E000020686D207614
:10297000616C7565203D2025640A000010B5FDF7E7
:102980000BFF4FF48030FDF727FFFDF764FF04468F
:10299000012C5CD10020FDF7A4FF0020FDF7B3FF60
:1029A000A002FDF7A7FF0120FFF702FC1020FFF7B0
:1029B00013FC4FF4E0112004FDF776FF0120FDF732
:1029C0007FFF00BF3920FDF72AFF0028FAD0022040
:1029D000FDF779FF00BFFDF77FFF0828FBD101213C
:1029E000FD20FEF747F801218803FEF750F801218A
:1029F000C806FEF74CF801210807FEF748F8012148
:102A0000C802FEF737F801210846FEF740F8012119
:102A10004802FEF72FF84FF40040FDF78FFF012129
:102A20000846FEF71AF801210220FEF716F80121E8
:102A30008803FEF71FF801214804FEF728F801215A
:102A40008804FEF724F80121CE48FDF728FE10BDCA
:102A500010B5FDF7A1FE4FF48030FDF7BDFE00BFBD
:102A60002120FDF7DCFE0028FAD00020FDF739FF19
:102A70000020FDF748FF4FF48060FDF73BFF012089
:102A8000FFF796FB1020FFF7A7FB4FF46011002023
:102A9000FDF70AFF0120FDF713FF00BF3920FDF706
:102AA000BEFE0028FAD00220FDF70DFF00BFFDF7A3
:102AB00013FF0828FBD10121FD20FDF7DBFF0121D9
:102AC0008803FDF7E4FF0121C806FDF7E0FF0121BF
:102AD0000807FDF7DCFF0121C802FDF7CBFF01214C
:102AE0000846FDF7D4FF01214802FDF7C3FF4FF46C
:102AF0000040FDF723FF01210846FDF7AEFF01214D
:102B00000220FDF7AAFF01218803FDF7B3FF012191
:102B10004804FDF7BCFF01218804FDF7B8FF01213F
:102B20009848FDF7BCFD10BD10B500214FF00060C6
:102B3000FDF74DFC4FF4A060FDF712FC10BD10B581
:102B400086B0044601218803FDF794FF012104208B
:102B5000FDF7A5FD00218C48FEF7BFF84020ADF839
:102B6000140003208DF8160018208DF8170005A911
:102B70008648FDF7C3FC8020ADF8140004208DF8D2
:102B8000170005A98148FDF7B9FC01940020ADF8B4
:102B90000800ADF80A00ADF80C00ADF810000C20EC
:102BA000ADF80E0001A97848FEF70BF80121764830
:102BB000FEF793F8012240F225517348FEF799F889
:102BC00025208DF8000000208DF801008DF802000E
:102BD00001208DF803006846FDF7C7FB06B010BD65
:102BE0007FB505460C4601210220FDF750FFADF8E8
:102BF0000850ADF804400020ADF80A00ADF806001A
:102C000001A96348FEF79AFC012211466048FFF7CC
:102C10000CF81D208DF8000001208DF80100032024
:102C20008DF8020001208DF803006846FDF79DFB3A
:102C300001215748FEF7DEFF7FBD7FB505460C46F4
:102C400001210420FDF723FFADF80850ADF8044042
:102C50000020ADF80A00ADF8060001A94D48FEF7C6
:102C60006DFC012211464B48FEF7DFFF1E208DF858
:102C7000000001208DF8010003208DF802000120E2
:102C80008DF803006846FDF770FB01214148FEF70F
:102C9000B1FF7FBD7FB504460D460121C802FDF797
:102CA000E9FE19208DF8000000208DF801000320B6
:102CB0008DF8020001208DF803006846FDF755FBF2
:102CC000ADF804500020ADF80600ADF80840ADF8AE
:102CD0000A008DF80C0001A92F48FEF72FFC0122F5
:102CE00011462D48FEF7A1FF00212B48FEF782FF79
:102CF0007FBD08B548208DF8030003208DF8020041
:102D00002020ADF8000069462048FDF7F7FB08BD1C
:102D100008B510208DF8030003208DF80200402034
:102D2000ADF8000069461D48FDF7E8FB40211B484F
:102D3000FDF793FC08BD10B540211848FDF78DFC48
:102D400040211648FDF787FC4FF4967000F073F8A9
:102D500040211248FDF781FC4FF4967000F06BF8AB
:102D600010BD10B5FFF7E7FFFFF7E5FF10BD10B589
:102D7000FFF7E1FFFFF7DFFFFFF7DDFFFFF7DBFF07
:102D800010BD00000002300000380140000C01407E
:102D90000004004000080040002C014000080140F1
:102DA000704700BFFEE700BFFEE700BFFEE700BFC1
:102DB000FEE7704770477047704710B500F0C5F8E0
:102DC00010BD000010B56FF00400FDF718FB0820DF
:102DD0002B4908700846007800EB4001C1EBC01099
:102DE0004FF6FF7101EAC0002649088010BD014678
:102DF000234A12784A434FF0E0235A6100229A6135
:102E00001A46126942F001021A6100BF4FF0E02237
:102E1000106900F001021AB100F48032002AF5D0E6
:102E20004FF0E022126922F001024FF0E0231A6114
:102E300000229A6170470146124A12884A434FF0B5
:102E4000E0235A6100229A611A46126942F0010297
:102E50001A6100BF4FF0E022106900F001021AB1C0
:102E600000F48032002AF5D04FF0E022126922F0FF
:102E700001024FF0E0231A6100229A6170470000BE
:102E80002A0000202C00002001B581B009E00820B4
:102E9000009000BFBDF80000411E89B200910028DB
:102EA000F8D1BDF80400411E89B201910028EED18D
:102EB0000CBD7FB505460C4601210846FDF7E7FD30
:102EC000ADF80850ADF804400020ADF80A00ADF8A8
:102ED000060001A94FF08040FEF730FB01221146A9
:102EE0009007FEF7A2FE1C208DF8000001208DF84F
:102EF000010005208DF8020001208DF803006846CE
:102F0000FDF733FA01218807FEF774FE7FBD10B587
:102F100000209D49087000214FF08040FEF76AFEB6
:102F200010BD10B500214FF08040FEF763FE012078
:102F3000954908700020954908604FF080418884C9
:102F400001218807FEF756FE10BD10B500240121AF
:102F50008807FFF718F9002868D000BF2BE004EBC2
:102F600044008B4901EB8000407A10B304EB44002D
:102F700051F8200004EB4401854A02EB81014968C5
:102F800088420BD1012004EB440102EB810108725D
:102F9000002004EB440102EB8101487204EB440081
:102FA0007B4951F82000401C04EB4401784A42F868
:102FB0002100601CC4B2072CD1DB764800780528BC
:102FC00023D175480088401C734908800846008852
:102FD0007249096888420BD900206F4908807048FF
:102FE0000288704801887048B0F9000000F0B9FC10
:102FF00069480088C82190FBF1F201FB120020B95A
:1030000000F006FD01206949087069480088401CED
:103010006749088008460088B0F5FA7F06DD002081
:1030200008806420FFF730FF00F00AFE01218807C6
:10303000FFF7BAF810BD10B55421554801F0F1FA68
:1030400010BD00EB4001524A02EB810100220A60F0
:103050004A608A60704710B5002200EB40034C4C78
:1030600044F8232000EB4002234603EB8202516028
:10307000002200EB400304EB83031A72012200EBF1
:10308000400304EB83035A7210BD014601EB41007B
:103090003F4A02EB8000007A7047014601EB410095
:1030A0003B4A02EB8000407A7047002100EB40026F
:1030B000374B03EB8202117270471FB50121C80222
:1030C000FDF7D8FC19208DF8000000208DF80100D4
:1030D00003208DF8020001208DF803006846FDF7FB
:1030E00044F940F23F10ADF804000020ADF80600AE
:1030F0006320ADF808000020ADF80A008DF80C0040
:1031000001A92C48FEF71AFA01212A48FEF772FDA0
:10311000012211462748FEF788FD1FBD10B5012189
:103120002448FFF730F870B323480078E0B100205E
:103130002149087001212148FDF78FFA02211F481B
:10314000FDF789FA1E480088401C1D490880084682
:103150000088B0F5FA6F12DD002008806420FFF7C8
:1031600093FE00F0B1FD0AE001201349087001212F
:103170001248FDF770FA02211048FDF76EFA01219E
:103180000C48FFF711F810BD30000020340000207B
:10319000240100200E01002038000020140100202E
:1031A0005E000020120100205C00002028000020AA
:1031B0003C000020002C01403A000020000C01409F
:1031C0003E00002008B54FF48070ADF800000320E9
:1031D0008DF8020010208DF803006946F948FDF7CC
:1031E0008DF94FF48071F748FDF737FA4FF4FA6024
:1031F000FFF721FE4FF48071F248FDF72CFA08BD6D
:1032000010B54FF48071EF48FDF727FA4FF4FA60DC
:10321000FFF711FE4FF48071EA48FDF71CFA4FF4F6
:103220007A70FFF708FE10BD10B586B00446002185
:10323000E548FDF752FD4FF40070ADF8140003208F
:103240008DF8160018208DF8170005A9DD48FDF748
:1032500055F94FF48060ADF8140004208DF8170084
:1032600005A9D848FDF74AF901940020ADF80800F7
:10327000ADF80A00ADF80C00ADF810000C20ADF868
:103280000E0001A9D048FDF79CFC0121CE48FDF7B6
:1032900024FD012240F22551CB48FDF72AFD2520CF
:1032A0008DF8000000208DF801008DF8020001204B
:1032B0008DF803006846FDF758F806B010BD10B54C
:1032C00040F22551C048FDF7F9FDF8B1BE48FDF7C1
:1032D00075FDC4B2BD48006858B10120BC49086002
:1032E000BC4801880088401CBA4A1080BA4844543F
:1032F00007E0B84801880088401CB64A1080B648EC
:10330000445440F22551B048FDF702FE10BD70B59F
:1033100004460D462646AD48006838B94FF40071A2
:10332000AD4801F07EF90020AA4908800BE000BFFB
:103330004021A548FDF7ACFD0028F9D016F8011B87
:10334000A148FDF737FD281EA5F10105EFD170BD9D
:1033500010B5A2480078401CA049087008460078C3
:103360000F280ADD9EA001F0EBF90C21A348FFF71E
:10337000CEFFFFF745FFFCF7E5FE10BD10B59649FF
:103380009FA001F0DDF9A2480068162876D2DFE898
:1033900000F00B162F3A525D768199A4C3CE757555
:1033A000757575757575FEFD0A219A48FFF7AFFFB3
:1033B000142097490860012097490860F4E10C2225
:1033C00096A185480B3001F049F930B902209049A7
:1033D000086096A001F0B4F909E07F490B3198A08C
:1033E00001F0AEF900208A490860FFF7B1FFDBE188
:1033F0000B219A48FFF78BFF1420854908600320B2
:1034000085490860D0E1092295A173480C3001F08C
:1034100025F930B904207E49086094A001F090F9A4
:1034200008E06D4995A001F08BF902207849086009
:10343000FFF78EFFB8E10F219648FFF768FF1420D1
:1034400073490860052074490860ADE1022292A129
:103450006148103001F002F930B906206C4908606B
:103460008EA001F06DF908E05B4990A001F068F9C9
:10347000042067490860FFF76BFF95E18DE10A21A1
:103480008F48FFF744FF1420614908600720624914
:10349000086089E1022280A14F480B3001F0DEF87C
:1034A00030B908205A49086086A001F049F908E0BF
:1034B000494988A001F044F9062055490860FFF702
:1034C00047FF71E10A218948FFF721FF1420504985
:1034D000086009205049086066E13E4800881728C6
:1034E00010DD0A204A4908603B490B3180A001F0F9
:1034F00027F940218348FDF7B0F880218148FDF786
:10350000ACF808E0344980A001F01AF908204049DD
:103510000860FFF71DFF47E124218048FFF7F7FE11
:1035200014203B4908600B203B4908603CE10A221B
:103530007BA129482C3001F091F8002834D00722D3
:103540007AA125482C3001F089F800282CD00A22D5
:1035500073A121482D3001F081F828B3072273A10F
:103560001D482D3001F07AF8F0B10A226CA11A48FA
:103570002E3001F073F8B8B107226CA116482E3036
:1035800001F06CF880B10A2265A101E0F7E0E9E002
:1035900011482B3001F062F830B1072263A10E48C8
:1035A0002B3001F05BF860B9002019490860022057
:1035B0000649086005206149087061A001F0C0F863
:1035C000CFE0C5E000080140003801404C00002079
:1035D000500000204000002078010020580000200A
:1035E00073696D38303020696E6974206572722C91
:1035F0007379732072657365740A00004C4C00087F
:1036000072656376204154206275663A25730A001C
:1036100044000020144C0008480000202B4350496F
:103620004E3A2052454144590000000063686563EA
:103630006B2073696D2063617264206F6B2E0A00CA
:10364000636865636B2073696D20636172642065D4
:1036500072726F722E5B25735D0A00001E4C0008AB
:103660002B43474154543A2031000000636865639E
:103670006B2047505253206F6B2E0A0063686563BE
:103680006B2047505253206572726F722E5B257308
:103690005D0A0000294C00084F4B00007365742040
:1036A00041504E206F6B2E0A00000000736574209D
:1036B00041504E206572726F722E5B25735D0A0059
:1036C000384C0008637265617465206E6574206F04
:1036D0006B2E0A00637265617465206E65742065E7
:1036E00072726F722E5B25735D0A0000424C0008F7
:1036F000676574204950206F6B203E3E3E20257345
:103700000A000000000C01406765742049502065E4
:1037100072726F722E5B25735D0A0000584C0008B0
:10372000434F4E4E454354204F4B0000414C5245B1
:1037300041445920434F4E4E454354000E01002052
:1037400073657420736F636B6574206F6B2E0A0052
:10375000B549B6A000F0F4FF0A20BA490860FFF7A7
:10376000F7FD21E0B84C01E0FFF732F8201EA4F18C
:103770000104F9D1B5480068B249086014E06FF05F
:103780007E4401E0FFF724F8201EA4F10104F9D1E2
:10379000AE480068AB49086006E040F26712ACA191
:1037A000B0A000F0CDFF00BF00BF10BD10B5B24803
:1037B000008800280DDD002400BF05E09A492B3960
:1037C000085D00F05AFB641CAB4800888442F5DBBE
:1037D00000BF10BD70B50026A848006830B10128B0
:1037E00007D0022806D0042878D10EE0FFF7C6FDE6
:1037F000ADE0ACE0A2480068012805D104209F4953
:103800000860A0A000F09CFFA1E0A64D002401E00C
:10381000FEF7DEFF281EA5F10105F9D198490860E1
:10382000002405E080492B39085D00F026FB641C6C
:1038300091480088401C8442F4DB7B4A2B3A8E4836
:10384000018899A000F07CFF002423E076482B3803
:10385000005DAA2804D074482B38005DBB2818D11D
:1038600071482B38015D95A000F06AFF0126824A5D
:103870001288111B6C4A2B3A101900F01DFD40B93B
:103880007D4A1288111B684A2B3A101900F03FFD3F
:1038900005E0641C78480088401C8442D6DB00BFE9
:1038A0008BA161482B3800F0C7FEC0B140218B4886
:1038B000FCF7D1FE80218948FCF7CFFE88A000F0FC
:1038C0003FFF00206D49086014205E490860002019
:1038D0005E49086001208849087038E030E087A11F
:1038E00051482B3800F0A8FEB8B188A000F028FF9E
:1038F00040217A48FCF7B1FE80217848FCF7ADFE04
:1039000000205E49086014204E49086000204F499D
:10391000086003207849087019E06CA000F010FFDF
:103920000020554908804FF400713F482B3800F0C3
:1039300078FE0220514908607CA000F001FF06E0FB
:1039400040F2D11242A147A000F0FAFE00BF00BF32
:1039500070BD70B504460D462946204600F04DFC6A
:1039600070BD2DE9F043ADB0044689461546764852
:103970000068C8B9642114A800F053FE182273A18E
:103980000EA800F035FE002615210EA800F068FCF8
:1039900014AB14220EA9002000F030FD064631467B
:1039A00014A8FFF7D6FF30E0642114A800F039FE18
:1039B000342107A800F035FE18226AA101A800F002
:1039C00017FE00260A2094FBF0F100FB114794FB40
:1039D000F0F83B46424601A907A8009500F0C0FE5A
:1039E0000646314607A800F03BFC07A914A000F0EA
:1039F000A7FE14AB324607A9902000F0FFFC064654
:103A0000314614A8FFF7A5FF00BF2DB0BDE8F08335
:103A10001CB55AA103C9CDE9000100F03FFB072105
:103A2000684600F0D4FB1CBDA30100207365742020
:103A3000736F636B6574206572726F722E3E3E3ECB
:103A400025730A0044000020FFFF7F00480000208B
:103A50002E2E5C557365725C73696D383030632E41
:103A60006300000063617365206E6F6E655B257394
:103A70005D5B25645D0A0000400000204C000020D2
:103A80005000002073696D3830303A73746172747D
:103A900020726563656976652064617461203E3ECD
:103AA0003E0A0000FFFF0F00726563206C656E3AEE
:103AB00025642C6275663A25730A00007265637688
:103AC000206865616465723A253032780A0000002A
:103AD0002B5044503A20444541435400000C0140CF
:103AE000504450206572726F722C646576206F6648
:103AF000666C696E652E0A000E010020434F4E4E23
:103B0000454354204641494C000000007463702036
:103B1000736F636B6574206572726F722C64657667
:103B2000206F66666C696E652E0A000073696D38D9
:103B300030303A72656365697665207061636B65E4
:103B40007420646F6E650A00540000207B202255AB
:103B5000554944223A223738343533343132227DC4
:103B6000000000007B2254223A2225642E25642284
:103B70002C2248223A222564227D0000424DE20098
:103B80000002110000B587B001218802FCF772FF26
:103B900000208DF807004020ADF8040001A9AB48D3
:103BA000FCF7ACFC00208DF807008020ADF8040085
:103BB00001A9A648FCF7A2FC10208DF807000320FD
:103BC000ADF804008DF8060001A9A148FCF796FCA9
:103BD00001219F48FCF73FFD02219D48FCF73BFD7A
:103BE0009C48FDF7AFF9002002908DF80C008DF88D
:103BF0000D004FF4602004900020059001208DF806
:103C0000180002A99348FDF7C4F901219148FDF776
:103C1000ECF90120FDF77AFB8E48FDF708FA00BFAA
:103C20008C48FDF709FA0028FAD18A48FDF70EFA08
:103C300000BF8848FDF70FFA0028FAD107B000BD91
:103C400070B5002500240723012206218148FDF7D5
:103C500038FA02217F48FDF782FB01217D48FDF7FC
:103C600004FA00BF02217B48FDF770FB0028F9D061
:103C70007848FDF78DFA05460AE0774830F81400D9
:103C8000A84200DA05E0601C84B2552C00D300E0A5
:103C9000F3E700BF601E704931F8100031F81410CE
:103CA000411A601E6C4A32F81000401B00EB800085
:103CB000400090FBF1F1A4F115000A2202FB001074
:103CC00000B26649088070BDF0B585B000260723B4
:103CD000012219465F48FDF7F4F902215D48FDF71E
:103CE0003EFB01215B48FDF7C0F900BF02215948A6
:103CF000FDF72CFB0028F9D05648FDF749FA064697
:103D00005648B0F9000000280CDC002407E05448B5
:103D100030F8240080B22DF81400601CC4B2092CC5
:103D2000F5DB4EE04D48B0F90000B0F5FA7F0EDB50
:103D3000002409E004F15A00494931F8200080B21A
:103D40002DF81400601CC4B2092CF3DB39E0012506
:103D500034E005EBC50000EB05104049B1F9001057
:103D6000B1EB400F28DA05EBC50000EB05103B492D
:103D70000988C1EB400087B205EBC50085B200247D
:103D800017E02819364951F82010A5F10900204400
:103D9000334A52F82000081A78433221B0FBF1F080
:103DA000291932F82110081A80B22DF81400601C6D
:103DB000C4B2092CE5DB03E0681C85B20B2DC8DB1F
:103DC00000BFBDF81000B04215DDBDF80E00BDF813
:103DD0001010401A891B01EB8101490091FBF0F0A2
:103DE000C0F10A001F49088008460088142823DD16
:103DF0000020088020E001251BE03DF81500B042BE
:103E000015DC681E3DF810003DF81510401A3DF80D
:103E10001510711A01EB81014900B1FBF0F05A3025
:103E200005EB8501A0EB41000E49088003E0681C0A
:103E300085B2092DE1DB00BF0A480088622802DB59
:103E400062200849088005B0F0BD0000000801406C
:103E5000000C014000280140640000205C000020AC
:103E60007C4C00085E00002010B51821EF4800F0DF
:103E7000D8FBEF48ED49086010BDEC494A69496933
:103E8000491CEA4B59611946096888541946496921
:103E9000B1F5807F02D100211A465161E349496999
:103EA000E24A1269914210D9E0498968B1F5807FF0
:103EB0000BD1DE490969491CDC4A116111460969C7
:103EC000B1F5807F01D100211161D8498968491C71
:103ED000D64A916011468968B1F5807F02D94FF4C6
:103EE00080719160704710B586B004460121480486
:103EF000FCF7CDFD0021CF48FCF7EFFE0420ADF824
:103F0000140003208DF8160018208DF8170005A95D
:103F1000C948FCF7F3FA0820ADF8140004208DF826
:103F2000170005A9C448FCF7E9FA01940020ADF890
:103F30000800ADF80A00ADF80C00ADF810000C2038
:103F4000ADF80E0001A9BB48FCF73BFE0121B948C2
:103F5000FCF7C3FE012240F22551B648FCF7C9FE2A
:103F600026208DF8000000208DF8010001208DF83A
:103F700002008DF803006846FCF7F7F906B010BDA3
:103F800010B586B0044601218804FCF780FD0021AD
:103F9000AA48FCF7A2FE4FF48060ADF8140003209D
:103FA0008DF8160018208DF8170005A9A448FCF715
:103FB000A5FA4FF40060ADF8140004208DF8170046
:103FC00005A99F48FCF79AFA01940020ADF8080073
:103FD000ADF80A00ADF80C00ADF810000C20ADF8FB
:103FE0000E0001A99548FCF7ECFD01219348FCF770
:103FF00074FE012240F225519048FCF77AFE2720FA
:104000008DF8000000208DF8010002208DF80200DC
:1040100001208DF803006846FCF7A7F906B010BD33
:1040200070B504460D46E1B28448FCF7C3FE00BFFC
:1040300080218248FCF72CFF0028F9D0204670BD73
:1040400010B5044621467D48FCF7B4FE00BF802130
:104050007A48FCF71DFF0028F9D010BD10B50446C2
:104060000BE014F8011B7548FCF7A4FE00BF80218B
:104070007248FCF70DFF0028F9D020780028F0D115
:1040800010BD00BF6D48008800F020000028F9D066
:104090006A48001D0088C0F30800704710B5002072
:1040A0006849087068490870C821684800F0B9FA82
:1040B00010BD6649644A1278885463490978491CDE
:1040C000614A117011460978C82901DB002111707D
:1040D00070475C480078401C5A49087008460078D0
:1040E000C82801DB00200870704700205649097875
:1040F000544A1278914206DB53490978514A1278A2
:10410000891AC8B206E04F490978C8314E4A127878
:10411000891AC8B2704700B50346FFF7E6FF984218
:1041200004DA49480078474908700CE045480078AF
:1041300018444449087008460078C82803DB08463C
:104140000078C838087000BD00B50023FFF7CDFF28
:1041500003461E2B0FDB3D48007842280BD13B481D
:1041600040784D2807D13948407B3849097B00EB1E
:1041700001203749088000BD10B540F225512F4875
:10418000FCF79CFE40B12D48FCF718FEC4B240F28B
:1041900025512A48FCF7BCFE10BD10B540F2255150
:1041A0002448FCF78BFE58B12248FCF707FEC4B246
:1041B0002046FFF77EFF40F225511E48FCF7A8FE7F
:1041C00010BD10B54FF4E130FFF7DAFE10BD70B549
:1041D00004460D4626460BE000BF40211548FCF77B
:1041E00057FE0028F9D016F8011B1248FCF7E2FD33
:1041F000281EA5F10105EFD170BD7FB504460D461F
:1042000014A207CA01AB07C31A2000900C2101A811
:10421000FFF77DF86420FEF70EFE29462046FFF7E3
:1042200076F801216846FFF772F87FBD7804002018
:10423000780300200044004000080140004800408E
:10424000000C01400F01002010010020900400200C
:104250001201002041542B43495053454E440A005B
:1042600070B505460E46002431468FA000F068FA6E
:1042700005E0295D93A000F063FA601CC4B2B4426B
:10428000F7DB8FA000F05CFA70BD2DE9F041064627
:104290000F460024002504E0705D2044C4B2681C71
:1042A000C5B2BD42F8DBE043C4B2214687A000F0AE
:1042B00047FA2046BDE8F0812DE9F04104460D465D
:1042C0000026002704E0E05D3044C6B2781CC7B287
:1042D000681EB842F7DC29462046FFF7C1FFF043CD
:1042E000C6B2681E225C31467FA000F029FA681E23
:1042F000205CB04205D186A000F022FA0020BDE883
:10430000F08186A000F01CFA4FF0FF30F7E72DE9AE
:10431000F04391B004460D4626780020109067794E
:104320000F90A81E14F80080681E14F80090342125
:1043300002A800F076F9D4F801001090D4F8060035
:104340000F90A5F10C00002805DD024604F10A01DA
:1043500002A800F04DF9314673A000F0F1F99DF884
:10436000430000909DF842309DF841209DF8401098
:1043700071A000F0E5F9394676A000F0E1F99DF86A
:104380003F0000909DF83E309DF83D209DF83C1088
:1043900074A000F0D5F9414679A000F0D1F9494662
:1043A0007BA000F0CDF902A97DA000F0C9F9BB2ED9
:1043B0000DD1202F0BD19DF808107CA000F0C0F982
:1043C0009DF8080000EB800040007E490860AA2E9E
:1043D00011D187B9B8F1030F0DD17BA000F0B0F96E
:1043E00040217F48FCF739F980217D48FCF733F9FB
:1043F00001207C49086011B0BDE8F0832DE9F04749
:104400000646894617461D460024AA202855641CE6
:1044100075480068000E7449096801F47F0140EA9C
:1044200011207149098801F47F4140EA01206E4959
:10443000097840EA01682819C0F80080241D2E552B
:10444000641C6A480068000E6849096801F47F012D
:1044500040EA11206549098801F47F4140EA0120C2
:104460006249097840EA01682819C0F80080241DD3
:104470005E480068401C5D49086028193A46494674
:1044800000F0B6F83C4400202855641C214628461C
:10449000FFF7FBFE2855641C21462846FFF7E0FE87
:1044A0002046BDE8F08700002A2A2A2A2A64756D72
:1044B00070427566206C656E3A25642A2A2A2A2A7B
:1044C0000A00000025303278000000006461746149
:1044D0002063616C63756C6174652073756D3A253A
:1044E0003032780A000000006C6F63616C206361F9
:1044F0006C63756C6174652073756D3A2530327824
:104500007C726563762073756D3A253032780A00C7
:1045100073756D20747275650A00000073756D20E7
:1045200066616C73650A00006865616465723A25AE
:104530003032780A000000006465764E756D3A25C9
:104540003032782530327825303278253032780A8A
:1045500000000000636D642020203A253032780A84
:1045600000000000736E202020203A25303278258C
:1045700030327825303278253032780A0000000059
:10458000726573756C743A253032780A0000000049
:1045900073756D2020203A253032780A0000000023
:1045A0006A736F6E20203A25730A00006E65656499
:1045B000206D6F64207265706F72742074696D6510
:1045C0003A640A00140100206C6F67696E20636C06
:1045D0006F75642073756363657373210A0000004F
:1045E000000C0140540000201C0100201801002094
:1045F00040EA01039B0703D009E008C9121F08C065
:10460000042AFAD203E011F8013B00F8013B521EE4
:10461000F9D27047D2B201E000F8012B491EFBD25B
:1046200070470022F6E710B513460A4604461946BD
:10463000FFF7F0FF204610BD30B505462A460B4671
:1046400012F8010B13F8014B08B1A042F8D01CB1CD
:10465000002802D06D1CF1E7284630BD30B5054674
:104660000020034600E05B1C934205D2EC5CC85C72
:10467000201A01D1002CF6D130BD2DE9F05F05469E
:10468000002092469B4688460646814640241BE011
:10469000284641464746224600F041F853465A46CE
:1046A000C01A914110D311461846224600F028F84E
:1046B0002D1A67EB01084F4622460120002100F029
:1046C0001FF817EB00094E41201EA4F10104DFDCA6
:1046D000484631462A464346BDE8F09F064C074D02
:1046E00006E0E06840F0010394E8070098471034C2
:1046F000AC42F6D3FBF720FD084E0008284E000818
:10470000202A04DB203A00FA02F100207047914091
:10471000C2F1200320FA03F3194390407047202A86
:1047200004DB203A21FA02F00021704721FA02F35B
:10473000D040C2F120029140084319467047000062
:104740000FB4054B10B503A9044A029800F02CF8E9
:1047500010BC5DF814FB000021400008200100207F
:104760000FB4084B10B504A902AA039800F01CF876
:10477000044602A9002000F048FA204610BC5DF86B
:1047800014FB00000B4C000802E008C8121F08C10F
:10479000002AFAD170477047002001E001C1121FC2
:1047A000002AFBD1704700002DE9FF4F8DB00F4666
:1047B0000546002606E025280BD0DDE90F129047BC
:1047C0006D1C761C28780028F5D111B03046BDE864
:1047D000F08F0024A246A1460122EC4900E00443E8
:1047E00015F8013F203B02FA03F00842F7D1287880
:1047F0002A2810D06FF02F022878A0F13001092963
:1048000014D80AEB8A0102EB410144F0020400EBE8
:10481000010A6D1CF0E701CF5FEA000A03D544F4FA
:104820000054CAF1000A44F002046D1C28782E28B6
:1048300017D115F8010F44F004042A280ED06FF0A8
:104840002F022878A0F1300109290AD809EB890143
:1048500002EB410100EB01096D1CF2E757F8049BE4
:104860006D1C28786C280FD006DC4C2817D06828DF
:104870000DD06A2814D104E0742810D07A280FD102
:104880000DE044F400140AE044F4801401E044F420
:1048900040146978814202D104F580146D1C6D1CAE
:1048A0002A786E2A1FD00CDC632A31D004DC002A5F
:1048B0008BD0582A11D1A3E0642A68D0692A0CD180
:1048C00065E0732A2ED004DC6F2A73D0702A04D1DD
:1048D0009BE0752A6FD0782A6ED01046DDE90F1262
:1048E0009047761C50E1C4F30250022806D00328FA
:1048F00009D0042801CF09D0066045E101CFF117A6
:10490000C0E9006140E101CF06803DE106703BE176
:1049100017F8040B8DF8000000208DF80100EB461D
:10492000012003E057F804BB4FF0FF3061074FF060
:10493000000102D40DE008F10101884649450FDA73
:104940008045F8DB1BF808100029F4D108E008F1D5
:10495000010188468142FADB1BF808100029F6D1D4
:10496000DDE90F23AAEB08008146214600F036F965
:10497000304400EB080604E0DDE90F121BF8010BE0
:104980009047B8F10108F7D221464846F7E00A21DE
:10499000C4F302534FF0000B0891022B04D001CF57
:1049A000C117032B09D00AE0FF1D27F00707F7E81E
:1049B000020108E032E01FE020E000B2C117042B42
:1049C00001D140B2C117031E71F1000307DA4FF0A5
:1049D000000CD0EB0C006CEB01012D2302E0230551
:1049E00004D52B238DF82430012303E0E30701D005
:1049F0002023F7E7984658E00A2110E010210EE046
:104A000010204FF0000B08900CE010214FF0000B2D
:104A100044F004044FF00809089103E008214FF026
:104A2000000B0891C4F30253022B04D001CF0021E4
:104A3000032B06D006E0FF1D27F00707F7E8020169
:104A400003E080B2042B00D1C0B24FF0000823076E
:104A50002BD5702A07D0DDF820C08CF0100C5CEA52
:104A60000B0C05D00EE040238DF82430012308E024
:104A700050EA010306D030238DF824308DF825202C
:104A800002239846DDF820C08CF0080C5CEA0B0C81
:104A90000BD150EA010301D1630706D530238DF80D
:104AA00024304FF00108A9F10109582A04D038A296
:104AB0000B9208AA0A920BE03AA2F9E75B46089A21
:104AC000FFF7DBFD0B9B9B5C0A9A521E0A92137048
:104AD00050EA0102F2D10A98ADEB000000F1200B80
:104AE000600702D524F4803401E04FF00109D94574
:104AF00002DDA9EB0B0000E0002000EB0B014144BC
:104B00000890AAEB010AE00306D4DDE90F23214651
:104B1000504600F063F806444FF0000908E009A988
:104B200011F80900DDE90F12904709F10109761C1F
:104B3000C145F4DBE0030CD5DDE90F2321465046E7
:104B400000F04CF8064404E0DDE90F1230209047F5
:104B5000761C0899481E08900029F5DC08E00A98A0
:104B60000A990078491C0A91DDE90F129047761CDA
:104B7000BBF10001ABF1010BF1DC21465046DDE950
:104B80000F2300F019F806446D1C1BE609280100EC
:104B900030313233343536373839616263646566B3
:104BA0000000000030313233343536373839414275
:104BB00043444546000000002DE9F041044600252D
:104BC0001E461746880404D405E039462020B04725
:104BD0006D1C641EF9D52846BDE8F0812DE9F04131
:104BE000044600251E469046C80301D5302700E044
:104BF0002027880404D505E041463846B0476D1C9F
:104C0000641EF9D52846BDE8F0810A68531C0B6084
:104C10001070704741542B4350494E3F0A00415495
:104C20002B43474154543F0A0041542B435354549F
:104C30003D434D4E45540A0041542B43494943528C
:104C40000A0041542B43494653520A0041542B4316
:104C50004950534855540A0041542B43495053542A
:104C60004152543D5443502C3133392E3232342E7C
:104C700031362E35382C373037310A00BB0E000064
:104C80009D0D0000DB0A0000D906000006030000AD
:104C9000060100002D0000000800000003000000D5
:104CA000FF0E0000F30D0000880B000092070000CB
:104CB000C4030000620100003D0000000C00000081
:104CC000050000002E0F0000450E00002E0C000015
:104CD0007A080000A2040000F00100005A00000061
:104CE0000E00000006000000500F00008E0E0000B5
:104CF000C90C00007D090000840500006802000066
:104D0000770000001300000008000000720F000090
:104D1000D10E00003B0D0000630A00006D0600008C
:104D2000F5020000990000001D0000000B000000CB
:104D30008B0F0000030F00008A0D0000F70A00002F
:104D400062070000A8030000D10000002900000055
:104D50000F0000009E0F00002E0F0000EB0D000062
:104D6000880B0000B5070000E1030000DA00000036
:104D70003100000013000000B40F00004E0F0000CF
:104D8000360E0000100C00006608000053040000FE
:104D90001C0100003F0000001A000000C40F0000CA
:104DA0006A0F0000840E0000A70C0000320900000A
:104DB00004050000670100004F0000002300000010
:104DC000CB0F00007E0F0000C60E0000200D00007B
:104DD000F7090000F8050000B10100006B000000B9
:104DE0002F000000D20F00008F0F0000ED0E00001A
:104DF000930D0000B40A0000A20600001602000095
:104E00008100000041000000284E00080000002042
:104E100024010000884700084C4F000824010020AE
:104E2000340800009847000800A24A04000000006F
:104E3000000000000102030406070809000000004A
:104E4000010203040102030406070809020406081C
:104E50000000000000000000000000000000000052
:104E60000000000000000000000000000000000042
:104E70000000000000000000000000000000000032
:104E8000000000000000000000000000230D010DE4
:104E9000DD0CB90C940C6E0C480C200CF70BCE0BEF
:104EA000A40B780B4D0B200BF30AC50A970A680A6E
:104EB000390A090AD909A909780948091709E60828
:104EC000B508840853082308F507C207920763074B
:104ED00034070507D706AA067D0651062506FA05FA
:104EE000CF05A6057D0555052E050705E104BD0482
:104EF00098047504530431041004F003D103B30380
:104F0000960379035D03420328030E03F502DD02D5
:104F1000C602AF02990284026D025B0248023502AA
:104F2000230211020002F001E001D001C101B3012E
:104F3000A50100000000000000000000E8030000E0
:0C4F400000000000123445780000000062
:0400000508000131BD
:00000001FF
