:020000040800F2
:10000000D02000205D010008093100080B310008F4
:100010000F310008133100081731000800000000FC
:100020000000000000000000000000001B3100087C
:100030001D310008000000001F31000821310008B8
:1000400077010008770100087701000877010008B0
:1000500077010008770100087701000877010008A0
:100060007701000877010008770100087701000890
:100070007701000877010008770100087701000880
:100080007701000877010008770100087701000870
:100090007701000877010008770100087701000860
:1000A00077010008D15D000877010008770100089A
:1000B0002331000877010008770100087701000864
:1000C0007701000877010008770100087701000830
:1000D0007701000841630008F74B0008D54B000882
:1000E0007701000877010008770100087701000810
:1000F0007701000877010008770100087701000800
:1001000077010008770100087701000877010008EF
:1001100077010008770100087701000877010008DF
:1001200077010008770100087701000877010008CF
:10013000DFF80CD007F0E6FD00480047652B00080B
:10014000D02000204FF0010080F3138801480249BD
:100150000160FEE70CED00E00400FA050648804768
:1001600006480047FEE7FEE7FEE7FEE7FEE7FEE79C
:10017000FEE7FEE7FEE7FEE75F0200083101000848
:100180000CB50020019000906C48006840F480306D
:100190006A49086000BF6948006800F400300090B8
:1001A0000198401C0190009818B90198B0F5A06F13
:1001B000F1D16248006800F4003010B101200090D5
:1001C00001E0002000900098012843D15C480068BD
:1001D00040F010005A4908600846006820F003000B
:1001E00008600846006840F0020008605348406814
:1001F000524948600846406848600846406840F4F4
:10020000806048600846406820F47C1048600846DA
:10021000406840F4E81048600846006840F080708C
:10022000086000BF4548006800F000700028F9D061
:100230004248406820F00300404948600846406852
:1002400040F00200486000BF3C48406800F00C00ED
:100250000828F9D10CBD10B5FFF792FF10BD10B5FD
:100260003648006840F0010034490860084640689C
:10027000344908403149486008460068324908401E
:100280002E4908600846006820F48020086008466F
:10029000406820F4FE0048604FF41F008860FFF7BC
:1002A000DAFF4FF000602949086010BD10B5002149
:1002B00000200022214B5B6803F00C0121B10429CE
:1002C00006D0082928D107E0214B224C236027E0E3
:1002D0001F4B204C236023E0184B5B6803F4701025
:1002E000164B5B6803F48032022303EB904022B983
:1002F000194B4343174C23600DE0104B5B6803F42C
:10030000003323B1144B4343124C236003E0104BE2
:100310004343104C236003E00D4B0E4C236000BFA1
:1003200000BF064B5B68C3F303130C4CE15C094B45
:100330001B68CB40074C236010BD0000001002403A
:10034000002002400000FFF8FFFFF6FE08ED00E08D
:1003500000127A000000002000093D000400002087
:1003600031490143314A1160704770B500210023C3
:100370000F22C47804B32D4C246804F4E064C4F55F
:10038000E064210AC1F10403CA40447804FA03F18D
:100390008478144021430901254C0678A15504783E
:1003A00004F01F050124AC4005786D11AD0005F186
:1003B000E025C5F8004109E0047804F01F05012498
:1003C000AC401C4D0678761145F8264070BD1A4A9F
:1003D0000A400243154B1B1F1A60704739B1134A7C
:1003E000121D12680243114B1B1D1A6006E00F4AD2
:1003F000121D126882430D4B1B1D1A6070470428A2
:1004000008D14FF0E021096941F004014FF0E022EA
:10041000116107E04FF0E021096921F004014FF07C
:10042000E0221161704700000000FA050CED00E0C9
:1004300000E400E080E100E080FFFF1F10B504460B
:10044000CC48844208D10121042000F02DFB00217A
:10045000042000F029FB46E0C748844208D101216E
:10046000082000F021FB0021082000F01DFB3AE0ED
:10047000C248844208D10121102000F015FB002160
:10048000102000F011FB2EE0BD48844208D101216C
:10049000202000F009FB0021202000F005FB22E0D5
:1004A000B848844208D10121402000F0FDFA002123
:1004B000402000F0F9FA16E0B348844208D1012147
:1004C000802000F0F1FA0021802000F0EDFA0AE02F
:1004D000AE48844207D10121801500F0E5FA0021E1
:1004E000A01500F0E1FA10BD10B50121084600F09A
:1004F000DBFA0021012000F0D7FA10BD2DE9F04110
:10050000024600250026002000230024002791F841
:1005100003C00CF00F0591F803C00CF0100CBCF1F7
:10052000000F03D091F802C04CEA050591F800C015
:10053000BCF1000F31D0146800202BE04FF0010C0B
:100540000CFA00F3B1F800C00CEA03069E4220D179
:1005500083004FF00F0C0CFA03F7BC4305FA03FCC1
:100560004CEA040491F803C0BCF1280F06D14FF007
:10057000010C0CFA00FCC2F814C00AE091F803C0A8
:10058000BCF1480F05D14FF0010C0CFA00FCC2F889
:1005900010C0401C0828D1D31460B1F800C0BCF1D1
:1005A000FF0F34DD546800202EE000F1080C4FF0FE
:1005B000010808FA0CF3B1F800C00CEA03069E42E9
:1005C00021D183004FF00F0C0CFA03F7BC4305FA5E
:1005D00003FC4CEA040491F803C0BCF1280F05D1D8
:1005E00000F1080C08FA0CF8C2F8148091F803C066
:1005F000BCF1480F07D100F1080C4FF0010808FAD0
:100600000CF8C2F81080401C0828CED35460BDE816
:10061000F0814FF6FF710180022181700421C170C9
:1006200070470246002093680B400BB1012000E0A8
:10063000002070470146886880B27047024600205B
:10064000D3680B400BB1012000E000207047014649
:10065000C86880B2704701617047416170470AB154
:10066000016100E041617047C16070474FF4803222
:100670000A438261816182618269826970470246B0
:100680000020434B18684FF68073184040EA021070
:1006900008433F4B186070473E49C8617047F0B54A
:1006A0000A46002300240021002500F00046B6F190
:1006B000004F02D1364EF16901E0354E7168C0F34A
:1006C000034583B200F44016B6F5401F08D121F06F
:1006D00070612F4E766826F070662D4F7E6012E0B6
:1006E00000F48016B6F5801F06D1032606FA05F43D
:1006F000A14341F0706106E0460D360103FA06F6AB
:10070000B14341F0706122B1460D360103FA06F69D
:10071000314300F00046B6F1004F02D11C4EF161AA
:1007200001E01B4E7160F0BD30B500228B071C0F3D
:100730000F2303FA04F2164B08338C1053F82430BD
:100740009343134C08348D1044F8253023468C1005
:1007500053F824308C07240F00FA04F423430C4C84
:1007600008348D1044F8253030BD0A49DC3108606A
:100770007047000000080140000C014000100140DB
:100780000014014000180140001C014000200140FD
:100790000000014000002042DF48006840F00100F6
:1007A000DD49086008464068DC490840DA4948608D
:1007B00008460068DA490840D749086008460068DA
:1007C00020F4802008600846406820F4FE0048605D
:1007D0004FF41F0088607047CF49096821F48031C9
:1007E000CD4A11601146096821F480211160B0F5ED
:1007F000803F03D0B0F5802F0ED106E0C6490968CE
:1008000041F48031C44A116007E0C349096841F4EA
:10081000A021C14A116000E000BF00BF704710B5C1
:1008200001460022002300204A11012A02D1BA4CBD
:10083000236806E0022A02D1B74C236A01E0B64CD5
:10084000636A01F01F02012494401C400CB1012096
:1008500000E0002010BD38B50020009000240025E5
:1008600000BF3120FFF7DBFF05460098401C0090D9
:100870000098B0F5A06F01D0002DF2D03120FFF725
:10088000CEFF08B1012400E00024204638BD014617
:100890000020A14A106820F0F80040EAC100106072
:1008A0007047A04908607047024600209A4B58687C
:1008B00020F47C1042EA01031843974B58607047BC
:1008C00098490866704701460020934A506820F016
:1008D00003000843506070478F48406800F00C00E8
:1008E0007047014600208C4A506820F0F000084311
:1008F0005060704701460020874A506820F4E0604D
:1009000008435060704701460020834A506820F435
:10091000605040EAC1005060704729B17E4A527A67
:1009200002437D4B5A7204E07B4A527A82437A4BEF
:100930005A7270477B49D8310860704701460020E1
:10094000754A506820F440400843506070470021C9
:10095000714A20321170704A82F82010012802D0AA
:1009600004280AD104E001216B4A2032117005E00D
:100970000521694A2032117000E000BF00BF7047B6
:100980006949086070476449096A0143624A116213
:100990007047654944390860704730B5002100222E
:1009A000002400235C4D6D6805F00C0121B1042981
:1009B00005D0082923D105E05C4D056022E05B4DA0
:1009C00005601FE0544D6D6805F47012524D6D685E
:1009D00005F48034022505EB92421CB9544D554371
:1009E00005600BE04C4D6D6805F400351DB1504DB0
:1009F0005543056002E04D4D5543056002E04B4D07
:100A0000056000BF00BF444D6D6805F0F0010909A5
:100A1000484D6B5C0568DD4045603F4D6D6805F4F1
:100A2000E061090A434D6B5C4568DD4085603A4DE5
:100A30006D6805F46051C90A3E4D6B5C4568DD4048
:100A4000C560354D6D6805F44041890B3A4D6B5CCE
:100A5000C568B5FBF3F5056130BD29B12E4A526971
:100A600002432D4B5A6104E02B4A526982432A4BC0
:100A70005A61704729B1284A92690243264B9A610C
:100A800004E0254A92698243234B9A61704729B159
:100A9000214AD2690243204BDA6104E01E4AD2693E
:100AA00082431D4BDA61704729B11B4AD268024369
:100AB000194BDA6004E0184AD2688243164BDA60B8
:100AC000704729B1144A12690243134B1A6104E0BA
:100AD000114A12698243104B1A617047124940391A
:100AE000086070470F49C86470470B49C871704768
:100AF0000948406A40F080700749486270470146E3
:100B00000020054A92680A400AB1012000E0002056
:100B10007047014988727047001002400000FFF8DA
:100B2000FFFFF6FE000042428004424200127A00BB
:100B300000093D00140000202400002010B50446E8
:100B4000FB48844209D101218803FFF7ADFF002152
:100B50004FF48040FFF7A8FF32E0F648844209D105
:100B600001214804FFF7ADFF00214FF40030FFF7EB
:100B7000A8FF25E0F048844209D101218804FFF74D
:100B8000A0FF00214FF48020FFF79BFF18E0EB4807
:100B9000844209D10121C804FFF793FF00214FF4DB
:100BA0000020FFF78EFF0BE0E548844208D10121C9
:100BB0000805FFF786FF00214FF48010FFF781FF43
:100BC00010BD2DE9F04786B005460E460024A2462A
:100BD00000BFA1460027B08900B100BF2F462C8A74
:100BE0004CF6FF700440F08804432C82AC894EF62A
:100BF000F3100440B08831890843718908430443E5
:100C0000AC81AC8A4FF6FF400440B0890443AC820B
:100C100001A8FFF7C2FEC648874202D1DDF810A046
:100C200001E0DDF80CA0A88900F4004040B10AEB17
:100C3000CA0000EB0A1031684900B0FBF1F807E088
:100C40000AEBCA0000EB0A1031688900B0FBF1F82A
:100C50006420B8FBF0F004012009642101FB108935
:100C6000A88900F4004040B1322000EBC900B0FB7D
:100C7000F1F000F00700044308E0322000EB091017
:100C80006421B0FBF1F000F00F0004432C8106B0AA
:100C9000BDE8F0874FF41651016000218180C180CA
:100CA00001810C21418100218181704710B50246EC
:100CB0000020108A4FF2FF0318400B884C88234312
:100CC0008C882343CC8823431843108210BD002115
:100CD000018041808180C180704721B1828942F4C6
:100CE0000052828104E082894DF6FF731A408281AE
:100CF0007047F0B50346002400260025002040F68A
:100D00006A17B94200D100BF1846C1F3421401F07E
:100D10001F06012707FA06F5012C01D10C3004E06B
:100D2000022C01D1103000E014301AB107682F43B3
:100D3000076002E00768AF430760F0BD1AB1838A1D
:100D40000B43838202E0838A8B4383827047028A4B
:100D50004FF6F0731A400282028A0A4302827047F9
:100D600082894FF2FF731A40828182890A4382810D
:100D7000704721B1828942F00202828104E08289B7
:100D80004FF6FD731A4082817047028A4FF6DF7377
:100D90001A400282028A0A430282704721B1028A03
:100DA00042F48042028204E0028A4BF6FF731A404A
:100DB00002827047C1F3080282807047014688882A
:100DC000C0F308007047818941F0010181817047BB
:100DD000028BD2B20283028B42EA01220283704765
:100DE000028B02F47F420283028B0A430283704724
:100DF00021B1828A42F02002828204E0828A4FF688
:100E0000DF731A408282704721B1828A42F0100259
:100E1000828204E0828A4FF6EF731A408282704722
:100E200021B1828A42F00802828204E0828A4FF66F
:100E3000F7731A408282704721B1828942F40042DE
:100E4000828103E08289C2F30E028281704721B160
:100E5000828A42F40062828204E0828A4FF2FF7347
:100E60001A4082827047828A4FF6FB731A40828250
:100E7000828A0A438282704721B1828A42F002024A
:100E8000828204E0828A4FF6FD731A4082827047A4
:100E900002460020B1F5007F00D100BF13880B404F
:100EA0000BB1012000E00020704701F40072B2F5A0
:100EB000007F00D100BFCA430280704770B5024670
:100EC000002400230025002040F66A16B14200D11C
:100ED00000BFC1F3421501F01F03012606FA03F318
:100EE000012D02D19689334006E0022D02D1168AE7
:100EF000334001E0968A33400C12012606FA04F4CE
:100F00001688344013B10CB1012000E0002070BD00
:100F100010B50022002340F66A14A14200D100BFA0
:100F20000A1201249440A3B2DC43048010BD0000E7
:100F3000003801400044004000480040004C0040A0
:100F40000050004010B50446FA48844208D10121FF
:100F50004015FFF7A9FD00216015FFF7A5FD17E07B
:100F6000F548844208D101210015FFF79DFD0021BD
:100F70002015FFF799FD0BE0F048844208D10121CC
:100F8000C803FFF791FD00214FF40040FFF78CFDEF
:100F900010BD30B50246002000235068E84C2040C8
:100FA0000D790C6844EA0524204350609068E54CB4
:100FB0002040D1E902542C434D7944EA45042043B2
:100FC0009060D06A20F470000C7C641EE4B223436D
:100FD00040EA0350D06230BD0021016001714171CF
:100FE0008160C16001210174704721B1826842F0C3
:100FF0000102826003E0826822F001028260704791
:1010000021B1826842F48072826003E0826822F437
:1010100080728260704710B50023CBB21AB1446869
:101020001C43446002E044689C43446010BD8168F6
:1010300041F0080181607047014600208A6802F093
:1010400008020AB1012000E000207047816841F0E9
:10105000040181607047014600208A6802F00402A2
:101060000AB1012000E00020704721B1826842F4FB
:10107000A002826003E0826822F4A00282607047CE
:10108000014600208A6802F480020AB1012000E0D3
:101090000020704710B50A4600210023416821F462
:1010A0006041531E41EA4331416010BD21B14268A5
:1010B00042F40062426003E0426822F4006242604F
:1010C0007047F0B504460D4600200021092D11DDC2
:1010D000E068A5F10A0606EB4607072606FA07F1BF
:1010E0008843A5F10A0606EB460603FA06F1084313
:1010F000E0600CE0206905EB4507072606FA07F1DA
:10110000884305EB450603FA06F108432061072AE8
:101110000FDA606B561E06EB86071F2606FA07F1EC
:101120008843561E06EB860605FA06F108436063FF
:1011300022E00D2A0FDA206BD61F06EB86071F264A
:1011400006FA07F18843D61F06EB860605FA06F174
:101150000843206310E0E06AA2F10D0606EB860763
:101160001F2606FA07F18843A2F10D0606EB860654
:1011700005FA06F10843E062F0BD21B1826842F44D
:101180008012826003E0826822F4801282607047DD
:101190000146C86C80B2704766484C3000687047A2
:1011A00021B1426842F48062426003E0426822F466
:1011B00080624260704721B1426842F480524260CE
:1011C00003E0426822F48052426070470A460021E0
:1011D000816821F4E04111438160704721B1826848
:1011E00042F40042826003E0826822F4004282609E
:1011F000704721B1826842F40212826003E0826883
:1012000022F4021282607047014600208A6802F4CC
:1012100000120AB1012000E000207047F0B504463A
:101220001546002000220026092911DDE068A1F101
:101230000A0707EB470C072707FA0CF29043A1F1C6
:101240000A0707EB470703FA07F21043E0600CE0D8
:10125000206901EB410C072707FA0CF2904301EBE0
:10126000410703FA07F210432061A06BC0F3015657
:10127000EF1C06F1010CA7EB0C0707EB870C1F27EF
:1012800007FA0CF29043EF1C06F1010CA7EB0C07D8
:1012900007EB870701FA07F21043A063F0BD10B512
:1012A0000A4600210023816B21F44011531E41EABC
:1012B0000351816310BD08B5002300930090009B8B
:1012C0000B440093009B1A6008BD08B5024600203D
:1012D0000090009201F12800009B184400900098B3
:1012E000006880B208BD0A4600214168164B1940CB
:1012F0001143416070474162826270470A46002193
:10130000416821F01F0111434160704740B1094914
:101310000831096841F40001064A0832116007E00B
:1013200004490831096821F40001024A08321160B9
:10133000704700000024014000280140003C0140AB
:10134000FFFEF0FFFDF7F1FFFFFD3FFF024600202B
:1013500013680B400BB1012000E000207047CA4326
:101360000260704770B502460020002300240B1273
:101370005568CEB205EA060415681D4015B10CB1DA
:10138000012000E0002070BD00220A12D343036058
:101390007047000010B50446FE48844208D1012180
:1013A000C014FFF781FB0021E014FFF77DFBC4E0D0
:1013B000B4F1804F08D101210846FFF782FB0021DC
:1013C0000120FFF77EFBB8E0F348844208D10121F9
:1013D0000220FFF776FB00210220FFF772FBACE052
:1013E000EE48844208D101210420FFF76AFB002166
:1013F0000420FFF766FBA0E0E948844208D1012100
:101400000820FFF75EFB00210820FFF75AFB94E05D
:10141000E448844208D101211020FFF752FB00214B
:101420001020FFF74EFB88E0DF48844208D10121FD
:101430002020FFF746FB00212020FFF742FB7CE045
:10144000DA48844208D101214014FFF72DFB002126
:101450006014FFF729FB70E0D548844209D10121CF
:10146000C804FFF721FB00214FF40020FFF71CFB0D
:1014700063E0D048844209D101210805FFF714FB3D
:1014800000214FF48010FFF70FFB56E0CA4884425A
:1014900009D101214805FFF707FB00214FF4001097
:1014A000FFF702FB49E0C548844208D101214020F2
:1014B000FFF707FB00214020FFF703FB3DE0C0489A
:1014C000844208D101218020FFF7FBFA002180200F
:1014D000FFF7F7FA31E0BB48844208D101218015BB
:1014E000FFF7EFFA0021A015FFF7EBFA25E0B64869
:1014F000844209D101210804FFF7D6FA00214FF4F4
:101500008030FFF7D1FA18E0B048844209D10121B8
:101510004804FFF7C9FA00214FF40030FFF7C4FA7E
:101520000BE0AB48844208D101218804FFF7BCFAE4
:1015300000214FF48020FFF7B7FA10BD0022028887
:10154000944B98420ED0994B98420BD0B0F1804FFB
:1015500008D0914B984205D0904B984202D0904BC6
:10156000984204D14FF68F731A404B881A438D4B23
:10157000984207D08C4B984204D04FF6FF431A4054
:10158000CB881A4302808B8883850B880385814B27
:1015900098420BD0854B984208D08B4B984205D08F
:1015A0008A4B984202D08A4B984201D10B7A03862B
:1015B00001238382704770B5002400220023058C2C
:1015C0004FF6FE7635400584028C8388048B4FF6F7
:1015D0008F752C40B51E2C400D882C43751E2A405B
:1015E0000D892A434D882A436A4DA8420BD06F4D7E
:1015F000A84208D0744DA84205D0744DA84202D02C
:10160000734DA84213D14FF6F7752A404D892A43EE
:101610004FF6FB752A408D882A434FF6FF652B4015
:101620004FF6FF552B408D892B43CD892B4383806B
:101630000483CD888586028470BD70B500240022A5
:101640000023058C4FF6EF7635400584028C8388A5
:10165000048B48F6FF752C404FF6FF452C400D8853
:101660004FF6FF7606EA05252C434FF6DF752A4034
:101670000D8906EA05152A434D8806EA05152A4311
:10168000444DA84202D0494DA8421DD14FF67F7566
:101690002A404D894FF6FF7606EA05152A434FF694
:1016A000BF752A408D8806EA05152A434FF6FF3597
:1016B0002B404FF2FF752B408D8906EA85052B43A1
:1016C000CD8906EA85052B4383800483CD88058771
:1016D000028470BD70B5002400220023058C4FF6F3
:1016E000FF6635400584028C8388848B4FF68F75A6
:1016F0002C404FF6FC752C400D882C434FF6FF55BF
:101700002A400D894FF6FF7606EA05252A434D88C3
:1017100006EA05252A431F4DA84202D0234DA842C0
:101720001DD14FF2FF752A404D894FF6FF7606EA2C
:1017300005252A434FF6FF352A408D8806EA052500
:101740002A434EF6FF752B404DF6FF752B408D89D1
:1017500006EA05152B43CD8906EA05152B43838040
:101760008483CD888587028470BD70B500220023F4
:101770000024058C4EF6FF7635400584038C848862
:10178000828B48F6FF752A404FF6FF452A400D88A8
:1017900020E00000002C0140000400400008004050
:1017A000000C0040001000400014004000340140D4
:1017B000004C01400050014000540140001800401E
:1017C000001C004000200040004001400044014057
:1017D000004801404FF6FF7606EA05252A434DF6FC
:1017E000FF752B400D8906EA05352B434D8806EA27
:1017F00005352B43FA4DA84202D0FA4DA84208D134
:101800004BF6FF752C408D894FF6FF7606EA85155D
:101810002C4384808283CD88A0F84050038470BD1F
:10182000828B4FF2FF331A408283828B4FF6FF7315
:1018300003EA01231A4382837047F0B50C4615462C
:10184000002200210026078C4EF6FF7C07EA0C07D9
:101850000784828B018C4FF6FF7707EA043640F647
:10186000FF473A404FF6FF7707EA05273A434FF61E
:10187000FF7707EA03373A43D94FB8420ED0D94F22
:10188000B8420BD0B0F1804F08D0D74FB84205D046
:10189000D64FB84202D0D64FB84206D14DF6FF77A8
:1018A000394046F48057394305E047F6FF57394041
:1018B00044F48057394382830184F0BD828B4FF614
:1018C000F3731A408283828B0A4382837047F0B598
:1018D0000C461546002200210026078C4FF6FF6CAF
:1018E00007EA0C070784828B018C4FF6FF7707EA23
:1018F00004264FF60C773A404FF6FF7707EA0317B6
:101900002F433A43B64FB8420ED0B64FB8420BD031
:10191000B0F1804F08D0B44FB84205D0B34FB842B1
:1019200002D0B34FB84206D14FF6FF57394046F4C4
:101930008077394305E04FF2FF57394044F4807710
:10194000394382830184F0BD028B4FF2FF331A408A
:101950000283028B4FF6FF7303EA01231A430283CB
:101960007047F0B50C461546002200210026078C72
:101970004FF6EF7C07EA0C070784028B018C4FF6C9
:10198000FF7707EA041640F6FF473A404FF6FF7725
:1019900007EA03373A434FF6FF7707EA05273A434A
:1019A0008F4FB8420ED08F4FB8420BD0B0F1804F5E
:1019B00008D08D4FB84205D08C4FB84202D08C4F22
:1019C000B84206D14FF6DF77394046F01007394369
:1019D00005E04FF65F77394044F010073943028342
:1019E0000184F0BD028B4FF6F3731A400283028B21
:1019F0000A4302837047F0B50C46154600220021C9
:101A0000068C4FF6FE773E400684028B018C4FF623
:101A10000C7632407E1C06EA03162E433243704E8B
:101A2000B0420ED06F4EB0420BD0B0F1804F08D014
:101A30006D4EB04205D06D4EB04202D06C4EB042F9
:101A400006D14FF6FD76314044F00106314305E002
:101A50004FF6F576314044F00106314302830184AC
:101A6000F0BD70B505460C465D4885420ED05D4818
:101A700085420BD0B5F1804F08D05B48854205D038
:101A80005A48854202D05A48854200D100E000BF42
:101A9000208850B92389A28861882846FFF7ABFFC8
:101AA000E1882846FFF79EFF25E0208804280AD118
:101AB0002389A28861882846FFF753FFE1882846DA
:101AC000FFF742FF17E0208808280AD12389A2885F
:101AD00061882846FFF7FBFEE1882846FFF7EEFE07
:101AE00009E02389A28861882846FFF7A6FEE188DD
:101AF0002846FFF795FE70BD2DE9F04105460C46DE
:101B000000260127608808B9022600E00026A08888
:101B1000012801D1022700E001272088A0B92389EC
:101B2000A28861882846FFF766FFE1882846FFF70C
:101B300059FF23893A4631462846FFF712FFE188CC
:101B40002846FFF701FF13E02389A2886188284611
:101B5000FFF707FFE1882846FFF7F6FE23893A469C
:101B600031462846FFF747FFE1882846FFF73AFF4E
:101B7000BDE8F0810A884B881A438B881A43CB88CA
:101B80001A430B891A434B891A438B891A43A0F8CD
:101B9000442070474FF6FF71818000210180C18091
:101BA0004180017270470021018041808180C180A5
:101BB000018141818181C181704700210180418083
:101BC000012181800021C1800181704700210180B5
:101BD00041808180C1800181418181817047000005
:101BE000002C014000340140000400400008004087
:101BF000000C004021B1028842F00102028004E0A2
:101C000002884FF6FE731A400280704731B1B0F877
:101C1000442042F40042A0F8442005E0B0F84420FB
:101C2000C2F30E02A0F8442070471AB183890B4317
:101C3000838102E083898B4383817047818270476F
:101C400041EA0203A0F8483070471AB183890B4378
:101C5000838102E083898B438381704701894FF63A
:101C6000F8721140018170470A46002101894FF640
:101C70008F73194011430181704730B504460D46FA
:101C800029462046FFF7F0FF208940F00700208119
:101C900030BD2DE9F04104460D4616461F46602D25
:101CA00006D13B46012231462046FFF75AFE05E0A9
:101CB0003B46012231462046FFF79DFE294620463D
:101CC000FFF7D2FF208940F007002081BDE8F081B6
:101CD00030B50C4600210189C9B24FF6FF7505EAFF
:101CE0000325154325432943018130BD2DE9F041EA
:101CF00005460E4617469846002443463A46314666
:101D00002846FFF7E5FF2C894FF6F870044044F0B1
:101D100007044FF68F70044044F070042C81BDE836
:101D2000F081F0B504460D4616461F463B46324646
:101D300029462046FFF7CCFF208940F480402081CF
:101D4000F0BD0185828270470A46002101884FF666
:101D50008F731940114301807047F0B50C4615464A
:101D60001E460021002200230189028B038C4FF6BE
:101D7000F877394021434FF6FC473A4040F20117CB
:101D80003A434FF6DD773B404FF6FF7707EA0617F9
:101D90002F433B43018102830384F0BD0A460021A7
:101DA000018B4FF68F7319401143018370470A4628
:101DB0000021018B48F6FF7319404FF6FF7303EAC9
:101DC00002231943018370470A460021818B4FF695
:101DD0008F7319401143818370470A460021818B1C
:101DE00048F6FF7319404FF6FF7303EA02231943C5
:101DF0008183704721B1028842F08002028004E0B2
:101E000002884FF67F731A400280704721B18288A2
:101E100042F00402828004E082884FF6FB731A408D
:101E20008280704721B1828842F00802828004E0FB
:101E300082884FF6F7731A408280704721B18288FA
:101E400042F00102828004E082884FF6FE731A405D
:101E5000828070470A460021018B4FF6F7731940C4
:101E60001143018370470A460021018B4FF2FF7333
:101E700019404FF6FF7303EA0223194301837047A9
:101E80000A460021818B4FF6F77319401143818375
:101E900070470A460021818B4FF2FF7319404FF6BD
:101EA000FF7303EA02231943818370470A46002126
:101EB000018B4FF6FB7319401143018370470A46AB
:101EC0000021018B4FF6FF3319404FF6FF7303EAF1
:101ED00002231943018370470A460021818B4FF684
:101EE000FB7319401143818370470A460021818B9F
:101EF0004FF6FF3319404FF6FF7303EA02231943ED
:101F0000818370470A460021018B4FF67F73194089
:101F10001143018370470A460021018BC1F30E0172
:101F20004FF6FF7303EA02231943018370470A4601
:101F30000021818B4FF67F731940114381837047D5
:101F40000A460021818BC1F30E014FF6FF7303EAAD
:101F500002231943818370470A460021018C4FF602
:101F6000FD7319401143018470470A460021018C1A
:101F70004FF6F77319401143018470470A46002158
:101F8000018C4FF6DF7319404FF6FF7303EA02131B
:101F90001943018470470A460021018C4FF67F7374
:101FA00019404FF6FF7303EA021319430184704787
:101FB0000A460021018C4FF6FF5319404FF6FF737C
:101FC00003EA02231943018470470A460021018C69
:101FD0004FF2FF7319404FF6FF7303EA02231943D0
:101FE000018470470A460021018C4DF6FF731940A9
:101FF0004FF6FF7303EA023319430184704730B58B
:10200000002301248C40A3B2048C9C430484048CE0
:1020100002FA01F5ADB22C43048430BD30B5002383
:1020200004248C40A3B2048C9C430484048C02FAE4
:1020300001F5ADB22C43048430BD70B503460020D9
:1020400000241846183001258D40ACB21D8CA543E4
:102050001D8409B1082909D100EB6100056825F04C
:10206000700505600568154305600EE00D1FC5F39A
:102070004E052844056825F4E045056005684FF6DF
:10208000FF7606EA02263543056070BD21B102885D
:1020900042F00202028004E002884FF6FD731A400B
:1020A0000280704721B1028842F00402028004E0FD
:1020B00002884FF6FB731A400280704721B1828874
:1020C00042F08002828004E082884FF67F731A40DB
:1020D0008280704702884FF6F7731A4002800288A8
:1020E0000A430280704782884FF68F731A408280BD
:1020F00082880A438280704702894FF6F8731A403B
:10210000028102890A430281704702894FF67F7378
:102110001A40028102890A43028170478184704714
:102120008185704781867047018770478187704736
:10213000A0F84010704702884FF6FF431A40028013
:1021400002880A43028070470146888E7047014624
:10215000088F70470146888F70470146B1F84000EC
:1021600070470146888C70470146088D70470246CB
:102170000020138A0B400BB1012000E000207047C3
:10218000CA430282704730B5024600200023002473
:10219000158A05EA0103958905EA010413B10CB11A
:1021A000012000E0002030BDCA43028270470000D9
:1021B00001460020FE4A106800F038000843106015
:1021C0007047FB49096821F00801F94A116011467E
:1021D0000968014311607047F549096821F0100151
:1021E000F34A116011460968014311607047F148D4
:1021F000EF494860F04848607047EE48EC49486055
:10220000ED4848607047EA48006940F08000E849BE
:1022100008617047E648006940F08000E4490861C1
:1022200070470420E249C96801F0010109B10120A9
:102230000EE0DF49C96801F0040109B1022007E09E
:10224000DB49C96801F0100109B1032000E0042056
:10225000704700B502460423FFF7E3FF034603E09F
:10226000FFF7DFFF0346521E012B01D1002AF7D1F1
:1022700002B90523184600BD30B5044604254FF4C5
:102280003020FFF7E6FF0546042D17D1C848006946
:1022900040F00200C649086108464461006940F008
:1022A000400008614FF43020FFF7D3FF0546C048D7
:1022B000006941F6FD710840BD490861284630BDFE
:1022C00010B504244FF43020FFF7C3FF0446042C5C
:1022D00016D1B748006940F00400B54908610846C6
:1022E000006940F0400008614FF43020FFF7B1FF73
:1022F0000446AF48006941F6FB710840AC490861EB
:10230000204610BD00B502460423FFF78AFF0346AE
:1023100003E0FFF786FF0346521E012B01D1002A7E
:10232000F7D102B90523184600BD10B504244FF4B7
:102330003020FFF7E7FF0446042C16D19C480069C3
:1023400040F004009A4908610846006940F04000E6
:1023500008614FF43020FFF7D5FF04469448006928
:1023600041F6FB71084092490861204610BD0020EB
:102370008F49C96901F0020109B1012000E0002084
:10238000704730B5A5250424FFF7F1FF00B1002503
:102390004FF43020FFF75DFF0446042C3AD1854806
:1023A00083498860844888600846006940F02000BE
:1023B00008610846006940F0400008614FF4302091
:1023C000FFF747FF0446042C1BD17948006941F60A
:1023D000DF710840764908610846006940F0100046
:1023E000086176480580E002FFF733FF0446052CBC
:1023F00010D06F48006941F6EF7108406C490861E0
:1024000008E0052C06D06A48006941F6EF710840E3
:1024100067490861204630BD78B506460C4604255C
:1024200000200090E802FFF714FF0546042D24D198
:102430005F48006940F001005D4908613480E802AE
:10244000FFF707FF0546042D10D1B01C0090200CAB
:1024500000990880E802FFF7FCFE05465448006931
:1024600041F6FE7108405249086106E05048006993
:1024700041F6FE7108404E490861284678BD70B5A6
:1024800004460D460426F002FFF7E3FE0646042E3E
:1024900011D14748006940F0010045490861258095
:1024A000F002FFF7D6FE06464148006941F6FE718C
:1024B00008403F490861304670BD70B505460E467C
:1024C0000424E002FFF7C5FE0446042C17D1394866
:1024D00037498860384888600846006940F0100035
:1024E00008612E80E002FFF7B4FE0446052C06D0FA
:1024F0002F48006941F6EF7108402D4908612046D8
:1025000070BD2DE9F04304464FF6FF763746B046DE
:10251000B1460425E443E6B2C4F30727C4F30748F1
:102520004FEA1469E802FFF794FE0546042D49D1ED
:1025300020481F498860204888600846006940F0AC
:1025400010000861FF2E06D01C4808300680E80203
:10255000FFF77FFE0546042D08D1FF2F06D0174850
:102560000A300780E802FFF774FE0546042D0AD101
:10257000B8F1FF0F07D011480C30A0F80080E80236
:10258000FFF767FE0546042D0AD1B9F1FF0F07D00A
:102590000A480E30A0F80090E802FFF75AFE054600
:1025A000052D0FD00248006941F6EF71084007E0A1
:1025B0000020024023016745AB89EFCD00F8FF1FE3
:1025C000664908612846BDE8F08330B50546042415
:1025D0004FF43020FFF73DFE0446042C41D1604803
:1025E0005E4988605F4888600846006940F02000C6
:1025F00008610846006940F0400008614FF430204F
:10260000FFF727FE0446042C22D15448006941F606
:10261000DF710840514908610846006940F0100028
:1026200008611DB100205049088002E0A5204E49F4
:1026300008804FF43020FFF70CFE0446052C10D024
:102640004648006941F6EF7108404449086108E0D6
:10265000052C06D04148006941F6DF7108403F492A
:102660000861204630BDF0B505460E4617460424E5
:102670003B483A4988603B488860E002FFF7E9FD43
:102680000446042C19D13548006940F01000334944
:10269000086147F0F800304328433349891C08801B
:1026A000E002FFF7D6FD0446052C06D02B48006952
:1026B00041F6EF710840294908612046F0BD2748DE
:1026C000C069800870472548006A70470020234988
:1026D000096801F0200109B1012000E000207047E5
:1026E00029B11E4A126902431C4B1A6104E01B4ABD
:1026F00012698243194B1A61704701460020012973
:1027000008D1164AD26902F001020AB1012008E09C
:10271000002006E0114AD2680A400AB1012000E018
:10272000002070470D49C860704704200B49C968F4
:1027300001F0010109B101200EE00849C96801F06A
:10274000040109B1022007E00449C96801F0100141
:1027500009B1032000E0042070470000002002407F
:1027600023016745AB89EFCD00F8FF1F10B5044684
:10277000BE48844208D101218014FEF795F900215A
:10278000A014FEF791F916E0B948844208D101215E
:102790000014FEF796F900212014FEF792F90AE0E2
:1027A000B448844207D10121C013FEF78AF9002101
:1027B000E013FEF786F910BD10B50022028802F47E
:1027C00041520B884C8823438C882343CC88234375
:1027D0000C8923434C8923438C892343CC8923438D
:1027E0001A430280838B4FF2FF74234083830B8A4A
:1027F000038210BD2DE9F04F85B005460C464FF021
:10280000000902274FF000084FF0010B0026B246E6
:10281000A88B4FF240010840A88302202884B5F815
:102820001C90A068022801D100BF38E0A08810B930
:102830004FF0010B01E04FF0020B8D48854200D1B3
:1028400000E000BF6846FEF7A8F8DDF800A0E088C9
:10285000B0F5007F0AD14FEA1A2000EB800040005B
:10286000A168B0FBF1F0401D86B20BE04FEA4B10BF
:10287000BAFBF0F000EB80004000A168B0FBF1F083
:10288000401D86B20A20B6FBF0F606F00108A6EB62
:102890000800C0F34F074FF6FF7000EA0828022F28
:1028A00001DBFF2F02DD02274FF00008E08840EA3D
:1028B000080038432884A088A18908436188084318
:1028C0002188084340F4006040EA0909A5F81C90FB
:1028D00005B0BDE8F08F0021018041808180C1807A
:1028E000018141818181C1810721018270470021DD
:1028F000018041808180C18002218160002181812D
:10290000704721B1028842F04002028004E0028850
:102910004FF6BF731A400280704721B1828B42F498
:102920008062828304E0828B4FF6FF331A408283F9
:10293000704730B5002400230C110125A540ABB22F
:102940001AB185881D43858002E085889D43858076
:1029500030BD1AB183880B43838002E083888B43A8
:1029600083807047818170470146888970474FF6A0
:10297000FF62914204D0028842F48072028004E037
:1029800002884FF6FF631A400280704721B18288A7
:1029900042F00402828004E082884FF6FB731A4002
:1029A0008280704702884FF2FF731A4002800288CB
:1029B0000A4302807047018841F4805101807047CA
:1029C00021B1028842F40052028004E002884DF6F0
:1029D000FF731A400280704702460020012901D08F
:1029E000108B00E0908A70470146088A7047B1F565
:1029F000804F04D1028842F48042028004E00288C1
:102A00004BF6FF731A40028070470246002013897C
:102A10000B400BB1012000E000207047CA43028147
:102A20007047F0B50246002000240023002501F085
:102A30000F070126BE40B4B20B1101269E40B3B26F
:102A4000968806EA03051689264016B10DB10120C5
:102A500000E00020F0BD10B5002201F00F040123BA
:102A6000A3409AB2D343038110BD0000003001405F
:102A700000380040003C00400E49086070470D4996
:102A8000486070470B49886070474AF6AA20094998
:102A9000086070474CF6CC40064908607047014614
:102AA0000020044AD2680A400AB1012000E0002058
:102AB000704700000030004070B505460C4645F2F6
:102AC0005550FFF7D9FF2846FFF7D9FF2046FFF7FB
:102AD000D9FFFFF7DAFFFFF7DDFF70BD10B5FFF795
:102AE000D4FF10BD01B581B00AE04FF40050009052
:102AF00000BFBDF80000411E89B200910028F8D146
:102B0000BDF80400411E89B201910028EDD10CBD31
:102B100008B52020ADF8000003208DF80200102039
:102B20008DF8030069464048FDF7E8FC20213E4847
:102B3000FDF791FD08BD08B5C020ADF800000320E9
:102B40008DF8020010208DF8030069463748FDF724
:102B5000D5FC40213548FDF780FD80213348FDF745
:102B60007AFD08BD00F0FEF800F068F903F088FB7C
:102B7000FFF7CEFFFFF7DFFF04F06AFE03F0F7F880
:102B800002F09BFB02F04BF84FF4164003F08DFB74
:102B90004FF4165001F039FD01F058FF01F0A0FC90
:102BA00003F0A3F840F27F2140F2E73002F0BAFFD1
:102BB0004FF49671002003F0A8F802F0A5FC1CA3C6
:102BC0001EA2214921A005F05BF94FF4FA6107200C
:102BD000FFF772FF27E003F042FE02F028FE01F04B
:102BE000CCFF1F48007810B91E480068C8B9002003
:102BF0001B4908701C48B0F900000A2190FBF1F253
:102C000001FB12041848B0F9000090FBF1F52246D0
:102C1000294616A005F034F91848018818A005F0D7
:102C20002FF9FFF75BFFD6E700080140000C0140D9
:102C300032303A32333A31350000000046656220C6
:102C40003236203230313800880F002073746D33F3
:102C5000322049443A25735B25732025735D0A00B1
:102C600028000020C0000020EC00002074705F7677
:102C7000616C203D2025642E25640A00EE000020B2
:102C8000686D2076616C7565203D2025640A000022
:102C900010B5FDF781FD4FF48030FDF79DFDFDF788
:102CA000DAFD0446012C5CD10020FDF71AFE00205D
:102CB000FDF729FEA002FDF71DFE0120FFF778FABF
:102CC0001020FFF789FA4FF4E0112004FDF7ECFD26
:102CD0000120FDF7F5FD00BF3920FDF7A0FD00281C
:102CE000FAD00220FDF7EFFD00BFFDF7F5FD082843
:102CF000FBD10121FD20FDF7BDFE01218803FDF779
:102D0000C6FE0121C806FDF7C2FE01210807FDF736
:102D1000BEFE0121C802FDF7ADFE01210846FDF708
:102D2000B6FE01214802FDF7A5FE4FF40040FDF775
:102D300005FE01210846FDF790FE01210220FDF766
:102D40008CFE01218803FDF795FE01214804FDF763
:102D50009EFE01218804FDF79AFE0121DF48FDF760
:102D60009EFC10BD10B5FDF717FD4FF48030FDF748
:102D700033FD00BF2120FDF752FD0028FAD00020CE
:102D8000FDF7AFFD0020FDF7BEFD4FF48060FDF7BD
:102D9000B1FD0120FFF70CFA1020FFF71DFA4FF4E8
:102DA00060110020FDF780FD0120FDF789FD00BFC7
:102DB0003920FDF734FD0028FAD00220FDF783FD0D
:102DC00000BFFDF789FD0828FBD10121FD20FDF79B
:102DD00051FE01218803FDF75AFE0121C806FDF7C7
:102DE00056FE01210807FDF752FE0121C802FDF73A
:102DF00041FE01210846FDF74AFE01214802FDF788
:102E000039FE4FF40040FDF799FD01210846FDF71A
:102E100024FE01210220FDF720FE01218803FDF799
:102E200029FE01214804FDF732FE01218804FDF747
:102E30002EFE0121A948FDF732FC10BD10B500217E
:102E40004FF00060FDF7C3FA4FF4A060FDF788FA79
:102E500010BD10B586B0044601218803FDF70AFEB7
:102E600001210420FDF71BFC00219D48FDF735FFE3
:102E70004020ADF8140003208DF8160018208DF8BE
:102E8000170005A99748FDF739FB8020ADF814001D
:102E900004208DF8170005A99248FDF72FFB019437
:102EA0000020ADF80800ADF80A00ADF80C00ADF850
:102EB00010000C20ADF80E0001A98948FDF781FE35
:102EC00001218748FDF709FF012240F2255184487E
:102ED000FDF70FFF25208DF8000000208DF8010080
:102EE0008DF8020001208DF803006846FDF73DFAD9
:102EF00006B010BD7FB505460C4601210220FDF746
:102F0000C6FDADF80850ADF804400020ADF80A0049
:102F1000ADF8060001A97448FEF710FB0122114626
:102F20007148FEF782FE1D208DF8000001208DF80B
:102F3000010003208DF8020001208DF8030068468F
:102F4000FDF713FA01216848FEF754FE7FBD7FB5F7
:102F500005460C4601210420FDF799FDADF8085007
:102F6000ADF804400020ADF80A00ADF8060001A954
:102F70005E48FEF7E3FA012211465C48FEF755FE73
:102F80001E208DF8000001208DF8010003208DF82F
:102F9000020001208DF803006846FDF7E6F90121E3
:102FA0005248FEF727FE7FBD7FB504460D4601213E
:102FB000C802FDF75FFD19208DF8000000208DF894
:102FC000010003208DF8020001208DF803006846FF
:102FD000FDF7CBF9ADF804500020ADF80600ADF8D0
:102FE0000840ADF80A008DF80C0001A94048FEF732
:102FF000A5FA012211463E48FEF717FE00213C4883
:10300000FEF7F8FD7FBD08B548208DF803000320CA
:103010008DF802002020ADF8000069463148FDF728
:103020006DFA08BD08B510208DF8030003208DF857
:1030300002004020ADF8000069462E48FDF75EFA18
:1030400040212C48FDF709FB08BD10B54021294857
:10305000FDF703FB40212748FDF7FDFA4FF496707A
:1030600001F077FA40212348FDF7F7FA4FF4967004
:1030700001F06FFA10BD10B5FFF7E7FFFFF7E5FFAE
:1030800010BD10B5FFF7E1FFFFF7DFFFFFF7DDFF32
:10309000FFF7DBFF10BD10B56FF07F442021114812
:1030A000FDF7BFFA012817D010E0641E74B912A012
:1030B00004F0E6FE134BDA7D997D587D03F08BFD1D
:1030C00004F01BFB04F0F6FAFDF73CF8202105485C
:1030D000FDF7A7FA0128E8D110BD0000000230007A
:1030E00000380140000C014000040040000800408E
:1030F000002C0140000801406B657920646F776EF9
:103100000A000000880F0020704700BFFEE700BFE4
:10311000FEE700BFFEE700BFFEE77047704770475D
:10312000704710B502F04AFD10BD000008B5102030
:103130008DF8030003208DF802004FF20300ADF874
:1031400000006946FB48FDF7D9F910208DF803000F
:1031500003208DF802004FF41060ADF800006946BE
:10316000F548FDF7CBF948208DF8030003208DF8D2
:1031700002004FF47070ADF800006946ED48FDF7AD
:10318000BDF908BD10B51822EC49002003F04AF83B
:103190000822EB49182003F045F810BD10B50221B4
:1031A000E448FDF758FA10BD10B50121E148FDF7DC
:1031B00052FA10BD10B54FF48051DE48FDF74BFABE
:1031C00010BD10B54FF40051DA48FDF744FA10BDB8
:1031D00010B54FF48041D748FDF73DFA10BD10B54A
:1031E0004FF40041D348FDF736FA10BD10B54FF447
:1031F0008071D148FDF72FFA10BD10B54FF4006172
:10320000CD48FDF728FA10BD10B50221C948FDF7D9
:1032100024FA10BD10B50121C648FDF71EFA10BDF5
:1032200010B54FF48051C348FDF717FA10BD10B523
:103230004FF40051BF48FDF710FA10BD10B54FF420
:103240008041BC48FDF709FA10BD10B54FF40041AC
:10325000B848FDF702FA10BD10B54FF48071B648BA
:10326000FDF7FBF910BD10B54FF40061B248FDF752
:10327000F4F910BD10B54FF40071AE48FDF7D1F967
:1032800010BD10B54FF48071AA48FDF7CAF910BD02
:1032900010B58021A748FDF7C4F910BD10B5402135
:1032A000A448FDF7BEF910BD70B505460C46E917F8
:1032B00005EB51710122B2EBE10F6BD104F001007B
:1032C00020B102219B48FDF7C6F903E0022199488D
:1032D000FDF7C3F904F0020020B101219548FDF784
:1032E000BAF903E001219348FDF7B7F904F00400AF
:1032F00028B14FF480518F48FDF7ADF904E04FF449
:1033000080518C48FDF7A9F904F0080028B14FF46A
:1033100000518848FDF79FF904E04FF400518548BB
:10332000FDF79BF904F0100028B14FF4804181486B
:10333000FDF791F904E04FF480417E48FDF78DF9E7
:1033400004F0200028B14FF400417A48FDF783F9DA
:1033500004E04FF400417748FDF77FF904F04000A6
:1033600028B14FF480717448FDF775F904E04FF40B
:1033700080717148FDF771F904F0800028B14FF4B5
:1033800000616D48FDF767F904E04FF400616A4899
:10339000FDF763F970BD10B54FF47A7001F0D9F8FC
:1033A0004FF47A7001F0D5F8002409E0654951F82E
:1033B000240080474FF4967001F0CBF8601CC4B233
:1033C000082CF3DB4FF47A7001F0C3F8002409E015
:1033D0005D4951F8240080474FF4967001F0B9F828
:1033E000601CC4B2082CF3DB10BD70B504460D465A
:1033F000082C00DC14B94FF0FF3070BD012D05D151
:10340000611E504A52F82100804704E0611E4E4A76
:1034100052F821008047601E49490D540020ECE716
:1034200070B505460024002601240BE005F00106D6
:1034300031462046FFF7D9FF601E41490E546D10FA
:10344000601CC4B2092CF1DB70BD0020002100BF5C
:1034500006E03B4A525C8A400243D0B24A1CD1B2D9
:103460000829F6DB7047014609B1082901DD002073
:103470007047481E324A105CFAE770B506460024D1
:1034800000250DE06006040EC5F107012F4A52F831
:1034900021008047012801D144F00104681CC5B215
:1034A000082DEFDB347070BD10B504460121601E9D
:1034B000274A02EB400041700021601E02F8101004
:1034C000052002F044FC20B94FF49671052002F06B
:1034D0001CFC10BD10B50124062002F030FC08B918
:1034E000A01E10BD0121062002F00FFC002460E0A8
:1034F000164951F82400804790BB1648005D80BBF8
:10350000154830F81400401C134921F814000846EF
:1035100030F8140032284ADD01200E490855A04039
:103520000E49097808430D49087000200A4921F81E
:1035300014003CE0000C014000080140B0010020F4
:103540003000002094840008B4840008D48400086B
:10355000C801002044000020A00200204C000020F0
:1035600005E0FFE70020F74921F814001FE0F649C5
:1035700051F824008047012819D1F448005D90B12A
:10358000F04830F81400401CEE4921F814000846B9
:1035900030F8140032280ADD0020EC490855E949CA
:1035A00021F8140003E00020E94921F81400601C10
:1035B000C4B2042C9CDB002093E710B588B004460D
:1035C0002021684604F0D5FA0320E2490870E24B56
:1035D0002246E2A1684604F063FC6A46E1A1E3A04A
:1035E00002F0DAF908B010BD10B5FFF773FF401C08
:1035F00000B910BDDF48007800B9FAE7002419E0EF
:103600000120A040DB490978084080B1DA48007801
:10361000BB2804D1D94951F82400804708E0611C37
:10362000C8B2FFF7CAFF611CC8B2FFF73DFF00BF79
:10363000601CC4B2082CE3DB0020CE49087000BF38
:10364000D7E702460AB1082A03DD12B14FF0FF3076
:103650007047012904D019B111B14FF0FF30F7E7DD
:103660000020F5E70022411EC54B03EB41014A70E3
:1036700070472DE9F04704460D4616461F464FF0A9
:103680000008C1460CB9032000E00120814605FB7B
:10369000094030441FFA80F83978404602F049FD6D
:1036A000BDE8F08710B50246002022B1012A16D0ED
:1036B000022A38D126E000210EE04306180EC1F19F
:1036C000070303EB4303AF4C23445B78012B01D189
:1036D000431CD8B24B1CD9B20829EEDB23E00021F1
:1036E0000DE04306180EC1F1070303EB4303A54C9D
:1036F000E35C012B01D1431CD8B24B1CD9B2082981
:10370000EFDB10E000210BE04306180EC1F10703C8
:103710009D4CE35C012B01D1431CD8B24B1CD9B2A8
:103720000829F1DB00BF00BF10BD10B50220FFF774
:10373000B9FF044621460820FFF7B6FD10BD10B5BD
:10374000052002F0FCFA00B910BD052002F007FBCD
:10375000002422E08A4800EB4400407801281AD176
:10376000874810F81400032810DA611CC8B2FFF76C
:1037700024FF834810F81400401C814901F814000C
:103780004FF49671052002F0C0FA04E000207C4955
:1037900001EB44014870601CC4B2082CDADB00BFA6
:1037A000D2E72DE9F05F0746884691469A46BB4628
:1037B0002C21584604F0F4F9040004D000202070B5
:1037C000641C254603E04FF0FF30BDE8F09F2C213C
:1037D000284604F0E5F9040004D000202070641CA1
:1037E000264602E04FF0FF30EFE7584604F013FAA8
:1037F00088F80000284604F00EFA89F800003046E8
:1038000004F009FA8AF800000020DEE730B593B032
:1038100004460020129011901090451E342103A8F8
:1038200004F0A7F911AB12AA10A9A068FFF7B9FF1D
:103830009DF8400055490978884207D19DF8441009
:103840009DF84800FFF7FDFE05462BE09DF840007F
:103850004E49097888420BDD9DF840004B490870BD
:103860009DF844109DF84800FFF7EBFE054619E06F
:10387000464800789DF84010401A01280BDD9DF85D
:103880004000424908709DF844109DF84800FFF739
:10389000D8FE054606E09DF844109DF84800FFF765
:1038A000D0FE0546B5BB9DF844109DF84800FFF7D3
:1038B0009CFD9DF844109DF84800401E324A11546A
:1038C0009DF84800401EC1B211AB00221820FFF73E
:1038D000D0FE21489DF84410CDE900109DF84830F5
:1038E0009DF840202AA103A804F0DAFA03AAD4E93B
:1038F000000102F051F825480078401C2349087067
:10390000C821264804F035F9322203A9234804F0DF
:1039100017F947E0FFE722489DF84410CDE9001071
:103920009DF848309DF8402019A103A804F0B8FA8A
:1039300003AAD4E9000102F02FF84FF0FF3013B0D2
:1039400030BD0000B0020020D484000844000020F4
:10395000A002002090000020EA84000825642C25A5
:1039600073000000414C41524D00000052454C4153
:10397000590000004C0000204D00002094840008F5
:10398000C8010020B00100203000002038000020D5
:1039900025642C25642C25642C257300D801002077
:1039A000E4840008002013B030BD2DE9F04790B04A
:1039B00004464FF00009002600254FF0FF3A34215D
:1039C00003A804F0D6F82C21A06804F0E9F8070059
:1039D00004D0002038707F1CB84604E04FF0FF3060
:1039E00010B0BDE8F087A06804F015F9C5B24046F4
:1039F00004F011F9C6B2F7480078854205D10021DC
:103A00003046FFF71EFE82461FE0F24800788542EE
:103A100007DDF048057000213046FFF712FE8246B0
:103A200013E0EC480078401B012807DDE9480570E9
:103A300000213046FFF705FE824606E0E64AD4E95B
:103A4000000101F0A9FF0020CAE7BAF1000F25D15B
:103A5000701EE24911F80090E14833462A46AFF261
:103A6000D001CDE9009003A804F01AFA4946DDA080
:103A700004F006FA03AAD4E9000101F08DFFD5484D
:103A80000078401CD3490870C821D34804F071F86D
:103A9000322203A9D04804F053F80FE0D54833464A
:103AA0002A46D5A1009003A804F0FAF903AAD4E9A4
:103AB000000101F071FF4FF0FF3091E700208FE728
:103AC000F0B58FB00446002600256F1E342102A8F1
:103AD00004F04FF8A06804F09EF8C5B2BD48007825
:103AE000854201D1002718E0BA480078854203DDFD
:103AF000B8480570002710E0B6480078401B012840
:103B000003DDB4480570002707E0B34AD4E900019B
:103B100001F042FF00200FB0F0BDFFB90220FFF717
:103B2000C1FD0646AE4833462A46B3A1009002A81E
:103B300004F0B6F902AAD4E9000101F02DFFA5486E
:103B40000078401CA3490870C821A34804F011F86C
:103B5000322202A9A04803F0F3FF0EE0A54B2A464B
:103B6000AFF2082102A804F09BF902AAD4E90001EF
:103B700001F012FF4FF0FF30CDE70020CBE770B52A
:103B800090B0044600200F900025461E342102A864
:103B900003F0EFFFA06804F03EF8C5B28D4800784E
:103BA000854201D1002618E08A480078854203DD6D
:103BB00088480570002610E086480078401B0128E0
:103BC00003DD84480570002607E0834AD4E900013C
:103BD00001F0E2FE002010B070BDFEB90FA8FFF7A3
:103BE0004CFC7F4800909DF83C302A4682A102A8F8
:103BF00004F056F902AAD4E9000101F0CDFE75489F
:103C00000078401C73490870C821734803F0B1FF65
:103C1000322202A9704803F093FF10E0754800902B
:103C20009DF83C302A4674A102A804F039F902AA92
:103C3000D4E9000101F0B0FE4FF0FF30CBE70020E7
:103C4000C9E72DE9F041044600272C21A06803F0C4
:103C5000A7FF050008D0002028706D1C2E46A06824
:103C600003F0D9FFC7B203E04FF0FF30BDE8F081A9
:103C700000213846FFF7E5FC401C10B94FF0FF303B
:103C8000F4E75749304603F09CFF18B93846FFF770
:103C9000E9FC02E04FF0FF30E8E70020E6E730B54E
:103CA00093B004460020129011901090451E3421CC
:103CB00003A803F05EFF11AB12AA10A9A068FFF7DA
:103CC00070FD9DF8400043490978884207D19DF86E
:103CD00044109DF84800FFF7B4FC05462CE09DF821
:103CE00040003C49097888420BDD9DF84000394985
:103CF00008709DF844109DF84800FFF7A2FC0546A7
:103D00001AE0344800789DF84010401A01280BDD75
:103D10009DF840002F4908709DF844109DF8480018
:103D2000FFF78FFC054607E02B4AD4E9000101F0BC
:103D300033FE002013B030BDA5BB9DF844109DF8A4
:103D40004800401E00EB40002E4A104441709DF890
:103D50004800401EC1B211AB01220020FFF789FCD0
:103D60001F489DF84410CDE900109DF848309DF89B
:103D70004020AFF2E43103A804F092F803AAD4E99A
:103D8000000101F009FE13480078401C1149087039
:103D9000C821114803F0EDFE322203A90E4803F0BA
:103DA000CFFE31E0FFE713489DF84410CDE9001045
:103DB0009DF848309DF84020AFF22C4103A804F054
:103DC0006FF803AAD4E9000101F0E6FD4FF0FF30DF
:103DD000B0E7000038000020D801002030000020AB
:103DE000EA8400087377697463685F646174613D95
:103DF00025640A00E484000825642C25642C2573BE
:103E000000000000B0010020002093E7F0B58FB063
:103E10000446002600256F1E342102A803F0A9FEE7
:103E2000A06803F0F8FEC5B2FB480078854201D1D6
:103E3000002718E0F8480078854203DDF648057051
:103E4000002710E0F4480078401B012803DDF24809
:103E50000570002707E0F14AD4E9000101F09CFD5C
:103E600000200FB0F0BD07BB0020FFF71BFC06468B
:103E7000EB4833462A46AFF28001009002A804F0D6
:103E80000FF802AAD4E9000101F086FDE2480078AB
:103E9000401CE1490870C821E04803F06AFE322264
:103EA00002A9DE4803F04CFE10E0DE4833462A4605
:103EB000AFF2BC01009002A803F0F2FF02AAD4E91D
:103EC000000101F069FD4FF0FF30CAE70020C8E7AC
:103ED00030B593B004460020129011901090451E0A
:103EE000342103A803F045FE11AB12AA10A9A06863
:103EF000FFF757FC9DF84000C7490978884207D171
:103F00009DF844109DF84800FFF79BFB05462CE008
:103F10009DF84000C049097888420BDD9DF84000BB
:103F2000BD4908709DF844109DF84800FFF789FBD3
:103F300005461AE0B84800789DF84010401A01285C
:103F40000BDD9DF84000B44908709DF844109DF8C1
:103F50004800FFF776FB054607E0B04AD4E90001C8
:103F600001F01AFD002013B030BD9DBB9DF8441038
:103F70009DF84800401E00EB4000AB4A11549DF8EC
:103F80004800401EC1B211AB00221046FFF771FB82
:103F9000A3489DF84410CDE900109DF848309DF8E5
:103FA0004020AFF2146103A803F07AFF03AAD4E91A
:103FB000000101F0F1FC98480078401C9649087017
:103FC000C821964803F0D5FD322203A9934803F097
:103FD000B7FD16E0FFE793489DF84410CDE90010C7
:103FE0009DF848309DF84020AFF25C6103A803F0D3
:103FF00057FF03AAD4E9000101F0CEFC4FF0FF30D7
:10400000B1E70020AFE730B593B00446002012902E
:1040100011901090451E342103A803F0AAFD11ABA6
:1040200012AA10A9A068FFF7BCFB9DF840007A49CE
:104030000978884206D100219DF84800FFF701FB6E
:1040400005462AE09DF840007349097888420ADD58
:104050009DF840007049087000219DF84800FFF766
:10406000F0FA054619E06C4800789DF84010401AB7
:1040700001280ADD9DF840006749087000219DF87D
:104080004800FFF7DEFA054607E0644AD4E900017C
:1040900001F082FC002013B030BDA5BB9DF8441098
:1040A0009DF84800401E00EB40005F4A10448170BC
:1040B0009DF84800401EC1B211AB02220020FFF75C
:1040C000D8FA57489DF84410CDE900109DF84830C3
:1040D0009DF84020AFF2487103A803F0E1FE03AA67
:1040E000D4E9000101F058FC4B480078401C4A49D3
:1040F0000870C821494803F03CFD322203A9474813
:1041000003F01EFD16E0FFE746489DF84410CDE998
:1041100000109DF848309DF84020AFF28C7103A844
:1041200003F0BEFE03AAD4E9000101F035FC4FF014
:10413000FF30B0E70020AEE72DE9F04190B0044633
:10414000002600200F9000254FF0FF38342102A8F0
:1041500003F00FFD2C21A06803F022FD070007D01B
:10416000002038707F1CA06803F055FDC5B204E044
:104170004FF0FF3010B0BDE8F0812748007885424D
:1041800002D14FF0000815E023480078854202DD97
:104190004FF000080EE020480078401B012802DDA7
:1041A0004FF0000806E01D4AD4E9000101F0F4FBDD
:1041B0000020DFE7B8F1000F38D19DF83C10701EE9
:1041C00000EB4000184A10448170701EC1B20FAB62
:1041D00002220020FFF74DFA11489DF83C103346AB
:1041E0002A46CDE90010AFF6580102A803F058FEA8
:1041F00002AAD4E9000101F0CFFB07480078401C77
:1042000005490870C821054803F0B3FC322202A911
:10421000024803F095FC1DE038000020D801002082
:10422000EA840008E4840008B001002093489DF867
:104230003C1033462A46CDE90010AFF6AC0102A887
:1042400003F02EFE02AAD4E9000101F0A5FB4FF015
:10425000FF308FE700208DE72DE9F04F8FB0044647
:1042600000264FF0FF3B342102A803F082FCB24647
:104270002C21A06803F094FC5FEA00080AD000201B
:1042800088F8000008F10108C146A06803F0C3FCEB
:10429000C6B204E04FF0FF300FB0BDE8F08F4846E3
:1042A00003F0B9FC00F0FF0A5746754800788642D3
:1042B00002D14FF0000B10E071480078864202DD19
:1042C0004FF0000B09E06E480078801B012802DDEA
:1042D0004FF0000B01E04FF0000BBBF1000F35D1A8
:1042E000002514E007F0010038B1664951F82500B7
:1042F000804701206449485506E0644951F825008B
:1043000080470020604948557F10681CC5B2082DC1
:10431000E8DB5F4853463246AFF22451009002A8D2
:1043200003F0BEFD02AAD4E9000101F035FB5448B8
:104330000078401C52490870C821564803F019FC07
:10434000322202A9534803F0FBFB0FE04B485346CF
:10435000324651A1009002A803F0A2FD02AAD4E9BE
:10436000000101F019FB4FF0FF3095E7002093E7C3
:1043700010B58EB00446342101A803F0FAFB444B7B
:10438000474A48A101A803F08BFD01AAD4E9000126
:1043900001F002FB00200EB010BD30B595B005460F
:1043A00020210DA803F0E5FB3421684603F0E1FB72
:1043B0000DA801F000F80DAA3CA1684603F070FDBD
:1043C000684603F0F7FB04462146684601F0DAFA36
:1043D000BB203A490870FEF7DEFF002015B030BD63
:1043E000F0B5B5B006460027C82103A803F0C1FB0D
:1043F0003246334903A803F0A3FBC821304803F039
:10440000B8FB03A800902FA0009903F039FD2D21DF
:10441000009803F0C5FB040004D000202070641C49
:10442000019403E04FF0FF3035B0F0BD2D21204660
:1044300003F0B6FB040004D000202070641C02943A
:1044400002E04FF0FF30EFE7002512E005EB8502B8
:10445000214B03EB8201019803F0B3FB38B91F48ED
:1044600050F825106846884707463846DCE7681C40
:10447000C5B20D2DEADB3846D6E70000E48400081B
:10448000380000209484000830000020B484000824
:10449000EA840008D8010020256425642C257300D7
:1044A0003A00002025732C2573000000484F535418
:1044B0002D43484B4C49432D257300004D000020EF
:1044C000C002002070726F746F636F6C2E6F626A2F
:1044D0006563743A25730A005C83000860840008F1
:1044E00010B56FF00400FBF78AFF08202B49087015
:1044F0000846007800EB4001C1EBC0104FF6FF7199
:1045000001EAC0002649088010BD0146234A1278FE
:104510004A434FF0E0235A6100229A611A46126919
:1045200042F001021A6100BF4FF0E022106900F072
:1045300001021AB100F48032002AF5D04FF0E022D7
:10454000126922F001024FF0E0231A6100229A6101
:1045500070470146124A12884A434FF0E0235A61DD
:1045600000229A611A46126942F001021A6100BFE4
:104570004FF0E022106900F001021AB100F480321D
:10458000002AF5D04FF0E022126922F001024FF02C
:10459000E0231A6100229A61704700004E0000205B
:1045A000500000200BE04FF49670FFF7D2FF4FF45D
:1045B0009670FFF7CEFF4FF49670FFF7CAFFF2E751
:1045C00008B510208DF8030003208DF802000220AA
:1045D000ADF800006946FC48FBF790FF0221FA485D
:1045E000FCF739F808BD0020F8490860F849087060
:1045F0007047F648006870470020F6490860F649A1
:1046000008707047F3480068704710B586B00446DC
:1046100001214804FCF73BFA0021F048FCF75DFB60
:104620000420ADF8140003208DF8160018208DF832
:10463000170005A9E448FBF761FF0820ADF8140056
:1046400004208DF8170005A9DF48FBF757FF0194F8
:104650000020ADF80800ADF80A00ADF80C00ADF888
:1046600010000C20ADF80E0001A9DC48FCF7A9FAF7
:104670000121DA48FCF731FB012240F22551D748ED
:10468000FCF737FB26208DF8000000208DF8010094
:1046900001208DF802008DF803006846FBF765FEE7
:1046A00006B010BD10B586B0044601218804FCF7A1
:1046B000EEF90021CA48FCF710FB4FF48060ADF81A
:1046C000140003208DF8160018208DF8170005A996
:1046D000C448FBF713FF4FF40060ADF8140004204A
:1046E0008DF8170005A9BF48FBF708FF01940020CB
:1046F000ADF80800ADF80A00ADF80C00ADF81000F8
:104700000C20ADF80E0001A9B548FCF75AFA0121BA
:10471000B348FCF7E2FA012240F22551B048FCF719
:10472000E8FA27208DF8000000208DF80100022013
:104730008DF8020001208DF803006846FBF715FE96
:1047400006B010BD70B504460D46E1B2A448FCF7B2
:1047500031FB00BF8021A248FCF79AFB0028F9D06A
:10476000204670BD10B5044621469D48FCF722FB4B
:1047700000BF80219A48FCF78BFB0028F9D010BDC0
:1047800010B504460BE014F8011B9548FCF712FB2A
:1047900000BF80219248FCF77BFB0028F9D02078ED
:1047A0000028F0D110BD00BF8D48008800F0200027
:1047B0000028F9D08A48001D0088C0F3080070471F
:1047C00010B5044604B92824640000218648FDF78A
:1047D00011FA00208549086085480460002082495C
:1047E0002431088079490860012079490870012145
:1047F0007D48FDF7FFF910BD10B5044604B9282423
:1048000000217948FDF7F6F900207A4908607A48D6
:10481000046000207449243108806E49086001203A
:104820006D49087001217048FDF7E4F910BD10B51D
:1048300000216D48FDF7DEF910BD00206F490861C9
:1048400048618860704700206D4908614861886050
:1048500070476A494A694969491C684B5961194658
:104860000968885419464969B1F5807F02D1002151
:104870001A46516161494969604A1269914210D9E9
:104880005E498968B1F5807F0BD15C490969491C93
:104890005A4A116111460969B1F5807F01D10021A1
:1048A000116156498968491C544A916011468968CA
:1048B000B1F5807F02D94FF4807191607047504903
:1048C0004A694969491C4E4B59611946096888541F
:1048D00019464969B1F5807F02D100211A4651611C
:1048E00047494969464A1269914210D94449896841
:1048F000B1F5807F0BD142490969491C404A1161D9
:1049000011460969B1F5807F01D1002111613C494F
:104910008968491C3A4A916011468968B1F5807FDF
:1049200002D94FF4807191607047014633480069A5
:10493000324A5269904207D130488068B0F5807F92
:1049400002D06FF0010070472C488068401E2B4A4F
:104950009060104600681269805C08702748006902
:10496000401C264A106110460069B0F5807F01D1D5
:10497000002010610020E6E7014621480069204A36
:104980005269904207D11E488068B0F5807F02D0FE
:104990006FF0010070471A488068401E184A906006
:1049A000104600681269805C087015480069401C58
:1049B000134A106110460069B0F5807F01D10020D4
:1049C00010610020E6E700000008014080000020A0
:1049D000880000208400002089000020004400405E
:1049E00000480040000C0140002C014070000020F5
:1049F00074000020780000207C0000208806002041
:104A0000A006002030B504460D46002308E0E0185B
:104A1000FFF78BFF002802DA4FF0FF3030BD5B1C40
:104A2000AB42F4D30020F9E730B504460D4600232D
:104A300008E0E018FFF7A0FF002802DA4FF0FF308F
:104A400030BD5B1CAB42F4D30020F9E710B5182150
:104A5000D64803F08EF8D648D4490860FFF7EDFE3B
:104A600000F052FD10BD10B51821D24803F081F8B6
:104A7000D148D0490860FFF7E6FE10BDCF4A11606B
:104A8000CF4A1060704710B50020CE490870CE495B
:104A90000870C821CD4803F06CF810BDCB49CA4A54
:104AA00012788854C8490978491CC74A11701146C0
:104AB0000978C82901DB002111707047C1480078CE
:104AC000401CC049087008460078C82801DB002057
:104AD000087070470020BC490978BA4A12789142A0
:104AE00006DBB9490978B74A1278891AC8B206E0D4
:104AF000B4490978C831B44A1278891AC8B27047E3
:104B000000B50346FFF7E6FF984204DAAE480078A6
:104B1000AC4908700CE0AB4800781844A94908700B
:104B200008460078C82803DB08460078C8380870B3
:104B300000BD02461146612904DB7A2902DCA1F19D
:104B40002000C1B2392903DDA1F13700C0B270479E
:104B5000A1F13000C0B2FAE730B505460C4600239B
:104B60002846FFF7E6FF0346F02000EA031320463D
:104B7000FFF7DFFF0343184630BD10B50024FFF7F1
:104B8000A9FF04461E2C24DB90480078422820D13F
:104B90008E4840784D281CD18C48407B8B49097B3E
:104BA00000EB01208A49088008460088502808DA6E
:104BB00040218848FBF751FD80218648FBF74BFDDB
:104BC00007E040218348FBF746FD80218148FBF741
:104BD00044FD10BD10B540F225517F48FCF76EF939
:104BE00040B17D48FCF7EAF8C4B240F225517A485A
:104BF000FCF78EF910BD10B540F225517748FCF74F
:104C00005DF958B17548FCF7D9F8C4B22046FFF7F2
:104C100045FF40F225517148FCF77AF910BD10B5F7
:104C20004FF4E130FFF73EFD10BD70B586B004468D
:104C30000D466BA00068059041F2B35669A207CA01
:104C400002AB07C31A2001900C2102A801F0A0FBBF
:104C50006420FFF77EFC2946204601F099FB0121E4
:104C600001A801F095FB06B070BD70B504460D4675
:104C700026460BE000BF40215848FCF709F9002800
:104C8000F9D016F8011B5548FCF794F82800A5F157
:104C90000105EFD170BD302804DB392802DCA0F11A
:104CA0003001C8B2412804DB5A2802DCA0F13701E8
:104CB000C8B2704710B504460B46012B03D12046FD
:104CC000FFF733FE10BD2046FFF756FEFAE7024617
:104CD0000020704738B50546002445480078042870
:104CE00002D1FFF786FC48B941480078012802D17B
:104CF0004048006810B96FF0010038BDFFF773FC41
:104D0000C8213D4802F035FF0DE06846FFF70DFE73
:104D1000801C00B908E0C82C03DA9DF80000364971
:104D20000855601CC4B2F0E700BF31480078042881
:104D300006D1C82C01DA204600E0C820286006E031
:104D40002B480078012802D12A48006828600120F9
:104D50002A4908700020D0E738B505460024FFF73F
:104D600051FC08B9A01E38BDFFF746FCC8212248F7
:104D700002F0FFFE0DE06846FFF7FEFD801C00B963
:104D800008E0C82C03DA9DF800001B490855601C98
:104D9000C4B2F0E700BFC82C01DA204600E0C8200A
:104DA00028600220154908700020DCE788060020F2
:104DB00088040020A0060020880500206C00002048
:104DC000680000208B0000208C000020B806002026
:104DD0008E000020000C01400048004000440040CC
:104DE000761FBBEB41542B43495053454E440A00B8
:104DF0005400002060000020C0020020900000202D
:104E000030B502460B4600200EE0002109E0145C9C
:104E1000C1F107052C4104F0010401EBC0055C550C
:104E2000491C0829F3DB401C0828EEDB30BD30B5F7
:104E30000346002015E0002210E002EBC0041C5DD8
:104E40002CB90C5C80251541AC430C5405E00C5C7E
:104E500080251541EDB22C430C54521C082AECDB82
:104E6000401C0828E7DB30BD30B50346002004E0D5
:104E70001C5C0D5C6C401C54401C9042F8DB30BD47
:104E800070B50546002405E0EE48005D285CEE495B
:104E90000855641C402CF7DB4022EB49284602F001
:104EA0004FFE70BD70B50546002405E0E748005D83
:104EB000285CE7490855641C402CF7DB4022E44994
:104EC000284602F03DFE70BD70B506460D46E1492C
:104ED0003046FFF795FF002405E0DF48005DDD491F
:104EE000085C2855641C382CF7DB70BD70B505468E
:104EF0000C461C222946D94802F022FE1C2094FBB5
:104F0000F0F100FB1144C4F11C06D44801193246EB
:104F1000284602F015FEA8192246D04902F010FEDC
:104F200070BD70B505460C461C222946CC4802F0DF
:104F300007FE1C2094FBF0F100FB1144C4F11C0699
:104F400028193246C64902F0FBFDC54881192246A0
:104F5000284602F0F5FD70BD2DE9F0410646884671
:104F600014461F46652F01D0452F0BD1BD48015D6A
:104F70003046FFF7BBFFBB48015D06F11C00FFF7A1
:104F8000B5FF0AE0B848015D3046FFF7CAFFB648F2
:104F9000015D06F11C00FFF7C4FF002505E0B348E2
:104FA000405D305C08F805006D1C302DF7DBBDE876
:104FB000F0810246002004E0AD4B1B5CD35C0B5437
:104FC000401C3028F8DB7047F0B502460B46002045
:104FD000002133E0471DD75D12F800C007EB4C05F8
:104FE000471CD75D4FEAC70C871CD75D0CEB870CBD
:104FF000C71CD75D0CEB470C071DD75D0CEB0706F4
:10500000062790FBF7F7DFF86CC20CEB871707EB6E
:105010000517BC5DC4F3C0075F54C4F3800C4F1C7C
:1050200003F807C0C4F3400C8F1C03F807C004F05A
:10503000010CCF1C03F807C0801D091D3028C9DBF7
:10504000F0BD70B50546002405E08B48005D285C86
:105050008A490855641C202CF7DB20228749284602
:1050600002F06EFD70BD2DE9F04106460F46154673
:10507000984683493046FFF7C3FE8148FFF700FF9B
:1050800080492846FFF720FF01242AE043462246B4
:105090007D497C48FFF760FF7C4979482030FFF765
:1050A00088FF302278497948FFF7DEFE20227449D4
:1050B0002031754802F044FD714920317348FFF7F3
:1050C00083FF6F482030FFF7BCFF20226C4901F1BD
:1050D0002000FFF7C9FE20226B49694802F030FD2D
:1050E000641C102CD2DD20226549684802F028FD9E
:1050F000202263492031624802F022FD20226349C8
:105100005F48203002F01CFD5D48FFF7CBFE3946BA
:105110005B48FFF78CFEBDE8F0812DE9F0410746C2
:105120000E4614461D46652D01D0452D13D165232D
:10513000224631463846FFF796FF642304F1080201
:1051400031463046FFF78FFF652322463146304611
:10515000FFF789FF12E06423224631463846FFF705
:1051600082FF652304F1080231463046FFF77BFFDA
:105170006423224631463046FFF775FFBDE8F081D3
:105180002DE9F05F8046894615461E46DDF828A0C9
:10519000E81DC11700EB5171C910CF004FF0000B93
:1051A000CAF80070002404E019F8040038490855D2
:1051B000641CAC42F8DB0CE0BBF1000F05D1802091
:1051C000334908554FF0010B02E0002030490855E3
:1051D000641CBC42F0DB002412E0B8F1030F07D1DD
:1051E00031192B4A101965230B9AFFF796FF06E039
:1051F0003119274A101965230B9AFFF734FF083439
:10520000BC42EADBBDE8F09F2DE9F04707460D46BA
:1052100090461E46DDF8209000240FE0032F06D1B3
:105220003119281964234A46FFF777FF05E0311941
:10523000281964234A46FFF716FF08344445EDDB7E
:10524000BDE8F087ED840008800700202D85000868
:10525000C0070020000800206D85000840080020DD
:105260005C080020D5850008E6850008A5850008B3
:10527000F78500082786000827880008780800209E
:10528000980800200809002040090020D8080020C4
:1052900070090020F8B50446002500260027FE48C6
:1052A0000568001D0668001D076833462A46FBA1F5
:1052B0002046009702F0F4FDF8BDF0B5A1B000263D
:1052C00000270025002400202090202118A802F0AB
:1052D00050FC202110A802F04CFC342103A802F05D
:1052E00048FC202118A802F044FC202110A802F05C
:1052F00040FC342103A802F03CFC18A8FFF7CAFFC9
:10530000EA481A998160BDF86C10818120A910AB20
:105310001822CDE9001018A90320FFF731FF00BFC4
:1053200000BF24E010A8005D060910A8005D00F091
:105330000F07092E03DC06F13000C6B202E006F1C9
:105340005700C6B2092F03DC07F13000C7B202E0F4
:1053500007F15700C7B22846691CCDB203A90E5405
:105360002846691CCDB203A90F54601CC4B2182C86
:10537000D8DB002400250DE003A8405DCC4908558A
:1053800003A9681C095CCA4A601C1154A01CC4B261
:10539000281DC5B2172CEFDB21B0F0BD10B50446B7
:1053A0001822C349204602F01AFC08B9002010BD9B
:1053B0004FF0FF30FBE710B504461822BC492046E9
:1053C00002F0BEFB10BD7FB588B005461C46002626
:1053D0006846FFF7F0FF5E20B6490870012048706C
:1053E0000846BDF8281041809DF82400B149487155
:1053F0009DF82500087118226946AE48801D02F00C
:105400009FFB2021684602F0B4FB34B9A948223042
:10541000002101604160018107E0A6482230216837
:1054200001606168416021890181099828B129469C
:10543000A0482C30099A02F083FB099800F12C0651
:1054400031469C48FFF7F1FB4FF40071994802F098
:1054500090FB00200CB070BD2DE9F04105460027FF
:10546000002695480078052801D0BDE8F081002489
:105470001BE0924901EB0411081D0A22294602F0A3
:10548000AEFB28B900208D4901EB04110860ECE760
:105490008A4800EB04100068B84204D9874800EB42
:1054A000041007682646601CC4B20A2CE1DB002405
:1054B00015E0824800EB0410007970B97F4800EBDA
:1054C0000410296841606968816029898181002010
:1054D0007A4901EB0411086003E0601CC4B20A2C95
:1054E000E7DB00BF0A2C0DDB744800EB06102968CF
:1054F0004160696881602989818100206F4901EBE1
:105500000611086000BFB0E710B5A0216B4802F09B
:1055100030FB10BD2DE9F04190B005460E464FF02E
:105520000008002700240FA8FFF7FFF9074616E040
:105530009DF83C005E280ED10FA8FFF7F6F9070092
:1055400004D19DF83C00012809D10BE04FF0FF3059
:1055500010B0BDE8F0810FA8FFF7E7F90746B81CC7
:105560000028E5D100BFB81C20B9FFF73CF86FF068
:105570000100EDE70EA8FFF7D8F9002805DB0DF1D3
:105580003900FFF7D2F9002802DA4FF0FF30DFE7E9
:105590000E980D900EA8FFF7C8F9002805DB0DF155
:1055A0003900FFF7C2F9002802DA4FF0FF30CFE7E9
:1055B0009DF838809DF839008DF838008DF83980D5
:1055C0000E980C90002409E006A90819FFF7ADF920
:1055D000002802DA4FF0FF30BAE7641C182CF3DB26
:1055E0006846FFF7E8FE1822694606A802F0F7FAB7
:1055F00010B14FF0FF30ABE7002408E00FA8FFF731
:1056000094F9002802DA4FF0FF30A1E7641C042C63
:10561000F4DB002408E02A490819FFF786F910B1E5
:105620004FF0FF3094E7641C0A2CF4DB002030605C
:10563000BDF83400C0287CD0B0F5D07F03D0B0F5E1
:10564000687F66D166E015B11D48007828701C4857
:105650000078012852D1052017490870FFF754FF40
:10566000002000F048FB6421042000F04EFB15A050
:1056700002F006FC40211848FAF7EDFF8021164899
:10568000FAF7E9FF4FF47A70FDF72CFA402112483F
:10569000FAF7E3FF802121E0E8F7FF1F2530387893
:1056A000253038782530387800000000910000203F
:1056B000880F0020880D002055000020A00F00203A
:1056C00040100020636F6E6E6563742073657276A0
:1056D0006572206F6B0A0000000C0140CB48FAF79E
:1056E000BCFF4FF47A70FDF7FDF94021C748FAF787
:1056F000B4FF8021C548FAF7AEFF0AE04FF47A7193
:10570000002000F002FB0220C1490870C1A002F095
:10571000B7FB28E015B1C54800782870C348007869
:1057200001280DD10020C249087040F6B83104208C
:1057300000E011E000F0E9FABEA002F0A1FB0AE0EF
:105740004FF47A71002000F0E0FA0220B0490870AE
:10575000BEA002F095FB06E0C3A002F091FBBDF8ED
:105760003000306000BF00BF0020F1E610B54FF4FC
:10577000FA61002000F0C9FA0023A0221946184659
:10578000FFF721FEFEF72FFF0420A1490870BC4857
:105790000178BCA002F074FBB94801780078401C85
:1057A000B74A10700A2904DD002011460870FAF784
:1057B000C9FC10BD1CB5B9A103C9CDE90001FFF7B3
:1057C00062F907216846FFF750FA1CBD10B50023A7
:1057D0004FF4287219461846FFF7F5FD4FF49671FD
:1057E000042000F092FA92480078401C904908701A
:1057F00008460178ABA002F043FB10BD10B58C4801
:105800000078052811DD032081490870042000F08C
:1058100072FA02207E4908704FF47A71002000F07D
:1058200074FA00208249087010BD00BFFCE710B573
:10583000A3480068022800D010BD754800780428ED
:1058400006DC002000F07BFA28B1FFF78FFF02E0B2
:1058500000208B4908706E480078052803D06C48FA
:105860000078042809D1042000F069FA08B1FFF794
:10587000ADFF94490020FFF74DFE9348FFF72AFA49
:1058800040B99149098888B2FEF7AAFD00208D49E8
:10589000086002E000208B490860FFF7AFFF00BFFF
:1058A000CAE710B58848FFF757FA20B98649098832
:1058B00088B2FEF795FD10BD70B505460E460A2468
:1058C00022468249824802F03BF90020804908556F
:1058D000601C0D54A01C0E54E41C21467C48FFF7AC
:1058E000A4F9002070BD38B57A4C1EE07A4C002037
:1058F0007A49086001211420FFF7DEFF11E07748A4
:10590000006870B16846FFF710F89DF800000228A3
:1059100003D101207249087002E004207049087028
:1059200038BD201EA4F10104E9DCDFE770B50446B0
:105930000D463E4BE12229462046FFF744FD70BD4F
:10594000F0B591B004460D461646402101A802F07C
:1059500010F9402101A802F00CF923462A4661A162
:1059600001A8009602F09CFA01A802F023F907466C
:10597000394601A8FFF7DAFF01A962A002F080FA18
:1059800011B0F0BD70B504460D46284BD022294613
:105990002046FFF718FD70BD2DE9F041A0B0044688
:1059A0000F4615468021684602F0E3F880216846DC
:1059B00002F0DFF83CB12146684602F0E5F855A157
:1059C000684602F0E1F83946684602F0DDF851A178
:1059D000684602F0D9F82946684602F0D5F86846CC
:1059E00002F0E8F886B200200DF8060069464AA0E9
:1059F00002F046FA684602F0DDF800F1010841467F
:105A00006846FFF7BFFF20B0BDE8F081000C014001
:105A100055000020636F6E6E656374207365727647
:105A20006572206661696C0A000000004010002069
:105A3000640000207265636569766520736572761F
:105A400065722073796E63206F6B0A0072656365FF
:105A5000697665207365727665722073796E63204E
:105A60006572726F720A00007265636569766520FF
:105A70007365727665722063746C20636D640A00CE
:105A8000A200002073656E642073657276657220D3
:105A90006C6F67696E5B25645D0A0000424DE20031
:105AA0000002110073656E642073796E6320746F59
:105AB000207365727665725B25645D0A00000000E4
:105AC000C000002060000020580000204788000827
:105AD000880D0020FFFF5F00FFFF05008000002011
